:020000040000FA
:1000000000800010CD0000006D5501006D5501000D
:100010006D5501006D5501006D5501006D550100D4
:100020006D5501006D5501006D5501000502000080
:100030006D550100000000006D020000A97F010065
:100040006D550100812A0000F52C00006D5501005E
:100050006D550100978F0100A18F0100818A00007A
:100060002D8D00006D550100E90F01006D55010057
:100070006D5501006D5501006D5501006D55010074
:100080006D5501006D5501006D5501006D55010064
:10009000852600006D5501006D5501006D5501006C
:1000A0006D5501006D5501006D5501006D55010044
:1000B0006D5501006D5501006D5501006D55010034
:1000C0006D5501006D5501006D55010000F002F8FD
:1000D00000F088F80AA090E8000C82448344AAF15A
:1000E0000107DA4501D100F07DF8AFF2090EBAE858
:1000F0000F0013F0010F18BFFB1A43F0010318475C
:1001000000D3010020D301000A444FF0000C10F886
:10011000013B13F0070408BF10F8014B1D1108BF85
:1001200010F8015B641E05D010F8016B641E01F825
:10013000016BF9D113F0080F1EBF10F8014BAD1C75
:100140000C1B09D16D1E58BF01F801CBFAD505E093
:1001500014F8016B01F8016B6D1EF9D59142D6D3ED
:10016000704700000023002400250026103A28BF15
:1001700078C1FBD8520728BF30C148BF0B60704719
:1001800069291AF0638464291AF0608475291AF0C9
:100190005D846F291AF0F28478291AF01B850368B0
:1001A000DB0928BF41F0800163291BF0C48073295B
:1001B0001BF0C980E3291BF0D480002070471FB5D5
:1001C0001BF02EFA9DE803001AF0FEFF1BF076F9F3
:1001D0000400002000211BF009FA401C60601FBDD4
:1001E00010B510BD1BF044F91146FFF7E8FF01F010
:1001F000F9FB1BF069F903B4FFF7F2FF03BC15F03C
:10020000F4FD0000052828BF70474FEA80007844BD
:10021000D0F802F06D02000033020000D1020000AD
:10022000F1020000110300004FF0010080F3148878
:1002300000DF0A4C4FF00105257077461AF02EFBBF
:10024000BE46074E3668074C2660D6F800D001BC83
:1002500005490860BDE8F00F704700BFD3160010D5
:10026000E4160010DC160010F81600104FF008021B
:1002700082F3118800B51AF011FB5DF804EB2DE94B
:10028000F00F0E49086801B40D4A1268C2F800D098
:100290000C4C0D4D2E7826700C4E3668084C26609E
:1002A000D6F800D001BC086000280CBF002208224C
:1002B00082F31188BDE8F00F704700BFF8160010F8
:1002C000DC160010C8160010C9160010E416001045
:1002D0000649086800F101004FF0080282F3118816
:1002E000002808BF70470860704700BFF81600106C
:1002F0000649086800281CBF01380860002818BF9C
:1003000070474FF0000282F311887047F816001012
:100310004FF0000080F3148870474FF0010080F325
:100320001488704788476FF0FF0016F0D8FC000073
:1003300010B5002016F068FAFF490860002016F09A
:1003400063FAFE490860002015F0A5FDFC4908602D
:100350000221FC4815F0EFFFFB490860002015F072
:100360009AFDFA4908601421F94815F0E4FFF949AB
:100370000860002015F08FFDF7490860002015F097
:100380008AFDF6490860002015F085FDF4490860F3
:10039000002015F080FDF3490860002015F07BFD7A
:1003A000F149086010BD2DE9F0410026002700202A
:1003B00002F01CFA002002F034FA4FF49858EB488F
:1003C000008800F47F4008F47F41884212D002F098
:1003D00079FA012002F0CAF9012002F007FA01209F
:1003E00002F01FFA012002F037FA00221146E0481D
:1003F00019F067FF002002F0B9F9002002F0F6F9C9
:10040000002002F00EFA002002F026FA002445E057
:100410000021D848015508300155D4487C30005D92
:10042000012809D1601CC2B23046711CCEB2D1493C
:100430000A5401F108000655002700252AE0002093
:10044000CC49803901EBC40148550021C9484038E6
:1004500000EBC400415504EB4400C74901EB801098
:1004600005EB450100EBC100007A00F08000802818
:100470000ED1681CC2B2BF48803800EBC4033846B6
:10048000791CCFB21A54BB48403800EBC400475522
:10049000681C85B2082DD2DB601C84B2082CB7DB47
:1004A000BDE8F0810121704700B5034603E013F871
:1004B000010BFFF7F7FF18780028F8D100BD1CB535
:1004C00001200090AD48006800226946036901A838
:1004D0009847AB490860009810B94FF0FF30019081
:1004E00001981CBD38B50546A04890F89400012835
:1004F0001AD118E06A4601219648006815F0D8FF25
:1005000004469DF8000070B920889E49C86002E04A
:10051000022016F0A5FD9B490C318C48006815F0AF
:100520008AFD0028F4D1E5E738BD00B585B0032386
:1005300000224FF400719448CDE90323CDE9010175
:10054000092300F2FC720021AFF26700009316F05D
:100550006DFB05B000BD08B500BF8C488749086039
:1005600009684868804719E01420009083480068B3
:10057000012269460369864898478149086000243A
:1005800005E08348005D83490855601CC4B20098AB
:100590008442F6DB00BF322016F062FDE4E708B5C6
:1005A00000BF0122D105002019F0C0F84FF400016E
:1005B000002019F0CFF878A011F0CDFD4FF416709F
:1005C00016F04EFD08F0EAFA08F0DBFB11F082FDB0
:1005D00073A011F0C0FD00207349488000217248CB
:1005E000007861F387107049087000216E48007828
:1005F00061F3C5006C4908705C4880696B4908600C
:1006000005F0CCFF06F023F869A011F0A4FD6A48BC
:10061000006A40F00050684908620846006A40F0ED
:10062000805008620846806B40F00050886308469E
:10063000806B40F080508863022016F011FD08F0B6
:1006400033FE5EA011F087FD06F039F906F06CF973
:1006500006F00EF95BA011F07EFD06F084F906F0BD
:10066000ABF910F063FE06F0FBF858A011F073FD33
:100670005148006A40F000504F4908620846006A3D
:1006800040F0805008620846C06B40F00050C863DC
:100690000846C06B40F08050C863022016F0E0FCB2
:1006A0000CF01FF9142016F0DBFC0BF023FF49A01F
:1006B00011F051FD06F089F90BF060FB1E4800684F
:1006C00016F069F945A011F046FD284890F8910010
:1006D000012805D113F0F5FF1848006816F05BF902
:1006E00041A011F038FD29E206F0BAF80BF0E4FB66
:1006F000012806D02C480078C0F3C20010F0010F8A
:1007000001D00BF023FF142016F0AAFC0AF01FFF03
:10071000012806D024480078C0F3C20010F0020F70
:1007200001D00BF06FFB2048407820B90F4890F8BB
:10073000910001285EE060E03000001034000010FD
:100740003C00001028000010440000104800001079
:100750008C2100104C0000105000001040000010D0
:10076000380000105400001058000010B81D001090
:10077000004002405C21001038170010600000109B
:100780005C0000106C210010DC3D00100017001010
:10079000F0450010DC4500100D0A3D3D3100000021
:1007A0000D0A3D3D3200000008000010140000104A
:1007B0000D0A3D3D3300000000C009200D0A3D3DFB
:1007C000340000000D0A3D3D350000000D0A3D3D9E
:1007D000360000000D0A3D3D370000000D0A706331
:1007E00020696E69740000000D0A496E69744F4BF0
:1007F0000000000001D113F0D4FE06F031F8FF48EC
:1008000000788009012803D1142016F029FC95E115
:100810006A461421FA48006815F0B3FB04469DF8B7
:100820000000C8BB80212068B1EB106F78D8F54874
:10083000006A40F00050F34908620846006A40F040
:10084000805008620846806B40F00050886308467C
:10085000806B40F080508863022016F001FC206815
:10086000000E802804D0812807D082283CD114E0D3
:100870002168C8B208F088FD37E0E3A011F06BFCF6
:100880000021DE48007861F38710DC490870216898
:10089000C8B208F0D8FD28E0F9E0DA48006A40F074
:1008A0000050D84908620846006A40F0805008624B
:1008B0000846C06B40F00050C8630846806B40F0AB
:1008C00080508863022016F0CBFB0021CB480078D3
:1008D00061F38710C94908702268C2F30351C2F35B
:1008E000130009F0A1FA00E000BF00BFC548006A8C
:1008F00040F00050C34908620846006A40F080504A
:1009000008620846C06B40F00050C8630846C06BE0
:1009100040F08050C863022016F0A2FBB7E0FFE76A
:100920002068000E09287DD2DFE800F0051D654231
:100930008C1E66131800B8A011F00DFC0021AF4802
:10094000007861F38710AD49087020680CF01FF83B
:100950009CE0B64988880BF048F897E0B34988884E
:100960000BF09FF892E000BF06F03FF805212068E9
:10097000B1EB106F1BD10020AD494860091DAD4897
:10098000006815F058FB9D48407801280BD19B4822
:100990000078C0F3C20020F001009849097860F3A4
:1009A000C50196480170142016F05AFB6EE000BF96
:1009B00006F023F800209E494860091D9D48006804
:1009C00015F039FB8D484078012810D103212068AB
:1009D000B1EB106F0BD189480078C0F3C20020F052
:1009E00002008649097860F3C5018448017014202B
:1009F00016F036FB4AE000BF06F007F80621206833
:100A0000B1EB106F1DD1002089494860091D89484C
:100A1000006815F010FB7948407801280DD177481F
:100A2000007800E031E0C0F3C20040F001007349FB
:100A3000097860F3C50171480170142016F010FBAD
:100A400024E000BF05F0F4FF002079494860091D4B
:100A50007848006815F0EFFA68484078012810D10E
:100A600004212068B1EB106F0BD164480078C0F30B
:100A7000C20040F002006149097860F3C5015F4897
:100A80000170142016F0ECFA00E000BF00BF6A48C5
:100A900090F89100012850D1142016F0E1FA6A462E
:100AA00014216648006815F06CFA04469DF80000B1
:100AB00078BB2068000E102822D006DC052809D05B
:100AC00006280DD00C2836D12BE011280ED0842812
:100AD00031D11FE000221146052013F0BFFC2BE0AE
:100AE00000221146062013F0B9FC25E0206820F012
:100AF0007F40206000210846226813F0B0FB1BE015
:100B0000206820F07F4020600020216813F068FBFF
:100B100012E012E013F0D5FD4948006815F03BFFE4
:100B20000AE02068C0F307452068C6B2314628466F
:100B300013F00EFD00E000BF00BF00BFD4E58CB095
:100B4000002004900390029000BF2C4948700121BE
:100B50003C48007861F303003A490870002048706F
:100B600000213848007861F30710364908700021E9
:100B70002248007861F3000020490870F0200990B5
:100B80003148D0F8548101211C48007861F382007B
:100B90001A49087000212D4819F0B2FB2C49086051
:100BA0000846006890B1244880690968B1EB400F9D
:100BB0000CD2274800682449C1F85001012001F0F7
:100BC0004BFE00221146214819F07BFB00202049F2
:100BD00008600024099001F029F91E49002002F064
:100BE000B9F8002002F093F801F084FD0548006890
:100BF00020F480000349086014202DE00800001054
:100C00004000001000C009200D0A434D445F474FCB
:100C10004F44535F4F5554000D0A434D445F434FBB
:100C2000494E5F4348414E4745000000B820001040
:100C30006C21001038000010B81D00105400001086
:100C40003400001006000010181F00100040024081
:100C5000100000107FA9030016F002FA06F0DAFA7D
:100C600006F0A5FA0AAA4FF47A61FD48006815F06B
:100C700041FEFC4890F89400012801D1FFF755FC93
:100C8000002640F6B830F8498880F848006815F02A
:100C90002FFBFEE385E1F648006810F0005F31D1DC
:100CA000022016F0DDF9F248006810F0005F28D14C
:100CB0000120F049487008460078C0F38000012800
:100CC00008D101F0B1FE0021EA48007861F382000A
:100CD000E8490870E34890F8910001280CD1E648F3
:100CE000006815F0C5F84FF0A060E449886118313C
:100CF000E148006815F09FF9012001F039FB02F08E
:100D00004AFE4EE1DB48407801281AD1FF20D9493C
:100D10004870D44890F8910001280CD1D64800685A
:100D200015F0A6F84FF0C060D44988611831D24858
:100D3000006815F080F903E04FF47A7016F090F92E
:100D4000FAE7C84890F89100012809D1049838B909
:100D50000AAA0021CA48006815F0CCFD01200490C1
:100D60000020C44948700846408880BB24B901204F
:100D70000B900B9806F084FABD4894384069C0F394
:100D8000805028BBBF48006810B3BA480078C0F351
:100D90000000012804D0B34890F88F00002817DD28
:100DA000B04890F88F30B34800930078C0F3000348
:100DB000AF4894384069C0F3805080F00101B148D9
:100DC0000268B1A011F0C7F901200290EAE05AE0F0
:100DD0000AAA0121A548006815F06AFB059005984C
:100DE00007889DF8280030B9012001F0C1FA1420CD
:100DF00016F036F9D6E00AAA0121AF48006815F0CE
:100E0000C0F80590059807889DF8280018B90120BA
:100E100001F0AEFAC6E09448408830B9204605F0AB
:100E2000ECFF04460CB1FF27BCE08F48808828B94E
:100E300040F6B8308C49888007F04EFA9148006837
:100E400080B98C480078C0F3800001280AD19B4803
:100E5000807838B99948407810F0020F02D0042009
:100E600001F0E2FD7F4890F8910001280AD107F0D7
:100E70003DFC8146B9F1EE0F01D04C4692E01420C2
:100E800016F0EEF88DE07F48006848B1FF2700219A
:100E90008B48007861F3030089490870082481E0D9
:100EA00074480078C0F38000012809D100217148FE
:100EB000007861F382006F490870012001F0B4FDF1
:100EC0008048D0F8540140450DD97E48D0F85401EF
:100ED000A0EB08007B49C1F854010846D0F85481C2
:100EE000012001F0B9FC012001F042FA40F6B830CF
:100EF0005D49888053E005F0E3FF5D48006810F02D
:100F0000005F11D1002401216D48007861F30300D6
:100F10006B4908700020487000216948007861F32F
:100F20000710674908703BE052484088F8B9002430
:100F300001216348007861F30300614908700020D3
:100F4000487000215E48007861F307105C49087022
:100F500001214848007861F3820046490870022068
:100F600001F062FD4148006815F0C2F918E03E4802
:100F7000808828B940F6B8303B49888007F0ACF942
:100F8000384890F89100012809D107F0AFFB81465D
:100F9000B9F1EE0F00D04C46142016F061F8AAE724
:100FA00000BF78E600BF17F4004F3DD00020444951
:100FB000487000214248007861F3071040490870EA
:100FC000C7F30E0BFF272F48006858442D490860CF
:100FD00028480078C0F38000012818D12148806992
:100FE000096888420AD800212248007861F382000B
:100FF00020490870012001F017FD08E02148006831
:1010000031490968884202D3032001F00DFD062C06
:1010100003D01C48006800B101241A48002102686E
:101020002A4819F04EF95AE03812002852DD3812D9
:10103000012802D002284BD101E0092449E01148DF
:10104000006858B10B480078C0F30000012804D0B4
:10105000044890F88F00002800DD082439E00000E3
:1010600030000010B81D00102000001044000010D7
:1010700094C0092008000010540000106C210010DA
:1010800034000010100000100D0A52657475724B88
:1010900065793D25642C675F416D6F756E743D25E4
:1010A000642C6861766573616C653D25642C74728F
:1010B000616E733D25640000480000100C000010B4
:1010C00006000010181F001014000010004002401D
:1010D00000BF04E03946204605F0CCFC04460298E7
:1010E000012802D1002002900824D0E326460F2CCC
:1010F00078D2DFE804F07778F8F6F5F4F3F2F1ADA2
:101100004B5A08F03C000021FF48007861F30300CF
:10111000FD49087008464078089006AA07A9089873
:1011200008F012F8012816D19DF818109DF81C003F
:1011300006F0D2F94FF4C87015F092FF0024F3487E
:10114000006815F09EF90121EF48007861F3030073
:10115000ED49087000E00B240020EB4948700021A5
:10116000E948007861F30710E749087083E300213C
:10117000E548007861F30300E349087006F047FA98
:101180004FF4C87015F06CFF0D2474E30121DE48A4
:10119000007861F30300DC49087040F6B830DC49A0
:1011A000488006F052FA044665E30021D6480078EC
:1011B00061F30300D449087006F062FB4FF4C87075
:1011C00015F04EFF0020D04948700021CE4800782D
:1011D00061F30710CC4908700A24CC48006815F068
:1011E00050F948E33FE30121C748007861F3030069
:1011F000C549087047F23050C549488006F068FB81
:10120000C4480078C0F38000012820D0C24800689C
:10121000C249096888420AD20121BE48007861F3B8
:101220008200BC490870022001F0FEFB0FE0BC48C0
:101230008069B9490968884209D90121B54800780F
:1012400061F38200B3490870062001F0EDFB12E360
:101250000021AD48007861F30300AB49087006F047
:101260007EFB4FF4C87015F0FBFE0121A648007804
:1012700061F30300A449087047F23050A449488044
:1012800006F026FBA3480078C0F38000012820D098
:10129000A1480068A149096888420AD201219D48F5
:1012A000007861F382009B490870022001F0BCFBCA
:1012B0000FE09B48806998490968884209D9012153
:1012C0009448007861F3820092490870062001F08A
:1012D000ABFB099CCFE235E2BAE162E1A5E196E120
:1012E000BDE075E0FFE700218748007861F3030067
:1012F0008549087008464078089000204870002111
:101300008148007861F307107F490870844890F89D
:10131000910001281ED106AA07A9089807F014FF1A
:101320008048006814F0A4FD9DF81C0000EB40000C
:101330007D4901EB80109DF8181001EB410130F858
:1013400031007A4908447A49886118317548006843
:1013500014F071FE6D48006815F093F806AA07A90D
:10136000089807F0F1FE012830D101216948007882
:1013700061F30000674908709DF81C0000EB400015
:10138000694901EB80109DF8181001EB410100EB59
:10139000C100007A00F07F00012801D0032416E08C
:1013A0009DF81C0000EB40005F4901EB80109DF8A8
:1013B000181001EB410100EBC10040685649096873
:1013C000884201D8042402E0052400E00B2452E204
:1013D00000214D48007861F303004B4908709DF8E7
:1013E00018109DF81C0006F0DEFA4FF4C87015F0D6
:1013F00037FE01214448007861F303004249087038
:1014000047F230504249488006F062FA414800787D
:10141000C0F38000012820D03F4800683F49096898
:1014200088420AD201213B48007861F382003949A1
:101430000870022001F0F8FA0FE039488069364957
:101440000968884209D901213248007861F3820095
:1014500030490870062001F0E7FA01240BE2002170
:101460002948007861F303002749087006F0C9FA9B
:1014700028480078C0F38000012809D100212548C0
:10148000007861F3820023490870012001F0CCFA52
:1014900000E0FEE11F4800788009022801D106F033
:1014A00044FD9DF818209DF81C10089806F0CDFA10
:1014B00004461948002102681E4818F002FF15482A
:1014C0000078C0F3400001283FD09DF81C0000EBDD
:1014D0004000154901EB80109DF8181001EB410107
:1014E00000EBC100C068401C9DF81C1001EB4101DD
:1014F0000D4A02EB81119DF8182002EB420201EB2C
:10150000C201C8600C4819E0060000104400001039
:10151000200000100800001010000010140000103F
:10152000B81D001054000010381700100000020C05
:101530006C21001000400240181F0010D0F8480134
:10154000401CFF49C1F848012AE09DF81C0000EB4F
:101550004000FC4901EB80109DF8181001EB41019F
:1015600000EBC1000069401C9DF81C1001EB41011B
:10157000F44A02EB81119DF8182002EB420201EBC4
:10158000C2010861EE48D0F84C01401CEC49C1F89A
:101590004C010021EC48007861F34100EA490870F1
:1015A00069E10121E948007861F30300E749087027
:1015B00047F23050E649488006F08AF9E248007860
:1015C000C0F38000012820D0E2480068E2490968A1
:1015D00088420AD20121DC48007861F38200DA49AE
:1015E0000870022001F020FA0FE0DC488069D94938
:1015F0000968884209D90121D348007861F3820043
:10160000D1490870062001F00FFA012433E10021CE
:10161000CE48007861F30300CC49087040F6B8303A
:10162000CB49488006F07CFB25E10121C7480078C2
:1016300061F30300C549087047F23050C44948803F
:101640009DF818109DF81C0006F094FB044612E16A
:101650000021BE48007861F30300BC4908700020F7
:10166000BF49086006F0D1FBB7480078800902281E
:1016700001D106F06FFCB4480078C0F38000012867
:1016800009D10021B048007861F38200AE490870AA
:10169000012001F0C9F906F09DFCAE480021026866
:1016A000B04818F00EFEAB48006880B3A948006847
:1016B000A349C1F85001A94890F89100012823D10D
:1016C000A64890F89600012807D10846D0F85001A6
:1016D00000EB80004000039008E0A04890F89600DE
:1016E000022803D19648D0F8500103909E48006824
:1016F00014F0BEFB039800F188509C4988611831B2
:101700009948006814F097FC06F059FD05E0FFE7E2
:101710009348006808B106F0AAFD8B480078C0F332
:101720004000012806D100218748007861F341007C
:10173000854908708E480FF013FEC82015F090FC04
:101740000D2498E000218148007861F303007F496F
:1017500008707B48D0F8540140450AD97848D0F841
:101760005401A0EB08007649C1F854010846D0F8AE
:101770005481012001F070F80020764908600025AE
:1017800005E000207A4984394855681CC5B2202DEF
:10179000F7DB002505E00021754820384155681C1D
:1017A000C5B2202DF7DB002512E04FF0000A0AE059
:1017B00000216F48643800EBC50000F80A100AF1F8
:1017C000010000F0FF0ABAF1080FF1DB681CC5B296
:1017D000082DEADB0020664984390866012000F004
:1017E000C5FF06F05BFDC82015F03AFC002401217E
:1017F0005648007861F303005449087000215248AC
:10180000007861F3000050490870002211465548E5
:1018100018F057FD4C480078C0F3800001280AD02A
:10182000022001F001F901214748007861F38200AC
:101830004549087016E04F48807840B94D484078D7
:1018400010F0020F03D0042001F0EEF80AE049483E
:10185000807838B14748407810F0020F02D1032059
:1018600001F0E2F807E001213848007861F3030055
:101870003649087000BF00BF09960CB900200990D6
:10188000012C00D104E0A64200D004B900E02DE410
:1018900000BFFFF7FFB986B000BF0121002018F09C
:1018A000C0FD354818F0F3FD18F03AFE33480068E3
:1018B0000A21B0FBF1F400BF601E0400FCD118F057
:1018C00054FE18F044FE0FF031FD18F0D5FD2C4801
:1018D000007B08B9FEF767FD18F0CEFDFEF728FD86
:1018E0007FE0032300224FF400712648CDE9032353
:1018F000CDE90101072300F2FC72C821AFF6C15007
:10190000009315F093F918F0B7FD032300224FF46C
:1019100000711D48CDE90323CDE90101052300F243
:10192000FC7200211948009315F080F918F0A4FD0D
:10193000032300224FF400711548CDE9032329E069
:10194000181F0010381700100800001006000010C3
:10195000200000101000001014000010B81D00102E
:10196000B802001000400240540000106C2100102A
:10197000F41E00100C000010002D31013017001073
:10198000601E0010DC250010DC2D00109F050000FB
:10199000DC350010CDE90101082300F2FC720021C2
:1019A0001E48009315F042F919E018F065FD1C4837
:1019B0004078FF2810D1072015F091F9052015F087
:1019C0008EF9082015F08BF9092015F088F9002010
:1019D00013494880487003E0C82015F041FBE4E754
:1019E00000BF7EE710B513F0C3FD13F08BFD01229D
:1019F000D105002017F09AFE4FF40001002017F0E7
:101A0000A9FE15F0D2FC0623064A0021AFF2791098
:101A100015F0C4F815F08CFD002010BD570500002E
:101A200008000010D8250010FA2000BF411E89B21E
:101A30000800FBD17047FB4A12680623B2FBF3F2A1
:101A40004FF47A73B2FBF3F202FB00F100BF4A1EBF
:101A50001100FCD17047F34A12680623B2FBF3F27F
:101A600002FB00F100BF4A1E1100FCD17047F0B527
:101A700006460F46F8240FB144F002040320FFF796
:101A8000DAFFE948006E40F00070E7490866084652
:101A9000806F40F0007088670846006A40F0806000
:101AA00008620846C06B40F08060C863FFF7BCFF67
:101AB000002539E014F0800F0BD0DB48006A40F0BD
:101AC0008070D94908620846806B40F08070886356
:101AD0000AE0D548006A40F08070D34908620846A1
:101AE000C06B40F08070C863FFF79EFFCE48006A6D
:101AF00040F08060CC4908620846C06B40F08060CE
:101B0000C863FFF791FFC848006A40F08060C6498B
:101B100008620846806B40F080608863FFF784FFAE
:101B20006006040E681CC5B2082DC3DB344604F001
:101B3000F004002539E014F0800F0BD0BA48006A99
:101B400040F08070B84908620846806B40F08070B1
:101B500088630AE0B448006A40F08070B2490862C5
:101B60000846C06B40F08070C863FFF75DFFAE4869
:101B7000006A40F08060AC4908620846C06B40F0E3
:101B80008060C863FFF750FFA748006A40F080609C
:101B9000A54908620846806B40F080608863FFF7C3
:101BA00043FF6006040E681CC5B2082DC3DB344633
:101BB0002007040E002539E014F0800F0BD09A485E
:101BC000006A40F08070984908620846806B40F0D7
:101BD000807088630AE09448006A40F080709249FF
:101BE00008620846C06B40F08070C863FFF71CFFB6
:101BF0008D48006A40F080608B4908620846C06BDF
:101C000040F08060C863FFF70FFF8748006A40F02C
:101C10008060854908620846806B40F08060886378
:101C2000FFF702FF6006040E681CC5B2082DC3DB77
:101C30007D48006E40F000707B4908660846C06F22
:101C400040F00070C867F0BDF0B506460F46F824B6
:101C50000FB144F002040320FFF7EDFE7248006E5E
:101C600040F00070704908660846806F40F00070D0
:101C700088670846006A40F0007008620846C06B3A
:101C800040F00070C863FFF7CFFE002539E014F084
:101C9000800F0BD06448006A40F08070624908628F
:101CA0000846806B40F0807088630AE05E48006AF6
:101CB00040F080705C4908620846C06B40F080705C
:101CC000C863FFF7B1FE5848006A40F000705649FB
:101CD00008620846C06B40F00070C863FFF7A4FEBE
:101CE0005148006A40F000704F4908620846806B16
:101CF00040F000708863FFF797FE6006040E681CD2
:101D0000C5B2082DC3DB344604F0F004002539E0E9
:101D100014F0800F0BD04448006A40F080704249B4
:101D200008620846806B40F0807088630AE03E4895
:101D3000006A40F080703C4908620846C06B40F081
:101D40008070C863FFF770FE3748006A40F000708B
:101D5000354908620846C06B40F00070C863FFF761
:101D600063FE3148006A40F000702F49086208465F
:101D7000806B40F000708863FFF756FE6006040E2B
:101D8000681CC5B2082DC3DB34462007040E0025AD
:101D900039E014F0800F0BD02348006A40F08070C7
:101DA000214908620846806B40F0807088630AE031
:101DB0001D48006A40F080701B4908620846C06BED
:101DC00040F08070C863FFF72FFE1748006A40F0AC
:101DD0000070154908620846C06B40F00070C86387
:101DE000FFF722FE1048006A40F000700E490862BA
:101DF0000846806B40F000708863FFF715FE6006B0
:101E0000040E681CC5B2082DC3DB0748006E40F005
:101E10000070054908660846C06F40F00070C8674A
:101E2000F0BD00003017001000C0092010B53024AC
:101E300000212046FFF71BFE062400212046FFF765
:101E400016FE0C2400212046FFF711FE012400217C
:101E50002046FFF70CFE022400212046FFF707FE74
:101E6000802400212046FFF702FEFF4890F89200F0
:101E700001281DD1302400212046FFF7E5FE06246D
:101E800000212046FFF7E0FE0C2400212046FFF74A
:101E9000DBFE012400212046FFF7D6FE02240021AC
:101EA0002046FFF7D1FE802400212046FFF7CCFE1C
:101EB00010BD10B5012400212046FFF7D8FDEA48E7
:101EC00090F89200012804D100BF00212046FFF7BE
:101ED000BBFE10BD2DE9F04380460D461646E24894
:101EE00090F89200012848D108F0F000802806D030
:101EF000902805D0E02807D0F0280FD109E000BFD6
:101F000047464FF0010909E008F08F074FF002093A
:101F100004E008F09F074FF0020900BF00BFB9F1CD
:101F2000010F13D100213846FFF78EFE142E00DD7D
:101F30001426002407E015F8017B01213846FFF73D
:101F400083FE601CC4B2B442F5DB2AE0B9F1020F93
:101F500027D100213846FFF78AFD142E00DD142614
:101F6000002407E015F8017B01213846FFF77FFDCB
:101F7000601CC4B2B442F5DB13E04746002138468A
:101F8000FFF775FD142E00DD1426002407E015F878
:101F9000017B01213846FFF76AFD601CC4B2B442E0
:101FA000F5DBBDE8F0832DE9F04380460D4616468B
:101FB000AD4890F8920001285CD108F0F00080282C
:101FC00006D0902805D0E02807D0F0280FD109E0EE
:101FD00000BF47464FF0010909E008F08F074FF0B6
:101FE000020904E008F09F074FF0020900BF00BF9C
:101FF000B9F1010F1DD100213846FFF725FE142E3F
:1020000000DD1426002407E015F8017B0121384685
:10201000FFF71AFE601CC4B2B442F5DB06E02027CD
:1020200001213846FFF710FE601CC4B2142CF6DB09
:102030003EE0B9F1020F3BD100213846FFF717FD12
:10204000142E00DD1426002407E015F8017B012181
:102050003846FFF70CFD601CC4B2B442F5DB06E065
:10206000202701213846FFF702FD601CC4B2142C62
:10207000F6DB1DE0474600213846FFF7F8FC142E3A
:1020800000DD1426002407E015F8017B0121384605
:10209000FFF7EDFC601CC4B2B442F5DB06E020277C
:1020A00001213846FFF7E3FC601CC4B2142CF6DBB8
:1020B000BDE8F08330B504466B4890F892000128E3
:1020C00049D134B1012C14D0022C22D0032C40D1A0
:1020D0002FE0242500212846FFF7B6FD0425002126
:1020E0002846FFF7B1FD202500212846FFF7ACFD6B
:1020F00030E0242500212846FFF7A6FD0525002114
:102100002846FFF7A1FD202500212846FFF79CFD6A
:1021100020E0242500212846FFF7A9FC0425002102
:102120002846FFF7A4FC202500212846FFF79FFC46
:1021300010E0242500212846FFF799FC0525002101
:102140002846FFF794FC202500212846FFF78FFC46
:1021500000E000BF1BE0242500212846FFF787FC94
:1021600014B1012C0CD105E0042500212846FFF70D
:102170007EFC06E0052500212846FFF778FC00E0FC
:1021800000BF00BF202500212846FFF770FC30BDAE
:102190002DE9F0410746012F01D1FF2600E000267E
:1021A0004FF0360800214046FFF761FC00BF0021D8
:1021B0004046FFF75CFC4FF0010800214046FFF766
:1021C00056FC002415E004F18001C8B20021FFF79D
:1021D0004EFC00218020FFF74AFC002505E001218C
:1021E0003046FFF744FC681CC5B2102DF7DB601CBD
:1021F000C4B2202CE7DB002415E004F18001C8B252
:102200000021FFF734FC00218820FFF730FC002577
:1022100005E001213046FFF72AFC681CC5B2102DED
:10222000F7DB601CC4B2202CE7DB4FF02008002154
:102230004046FFF71CFC0C4890F8920001284DD155
:102240004FF0360800214046FFF7FEFC00BF00219A
:102250004046FFF7F9FC4FF0010800214046FFF728
:10226000F3FC002418E00000B81D001004F1800108
:10227000C8B20021FFF7E8FC00218020FFF7E4FC52
:10228000002505E001213046FFF7DEFC681CC5B2E1
:10229000102DF7DB601CC4B2202CE7DB002415E016
:1022A00004F18001C8B20021FFF7CEFC0021882094
:1022B000FFF7CAFC002505E001213046FFF7C4FC0A
:1022C000681CC5B2102DF7DB601CC4B2202CE7DB04
:1022D0004FF0200800214046FFF7C9FBBDE8F08120
:1022E00030B50546304890F8920001281FD105F01E
:1022F000F000802806D0902805D0E02808D0F028EB
:1023000014D10CE000BF00212846FFF79DFC0DE032
:1023100005F08F0400212046FFF7A9FB06E005F039
:102320009F0400212046FFF7A2FB00BF03E000212D
:102330002846FFF79CFB30BD30B504461A4890F89C
:10234000920001280ED10F25012C04D1002128462E
:10235000FFF77AFC0BE0022C09D100212846FFF799
:1023600086FB04E00F2500212846FFF780FB30BDE7
:1023700030B504460C4890F8920001280ED10C2587
:10238000012C04D100212846FFF75EFC0BE0022C53
:1023900009D100212846FFF76AFB04E00C25002143
:1023A0002846FFF764FB30BDB81D00100146082920
:1023B00017D007DCF9B101290DD002290DD004296D
:1023C0001BD10CE010290ED020290ED040290ED0B0
:1023D000802912D10DE0002011E001200FE0022041
:1023E0000DE003200BE0042009E0052007E00620B3
:1023F00005E0072003E0102001E0202000BF00BF1F
:1024000070472DE9F04700224FF44041012017F0BA
:102410008DF901224FF47C71002017F087F9012219
:102420004FF44031104617F081F94FF47C710020D1
:1024300017F09AF94FF44031012017F095F94FF059
:10244000180900BFA9F10100C0B25FEA0009F9D183
:10245000012017F093F9C0F3813700224FF47C710B
:10246000104617F063F900224FF44031012017F0B5
:102470005DF901224FF44041104617F057F94FF42F
:102480004041012017F070F94FF0180900BFA9F181
:102490000100C0B25FEA0009F9D1012017F06EF91E
:1024A000C0F3014A002017F069F9C0F305104AEAA9
:1024B0008008032121EA0700FFF778FF04466FEA4E
:1024C0000800C0B2FFF772FF0546102C03D1102D93
:1024D00001D1FF260EE0102C01D0102D01D1FE26D7
:1024E00008E0202C01D0202D01D1FD2602E005EBD3
:1024F000C400C6B200224FF44041012017F016F983
:1025000001224FF47C71002017F010F901224FF4E2
:102510004031104617F00AF94FF47C71002017F093
:1025200023F94FF44031012017F01EF94FF018093C
:1025300000BFA9F10100C0B25FEA0009F9D130463D
:10254000BDE8F08770B57E480078012875D1FFF7A7
:1025500058FF7C490870FF2828D17B480078FF2865
:1025600003D17A480078002809DD0122910710463E
:1025700017F0DCF84FF08041012017F0F5F800204B
:1025800072490870FF20704908706E490870002079
:102590006B4908706E48006920F040706C49086112
:1025A0000846006940F08070086166E0664800787F
:1025B00064490978884260D162480078FD283DD09E
:1025C00060480078FE2839D060480078A0BB012020
:1025D0005E4908705C4800785E49886008315E4852
:1025E000006813F0CDFF0646642522E0002400E0D9
:1025F000641C42F228308442FADB0122C1061046F4
:1026000017F094F84FF08041012017F0A3F8002450
:1026100000E0641C42F228308442FADB0122C10649
:10262000104617F083F84FF08041012017F09CF816
:102630006D1E002DDADC20E000E022E04348007847
:10264000002809DD41480078FF2805DA3F48007876
:10265000401C3E49087002E000203C4908703B489D
:102660000078052809D101228107104617F05EF88D
:102670004FF08041012017F077F832480078324956
:10268000087070BD10B5022000DF14F0A6FE3048BF
:10269000006920F040702E49086101202849087027
:1026A00004202E49086014F0A6FE032000DF10BDB0
:1026B00010B52748006920F0407025490861084698
:1026C000006940F0807008612548006840F004000F
:1026D0002449C1F848014FF00000234908604FF039
:1026E0003802AFF25F014FF0240013F032F813F01C
:1026F0002CF810BD10B500224FF44041012017F016
:1027000015F801224FF47C71002017F00FF8012218
:102710004FF44031104617F009F84FF47C71002057
:1027200017F022F84FF44031012017F01DF818245B
:1027300000BF601EC0B20400FBD1FFF7B9FF10BD9F
:1027400064000010660000106700001065000010B3
:1027500000C002406C2100104400001040C10F4036
:1027600048C10F4000C00F404CC10F402DE9F0415F
:1027700007460024B74E4FF4C0654FF4047095FB34
:10278000F0F0401C0FFA80F8012F0ED100BF09E0D5
:1027900004F10A0188B2314617F0C3FF06F504764A
:1027A000601C84B24445F3DB1EE01BE0B5F5047FFA
:1027B00009DD04F10A0188B233464FF404720021A6
:1027C00017F0E6FE07E004F10A0188B23346AAB228
:1027D000002117F0DDFE601C84B2A5F5047005B27F
:1027E00006F50476002DE1DCBDE8F0812DE9F0412D
:1027F000044600BF984DA8264FF4047096FBF0F0F5
:10280000401C07B2012C04D12946092017F089FF8A
:1028100005E02B46B2B20021092017F0B9FEBDE851
:10282000F0812DE9F041044600BF8C4D0E264FF497
:10283000047096FBF0F0401C07B2012C04D129462D
:10284000072017F06EFF05E02B46B2B200210720EB
:1028500017F09EFEBDE8F08170B50446804DA826B5
:10286000012C06D17F49B1F82401294617F059FF00
:1028700007E07C49B1F824012B46B2B2002117F0E1
:1028800087FE7848B0F82411B0F82401401C754A3E
:10289000A2F82401B1F57A6F03DD14201146A1F8E6
:1028A0002401704D4FF4AE76012C04D12946082046
:1028B00017F037FF05E02B46B2B20021082017F0D1
:1028C00067FE70BD30B5644A002004E0002302F8C2
:1028D000013B431C98B2A828F8D3624A002004E0C8
:1028E000002302F8013B431C98B2B0F5AE7FF7D34A
:1028F000584A002004E0002302F8013B431C98B230
:10290000B0F5C06FF7D3002044E00124524B7C3374
:102910001C54102408331C54431CDCB2524B1C546E
:10292000431CDCB2504B08331C5400212EE083239F
:1029300000EB4004474D05EB841401EB410504EB2B
:10294000C5042372002300EB4004424D05EB8414C0
:1029500001EB410504EBC5046372642300EB400402
:102960003C4D05EB841401EB410504EBC5046360A9
:102970004B1C3D4C803C04EBC0046354DCB23A4B2E
:10298000403B03EBC0035C544B1C99B20829CEDBDF
:10299000431C98B20828B8DB4FF498532E4C238080
:1029A0004FF4B8536380314B6360314BC4F8A430AB
:1029B00014232C4CA4F824316424274B9C64322328
:1029C000254CE3636424244B1C6400245C649C64F5
:1029D0006423214CE3654FF4FA741F4B1C666400BA
:1029E0005C6664009C6632231B4CE36064241A4BD3
:1029F0001C614FF4FA63184CA3616423E361012363
:102A000084F88C30022384F89630012384F88E30C9
:102A1000002384F88F30012384F89330022384F854
:102A2000943084F8953030BD38B5044611480068BC
:102A300013F01EFA2006104908601048006813F0D1
:102A4000FAFA6A464FF4C8610A48006813F099FA26
:102A500038BD000038170010B81D0010601E0010AF
:102A6000701E0010181F00105C21001040E20100D1
:102A70009D71FD04380000106C2100104000001012
:102A800010B5022000DF14F0A8FC01204FF0402117
:102A90000860FFF757FDC54890F89400012801D160
:102AA00008F02AFCC2480088002804DDC0480088DD
:102AB000401EBF490880BE484088002804DDBC484D
:102AC0004088401EBA494880B9488088002804DD03
:102AD000B7488088401EB6498880B648B0F80C02D6
:102AE000002806DDB348B0F80C02401EB149A1F839
:102AF0000C02B048B0F80E02002806DDAD48B0F870
:102B00000E02401EAB49A1F80E02AB48B0F8060217
:102B1000002806DDA848B0F80602401EA649A1F824
:102B20000602A548B0F80802002806DDA248B0F861
:102B30000802401EA049A1F808029F48B0F80A0206
:102B4000002806DD9C48B0F80A02401E9A49A1F808
:102B50000A029948B0F80C02002806DD9648B0F841
:102B60000C02401E9449A1F80C029248B0F80C02E5
:102B7000002806DD8F48B0F80C02401E8D49A1F8F0
:102B80000C028C48B0F80E02002806DD8948B0F827
:102B90000E02401E8749A1F80E028748B0F82002B5
:102BA000401C8549A1F8200284480078401C8349D4
:102BB00008700846007864287EDB002008707D4895
:102BC000B0F81002002806DD7A48B0F81002401E66
:102BD0007849A1F810027748B0F81202002806DD03
:102BE0007448B0F81202401E7249A1F812027248ED
:102BF000B0F80E02002806DD6F48B0F80E02401E45
:102C00006D49A1F80E026C48B0F81002002806DDEC
:102C10006948B0F81002401E6749A1F810026648E2
:102C2000B0F81202002806DD6348B0F81202401E18
:102C30006149A1F812026048B0F85803002806DD87
:102C40005D48B0F85803401E5B49A1F858035A4844
:102C5000B0F85C0330B15848B0F85C03401E5649E8
:102C6000A1F85C03544890F8140210F0010F06D04C
:102C70005148B0F81602401C4F49A1F816024E48C0
:102C8000B0F81802401C4C49A1F81802084690F808
:102C9000140210F0040F05D00846B0F81A02401CC8
:102CA000A1F81A02444890F8140210F0080F08D056
:102CB0004148B0F81C0200E017E0401C3E49A1F872
:102CC0001C023D4890F8140210F0100F06D03A484C
:102CD000B0F81E02401C3849A1F81E023648B0F870
:102CE0006603401C3449A1F8660314F084FB0320FA
:102CF00000DF10BD10B5022000DF14F06EFB0120D4
:102D00002F49086014F077FB032000DF10BD20B9C5
:102D100001214FF04022516002E00121284A516018
:102D2000704720B900214FF04022516002E000219D
:102D3000234A51607047014631B94FF04022506834
:102D400040F00200506004E01D4A506840F002006C
:102D50005060704770B505460C4600201749087052
:102D600085B94FF04020846103204FF04021486135
:102D70003822AFF2F321112012F0EBFC12F0E5FC47
:102D8000012070BD012D0ED10D48846103200C4936
:102D900048613822AFF2A301122012F0DAFC12F0DF
:102DA000D4FC0020EDE70120EBE70000B81D001087
:102DB00020000010A0480010D44B00106800001044
:102DC0000080004070B505460C4634B9042005F07B
:102DD00026FF284605F049FF06E0032005F01FFF07
:102DE000284605F042FF00BF00BF05F037FF70BD69
:102DF0002DE9F05F07460D46904605F083FF05F08C
:102E000006FF4FF0000A2FE04FF0000B00260121D3
:102E10003846FFF7D7FFF019C6B2002408E0285D56
:102E20000021FFF7CFFF285D3044C6B2601CC4B25A
:102E30004445F4DB00213046FFF7C4FF282014F09E
:102E40000FF924211A4805F02AFF814605F0D9FE22
:102E50008346BBF1000F00D109E0142014F000F903
:102E60000AF1010000F0FF0ABAF1080FCCDB00BF45
:102E7000BBF1000F01D0584601E0A9F10100C0B23A
:102E8000BDE8F09F0246242900DD2421002004E053
:102E9000074B1B5C1354431CD8B28842F8DB7047C5
:102EA0000146242901DD012070470020FCE70000D5
:102EB0000446001070B50446092C14DD0020FF49BB
:102EC0000860FF490870FF4804700020FD49487001
:102ED000084617F09FFFC5B22A46FA49FA4800781B
:102EE000FEF7F8FF11E0F749F54A127888182246F4
:102EF000F6A117F031FDF34817F08CFFC5B22A4652
:102F0000F049F1480078FEF7E5FF70BD70B5044662
:102F10000B2C18DD0020E94908600024E8490870FE
:102F2000EBA1E84817F052FFE64817F073FFC5B26F
:102F30002A46E449E4480078FEF7CCFFE2480078EE
:102F4000FFF7CEF9E7E00B2C61D1DD4800780028CF
:102F500059DDE248007801280DD10020DF490870D2
:102F6000D64800680A21B0FBF1F000EB8000400079
:102F7000D249086025E0DA48007801280BD100200A
:102F8000D7490870CD4800686421B0FBF1F0484390
:102F9000CA49086015E0D348007801280AD100200A
:102FA000D0490870C54800686421B0FBF1F0C349FE
:102FB000086006E0C14800680A21B0FBF1F0BF4993
:102FC0000860BF490A780978491EBD4B1970BD4990
:102FD0001144481EC4A117F0BFFCBA4817F01AFFED
:102FE000C5B22A46B749B8480078FEF773FFB4491E
:102FF0000D7805EBD571B44A127802EB6101C8B2C5
:10300000FFF76EF987E00020B849087083E0AC480C
:103010000078B749097888427DDA0A2C24D1B14872
:10302000007808BBB348007801281DD1AD4908706D
:103030000020AB490870A9490870A1490A780978AD
:10304000491C9F4B19709F495018ABA2ABA117F0B8
:1030500083FC9C4817F0DEFEC5B22A4699499A487F
:103060000078FEF737FF56E00A2C54DA01209F491A
:1030700008709C48007801281FD1994800780128E1
:103080000DD196480078012800D170BD01209349E8
:1030900008708A48006820448849086015E00120CB
:1030A0008F490870854800686421484304EB840117
:1030B00000EB41008149086007E08048006800EBB0
:1030C000800004EB40007D4908608D48007860B1C5
:1030D0007B490A780978491C794B1970794950184D
:1030E00088A286A117F038FC0BE075490A780978A8
:1030F000491C734B197073495018224673A117F07D
:103100002BFC704817F086FEC5B22A466D496E4802
:103110000078FEF7DFFE00BFB7E72DE9F04788B083
:10312000054600208DF80C00FEF7C3FE4FF00408A2
:10313000C8F108097448405D401E46B2002486E08C
:103140007148803800EBC600005DC8B36E48803817
:1031500000EBC600005D401E47B206EB46006B491F
:1031600001EB801007EB470100EBC100007A8028DB
:103170000CD16748017A674850F821300093631CEE
:103180006A1C65A101A817F0E7FB5AE006EB4600B0
:103190005E4901EB801007EB470100EBC100007AAC
:1031A00082280ED15A48017A5A48083850F82130FE
:1031B0000093631C6A1C58A101A817F0CDFB40E0E6
:1031C00043E006EB4600514901EB801007EB470155
:1031D00000EBC100007A83280DD14D48017A4D489B
:1031E000383050F821300093631C6A1C4AA101A8B2
:1031F00017F0B2FB25E006EB4600444901EB8010D6
:1032000007EB470100EBC100407A68B94048017AFA
:103210004048383050F821300093631C6A1C3EA1AE
:1032200001A817F099FB0CE03948017A39481038A9
:1032300050F821300093631C6A1C37A101A817F0D5
:103240008BFB01A903A817F004FE601CC4B244451F
:10325000FFF676AF03A817F0DDFD00F0FF0A524637
:1032600003A98020FEF736FE00208DF80C00B9F18E
:10327000000F76DD0424BEE02348803800EBC60052
:10328000005DD0B12048803800EBC600005D401ED4
:1032900047B206EB46001D4901EB801007EB4701E2
:1032A00000EBC100007A802841D11948017A194801
:1032B00050F821300093631C32E09AE0D4000010F3
:1032C000D00000103E460010CF000010257800000E
:1032D000202020202020202000000000AE00001030
:1032E000AD000010AC00001020000000D80000105D
:1032F000A8000010AB0000102E0000002573000095
:10330000AA0000102A0000005C21001038170010ED
:10331000B81D001098150010256425642573000061
:103320006A1CAFF20C0101A817F016FB5DE006EB7A
:103330004600FF4901EB801007EB470100EBC1009D
:10334000007A82280ED1FB48017AFB4850F82130E0
:103350000093631C6A1CAFF2400101A817F0FCFA4D
:1033600043E057E006EB4600F14901EB801007EB24
:10337000470100EBC100007A83280ED1ED48017AA5
:10338000ED48403050F821300093631C6A1CAFF2C6
:10339000780101A817F0E0FA27E006EB4600E449BF
:1033A00001EB801007EB470100EBC100407A70B9D8
:1033B000E048017AE048403050F821300093631C27
:1033C0006A1CAFF2AC0101A817F0C6FA0DE0D948AB
:1033D000017AD948083850F821300093631C6A1CE0
:1033E000AFF2CC0101A817F0B7FA01A903A817F0B2
:1033F00030FD601CC4B209F104008442FFF63CAF0A
:1034000003A817F007FD00F0FF0A524603A9902019
:10341000FEF760FDC74890F8920001287ED1681C35
:10342000C5B200208DF80C004FF00408C8F108095F
:10343000C248405D401E46B200248DE0BF4880383F
:1034400000EBC600005DD8B3BC48803800EBC60076
:10345000005D401E47B206EB4600B54901EB801007
:1034600007EB470100EBC100007A80280ED1B1487C
:10347000017AB148083050F821300093631C6A1C6F
:10348000AFF26C1101A817F067FA5FE006EB460097
:10349000A74901EB801007EB470100EBC100007A60
:1034A00082280ED1A348017AA34850F82130009316
:1034B000631C6A1CAFF2A01101A817F04DFA45E099
:1034C00048E006EB46009A4901EB801007EB470104
:1034D00000EBC100007A83280ED19648017A964805
:1034E000403050F821300093631C6A1CAFF2D811B1
:1034F00001A817F031FA29E006EB46008C4901EBF0
:10350000801007EB470100EBC100407A80B9894881
:10351000017A8948403050F8213000E0A9E000935A
:10352000631C6A1CAFF2102101A817F015FA0DE018
:103530008048017A8048083850F821300093631C95
:103540006A1CAFF22C2101A817F006FA01A903A802
:1035500017F07FFC601CC4B24445FFF66FAF03A8B0
:1035600017F058FC00F0FF0A524603A9E020FEF7CE
:10357000B1FC00208DF80C00B9F1000F79DD0424B6
:103580008CE06E48803800EBC600005DD8B36B4815
:10359000803800EBC600005D401E47B206EB4600D7
:1035A000634901EB801007EB470100EBC100007A93
:1035B00080280ED15F48017A5F48083050F82130EA
:1035C0000093631C6A1CAFF2B02101A817F0C4F984
:1035D0005EE006EB4600564901EB801007EB470121
:1035E00000EBC100007A82280ED15248017A52487D
:1035F00050F821300093631C6A1CAFF2E42101A84B
:1036000017F0AAF944E047E006EB4600484901EB11
:10361000801007EB470100EBC100007A83280ED130
:103620004448017A4448403050F821300093631CEC
:103630006A1CAFF21C3101A817F08EF928E006EBE6
:1036400046003B4901EB801007EB470100EBC1004E
:10365000407A78B93748017A3748403050F82130FD
:103660000093631C6A1CAFF2503101A817F074F983
:103670000EE022E02F48017A2F48083850F8213018
:103680000093631C6A1CAFF2703101A817F064F953
:1036900001A903A817F0DDFB601CC4B209F1040006
:1036A0008442FFF66EAF03A817F0B4FB00F0FF0AE8
:1036B000524603A9F020FEF70DFC012008B0BDE83A
:1036C000F0872DE9F04788B0074600208DF80C0000
:1036D000FEF7EFFB4FF00408C8F108091748C05D7A
:1036E000401E44B2002581E01448803800EBC4003D
:1036F000405D28B31148803800EBC400405D401E97
:1037000046B234E004EB4400094901EB801006EBBB
:10371000460100EBC100007D002818DD0548017A54
:103720000548083050F8213000936B1C7A1C08E0E3
:1037300038170010B81D0010901500105C21001003
:1037400052E0AFF22C4101A817F006F910E0082E64
:1037500007D0F84800EBC4023046711C4EB2105C32
:1037600028B90026601C44B2082C00D100E0C9E74B
:1037700000BF29E004EB4400EF4901EB801006EBA9
:10378000460100EBC100007D00280DDDEB48017A09
:10379000EB4850F8213000936B1C7A1CAFF2884143
:1037A00001A817F0D9F810E0082E07D0E14800EB87
:1037B000C4023046711C4EB2105C28B90026601C51
:1037C00044B2082C00D100E0D4E700BF01A903A84F
:1037D00017F03FFB03A817F01DFB00F0FF0A52464D
:1037E00003A99020FEF776FB681CC5B24545FFF69D
:1037F0007BAF03A817F00EFB00F0FF0A524603A9A7
:103800008020FEF767FB00208DF80C00B9F1000F57
:1038100077DD04258AE0C74800EBC400405DD0B3E3
:10382000C44800EBC400405D401E46B204EB4400B7
:10383000C14901EB801006EB460100EBC100007AA4
:1038400080280DD1BD48017ABD4850F82130009341
:103850006B1C7A1CAFF2405101A817F07DF85FE0B5
:1038600004EB4400B44901EB801006EB460100EB89
:10387000C100007A82280FD1B048017AB0480838D8
:1038800050F8213000936B1C7A1CAFF2745101A8E0
:1038900017F062F844E047E004EB4400A64901EB6E
:1038A000801006EB460100EBC100007A83280ED1A0
:1038B000A248017AA248383050F8213000936B1C9E
:1038C0007A1CAFF2AC5101A817F046F828E004EBDF
:1038D0004400994901EB801006EB460100EBC10062
:1038E000407A78B99548017A9548383050F82130B7
:1038F00000936B1C7A1CAFF2E05101A817F02CF872
:103900000EE022E08D48017A8D48103850F82130C1
:1039100000936B1C7A1CAFF2006101A817F01CF831
:1039200001A903A817F095FA681CC5B209F10400B3
:103930008542FFF670AF03A817F06CFA00F0FF0A9B
:10394000524603A99020FEF7C5FA012008B0BDE851
:10395000F087704710B5044600207A490860FFF7E9
:10396000F8FF0020FEF7A6FB072277A17848007831
:10397000FEF7B0FA00207749087075480078FEF726
:10398000AFFC0120FEF7D8FC00207349087001202D
:103990007249087010BDF8B500254C2070490860C8
:1039A0007049086002200CF0C9FA002065490860DF
:1039B000694908706C49087008206C49087000203B
:1039C0006B49087001206B49087000206A49087033
:1039D0006A4908700CF026FF10E36A460021684827
:1039E000006812F065FD04469DF80000F0BB6048D9
:1039F000007801287DD12078082855D006DC76D2C1
:103A0000DFE800F03E1F1770626C661B0D283FD088
:103A100008DC092844D00A2852D00B284CD00C28A6
:103A200065D131E00E2837D00F2841D0FF285ED174
:103A30005CE02F20FFF73EFA5AE01820FFF73AFA31
:103A400056E04748006800EB80004E4901EB8000DB
:103A5000C088A0F54071E7390ED04148006800EBFE
:103A60008000484901EB8000C08800E0C6E23C4984
:103A7000086001200CF062FA00203D49087037E030
:103A80001920FFF717FA33E00120FFF713FA2FE0B0
:103A90000220FFF70FFA2BE00320FFF70BFA27E0D5
:103AA0000420FFF707FA23E00520FFF703FA1FE0E1
:103AB0000620FFF7FFF91BE00720FFF7FBF917E0EF
:103AC0000820FFF7F7F913E00920FFF7F3F90FE0FB
:103AD0000020FFF7EFF90BE00BE008E02E20FFF7E6
:103AE000E9F905E02120FFF7E5F901E000E000BF7A
:103AF00084E21F48007802287DD1207810286ED2F9
:103B0000DFE800F05744086D766D770972717574BF
:103B10006E6F70736EE01C480078002808DD1A484C
:103B20000078401E1849087008460078FFF7F5FA3B
:103B300060E00000DC20001038170010B81D0010F5
:103B400098150010D40000102020202020202000F4
:103B5000CF000010AC000010D8000010CE00001004
:103B6000C0000010BC000010D0000010A800001021
:103B7000CD000010AB000010AA0000109C00001047
:103B800044000010880900109B0000100020FF492D
:103B90000870FF48006800EB8000FE4901EB8000E0
:103BA000C088A0F54071E73902D001200CF0C6F9B9
:103BB00020E0F948007807280EDAF848F649097835
:103BC000491C405C40B1F4480078401CF249087040
:103BD00008460078FFF7A1FA0CE00CE0FFE700BF11
:103BE00000BF00BF00BF00BF00BF00BF00BF00BFDD
:103BF00000BF00BF02E2EA480078F0B30120E949C3
:103C00000870207808287ED006DC7DD2DFE800F03E
:103C1000A164179DC2CAC6630D2876D008DC0928A6
:103C200074D00A2873D00B2872D00C286CD191E084
:103C30000E286ED00F286DD0FF2865D1B6E0D4488D
:103C4000006800EB8000D34901EB8000C068D649D2
:103C50000860084600688047012824D1CC480068E5
:103C600000EB8000CB4901EB80008088A0F540711B
:103C7000E7390FD0C648006800E09AE0CB490860F9
:103C8000C348006800EB8000C24901EB80008088D7
:103C9000BF49086002200CF051F90020C4490860B7
:103CA000C449087016E0C4A1C54817F08FF8C4488D
:103CB00017F0B0F8C6B23246C149C2480078FEF7E4
:103CC00009F9322013F0CCF90C20FFF71FF900207E
:103CD000B84908706CE06BE0BB48007850BBAC485A
:103CE000006800EB8000AB4901EB800040880128B0
:103CF00008D1A748006800EB800001EB8000C08875
:103D0000A349086007E035E051E027E02EE03DE000
:103D100038E027E032E00120FEF72AFB0820AB491B
:103D2000087000209E490870A949087001200CF015
:103D300005F909E00020A44908709D4908609D49E3
:103D400008700C20FFF7E2F832E00B20FFF7DEF8F6
:103D50002EE02DE00120FFF7D9F829E00220FFF73F
:103D6000D5F825E00320FFF7D1F821E00420FFF784
:103D7000CDF81DE00520FFF7C9F819E00620FFF790
:103D8000C5F815E00720FFF7C1F811E00820FFF79C
:103D9000BDF80DE00920FFF7B9F809E00020FFF7B2
:103DA000B5F805E00A20FFF7B1F801E000E000BF38
:103DB00021E1207809287ED007DC7DD2DFE800F001
:103DC000C366167CE57CE446E3000D2875D006DC6E
:103DD0000A2873D00B2872D00C286DD1FEE00E2873
:103DE0006ED00F286DD0FF2866D101E168480068C9
:103DF00000EB8000674901EB8000C0686A490860F9
:103E000008460068804701281CD16148006800EB23
:103E10008000604901EB80008088A0F54071E7399F
:103E200010D05B480068614908605948006800EBA1
:103E30008000584901EB80008088554908600220C5
:103E40000CF07CF800205A490860D3E05048006824
:103E500000EB80004F4901EB80004089A0F54071E4
:103E6000E73912D04A480068A0F54071E7390CD014
:103E70004748006800EB8000464901EB800040891C
:103E80004349086007200CF059F8B3E04048006847
:103E900000EB80003F4901EB8000C088A0F5407135
:103EA000E73915D03A48006800EB8000394901EB4A
:103EB0008000C08806E094E09BE090E095E093E00D
:103EC0008EE090E03249086001200CF037F839E0CC
:103ED0000120FEF74BFC0120FEF788FC0120FEF7D5
:103EE000BBFCFDF7E6FF3B4890F89200012811D19A
:103EF00038490A7A384951F8220016F08BFFC6B2C9
:103F00003448027A344850F8221032469020FDF7A7
:103F1000E1FF10E02F490A7A2F4951F8220016F0EC
:103F200079FFC6B22B48027A2B4850F8221032464D
:103F30008020FDF7CFFFC82013F092F80125002064
:103F40001849087056E01248006800EB80001149DB
:103F500001EB80000089A0F54071E73912D00C48D0
:103F60000068A0F54071E7390CD00948006800EB03
:103F70008000084901EB80000089054908600020A5
:103F80000BF0DCFF36E02DE031E02FE0CD0000103B
:103F9000C0000010880900109B0000105C21001078
:103FA000CE000010AF000010B0000010BC000010E8
:103FB000D4000010D0000010452020200000000098
:103FC0003E460010CF000010D8000010A8000010DE
:103FD000AA000010B81D00107015001000BF00BF2F
:103FE00000BF00BF00BF00BF00BF00BF00BF00BFD9
:103FF00000E000BF00BF012D00D100E0EDE400BFF4
:10400000F8BD2DE9F84304466420B4FBF0F100FB51
:104010001140C5B2FA4890F8960020B92246F9A19D
:10402000F94816F099FCF64890F8960001280CD152
:104030000A20B4FBF0F100FB1146B4FBF0F7334665
:104040003A46F2A1F04816F087FCED4890F8960049
:10405000022810D10A2095FBF0F100FB115695FBC8
:10406000F0F76420B4FBF0F83B464246E9A1E6488D
:10407000009616F071FCE448BDE8F88310B5E748F7
:10408000006808B9002010BDDD48D0F8A400E3495D
:104090000968884209D10020E1490870E1490870A7
:1040A0000120FEF765F90120EDE70120FEF760F938
:1040B000D349097ADC4A52F8210016F0ABFEC4B2AB
:1040C000CF48007AD84A52F8201022469020FDF7B7
:1040D00001FFC82012F0C4FF02200BF02FFF0020C8
:1040E000D1E710B5CD48006808B9002010BDC4481C
:1040F0004068CA490968884209D10020C849087047
:10410000C84908700120FEF733F90120EEE70120CD
:10411000FEF72EF9BA49097AC34A52F8210016F07F
:1041200079FEC4B2B648007ABF4A52F8201022463F
:104130009020FDF7CFFEC82012F092FF02200BF076
:10414000FDFE0020D2E70120AD4908727047002033
:10415000AB49087201207047012070472DE9FC41EE
:104160000027AE48006810B90020BDE8FC81AB48CC
:104170000068AE490870AE4AAE49A8480068C0B2AF
:1041800004F0E2FF18B90020AB490870EDE7002405
:104190001DE0002617E004EB840006EB40000B3026
:1041A000C5B26A4601A9284604F0CEFF012808D10D
:1041B0009E480078854202D0781CC7B201E09F4833
:1041C0000770701CC6B2082EE5DB601CC4B2082C58
:1041D000DFDB0120FEF7CCF80020914908700120B8
:1041E000974908700820974908700120BDE72DE91C
:1041F000F84304468E4A8F49204604F0A5FF012863
:104200006DD1FEF7B5F8A4F1FE468F4806608F48E1
:10421000006811F02DFE8C498D48006811F00BFFED
:104220007748027A8B4850F822102246764816F0DA
:1042300093FB754816F0EEFD00F0FF084246724908
:104240008020FDF747FE6A464FF47A617F48006898
:1042500011F097FE07463868C5B225F08005FDF7D6
:1042600028FE9DF80000C8BB15F05C0F38D06448EC
:10427000027A7848483050F822102246624816F0F8
:104280006BFB614816F0C6FD00F0FF0842465E4930
:104290008020FDF71FFE7048007801281DD1654879
:1042A000007800EB40006D4901EB8010604909780F
:1042B00001EB410100EBC100007D401CC1B25D4833
:1042C000007800EB4000654A02EB8010584A1278F3
:1042D00002EB420200EBC200017563E02DE064E0F6
:1042E00015F0220F14D04648027A5A48583050F838
:1042F00022102246444816F02FFB434816F08AFD50
:1043000000F0FF08424640498020FDF7E3FD49E008
:104310003B48027A4F48503050F8221022463A4823
:1043200016F01AFB384816F075FD00F0FF084246FB
:1043300035498020FDF7CEFD34E031490A7A454900
:10434000103151F8220016F065FD00F0FF082C48EE
:10435000027A4048103050F8221042468020FDF783
:10436000B9FD3D48007801281CD13248007800EBA7
:1043700040003A4901EB80102D49097801EB4101D9
:1043800000EBC100007D401C2A49097801EB410186
:10439000324A02EB8111264A127802EB420201EB0B
:1043A000C20108750120FDF7E3FF14222CA1902023
:1043B000FDF790FDBDE8F8832DE9F8431748006844
:1043C000632878D100202C498872002412E000254F
:1043D0000CE0002004EB4401204A02EB811105EBC4
:1043E000450201EBC2010875681CC5B2082DF0DB5F
:1043F000601CC4B2082CEADB01201749087086E073
:10440000B81D0010256400002846001025642E25E4
:104410006400000025642E2564256400D40000108B
:10442000CE000010AA000010700000109A000010CA
:104430009D0000109B000010D80000109E0000108E
:10444000AB000010A80000106C2100103800001014
:1044500040000010581500106C00001038170010B4
:10446000202020202020202020202020202020204C
:104470002020202000000000601E0010FF48807AED
:10448000401CFE49887200243FE0002539E004EB1F
:10449000840005EB40000B3000F0FF084046FFF7BA
:1044A000A6FEF74AF749404604F04EFE012803D124
:1044B0004FF4C87902E02BE04FF001096A46494603
:1044C000F148006811F0F4FF064637889DF80000B7
:1044D000A8B9022F01D0012F11D10120FDF748FF0B
:1044E0000020EA490870EA490870EA4890F891000B
:1044F000012801D10FF031F80120BDE8F883681CD4
:10450000C5B2082DC3DB601CC4B2082CBDDBB5E707
:10451000E1480068E1490870D94ADA49DF48007883
:1045200004F012FE18B90020DD490870E5E7DB4809
:104530000078FFF75CFE4FF4C87012F091FD012087
:10454000FDF716FF0020D1490870CF48006811F030
:10455000CFFED04890F89100012801D10EF0FDFF68
:104560000120CAE710B50220CE4908700020C549D5
:10457000087008460078FFF7A4F8012010BD014636
:10458000C44A92F8962012B96422B1FBF2F0C14AF3
:1045900092F89620012A02D10A22B1FBF2F0BD4A1C
:1045A00092F89620022A00D10846704710B50024E0
:1045B000B6480078A0B30120FDF7DAFE0820BA491A
:1045C00008700020B1490870AE48007800EB400048
:1045D000B64901EB8010AA49097801EB410100EBD3
:1045E000C1004468AB4890F89100012807D12246E9
:1045F000A9480168AE48007810F076FA17E0A6489E
:104600000068A049097801EB4101A84A02EB811139
:104610009B4A127802EB420201EBC201486006E0BD
:10462000FFE70520A04908700720FFF793F9012054
:1046300010BD70B50024002594480078F0B396486A
:10464000006803287ED88F48007800EB4000974927
:1046500001EB80108A49097801EB410100EBC100B0
:10466000007A00F080008749097801EB41018F4A08
:1046700002EB8111824A127802EB420201EBC20185
:1046800008728048007800EB4000884901EB8010F8
:104690007B49097801EB410100EBC100007A7E49BA
:1046A000096801F0030108437649097801EB4101EB
:1046B0007E4A02EB8111724A127800E0FEE002EBC2
:1046C000420201EBC20108726E48007800EB400024
:1046D000764901EB80106A49097801EB410100EB52
:1046E000C100007A10F0030F23D06648007800EB79
:1046F00040006E4901EB80106149097801EB4101EE
:1047000000EBC100007A00F00300022811D05D48E0
:10471000007800EB4000654901EB801058490978AA
:1047200001EB410100EBC100007A00F00300032817
:104730001FD101245348007800EB40005B4901EB96
:10474000801000E0B6E04E49097801EB410100EB32
:10475000C100457A00204B49097801EB4101534AD9
:1047600002EB8111464A127802EB420201EBC201D0
:1047700048724448007800EB40004C4901EB80103F
:104780003F49097801EB410100EBC100007A00F0DC
:10479000030001284AD13B48007800EB4000434920
:1047A00001EB80103649097801EB410100EBC100B3
:1047B000407AD8BB3348007800EB40003B4901EB1E
:1047C00080102F49097801EB410100EBC100007A0C
:1047D00000F080002B49097801EB4101334A02EBDC
:1047E0008111274A127802EB420201EBC2010872E2
:1047F0002448007800EB40002C4901EB8010204950
:10480000097801EB410100EBC100007A40F00300A0
:104810001C49097801EB4101244A02EB8111184A35
:10482000127802EB420201EBC2010872194890F8BB
:104830009100012817D1012C13D11248007800EB08
:1048400040001A4A02EB80100D4A127802EB420235
:1048500000EBC200417A01232A46154800780FF088
:104860008BFF0EF07AFE0120FDF782FD08200E4935
:10487000087000200549087026E00000601E001046
:104880009D0000109B00001044000010CE0000109E
:104890006C000010B81D0010D40000109A00001029
:1048A000D8000010CD000010A8000010381700102C
:1048B0009E0000100020FF49087070BD0120FE49D5
:1048C00008700720FFF746F80120F6E770B50024CE
:1048D000FA480078F0B3FA480068102866D801203A
:1048E000FDF746FD0820F44908700020F3490870E0
:1048F000F448007800EB4000F34901EB8010F349E5
:10490000097801EB410100EBC100447AF04890F8CE
:10491000910001287ED10123E2B2E9480068C1B2CA
:10492000EC4800780FF028FFF0B3E648007800EB81
:104930004000E54901EB8010E449097801EB4101B1
:1049400000EBC100407A80BBDE48007800EB4000FD
:10495000DD4900E044E201EB8010DC49097801EB1D
:10496000410100EBC100007A00F00300012840D1B2
:10497000D448007800EB4000D34901EB8010D349C4
:10498000097801EB410100EBC100007A00F08000E2
:10499000CC49097801EB4101CB4A02EB8111CB4AAA
:1049A000127802EB420202E004E222E014E201EBA0
:1049B000C2010872C348007800EB4000C24901EB15
:1049C0008010C249097801EB410100EBC100007A77
:1049D00040F00300BB49097801EB4101BA4A02EB00
:1049E0008111BA4A127802EB420201EBC20108724D
:1049F00060E0B448007800EB4000B34901EB801060
:104A0000B249097801EB410100EBC100407AE8B3FB
:104A1000AC4800E051E0007800EB4000AA4901EB0F
:104A20008010AA49097801EB410100EBC100007A2E
:104A300000F0030003283DD1A248007800EB4000BD
:104A4000A14901EB8010A149097801EB410100EB7C
:104A5000C100007A00F080009A49097801EB410119
:104A6000994A02EB8111994A127802EB420201EB5A
:104A7000C20108729348007800EB4000924901EBB4
:104A800080109249097801EB410100E012E000EB4F
:104A9000C100007A40F001008A49097801EB410128
:104AA000894A02EB8111894A127802EB420201EB3A
:104AB000C20108720EF051FD98E18248007800EBC7
:104AC0004000814901EB80108049097801EB4101E8
:104AD00000EBC100007A10F0030F29D17C49097A5C
:104AE0007D4A02EB0111086816F094F9C5B27848C6
:104AF000007A794A02EB00102A4601688020FDF70F
:104B000052FA7349097A744A02EB0111486816F0A7
:104B100081F9C5B26E48007A6F4A02EB00102A464E
:104B200041689020FDF73FFAC82012F099FA5DE144
:104B30006448007800EB4000634901EB8010634952
:104B4000097801EB410100EBC100007A00F003009D
:104B5000022829D15E49097A5F4A02EB01110868EF
:104B600016F058F9C5B25A48007A5B4A02EB0010B9
:104B70002A4601688020FDF716FA5549097A564AF7
:104B800002EB0111886816F045F9C5B25048007A69
:104B9000514A02EB00102A4681689020FDF703FA83
:104BA000C82012F05DFA21E149488430454909786E
:104BB000405C43490968884229D24549097A464AF6
:104BC00002EB0111086816F025F9C5B24048007AD9
:104BD000414A02EB00102A4601688020FDF7E3F904
:104BE0003B49097A3C4A02EB0111C86816F012F9F8
:104BF000C5B23748007A384A02EB00102A46C1682D
:104C00009020FDF7D0F9C82012F02AFAEEE02C48E7
:104C10000068C1B22B48007800EB40002A4A02EB42
:104C200080102A4A127802EB420200EBC200417265
:104C30002448007800EB4000234901EB8010234911
:104C4000097801EB410100EBC100407A88BB1D48A7
:104C5000007800EB40001C4901EB80101B490978EB
:104C600001EB410100EBC100007A00F003000128D4
:104C700052D11448007800EB4000134901EB80103A
:104C80001249097801EB410100EBC100007A00F004
:104C900080000C49097801EB41010B4A02EB8111BC
:104CA0000A4A127802EB420201EBC201087205487F
:104CB00014E031E0D8000010A8000010CE00001071
:104CC000D40000109B000010381700109D00001049
:104CD000B81D00109E00001078000010007800EB56
:104CE0004000FF4901EB8010FE49097801EB4101CA
:104CF00000EBC100007A40F00300FB49097801EBAA
:104D00004101F74A02EB8111F64A127802EB4202A6
:104D100001EBC201087269E0F348007800EB400043
:104D2000EF4901EB8010EF49097801EB410100EBFD
:104D3000C100407AF0B3EC48007800EB4000E8494D
:104D400001EB8010E749097801EB410100EBC1005C
:104D5000007A00F00300032848D1E348007800EB14
:104D60004000DF4901EB8010DE49097801EB410189
:104D700000EBC100007A00F08000DB49097801EB0C
:104D80004101D74A02EB8111D64A127802EB420266
:104D900001EBC2010872D448007800EB4000D04912
:104DA00001EB8010CF49097801EB410100EBC10014
:104DB000007A00E01AE040F00100CB49097801EBED
:104DC0004101C74A02EB8111C64A127802EB420246
:104DD00001EBC201087209E00020C449087070BDEF
:104DE0000220C34908700720FEF7B4FD0120F6E752
:104DF0000120704710B5BF48006818B1BD48006871
:104E0000092803D90020B949087010BDB9480068C5
:104E1000092803D10120B84908700AE00020B649EA
:104E20000870B4480068401EB449085C401EAE4992
:104E300008700120FDF79CFA0820AD490870002099
:104E4000AF4908700120E0E770B5FDF732F8AA48D5
:104E5000007801287FD1AB4890F89100012804D157
:104E60000FF057FF0EF079FB0EE100256AE00024F9
:104E700064E005EB45009A4901EB801004EB440126
:104E800000EBC100007A00F0030001280DD005EB13
:104E90004500934901EB801004EB440100EBC10095
:104EA000007A00F00300032846D196488430405D24
:104EB00005EB45018A4A02EB811104EB440201EB48
:104EC000C201487205EB4500854901EB801004EBF7
:104ED000440100EBC100007A00F0030003282BD14D
:104EE00005EB45007E4901EB801004EB440100EB2B
:104EF000C100007A00F0800005EB4501784A02EB22
:104F0000811104EB440201EBC201087205EB45007C
:104F1000734901EB801004EB440100EBC100007AFF
:104F200040F0010005EB45016D4A02EB811104EBF5
:104F3000440201EBC2010872601CC4B2082C98DB69
:104F4000681CC5B2082D92DB00226FA1012007F07A
:104F500003FE99E0FFE76B4890F89100012804D127
:104F60000FF06BFF0EF0F9FA8EE066487C305E4978
:104F70000978405C01287ED1002476E05A48007808
:104F800000EB4000564901EB801004EB440100EBBC
:104F9000C100007A00F0030001280FD052480078C9
:104FA00000EB40004E4901EB801004EB440100EBA4
:104FB000C100007A00F00300032854D15148843026
:104FC00049490978405C4849097801EB4101444A64
:104FD00002EB811104EB440201EBC201487242482A
:104FE000007800EB40003E4901EB801004EB4401E7
:104FF00000EBC100007A00F00300032833D13A48E7
:10500000007800EB4000364901EB801004EB4401CE
:1050100000EBC100007A00F080003349097801EB11
:1050200041012F4A02EB811104EB440201EBC20162
:1050300008722D48007800EB4000294901EB8010F0
:1050400004EB440100EBC100007A40F00100264966
:10505000097801EB4101224A02EB811104EB440281
:1050600001EBC2010872601CC4B2082C86DB00226E
:1050700025A1012000E002E007F06EFD04E000221F
:1050800024A1012007F068FD00201B490870C820FA
:1050900011F0E6FF012070BD10B510F010F910BD41
:1050A00010B501200FF05AFF10BD10B502200FF00F
:1050B00055FF10BD01207047F0B587B00420FDF703
:1050C000B3FC0025FCF7F5FE0E490A7A144951F8A5
:1050D000220015F09FFEC7B20A48027A104821E06C
:1050E000381700109D0000109B000010D800001021
:1050F000A8000010D40000109C0000105C210010DB
:10510000CE000010B81D0010CCEEBBF5B3C9B9A697
:1051100000000000B2E3CEB4BFAAC6F40000000055
:10512000C015001050F822103A468020FCF7D2FE3D
:10513000FB490A7AFB4951F8220015F06BFEC7B211
:10514000F748027AF74850F822103A469020FCF7C8
:10515000C1FE0120FDF7F0F8F14890F89300012816
:1051600006D1F148008840F48070EF49088016E0CD
:10517000EB4890F89300022806D1EB48008840F0F5
:105180008000E94908800AE0E54890F89300032888
:1051900005D1E548008840F40070E34908804AE002
:1051A00006AAC821E148006811F082F90646348851
:1051B0009DF8180088B9022C01D0012C0DD115B929
:1051C0000120FDF7D5F80320FDF72EFCD848006834
:1051D00010F04EFE012007B0F0BD06AA0121D44810
:1051E000006810F0CEFE064634889DF8180010BB0B
:1051F00014F4004F1FD015B90120FDF7B9F8C4F31E
:105200000E000544C648027AC64850F82210684687
:1052100015F0DCFD2846FEF7F4FE07460146684619
:1052200015F017FE684615F0F5FDC7B23A46694617
:105230009020FCF74FFEB3E7F0B587B00620FDF7EE
:10524000F3FB0025FCF735FEB5490A7AB54910395C
:1052500051F8220015F0DEFDC7B2B148027AB1481C
:10526000103850F822103A468020FCF733FEAC4943
:105270000A7AAC4951F8220015F0CCFDC7B2A84813
:10528000027AA84850F822103A469020FCF722FEF5
:105290000120FDF751F8A448408840F40050A2498D
:1052A00048804AE006AA0121A048006811F000F9F0
:1052B000064634889DF8180088B9022C01D0012CCC
:1052C0000DD115B90120FDF753F80520FDF7ACFB12
:1052D0009748006810F0CCFD012007B0F0BD06AA89
:1052E00001219348006810F04CFE064634889DF872
:1052F000180010BB14F4004F1FD015B90120FDF7A2
:1053000037F8C4F30E0005448548027A854850F802
:105310002210684615F05AFD2846FEF772FE074631
:105320000146684615F095FD684615F073FDC7B255
:105330003A4669469020FCF7CDFDB3E7784890F8EF
:105340009300012806D17848008820F480707649BF
:1053500008800AE0724890F89300022805D172484C
:10536000008820F0800070490880012070476E4856
:10537000408820F400506C4948800120704738B5BF
:1053800004466C48006810F073FD601E64490C31DF
:1053900051F82000684908606848006810F04BFE2A
:1053A0006A464FF47A716348006810F0EAFD0546DA
:1053B000012038BD7CB50446594890F8950028B1C5
:1053C000601E57490C3151F8200040B94FF48062FB
:1053D000611E5548001D20F8112001207CBD504859
:1053E00090F89500022817D15248006810F040FD4F
:1053F000601E4B490C3151F820004F4908604F485E
:10540000006810F018FE6A464FF47A714948006847
:1054100010F0B7FD0546BAE0601E4349091D31F89A
:10542000100020F48060611E3F4A121D22F8110016
:105430004048006810F01CFD601E39490C3151F8DD
:10544000200000EB8000A0F1FC40611E00EB015049
:10545000019001A93948006810F0EDFD6A4641F657
:1054600058313448006810F08CFD05469DF8000066
:10547000B0BB601E2C49091D31F8100010F0200F40
:1054800013D02749097A274A883A52F8210015F0A3
:10549000C1FCC6B22248007A224A883A52F820104B
:1054A00032468020FCF716FD6DE0601E1E49091D86
:1054B00031F81000002814DD19490A7A1949803999
:1054C00051F8220015F0A6FCC6B21548027A15481C
:1054D000803850F8221032468020FCF7FBFC52E066
:1054E00040E0601E0E490C3151F8200000EB8000B6
:1054F0002A68824224D10C390A7A0A49783951F84B
:10550000220015F087FCC6B20548027A05487838B3
:1055100050F8221032468020FCF7DCFC33E000001B
:10552000B81D0010C8150010601E001044000010C7
:1055300048000010380000106C21001040000010DE
:10554000F9490A7AF94951F8220015F063FCC6B20C
:10555000F548027AF54850F8221032468020FCF7D0
:10556000B9FC10E0F0490A7AF04951F8220015F030
:1055700051FCC6B2EC48027AEC4850F82210324690
:105580008020FCF7A7FC4FF4C87011F069FD0120E2
:1055900024E710B50120FFF70DFF012010BD10B565
:1055A0000220FFF707FF012010BD10B50320FFF711
:1055B00001FF012010BD012070470120DC49087067
:1055C00070470020DB4908700120704710B586B095
:1055D0000020D9490870D7490870FCF76AFCD74801
:1055E000827AD7A1684615F0B7F9684615F012FC23
:1055F000C4B2224669468020FCF76CFCC82011F03A
:105600002FFD012006B010BD0120704738B5C648F7
:1056100090F8970000283DDDCD48CE490860CE487F
:10562000006810F008FD6A464FF47A71CB480068B4
:1056300010F0A7FC04469DF8000050BB206810F055
:10564000800F13D0B8490A7AB849903151F8220036
:1056500015F0E0FBC5B2B448027AB448903050F877
:1056600022102A468020FCF735FC26E0AE490A7A53
:10567000AE49983151F8220015F0CCFBC5B2AA48CA
:10568000027AAA48983050F822102A468020FCF767
:1056900021FC12E0A4490A7AA449A03151F8220061
:1056A00015F0B8FBC5B2A048027AA048A03050F867
:1056B00022102A468020FCF70DFCC82011F0D0FCF7
:1056C000012038BD10B586B000209B49087099496B
:1056D0000870FCF7EEFBA2A1684615F03DF968469C
:1056E00015F098FBC4B2224669468020FCF7F2FB15
:1056F000C82011F0B5FCA148006C40F480709F49AF
:1057000008640846C06D40F48070C8654FF4C870E6
:1057100011F0A6FC9948006C40F480709749086429
:105720000846806D40F480708865012006B010BD89
:1057300010B5FCF7BEFB0120FCF72AFD4FF4C87042
:1057400011F08EFC0020FCF723FD012010BD10B5E8
:10575000FCF7AFFB7448007A28B90A2288A18020A0
:10576000FCF7B8FB04E00B2288A18020FCF7B2FB19
:10577000012010BDF0B585B000240027FCF799FB8F
:105780006948007A70BB844880890A2190FBF1F255
:1057900001FB12058048808990FBF1F62B463246CA
:1057A0007EA1684615F0D8F8C4B22246694680202A
:1057B000FCF790FB7848C0890A2190FBF1F201FBCD
:1057C00012057548C08990FBF1F62B46324678A148
:1057D000684615F0C1F8C4B2224669469020FCF72D
:1057E00079FB2DE06C4880890A2190FBF1F201FBE6
:1057F00012056948808990FBF1F62B46324671A16B
:10580000684615F0A9F8C4B2224669468020FCF724
:1058100061FB6148C0890A2190FBF1F201FB12058E
:105820005D48C08990FBF1F62B4632466BA1684675
:1058300015F092F8C4B2224669469020FCF74AFB64
:105840004FF47A7011F00CFC012005B0F0BD01207E
:10585000704701207047012070470120704710B544
:1058600004466348007880B162480268601E2E4991
:105870000C3141F820200120FCF77AFD08205E4918
:10588000087000205A49087005E005205A49087040
:105890000720FEF75FF8012010BD10B50120FFF7CB
:1058A000DEFF10BD10B50220FFF7D9FF10BD10B507
:1058B0000320FFF7D4FF10BD10B504464C48007814
:1058C00020B34C480268601E17493C3141F8202043
:1058D0004848006840B149480088611E01228A405A
:1058E00010434649088007E044480088611E0122B1
:1058F0008A409043414908800120FCF739FD082087
:105900003D49087000203A49087005E005203A49F1
:1059100008700720FEF71EF8012010BD10B5012009
:10592000FFF7CAFF10BD0000B81D00104815001099
:10593000CD0000109800001099000010601E0010AB
:10594000BBF5B5C0B2E2CAD4B4CECAFD256400002E
:105950000B0000806C210010400000103800001087
:105960005550BCFCB7B4B0D7A3AC444F574EBCFCA9
:10597000D5FDB3A3CFD4CABE0000000000C00920EB
:10598000CEC2BFD8C6F7B2E2CAD4000054656D706B
:10599000657261747572650074200010BBFAC4DA18
:1059A000CEC2B6C83A25752E2575204300000000EA
:1059B000C9E8B6A8CEC2B6C83A25752E25752043CB
:1059C000000000004D616368696E652054656D706C
:1059D000653A25752E257520430000005365742017
:1059E00054656D70653A25752E25752043000000BD
:1059F000CE000010D4000010A8000010B820001045
:105A000010B50220FFF758FF10BD10B50320FFF7B7
:105A100053FF10BD10B50420FFF74EFF10BD10B5A9
:105A20000520FFF749FF10BD10B50620FFF744FF22
:105A300010BD10B50720FFF73FFF10BD10B50820BF
:105A4000FFF73AFF10BD10B50446FF48007818B3C1
:105A5000FE480268601EFE4941F82020FB480068AD
:105A600040B1FC484088611E01228A401043F94938
:105A7000488007E0F7484088611E01228A40904331
:105A8000F44948800120FCF773FC0820F2490870B3
:105A90000020ED49087005E00520EF490870072057
:105AA000FDF758FF012010BD10B50120FFF7CBFF17
:105AB00010BD10B50220FFF7C6FF10BD10B50320C2
:105AC000FFF7C1FF10BD10B50420FFF7BCFF10BDEC
:105AD00010B50520FFF7B7FF10BD10B50620FFF782
