:020000040000FA
:1000000000800010CD0000006D0102006D010200B3
:100010006D0102006D0102006D0102006D01020020
:100020006D0102006D0102006D010200610200001D
:100030006D01020000000000C9020000A92B0200AF
:100040006D0102003D3F0000F14100006D01020022
:100050006D010200973B020083EB010079CB0000A9
:100060000DCE00006D010200DD8801006D0102006F
:100070006D0102006D0102006D0102006D010200C0
:100080006D0102006D0102006D0102006D010200B0
:10009000E93900006D0102006D0102006D010200EE
:1000A0006D0102006D0102006D0102006D01020090
:1000B0006D0102006D0102006D0102006D01020080
:1000C0006D0102006D0102006D01020000F002F8F6
:1000D00000F0B6F80AA090E8000C82448344AAF12C
:1000E0000107DA4501D100F0ABF8AFF2090EBAE82A
:1000F0000F0013F0010F18BFFB1A43F0010318475C
:1001000020610400406104000A444FF0000C10F824
:10011000013B13F0070408BF10F8014B1D1108BF85
:1001200010F8015B641E05D010F8016B641E01F825
:10013000016BF9D113F0080F1EBF10F8014BAD1C75
:100140000C1B09D16D1E58BF01F801CBFAD505E093
:1001500014F8016B01F8016B6D1EF9D59142D6D3ED
:10016000704700000023002400250026103A28BF15
:1001700078C1FBD8520728BF30C148BF0B60704719
:100180006E2925F01387702925F0A883662926F0AB
:10019000E887652926F0E587672926F0E287612947
:1001A000AFF3008003681B0A28BF41F08001692972
:1001B00025F07E82642925F07B82752925F07882DE
:1001C0006F2925F03383782925F07483E92925F0F8
:1001D0004D87E42925F04A87F52925F04787EF293F
:1001E00025F03083F82925F073830368DB0928BFE5
:1001F00041F08001632925F01687732925F01B87BC
:10020000E32925F02687F32925F02B870020704766
:100210001FB526F09FFF9DE8030025F037FE26F06E
:100220004DFA04000020002126F064FF401C6060AD
:100230000020002126F074FFE0601FBD10B510BD46
:1002400026F016FA1146FFF7E3FF01F059FF26F0FA
:10025000EFFA03B4FFF7F2FF03BC20F0C6FB000087
:10026000052828BF70474FEA80007844D0F802F094
:10027000C90200008F0200002D0300004D030000A2
:100280006D0300004FF0010080F3148800DF0A4C7A
:100290004FF001052570774625F020F9BE46074E40
:1002A0003668074C2660D6F800D001BC05490860C6
:1002B000BDE8F00F704700BF8B2600109C26001091
:1002C00094260010B02600104FF0080282F3118827
:1002D00000B525F003F95DF804EB2DE9F00F0E49A8
:1002E000086801B40D4A1268C2F800D00C4C0D4DDC
:1002F0002E7826700C4E3668084C2660D6F800D052
:1003000001BC086000280CBF0022082282F311887B
:10031000BDE8F00F704700BFB02600109426001013
:1003200080260010812600109C26001006490868CF
:1003300000F101004FF0080282F31188002808BF85
:1003400070470860704700BFB02600100649086873
:1003500000281CBF01380860002818BF70474FF004
:10036000000282F311887047B02600104FF00000A1
:1003700080F3148870474FF0010080F314887047B1
:1003800088476FF0FF0021F0AAFA000010B50020A6
:1003900021F03AF8FF490860002021F035F8FE49C5
:1003A0000860002020F077FBFC4908600221FC482F
:1003B00020F0C1FDFB490860002020F06CFBFA49E9
:1003C00008601421F94820F0B6FDF94908600020C2
:1003D00020F061FBF7490860002020F05CFBF64943
:1003E0000860002020F057FBF4490860002020F04E
:1003F00052FBF3490860002020F04DFBF1490860F2
:10040000002020F048FBF0490860002020F043FB6A
:10041000EE49086010BD2DE9F041002600270020BC
:1004200003F096FB002003F0DEFB002003F0C0FB8E
:10043000002003F0F3FB4FF49858E548008800F4DF
:100440007F4008F47F41884218D003F038FC012037
:1004500003F03EFB012003F07BFB012003F0C3FB14
:10046000012003F0A5FB012003F0D8FB012003F0DD
:10047000F0FB00221146D74824F017FD002003F0BE
:1004800027FB002003F064FB002003F0ACFB0020FE
:1004900003F08EFB002003F0C1FB002003F0D9FB2A
:1004A00000244FE00021CC48015508300155C848D0
:1004B0007C30005D012809D1601CC2B23046711C3D
:1004C000CEB2C5490A5401F108000655002700259F
:1004D00034E0002004EB8401BF4AA03A02EB410162
:1004E0004855002104EB8402BB48503800EB420021
:1004F0004155C4EBC40000EB8000B84901EBC000DB
:10050000C5EBC50100EB8100007A00F08000802877
:1005100012D1681CC2B204EB8400AF49A03901EBD0
:1005200040033846791CCFB21A5404EB8401AA4820
:10053000503800EB41004755681C85B20A2DC8DBD6
:10054000601C84B2082CADDBBDE8F081012170474E
:1005500000B5034603E013F8010BFFF7F7FF187827
:100560000028F8D100BD1CB5012000909C4800680F
:1005700000226946036901A898479A4908600098D3
:1005800010B94FF0FF30019001981CBD03468B421B
:1005900003DB934201DC012070470020FCE770B5CB
:1005A00000247BE0002575E008F096FEF8B9C4EB66
:1005B000C40000EB8000894901EBC000C5EBC50118
:1005C00000EB8100007A00F0030001280FD0C4EB9B
:1005D000C40000EB8000814901EBC000C5EBC50100
:1005E00000EB8100007A00F00300032850D10520C1
:1005F000C4EBC40101EB8101784A02EBC101C5EBF8
:10060000C50201EB82014872C4EBC40000EB80001C
:10061000724901EBC000C5EBC50100EB8100007A17
:1006200000F00300032833D1C4EBC40000EB8000CA
:100630006A4901EBC000C5EBC50100EB8100007AFF
:1006400000F08000C4EBC40101EB8101634A02EBBE
:10065000C101C5EBC50201EB82010872C4EBC40005
:1006600000EB80005D4901EBC000C5EBC50100EB6C
:100670008100007A40F00100C4EBC40101EB81016C
:10068000564A02EBC101C5EBC50201EB82010872BB
:10069000681CC5B20A2D87DB601CC4B2082C81DB44
:1006A00070BD08B51BE06A4601214148006820F092
:1006B000FFFC04469DF8000070B920884A49C860D4
:1006C00002E0022021F0CCFA47490C31364800689C
:1006D00020F0B1FA0028F4D1022021F0C1FAE2E7BB
:1006E00000B585B0032300224FF400713F48CDE9E7
:1006F0000323CDE90101092300F2FC720021AFF2CE
:100700005D00009321F092F805B000BD08B500BF70
:1007100037483349086009684868804719E0142061
:1007200000902F48006801226946036931489847C4
:100730002C490860002405E02E48005D2E4908552C
:10074000601CC4B200988442F6DB00BF322021F066
:1007500087FAE4E708B500BF0122D105002023F0A5
:10076000D9FD4FF40001002023F0E8FD23A019F08B
:100770006CF94FF4167021F073FA0CF08BFA0CF050
:1007800070FB19F021F91EF027FA1EA019F05DF98F
:1007900000203BE03C00001040000010480000102A
:1007A000340000105000001054000010D835001024
:1007B000580000105C0000104C00001044000010B5
:1007C0006000001064000010680000106C00001051
:1007D0003030001000400240A0350010F02600101C
:1007E0007400001070000010B03500102852001086
:1007F000B82600103C5A0010285A00100D0A3D3D42
:10080000310000000D0A3D3D32000000FD494880E6
:100810000021FC48007861F38710FA490870002134
:10082000F848007861F3C500F6490870F648806919
:10083000F649086008F053FD08F0AAFDF4A019F08D
:1008400004F9F548006A40F00050F3490862084690
:10085000006A40F0805008620846806B40F000500B
:1008600088630846806B40F080508863022021F046
:10087000F7F90CF096FDE9A019F0E7F808F02FFF62
:1008800008F074FF08F0F0FEE6A019F0DEF808F0BA
:100890008EFF08F0A6FF18F0C3F908F0DDFEE3A014
:1008A00019F0D3F8DC48006A40F00050DA490862D9
:1008B0000846006A40F0805008620846C06B40F06D
:1008C0000050C8630846C06B40F08050C8630220E7
:1008D00021F0C6F910F0ECF9142021F0C1F90FF065
:1008E000E4FFD4A019F0B1F808F084FF0FF016FC73
:1008F000D248006820F04FFED1A019F0A6F8C248F7
:1009000090F89100012805D11BF0A5FBCF480068A5
:1009100020F041FECEA019F098F8BB4890F8930063
:10092000012801D11EF00DF91FF0D7FA0020B649B9
:1009300081F8AD0081F8AC0083E2022021F090F94B
:10094000B14890F8AC0010B36A461421C34800685F
:1009500020F017F904469DF8000018B9206800F04F
:10096000FF0801E04FF0000840461FF056F81EF067
:10097000DEFB30B1A348408840F48040A149488064
:1009800005E0A048408820F480409E4948809E4869
:1009900090F89300012812D1B14991F8E2021DF0BC
:1009A00032FAC7B2FF2F0AD0AE48876000F10801C3
:1009B000AD48006820F0E4FB282021F051F908F050
:1009C0004BFE0FF049FC012806D08E480078C0F39A
:1009D000C20010F0010F01D00FF093FF142021F09E
:1009E0003FF90EF060FF012806D086480078C0F37A
:1009F000C20010F0020F01D00FF0D4FB8148407804
:100A000030B9814890F89100012801D11BF093FA88
:100A100008F022FE7B4800788009012803D11420C9
:100A200021F01EF90DE26A4614219048006820F07A
:100A3000A8F804469DF80000D8BB80212068B1EBDF
:100A4000106F7AD87448006A40F00050724908620A
:100A50000846006A40F0805008620846806B40F00B
:100A6000005088630846806B40F080508863022005
:100A700021F0F6F82068000E802806D0812809D0E1
:100A8000822817D0852859D13BE02168C8B20CF0E4
:100A90000AFD54E076A018F0D8FF002159480078EC
:100AA00061F38710574908702168C8B20CF07DFDCA
:100AB00045E06FE15848006A40F00050564908622E
:100AC0000846006A40F0805008620846C06B40F05B
:100AD0000050C8630846806B40F080508863022055
:100AE00021F0BEF800214748007861F3871045499E
:100AF00008702268C2F30351C2F313000DF0E6FA46
:100B00001DE0206800F00103C0F34002C1B25CA008
:100B100018F09BFF2068C0F34000514981F8E302C0
:100B2000206800F0010081F8E4020A4692F8E4121D
:100B300092F8E3021FF089FA01E01AE000BF00BF5B
:100B40003548006A40F00050334908620846006AA0
:100B500040F0805008620846C06B40F00050C86307
:100B60000846C06B40F08050C863022021F078F83E
:100B700010E12068000E092842D2DFE800F0051DD0
:100B8000C19EE61EC213180044A018F05EFF0021AB
:100B90001C48007861F387101A490870206810F02B
:100BA000DDF8F6E0424988880FF0EDF8F1E04049C1
:100BB00088880FF044F9ECE000BF08F02BFE052117
:100BC0002068B1EB106F77D1002026494860091DDD
:100BD0003848006820F02FF80A48407801280BD1E7
:100BE00008480078C0F3C20020F0010005490978E8
:100BF00060F3C50103480170142021F031F8C8E00A
:100C0000C6E059E010000010303000101C00001049
:100C10000D0A3D3D3300000000C009200D0A3D3D96
:100C2000340000000D0A3D3D350000000D0A3D3D39
:100C3000360000000D0A3D3D370000003C0000106A
:100C40000D0A706320696E69740000004000001096
:100C50000D0A496E69744F4B0000000068000010D7
:100C600020600010B0350010500000104C00001043
:100C70000D0A434D445F474F4F44535F4F55540057
:100C80000D0A414344432C2523782C6C65643D2593
:100C9000642C646973743D25640000000D0A434DA3
:100CA000445F434F494E5F4348414E474500000073
:100CB000DE3400104400001000BF08F0B3FD002037
:100CC000FF494860091DFF4800681FF0B4FFFE4857
:100CD0004078012810D103212068B1EB106F0BD1AF
:100CE000F9480078C0F3C20020F00200F649097804
:100CF00060F3C501F4480170142020F0B1FF48E012
:100D000000BF08F097FD06212068B1EB106F1BD1E2
:100D10000020EB494860091DEA4800681FF08BFF7E
:100D2000E948407801280BD1E7480078C0F3C200B9
:100D300040F00100E449097860F3C501E248017020
:100D4000142020F08DFF24E000BF08F083FD002078
:100D5000DB494860091DDB4800681FF06CFFDA487A
:100D60004078012810D104212068B1EB106F0BD11D
:100D7000D5480078C0F3C20040F00200D24909789B
:100D800060F3C501D0480170142020F069FF00E035
:100D900000BF00BFCD4890F89100012850D1142029
:100DA00020F05EFF6A461421C94800681FF0E9FE82
:100DB00004469DF8000078BB2068000E102822D061
:100DC00006DC052809D006280DD00C2836D12BE0EA
:100DD00011280ED0842831D11FE0002211460520B1
:100DE0001BF006F82BE00022114606201BF000F84D
:100DF00025E0206820F07F4020600021084622681E
:100E00001AF0F7FE1BE0206820F07F4020600020F1
:100E100021681AF0AFFE12E012E01BF01CF9AD4899
:100E2000006820F0B8FB0AE02068C0F3074520689E
:100E3000C6B2314628461BF055F800E000BF00BF9F
:100E400000BF7AE594B000200990089000BF06909A
:100E500000BF00BF019000BF9C48007A022805D166
:100E6000002002F059FA01F0F0FC01E001F0EDFC85
:100E700000209549487001219748007861F30300EC
:100E8000954908700020487000219348007861F36C
:100E900007109149087000218B48007861F3000029
:100EA00089490870F02010908C48D0F874610121B5
:100EB0008548007861F382008349087000218848E2
:100EC00024F012F8874908600846006890B17F480E
:100ED00080690968B1EB400F0CD2824800687F49F5
:100EE000C1F87001012002F0B4FE002211467C48D6
:100EF00023F0DBFF00207B4908600F901090022058
:100F0000724981F8920001F001FC7748006C40F4CE
:100F10008070754908640846806D40F4807088656B
:100F20007249002003F094F9002003F06EF902F0FA
:100F300093FD6D48006820F480006B490860142020
:100F400020F08EFE09F038FA09F0CAF912AA4FF41F
:100F50007A616748006820F0CDFA5C4890F8930009
:100F6000012801D11CF0E5FF6248C07A08B1FFF703
:100F700016FB0020119040F6B8305F4988805F482A
:100F800000681FF0B5FF4FF0010AF2E394E25C48FD
:100F9000006810F0005F31D1022020F061FE584857
:100FA000006810F0005F28D10120474948700846CA
:100FB0000078C0F38000012808D102F07BFF0021F7
:100FC0004148007861F382003F4908703F4890F83B
:100FD000910001280CD13E4800681FF049FD4FF0F8
:100FE000A060374988611831394800681FF023FE36
:100FF000012002F07EFA04F0AAF85DE2324840785F
:1010000001281AD1FF2030494870304890F89100EB
:1010100001280CD12E4800681FF02AFD4FF0C06057
:101020002749886118312A4800681FF004FE03E050
:101030004FF47A7020F014FEFAE7244890F89100FB
:10104000012809D1099838B912AA0021214800685D
:1010500020F050FA0120099000201B4948700846F2
:10106000408860BB9DF83C0098B9BAF1010F02D1ED
:101070004FF0000A01E04FF0010A2248B0F81402D4
:1010800038B94FF4FA601F49A1F81402504609F02C
:10109000CEF90E4890F8AC00C0B312AA01211A484C
:1010A00000681FF06EFD83469DF8480070BBBBF8DA
:1010B0000000C0B2079007981DF026FF27E066E108
:1010C000B035001044000010100000103030001047
:1010D00060000010400000100E000010B831001039
:1010E000004002401800001000C009207FA9030042
:1010F0003C000010F03000102C00001050000010D8
:1011000094C00920206000106C00001008E0C0B2FC
:101110000E900E98FF2801D00E980F9000BFCCE1E2
:10112000FD484069C0F3805018BBFC48006800B31C
:10113000FB480078C0F30000012804D0F94890F87B
:101140008F00002815DDF74890F88F30F4480093A1
:101150000078C0F30003F0484069C0F3805080F08D
:101160000101EE480268F0A018F06FFC0120069023
:10117000A3E112AA0121F84800681FF099FF8346F5
:10118000BBF800509DF8480030B9012002F0B1F9D9
:10119000142020F065FD90E112AA0121EF480068BB
:1011A0001FF0EFFC8346BBF800509DF8480018B9CB
:1011B000012002F09EF980E1E948408848B99DF895
:1011C0003C0008F016FE0F909DF83C0008B1FF258A
:1011D00073E1E348808828B940F6B830E049888058
:1011E0000BF073F8CD48006898B9CD480078C0F38B
:1011F000800001280DD108F05FF810B9D948807837
:1012000038B9D848407810F0020F02D0042002F01C
:1012100051FEC44890F8910001280BD10BF010FB4F
:101220008146B9F1EE0F02D0CDF83C9045E1142093
:1012300020F016FDBB4890F89300012801D11CF066
:1012400078FEC9488079012803D0C7484078012832
:1012500070D1C64890F8E4020390C44890F8E302C5
:101260000290C348D0F89810D0F89C0000EBC00260
:1012700002EB001001EB800080B2049040F6C41134
:101280000498884256DCB848807901282ED1B648A7
:10129000017AC07900EBC00202EB001001EB80077D
:1012A000B148817A407A00EBC00202EB001001EBFA
:1012B0008008424639460498FFF768F938B1AB48D0
:1012C00090F8E30218B90120029001900EE0424626
:1012D00039460498FFF75AF940B9A44890F8E30258
:1012E000012803D100200290012001909E484078FF
:1012F00001282FD19C48C178807800EBC00202EB16
:10130000001001EB800798484179007900EBC0029A
:1013100002EB001001EB8008424639460498FFF7C3
:1013200035F940B1914890F8E40220B901200390CA
:1013300001900FE02AE0424639460498FFF726F96B
:1013400040B98A4890F8E402012803D100200390B4
:10135000012001900198012818D1002001904FF040
:101360000541029801EB400103980844059081492A
:1013700005980860804800681FF07AFB7D497F4827
:1013800000681FF058FC642020F06AFC94E0634879
:10139000006850B1FF2500217948007861F303000F
:1013A0007749087008200F9087E05D480078C0F307
:1013B0008000012809D100215948007861F382009A
:1013C00057490870012002F075FD6E48D0F874018D
:1013D000B0420CD96B48D0F87401801B6949C1F840
:1013E00074010846D0F87461012002F032FC01203B
:1013F00002F07FF840F6B830594988805AE008F08A
:101400004AFD6148006810F0005F12D100200F9083
:1014100001215B48007861F30300594908700020FE
:10142000487000215648007861F30710544908704D
:1014300041E03B48408820BB00200F9001215048EC
:10144000007861F303004E490870002048700021C5
:101450004B48007861F30710494908700121304872
:10146000007861F382002E490870022002F022FD0C
:10147000394800681FF03CFD00203C49A1F81402E7
:1014800019E03748808828B940F6B8303449888058
:101490000AF01BFF234890F8910001280AD10BF0B5
:1014A000CFF98146B9F1EE0F01D0CDF83C90142070
:1014B00020F0D6FBA3E700BF69E500BF15F4004F9D
:1014C00076D000202E49487000212D48007861F325
:1014D00007102B490870C5F30E000A90FF250F482E
:1014E00001680A9808440D4908600D480078C0F367
:1014F000800001284CD10B4880690968884245D892
:1015000000210748007861F3820005490870012036
:1015100002F0D0FC3CE04BE000C0092018000010B5
:1015200010000010303000100D0A52657475724BB7
:1015300065793D25642C675F416D6F756E743D253F
:10154000642C6861766573616C653D25642C7472EA
:10155000616E733D256400005000001054000010BF
:101560002C00001014000010F0300010206000105B
:1015700000310010B0350010440000104C00001085
:101580000E000010B831001094C0092007F094FE3E
:101590009DF83C00062804D0F948006808B10120F5
:1015A0000F90F74800210268F64823F07EFC25E002
:1015B000281200281BDD2812012802D0022814D18D
:1015C00002E009200F9011E0ED48006860B1EE489C
:1015D0000078C0F30000012804D0EC4890F88F0098
:1015E000002801DD08200F9000E000BF06E00DAAF2
:1015F00029469DF83C0008F071F90F9006980128E3
:1016000003D10020069008200F90DEE39DF83C00F7
:1016100011909DF83C000F287ED2DFE800F07D8617
:10162000FEFDFCFBFAF9F8C3576608F747000021F6
:10163000D748007861F30300D5490870D34890F883
:10164000930010B9084640780D900BAA0CA99DF89C
:1016500034000BF0E4FD012817D1EAB29DF82C10FC
:101660009DF8300009F0E5F8642020F0F9FA002038
:101670000F90C84800681FF004FD0121C44800789D
:1016800061F30300C249087001E00B200F900020B5
:10169000BF4948700021BE48007861F30710BC497B
:1016A00008700020BC49A1F81402A1E20021B8484A
:1016B000007861F30300B649087009F0A4F94FF40B
:1016C000C87020F0CDFA0D200F9091E20121B048B2
:1016D000007861F30300AE4908704FF4FA70AF4927
:1016E000488009F0AEF90F9082E20021A848007806
:1016F00061F30300A649087009F069FB4FF4C87054
:1017000020F0AEFA0020A24948700021A0480078DD
:1017100061F307109E4900E0FEE308700A200F9075
:101720009C4800681FF0ADFC62E2012198480078F7
:1017300061F303009649087047F23050974948809A
:1017400009F0CCFB90480078C0F38000012821D03C
:101750008B4800689249096888420BD201218A4867
:10176000007861F3820088490870022002F0A2FB31
:1017700010E0F8E38548806981490968884209D901
:1017800001218148007861F382007F4908700620BA
:1017900002F090FB7D4890F89300012801D11CF0E5
:1017A000C8FB25E200217A48007861F303007849FC
:1017B000087009F016FD4FF4C87020F051FA0121AD
:1017C0007348007861F303007149087047F23050A4
:1017D000724948806A48006808B109F07FFB6A488E
:1017E0000078C0F38000012828D0654800686C4963
:1017F0000968884212D201216348007861F38200AF
:1018000061490870022002F055FB17E02BE392E2D9
:10181000EFE17DE224E232E1E5E012E05B4880693D
:1018200057490968884209D901215748007861F36E
:10183000820055490870062002F03CFB10980F907A
:10184000B5E300215248007861F303005049087065
:101850004E4890F8930010B9084640780D9000204B
:101860004B49487000214A48007861F30710484905
:101870000870464890F89100012821D10BAA0CA9C4
:101880009DF834000BF0CBFC464800681FF0F0F8E0
:101890009DF83000C0EBC00000EB8000424901EB36
:1018A000C0009DF82C10C1EBC10130F821003F4968
:1018B00008443F49886118313A4800681FF0BBF975
:1018C000344800681FF0DDFB0BAA0CA99DF834001A
:1018D0000BF0A5FC01286ED19DF83000C0EBC000D4
:1018E00000EB8000304901EBC0009DF82C10C1EBEB
:1018F000C10100EB8100007A00F07F00012809D0CF
:1019000001212148007861F300001F49087003207D
:101910000F9067E09DF83000C0EBC00000EB800046
:10192000214901EBC0009DF82C10C1EBC10100EB77
:10193000810040681249096888424ED80121124846
:10194000007861F3000010490870104890F8AC006E
:1019500080B30E4890F8AD0070B39DF83010C1EB25
:10196000C10101EB8101104A02EBC1019DF82C205D
:10197000C2EBC20201EB820148681DF00CFC1FE0C3
:10198000180000100040024010000010303000101D
:101990000E00001050000010206000102C000010FD
:1019A0001C00001060000010F02600100000020C67
:1019B000B03500100EE013E0FFE700201DF0EBFB58
:1019C00001201DF0B7FB4FF4FA6201210FA81DF0B2
:1019D000CFFA07E004200F9004E005200F9001E00B
:1019E0000B200F90E3E20021F848007861F3030038
:1019F000F64908709DF82C109DF8300009F088FC1D
:101A00004FF4C87020F02CF90121F048007861F300
:101A10000300EE49087047F23050ED49488009F064
:101A20005DFAEC480078C0F38000012820D0EA4835
:101A30000068EA49096888420AD20121E54800782D
:101A400061F38200E3490870022002F033FA0FE0EC
:101A5000E3488069E0490968884209D90121DD48E5
:101A6000007861F38200DB490870062002F022FA58
:101A7000DC4800681FF005FB01200F9097E2002171
:101A8000D248007861F30300D049087009F0C7FC20
:101A9000D0480078C0F38000012809D10021CD484A
:101AA000007861F38200CB490870012002F002FA4D
:101AB000C84800788009022801D10AF057F99DF83A
:101AC0002C209DF830109DF8340009F017FD0F9080
:101AD000C14800210268C44823F0E7F9BD480078F6
:101AE000C0F34000012849D09DF83000C0EBC00091
:101AF00000EB8000BD4901EBC0009DF82C10C1EB4C
:101B0000C10100EB8100C068401C9DF83010C1EBA2
:101B1000C10101EB8101B54A02EBC1019DF82C2006
:101B2000C2EBC20201EB8201C860B148D0F8680183
:101B3000401CAF49C1F868019DF83000C0EBC000FF
:101B400000EB8000A94901EBC0009DF82C10C1EB0F
:101B5000C10100EB81008069401C9DF83010C1EB91
:101B6000C10101EB8101A14A02EBC1019DF82C20CA
:101B7000C2EBC20201EB820188612EE09DF83000C9
:101B8000C0EBC00000EB8000984901EBC0009DF85D
:101B90002C10C1EBC10100EB81000069401C9DF8D5
:101BA0003010C1EBC10101EB8101904A02EBC10190
:101BB0009DF82C20C2EBC20201EB820108618C4827
:101BC000D0F86C01401C8A49C1F86C0100218148A1
:101BD000007861F341007F490870814890F89300D4
:101BE000012801D11CF0A5F97E4800681FF049FAD0
:101BF000DDE101217548007861F303007349087045
:101C000047F230507249488009F068F9714800780D
:101C1000C0F38000012820D06F4800686F49096830
:101C200088420AD201216B48007861F38200694939
:101C30000870022002F03EF90FE0694880696649A9
:101C40000968884209D901216248007861F382005D
:101C500060490870062002F02DF901200F90A6E1DE
:101C600000215A48007861F30300584908709DF834
:101C70003010C1EBC10101EB81015C4A02EBC101F3
:101C80009DF82C20C2EBC20201EB8201486809F0EA
:101C90007DFE4FF4C8701FF0E3FF01214B48007830
:101CA00061F303004949087047F2305048494880C1
:101CB00009F014F947480078C0F38000012820D0CB
:101CC000454800684549096888420AD201214148CF
:101CD000007861F382003F490870022002F0EAF8C0
:101CE0000FE03F4880693C490968884209D90121D1
:101CF0003848007861F3820036490870062002F007
:101D0000D9F8384800681FF0BCF901200F904EE167
:101D100001212E48007861F303002C49087047F236
:101D200030502B4948809DF82C109DF8300009F068
:101D30009FFE0F903BE12A4890F89600002876DD40
:101D400000212248007861F3030020490870002038
:101D50002849086009F0DBFE1E4800788009022847
:101D600001D10AF018F81B480078C0F38000012860
:101D700009D100211748007861F3820015490870E5
:101D8000012002F097F80AF046F813480021026893
:101D9000154823F08AF81048006868B30E480068B8
:101DA0001349C1F870010E4890F8910001283BD109
:101DB0000B4890F8980001281FD10846D0F8700110
:101DC00000EB80004000089020E006E10E000010CB
:101DD0002C00001010000010180000101C00001053
:101DE000303000105000001000400240F02600107B
:101DF000B8310010240600101AE0D44890F898007A
:101E0000022803D1D248D0F870010890D148006868
:101E10001EF02EFE089800F18850CF4988611831D5
:101E2000CC4800681EF007FF0AF0E8F805E011E072
:101E3000CA48006808B10AF095F9C9480078C0F3AB
:101E40004000012806D10021C548007861F3410017
:101E5000C3490870C34816F0FDFEC8201FF000FFFC
:101E60000D200F90A3E00021BF48007861F303002C
:101E7000BD490870B648D0F87401B04209D9B448D9
:101E8000D0F87401801BB249C1F874010846D0F83B
:101E90007461012001F0DDFE0020B44908600024D7
:101EA00005E00020AF4994390855601CC4B2202CCD
:101EB000F7DB002405E00021AA4820380155601C0A
:101EC000C4B2202CF7DB002414E0002013900CE0B7
:101ED000002104EB8402A348743800EB42021398FB
:101EE00011541398401CC0B2139013980A28EFDBCA
:101EF000601CC4B2082CE8DB00209A4994390867BA
:101F0000012001F0E5FD0AF080F9C8201FF0A8FECD
:101F100000200F90964900E041E0A1F81402012151
:101F20009148007861F303008F49087000218C48C4
:101F3000007861F300008A490870002211468D483C
:101F400022F0B3FF86480078C0F3800001280BD050
:101F5000022001F0AFFF01218148007861F3820087
:101F60007F4908701AE03BE007F0A6F910B98248F3
:101F7000807840B98048407810F0020F03D00420E8
:101F800001F098FF0AE07C48807838B17A484078C0
:101F900010F0020F02D1032001F08CFF07E00121B5
:101FA0007148007861F303006F49087000BF00BFFB
:101FB000119810909DF83C0008B9002010909DF8F1
:101FC0003C00012800D10AE09DF83C10119888429D
:101FD00002D09DF83C0000B901E0FFF717BB00BF3D
:101FE000FEF7D4BF86B000BF0121002023F00DF81A
:101FF000624823F040F823F087F8614800680A211E
:10200000B0FBF1F400BF601E0400FCD123F0A1F886
:1020100023F091F816F004FE23F022F85948007BD3
:1020200008B9FEF7F8F923F01BF8FEF7AFF966E000
:10203000032300224FF400715348CDE90323CDE977
:102040000101072300F2FC72C821504800931FF0E1
:10205000EDFB23F005F8032300224FF400714C48F8
:10206000CDE90323CDE90101052300F2FC72002133
:10207000484800931FF0DAFB22F0F2FF032300220E
:102080004FF400714448CDE90323CDE90101092350
:1020900000F2FC720021414800931FF0C7FB22F0C0
:1020A000DFFF032300224FF400713D48CDE90323F5
:1020B000CDE90101082300F2FC72002139480093A8
:1020C0001FF0B4FB19E022F0CBFF25484078FF2831
:1020D00010D107201FF003FC05201FF000FC082092
:1020E0001FF0FDFB09201FF0FAFB00201C4948806F
:1020F000487003E0C8201FF0B3FDE4E700BF97E796
:1021000010B51EF035F81DF0FDFF0122D1050020AD
:1021100022F000F94FF40001002022F00FF9012213
:102120005102022022F0F6F84FF40071022022F052
:102130000FF91FF03AFF06231B4A0021AFF25B1094
:102140001FF02CFB1FF0F4FF002010BD30300010FA
:10215000B831001060000010B035001024060010E7
:1021600010000010943100100E0000101800001034
:10217000206000100040024014000010002D3101CA
:10218000E8260010E0300010283A0010450E00004C
:10219000284200105507000028520010A306000036
:1021A000284A00100D070000243A0010FF49097A60
:1021B000022901D1962000E0FA2000BF411E89B219
:1021C0000800FBD17047F94A127A022A0BD1F84A6B
:1021D00012680623B2FBF3F24FF4FA63B2FBF3F298
:1021E00002FB00F10AE0F24A12680623B2FBF3F2A6
:1021F0004FF47A73B2FBF3F202FB00F100BF4A1E08
:102200001100FCD17047EA4A12680623B2FBF3F2D0
:1022100002FB00F100BF4A1E1100FCD170472DE9FE
:10222000F04106460F46022000DFF8240FB144F0CB
:102230000204DE48007A022803D10120FFF7C3FF21
:1022400002E00320FFF7BFFFDA48006E40F00070A5
:10225000D84908660846806F40F0007088670846D5
:10226000006A40F0806008620846C06B40F0806001
:10227000C863FFF79BFF002539E014F0800F0BD0F7
:10228000CC48006A40F08070CA4908620846806BFA
:1022900040F0807088630AE0C648006A40F08070B1
:1022A000C44908620846C06B40F08070C863FFF7FD
:1022B0007DFFC048006A40F08060BE490862084661
:1022C000C06B40F08060C863FFF770FFB948006AD8
:1022D00040F08060B74908620846806B40F080603B
:1022E0008863FFF763FF6006040E681CC5B2082D03
:1022F000C3DB344604F0F004002539E014F0800F0D
:102300000BD0AC48006A40F08070AA4908620846C9
:10231000806B40F0807088630AE0A648006A40F055
:102320008070A44908620846C06B40F08070C863A2
:10233000FFF73CFF9F48006A40F080609D490862BB
:102340000846C06B40F08060C863FFF72FFF9948D4
:10235000006A40F08060974908620846806B40F050
:1023600080608863FFF722FF6006040E681CC5B218
:10237000082DC3DB34462007040E002539E014F095
:10238000800F0BD08B48006A40F08070894908624A
:102390000846806B40F0807088630AE08548006AD8
:1023A00040F08070834908620846C06B40F080703E
:1023B000C863FFF7FBFE7F48006A40F080607D49FC
:1023C00008620846C06B40F08060C863FFF7EEFE0D
:1023D0007848006A40F08060764908620846806B61
:1023E00040F080608863FFF7E1FE6006040E681C21
:1023F000C5B2082DC3DB6F48006E40F000706D4918
:1024000008660846C06F40F00070C867032000DF10
:10241000BDE8F081F0B506460F46F8240FB144F050
:1024200002040320FFF7CFFE6248006E40F0007008
:10243000604908660846806F40F00070886708466B
:10244000006A40F0007008620846C06B40F00070FF
:10245000C863FFF7ABFE002539E014F0800F0BD006
:102460005448006A40F08070524908620846806B08
:1024700040F0807088630AE04E48006A40F0807047
:102480004C4908620846C06B40F08070C863FFF793
:102490008DFE4848006A40F00070464908620846D0
:1024A000C06B40F00070C863FFF780FE4148006ACF
:1024B00040F000703F4908620846806B40F00070B1
:1024C0008863FFF773FE6006040E681CC5B2082D12
:1024D000C3DB344604F0F004002539E014F0800F2B
:1024E0000BD03448006A40F08070324908620846D8
:1024F000806B40F0807088630AE02E48006A40F0EC
:1025000080702C4908620846C06B40F08070C86338
:10251000FFF74CFE2748006A40F00070254908622A
:102520000846C06B40F00070C863FFF73FFE2148CB
:10253000006A40F000701F4908620846806B40F056
:1025400000708863FFF732FE6006040E681CC5B297
:10255000082DC3DB34462007040E002540E014F0AC
:10256000800F0BD01348006A40F080701149086258
:102570000846806B40F0807088630AE00D48006A6E
:1025800040F080700B4908620846C06B40F08070D4
:10259000C863FFF70BFE0748006A40F0007005496A
:1025A00008620846C06B40F0007005E03030001053
:1025B000E826001000C00920C863FFF7F7FDF848BF
:1025C000006A40F00070F64908620846806B40F0EF
:1025D00000708863FFF7EAFD6006040E681CC5B250
:1025E000082DBCDBEE48006E40F00070EC49086638
:1025F0000846C06F40F00070C867F0BD002132E0AF
:10260000E74A126E42F00072E54B1A661A46D26F24
:1026100042F00072DA6710F0800F0AD11A46126A8F
:1026200042F080721A621A46D26B42F08072DA630C
:102630000AE0DB4A126A42F08072D94B1A621A46EB
:10264000926B42F080729A63D54A126E42F0007229
:10265000D34B1A661A46926F42F000729A6742068E
:10266000100E4A1CD1B20829CADB704710B50446C7
:10267000CB48006A40F00070C94908620846806B88
:1026800040F0007088630846006A40F0806008628D
:102690000846C06B40F08060C8632046FFF7AEFF7D
:1026A000BF48006A40F08060BD4908620846806B00
:1026B00040F0806088630846006A40F0007008625D
:1026C0000846C06B40F00070C86310BD10B5E22032
:1026D000FFF7CCFF04201FF0C3FA2620FFF7C6FF48
:1026E0002F20FFF7C3FFEA20FFF7C0FF8120FFF78D
:1026F000BDFF7220FFF7BAFFC820FFF7B7FF4020E9
:10270000FFF7B4FFAF20FFF7B1FF10BD10B5A5482C
:1027100090F89200022802D1FFF7D8FF40E0302461
:1027200000212046FFF77BFD062400212046FFF70D
:1027300076FD0C2400212046FFF771FD01240021C5
:102740002046FFF76CFD022400212046FFF767FDBD
:10275000802400212046FFF762FD924890F8920005
:1027600001281DD1302400212046FFF753FE062406
:1027700000212046FFF74EFE0C2400212046FFF7E3
:1027800049FE012400212046FFF744FE02240021D7
:102790002046FFF73FFE802400212046FFF73AFE47
:1027A00010BD10B504467E48006A40F000707C49B8
:1027B00008620846806B40F0007088630846006A33
:1027C00040F0806008620846806B40F0806088635B
:1027D0002046FFF713FF7248006A40F0806070499E
:1027E00008620846C06B40F08060C8630846006A13
:1027F00040F0007008620846C06B40F00070C8638B
:1028000010BD30B504460D4645F0B000FFF72EFF71
:10281000102141EA2410FFF729FF04F00F00FFF711
:1028200025FF30BD30B500240CE0E1B20020FFF7F9
:10283000E8FF002503E00020FFF7B3FF6D1CF02D3B
:10284000F9D3641C102CF0D330BD10B5554890F866
:102850009200022802D1FFF7E5FF0EE001240021DB
:102860002046FFF7DCFC4F4890F89200012804D185
:1028700000BF00212046FFF7CDFD10BD2DE9FF4F21
:1028800083B081460F469246109CCDF80490BB461B
:10289000069860430090082C02D10125082614E018
:1028A000102C01D0202C02D1022566100DE0402C06
:1028B00002D10425102608E0802C02D10425202610
:1028C00003E0902C01D1062518264FF000081EE0E9
:1028D0000198C1B20BF0FF00FFF793FF00200290B8
:1028E0000CE000991AF80100FFF75BFF0098401C0C
:1028F00000900BF1010B0298401C02900298B0422C
:10290000EFD30198401C0190BB4608F10108A8458F
:10291000DED307B0BDE8F08F2DE9F043A5B08046C7
:1029200089461746902101A823F09AF9B8F1E00FE3
:1029300048D01ADCB8F1900F3CD00CDCB8F1800F15
:102940002BD0B8F1810F2FD0B8F1820F2ED0B8F173
:10295000830F47D12CE0B8F1910F2DD0B8F1920F31
:102960002CD0B8F1930F3DD12AE0B8F1F00F31D05F
:1029700009DCB8F1E10F27D0B8F1E20F26D0B8F1A9
:10298000E30F2FD124E0B8F1F10F25D0B8F1F20F09
:1029900024D0B8F1F30F25D122E0002422E000007A
:1029A00000C009203030001001241BE0022419E08F
:1029B000032417E0042415E0052413E0062411E0A5
:1029C00007240FE008240DE009240BE00A2409E0A5
:1029D0000B2407E00C2405E00D2403E00E2401E0A5
:1029E0000F2400BF00BF2646B9F1010F0CD1F1B290
:1029F0000020FFF706FF002503E00120FFF7D1FECE
:102A00006D1CF02DF9D32CE0032F0DD1002508E02B
:102A100040230093002301AAE9B2F0B2FFF72EFF92
:102A20000F35F02DF4D31CE0022F0DD1002508E066
:102A300090230093002301AAE9B2F0B2FFF71EFF32
:102A40001735F02DF4D30CE0002508E02023009387
:102A5000002301AAE9B2F0B2FFF710FF0F35F02D05
:102A6000F4D325B0BDE8F0832DE9FF4FADF5357DFA
:102A700082468946DDF80CB390218FA823F0F0F848
:102A8000302183A823F0ECF8002082904FF40071ED
:102A900002A823F0E5F800200190BAF1E00F43D03E
:102AA0001ADCBAF1900F37D00CDCBAF1800F2BD0C2
:102AB000BAF1810F2AD0BAF1820F29D0BAF1830F6F
:102AC00042D127E0BAF1910F28D0BAF1920F27D066
:102AD000BAF1930F38D125E0BAF1F00F2CD009DC10
:102AE000BAF1E10F22D0BAF1E20F21D0BAF1E30F2F
:102AF0002AD11FE0BAF1F10F20D0BAF1F20F1FD0A6
:102B0000BAF1F30F20D11DE000261DE001261BE0E5
:102B1000022619E0032617E0042615E0052613E037
:102B2000062611E007260FE008260DE009260BE037
:102B30000A2609E00B2607E00C2605E00D2603E037
:102B40000E2601E00F2600BF00BF35464C465FEA67
:102B5000090404D15A4600215046FFF7DDFE83A840
:102B6000B79922F095FF0020B390002749E100209B
:102B7000829083A8C05D802871DABBF1030F2AD14F
:102B80004FF010080420B49038467F1C83A9085CDD
:102B90008DF808025B468FA982A8C29A1AF036FF08
:102BA000F0B34023009300238FAAE1B2E8B2FFF70D
:102BB00065FE04EB080000EB98049DF8080231283C
:102BC00000D1E41FF02C02D34C46B4980544102DDC
:102BD00026D3554615E1BBF1020F41D14FF018083D
:102BE0000620B49038467F1C83A9085C8DF8080243
:102BF0005B468FA982A8C29A1AF008FF80B19DF89F
:102C000008022E2803D09DF808023A280DD1A4EB23
:102C100098049023009300238FAAE1B2E8B200E069
:102C20001CE0FFF72BFE444410E0902300930023A8
:102C30008FAAE1B2E8B2FFF721FE04EB080000EB37
:102C400098049DF80802312800D10B3CF02C02D3E7
:102C50004C46B4980544102D00D35546D1E02FE0E2
:102C60004FF008080220B49038467F1C83A9085C06
:102C70008DF808025B468FA982A8C29A1AF0C6FE98
:102C8000F0B31023009300238FAAE1B2E8B2FFF75C
:102C9000F5FDBBF1010F09D104EB080000EB98042E
:102CA0009DF80802312802D1E41E00E04444F02CD3
:102CB00002D34C46B4980544102D21D35546A0E0CC
:102CC00083A8C05DF02803D083A8C05DF12829D176
:102CD0004FF008080220B49038467F1C83A9085C96
:102CE0008DF8080238467F1C085C8DF809025B46A7
:102CF0008FA982A8C29A1AF089FE08B1102300E0B9
:102D00000FE0009300238FAAE1B2E8B2FFF7B6FD0F
:102D10004444F02C02D34C46B4980544102D70D393
:102D200055466EE083A8C05D83AA791C515C01EB17
:102D3000002080B201900198A0F52141FB390ED00E
:102D40000198A0F52141FA3909D00198A0F5214157
:102D5000FC3904D00198A0F52141FD392AD1BBF1FD
:102D6000030F27D14FF020080420B49038467F1C71
:102D700083A9085C8DF8080238467F1C085C8DF832
:102D800009025B468FA982A8C29A1AF03FFEC0B31F
:102D90008023009300238FAAE1B2E8B2FFF76EFD13
:102DA0004444F02C02D34C46B4980544102D28D34B
:102DB000554626E04FF010080220B49038467F1C9C
:102DC00083A9085C8DF8080238467F1C085C8DF8E2
:102DD00009025B468FA982A8C29A1AF017FE80B139
:102DE0002023009300238FAAE1B2E8B2FFF746FD4B
:102DF0004444F02C02D34C46B4980544102D00D323
:102E00005546B8988742FFF4B2AE0DF5397DBDE85E
:102E1000F08F2DE9F0478EB080460C4617463021E2
:102E200002A822F01DFF204622F056FE82460246EE
:102E3000214602A822F07BFEF94890F89200022871
:102E400009D10023009301933B46224600214046CE
:102E5000FFF70AFED4E0F24890F89200012872D100
:102E600008F0F000802806D0902805D0E02807D090
:102E7000F0280FD109E000BF46464FF0010909E0F4
:102E800008F08F064FF0020904E008F09F064FF0AB
:102E9000020900BF00BFB9F1010F39D1E048007A43
:102EA000022821D106F0F000802802D090281AD103
:102EB0000CE002A822F010FE824600230093034695
:102EC00002AA012108461AF031FC0CE002A822F007
:102ED00003FE824600230093034602AA012102203A
:102EE0001AF024FC00BF8BE000213046FFF792FA75
:102EF000142F00DD1427002507E014F8016B0121D1
:102F00003046FFF787FA681CC5B2BD42F5DB77E0B3
:102F1000B9F1020F74D1C248007A022822D106F01A
:102F2000F000802802D090281BD10DE002A822F0EA
:102F3000D3FD824600230093034602AA022101200A
:102F40001AF0F4FB0DE021E002A822F0C5FD824654
:102F500000230093034602AA022108461AF0E6FB6A
:102F600000BF4DE000213046FFF759F9142F00DD76
:102F70001427002507E014F8016B01213046FFF704
:102F80004EF9681CC5B2BD42F5DB39E0A448007AB1
:102F9000022821D108F0F000802802D090281AD110
:102FA0000CE002A822F098FD82460023009303461D
:102FB00002AA022101201AF0B9FB0CE002A822F0BB
:102FC0008BFD824600230093034602AA0221084695
:102FD0001AF0ACFB00BF13E0464600213046FFF775
:102FE0001EF9142F00DD1427002507E014F8016BEB
:102FF00001213046FFF713F9681CC5B2BD42F5DB6D
:103000000EB0BDE8F0872DE9F0478EB080460D4642
:103010001746302102A822F023FE284622F05CFD4C
:1030200082460246294602A822F081FD7C4890F89B
:103030009200022809D10023009301933B462A46BF
:1030400000214046FFF710FDF5E0754890F892002A
:1030500001286FD108F0F000802806D0902805D014
:10306000E02807D0F0280FD109E000BF46464FF016
:10307000010909E008F08F064FF0020904E008F0AA
:103080009F064FF0020900BF00BFB9F1010F43D105
:103090006348007A022821D106F0F000802802D08F
:1030A00090281AD10CE002A822F016FD82460023D7
:1030B0000093034602AA012108461AF037FB0CE0F0
:1030C00002A822F009FD824600230093034602AACB
:1030D000012102201AF02AFB00BFACE0002130469B
:1030E000FFF798F9142F00DD1427002407E015F8E6
:1030F000016B01213046FFF78DF9601CC4B2BC4260
:10310000F5DB06E0202601213046FFF783F9601C3D
:10311000C4B2142CF6DB8EE0B9F1020F25D1404881
:10312000007A022822D106F0F000802803D09028EF
:103130001BD10DE038E002A822F0CEFC824600232D
:103140000093034602AA022101201AF0EFFA0CE0D4
:1031500002A822F0C1FC824600230093034602AA83
:10316000022108461AF0E2FA00BF64E0002130466E
:10317000FFF755F8142F00DD1427002407E015F899
:10318000016B01213046FFF74AF8601CC4B2BC4213
:10319000F5DB06E0202601213046FFF740F8601CF1
:1031A000C4B2142CF6DB46E01D48007A022821D177
:1031B00008F0F000802802D090281AD10CE002A874
:1031C00022F08AFC824600230093034602AA0221D1
:1031D00001201AF0ABFA0CE002A822F07DFC824636
:1031E00000230093034602AA022108461AF09EFA21
:1031F00000BF20E0464600213046FFF710F8142FAC
:1032000000DD1427002407E015F8016B012130468A
:10321000FFF705F8601CC4B2BC42F5DB09E0000012
:1032200030300010202601213046FEF7F8FF601CE8
:10323000C4B2142CF6DB0EB0BDE8F08770B50446BE
:10324000F84890F89200012849D134B1012C14D0EB
:10325000022C22D0032C40D12FE024250021284627
:10326000FFF7D8F8042500212846FFF7D3F82025DA
:1032700000212846FFF7CEF830E02425002128461B
:10328000FFF7C8F8052500212846FFF7C3F82025D9
:1032900000212846FFF7BEF820E02425002128461B
:1032A000FEF7BDFF042500212846FEF7B8FF2025C4
:1032B00000212846FEF7B3FF10E024250021284610
:1032C000FEF7ADFF052500212846FEF7A8FF2025C3
:1032D00000212846FEF7A3FF00E000BF1BE02425E5
:1032E00000212846FEF79BFF14B1012C0CD105E00C
:1032F000042500212846FEF792FF06E0052500215F
:103300002846FEF78CFF00E000BF00BF202500210B
:103310002846FEF784FF70BD2DE9F0410746012FD6
:1033200001D1FF2600E000264FF03608002140467C
:10333000FEF775FF00BF00214046FEF770FF4FF01B
:10334000010800214046FEF76AFF002415E004F161
:103350008001C8B20021FEF762FF00218020FEF745
:103360005EFF002505E001213046FEF758FF681C8E
:10337000C5B2102DF7DB601CC4B2202CE7DB0024A3
:1033800015E004F18001C8B20021FEF748FF0021DA
:103390008820FEF744FF002505E001213046FEF7B6
:1033A0003EFF681CC5B2102DF7DB601CC4B2202C98
:1033B000E7DB4FF0200800214046FEF730FF994838
:1033C00090F8920001284AD14FF03608002140467B
:1033D000FFF720F800BF00214046FFF71BF84FF031
:1033E000010800214046FFF715F8002415E004F11C
:1033F0008001C8B20021FFF70DF800218020FFF7FF
:1034000009F8002505E001213046FFF703F8681CA4
:10341000C5B2102DF7DB601CC4B2202CE7DB002402
:1034200015E004F18001C8B20021FEF7F3FF00218E
:103430008820FEF7EFFF002505E001213046FEF76A
:10344000E9FF681CC5B2102DF7DB601CC4B2202C4C
:10345000E7DB4FF0200800214046FEF7E0FEBDE824
:10346000F08170B505466F4890F8920001281FD191
:1034700005F0F000802806D0902805D0E02808D07C
:10348000F02814D10CE000BF00212846FEF7C2FF4F
:103490000DE005F08F0400212046FEF7C0FE06E097
:1034A00005F09F0400212046FEF7B9FE00BF03E0AF
:1034B00000212846FEF7B3FE70BD70B5044659489A
:1034C00090F8920001280ED10F25012C04D1002183
:1034D0002846FEF79FFF0BE0022C09D10021284669
:1034E000FEF79DFE04E00F2500212846FEF797FE1B
:1034F00070BD70B504464B4890F8920001280ED17B
:103500000C25012C04D100212846FEF783FF0BE097
:10351000022C09D100212846FEF781FE04E00C258B
:1035200000212846FEF77BFE70BD70B504460025DD
:103530000DE0E9B20020FFF764F9002604E014F87A
:10354000010BFFF72EF9761CF02EF8D36D1C102D11
:10355000EFD370BD70B50546FFF764F9002412E0A3
:10356000E1B20020FFF74DF9FF20FFF71AF900261E
:1035700003E0285DFFF715F9761CEE2EF9D3FF2046
:10358000FFF70FF9641C102CEAD370BD2DE9F74F3B
:10359000ADF5447D0D4616464FF44271684622F063
:1035A0005FFBC498E02834D012DC902829D008DCD6
:1035B00080281ED081281ED082281ED083283BD18F
:1035C0001DE091281FD092281FD0932834D11EE0EF
:1035D000F02829D006DCE1281DD0E2281DD0E32800
:1035E0002AD11CE0F12821D0F22821D0F32823D1C0
:1035F00020E0002420E001241EE002241CE003243B
:103600001AE0042418E0052416E0062414E0072438
:1036100012E0082410E009240EE00A240CE00B2438
:103620000AE00000303000100C2405E00D2403E017
:103630000E2401E00F2400BF00BFA046A9461EB91A
:103640000DF5477DBDE8F08F694630461AF0F7FA70
:103650000520C3909B20C2904FF0000A002719E07C
:1036600008F0FF0109F0FF00FFF7CBF84FF0000B67
:1036700009E01DF80A00FFF794F80AF1010A09F1C0
:1036800001090BF1010BC2988345F2D308F101083F
:10369000A9467F1CC3988742E2D300BFD0E710B58C
:1036A00004461A48FFF741FF10BDF0B504460D4629
:1036B00017462E46E91705EB5171C910B031C8B253
:1036C000FEF7D4FF2646E11704EB1171091101F151
:1036D0001000FEF7CBFFE11704EB11710911A4EB09
:1036E0000111C8B2FEF7C2FF67B12E46E91705EB1C
:1036F0005171C910A5EBC10201219140C8B2FFF779
:1037000050F802E00020FFF74CF8F0BD66710200AF
:103710000146082917D007DCF9B101290DD002298B
:103720000DD004291BD10CE010290ED020290ED079
:1037300040290ED0802912D10DE0002011E0012097
:103740000FE002200DE003200BE0042009E005203B
:1037500007E0062005E0072003E0102001E020201C
:1037600000BF00BF70472DE9F04700224FF44041F1
:10377000012020F0CFFD01224FF47C71002020F0C9
:10378000C9FD01224FF44031104620F0C3FD4FF433
:103790007C71002020F0DCFD4FF44031012020F04E
:1037A000D7FD4FF0180900BFA9F10100C0B25FEAD0
:1037B0000009F9D1012020F0D5FDC0F381370022A6
:1037C0004FF47C71104620F0A5FD00224FF44031EB
:1037D000012020F09FFD01224FF44041104620F0CF
:1037E00099FD4FF44041012020F0B2FD4FF018093F
:1037F00000BFA9F10100C0B25FEA0009F9D10120C0
:1038000020F0B0FDC0F3014A002020F0ABFDC0F372
:1038100005104AEA8008032121EA0700FFF778FF34
:1038200004466FEA0800C0B2FFF772FF0546102C8D
:1038300003D1102D01D1FF260EE0102C01D0102D48
:1038400001D1FE2608E0202C01D0202D01D1FD263B
:1038500002E005EBC400C6B200224FF44041012053
:1038600020F058FD01224FF47C71002020F052FD21
:1038700001224FF44031104620F04CFD4FF47C7192
:10388000002020F065FD4FF44031012020F060FD64
:103890004FF0180900BFA9F10100C0B25FEA0009AA
:1038A000F9D13046BDE8F08770B57E480078012830
:1038B00075D1FFF758FF7C490870FF2828D17B4855
:1038C0000078FF2803D17A480078002809DD01221A
:1038D0009107104620F01EFD4FF08041012020F09E
:1038E00037FD002072490870FF20704908706E494A
:1038F000087000206B4908706E48006920F0407025
:103900006C4908610846006940F08070086166E013
:103910006648007864490978884260D16248007836
:10392000FD283DD060480078FE2839D060480078F6
:10393000A0BB01205E4908705C4800785E49886041
:1039400008315E4800681DF01BFC0646642522E035
:10395000002400E0641C42F228308442FADB012299
:10396000C106104620F0D6FC4FF08041012020F027
:10397000E5FC002400E0641C42F228308442FADBBB
:103980000122C106104620F0C5FC4FF08041012005
:1039900020F0DEFC6D1E002DDADC20E000E022E0ED
:1039A00043480078002809DD41480078FF2805DAFF
:1039B0003F480078401C3E49087002E000203C4926
:1039C00008703B480078052809D10122810710467C
:1039D00020F0A0FC4FF08041012020F0B9FC3248DB
:1039E00000783249087070BD10B5022000DF1EF06B
:1039F000F4FA3048006920F040702E490861012037
:103A00002849087004202E4908601EF0F4FA0320AB
:103A100000DF10BD10B52748006920F0407025492F
:103A200008610846006940F0807008612548006818
:103A300040F004002449C1F848014FF00000234938
:103A400008604FF03802AFF25F014FF024001CF025
:103A500080FC1CF07AFC10BD10B500224FF44041F0
:103A6000012020F057FC01224FF47C71002020F04F
:103A700051FC01224FF44031104620F04BFC4FF432
:103A80007C71002020F064FC4FF44031012020F0D4
:103A90005FFC182400BF601EC0B20400FBD1FFF71A
:103AA000B9FF10BD780000107A0000107B000010F4
:103AB0007900001000C00240B03500105000001026
:103AC00040C10F4048C10F4000C00F404CC10F40E3
:103AD0002DE9F04107460024FF4E4FF40C654FF4EA
:103AE000047095FBF0F0401C0FFA80F8012F0ED106
:103AF00000BF09E004F10A0188B2314621F005FC5B
:103B000006F50476601C84B24445F3DB1EE01BE03E
:103B1000B5F5047F09DD04F10A0188B233464FF49C
:103B20000472002121F028FB07E004F10A0188B2A9
:103B30003346AAB2002121F01FFB601C84B2A5F518
:103B4000047005B206F50476002DE1DCBDE8F081D5
:103B50002DE9F041054600BFE04EB0244FF404705B
:103B600094FBF0F0401C07B2012D04D1314609202E
:103B700021F0CBFB05E03346A2B20021092021F061
:103B8000FBFAD74E0D244FF4047094FBF0F0401C68
:103B900007B2012D04D13146172021F0B6FB05E014
:103BA0003346A2B20021172021F0E6FABDE8F081E9
:103BB0002DE9F041044600BFCA4D50264FF4047071
:103BC00096FBF0F0401C07B2012C04D129461520C9
:103BD00021F09BFB05E02B46B2B20021152021F01D
:103BE000CBFABDE8F0812DE9F041044600BFBE4D9F
:103BF00010264FF4047096FBF0F0401C07B2012C25
:103C000004D12946072021F080FB05E02B46B2B203
:103C10000021072021F0B0FABDE8F0812DE9F04144
:103C2000044600BFB14DF5264FF4047096FBF0F04A
:103C3000401C07B2012C04D12946162021F065FB57
:103C400005E02B46B2B20021162021F095FABDE81E
:103C5000F08170B50446A64DB826012C06D1A549C1
:103C6000B1F84401294621F050FB07E0A149B1F821
:103C700044012B46B2B2002121F07EFA9D48B0F8F3
:103C80004411B0F84401401C9A4AA2F84401B1F52D
:103C90007A6F03DD1E201146A1F84401954D4FF4C3
:103CA000CE76012C04D12946082021F02EFB05E018
:103CB0002B46B2B20021082021F05EFA70BD70B52B
:103CC000ACB0FEF7C2FDB0228449684621F074FF13
:103CD000824E002404E0002006F8010B601C84B230
:103CE000B02CF8D37C4E002404E0002006F8010B31
:103CF000601C84B2B4F50C6FF7D300246CE0012192
:103D000076487C3001551A2108300155601CC1B23B
:103D100079480155601CC1B277480830015500252B
:103D200056E005F0D9FAD0B98320C4EBC40101EB09
:103D30008101694A02EBC101C5EBC50201EB8201B9
:103D400008720020C4EBC40101EB8101624A02EB5E
:103D5000C101C5EBC50201EB8201487219E0812067
:103D6000C4EBC40101EB81015B4A02EBC101C5EB6D
:103D7000C50201EB820108726320C4EBC40101EBB0
:103D80008101554A02EBC101C5EBC50201EB82017D
:103D900048726420C4EBC40101EB81014E4A02EB7E
:103DA000C101C5EBC50201EB82014860681C04EB50
:103DB0008401514AA03A02EB41014855C1B204EBDB
:103DC00084024D48503800EB42004155681C85B2D2
:103DD0000A2DA6DB601C84B2082C90DB4FF49850AF
:103DE0003E4908804FF4B850488005F072FA48B94F
:103DF00042483A4948604248C1F8A4004148C1F8E5
:103E0000A80006E03D4835494860C1F8A400C1F863
:103E1000A80014203749A1F8440164212F48816487
:103E200000202E49C86300212C480164416481644C
:103E300000202A49C865002128480166416681663C
:103E400000202649C8600021244801614FF4FA602F
:103E5000224988616420C861002081F88C0002201A
:103E600081F89800012081F88E0081F88F0081F898
:103E70009500022081F8960081F897009DF8920045
:103E800081F892009DF8930081F893009DF89400CA
:103E900081F894009DF8AC0081F8AC009DF8AD006D
:103EA00081F8AD00012081F89900002081F89A0086
:103EB0002CB070BD38B50446214613A015F0C5FDE1
:103EC000164800681CF0D4FD200615490860154806
:103ED00000681CF0B0FE27E0F02600103030001023
:103EE000F030001088330010E0300010D83300109C
:103EF00000310010B8310010A035001040E2010080
:103F00009D71FD048931FD040D0A536574546F756C
:103F1000426953746174203D2025750044000010EF
:103F2000B03500104C0000106A464FF4C8610248DA
:103F300000681CF026FE38BD4400001010B50220B9
:103F400000DF1EF04AF801204FF040210860FFF723
:103F5000ABFCD54890F89600012801D10BF064FB2A
:103F6000D2484089002804DDD0484089401ECF490E
:103F70004881CF480088002804DDCD480088401ED5
:103F8000CB490880CA484088002804DDC8484088DA
:103F9000401EC7494880C6488088002804DDC448C0
:103FA0008088401EC2498880C248B0F80C020028B0
:103FB00006DDC048B0F80C02401EBE49A1F80C0254
:103FC000BC48B0F80E02002806DDBA48B0F80E0270
:103FD000401EB849A1F80E02B748B0F80602002802
:103FE00006DDB548B0F80602401EB349A1F8060246
:103FF000B148B0F80802002806DDAF48B0F8080262
:10400000401EAD49A1F80802AB48B0F80A020028EA
:1040100006DDA948B0F80A02401EA749A1F80A0225
:10402000A548B0F80C02002806DDA348B0F80C0241
:10403000401EA149A1F80C029E48B0F80C020028CD
:1040400006DD9C48B0F80C02401E9A49A1F80C020B
:104050009848B0F80E02002806DD9648B0F80E0227
:10406000401E9449A1F80E029348B0F814020028AB
:1040700006DD9148B0F81402401E8F49A1F81402E1
:104080008D48B0F82202401C8B49A1F82202084654
:10409000B0F82602002805DD0846B0F82602401ECA
:1040A000A1F8260285480078401C8449087008461B
:1040B000007864287EDB002008707E48B0F810028B
:1040C000002806DD7B48B0F81002401E7949A1F8AF
:1040D00010027848B0F81202002806DD7548B0F8E2
:1040E0001202401E7349A1F812027348B0F80E0282
:1040F000002806DD7048B0F80E02401E6E49A1F897
:104100000E026D48B0F81002002806DD6A48B0F8CB
:104110001002401E6849A1F810026748B0F8120268
:10412000002806DD6448B0F81202401E6249A1F87A
:1041300012026148B0F86603002806DD5E48B0F858
:104140006603401E5C49A1F866035B48B0F86A0349
:1041500030B15948B0F86A03401E5749A1F86A03C4
:10416000554890F8160210F0010F06D05248B0F8EA
:104170001802401C5049A1F818024F48B0F81A0222
:10418000401C4D49A1F81A02084690F8160210F09A
:10419000040F05D00846B0F81C02401CA1F81C0210
:1041A000454890F8160210F0080F08D04248B0F8C1
:1041B0001E0200E017E0401C3F49A1F81E023E48E5
:1041C00090F8160210F0100F06D03B48B0F820020D
:1041D000401C3949A1F820023748B0F87403401C4C
:1041E0003549A1F874031DF006FF032000DF10BD60
:1041F00010B5022000DF1DF0F0FE012030490860FC
:104200001DF0F9FE032000DF10BD20B901214FF0A1
:104210004022516002E00121294A5160704720B9D3
:1042200000214FF04022516002E00021244A5160F9
:104230007047014631B94FF04022506840F002000B
:10424000506004E01E4A506840F002005060704721
:1042500070B505460C4600201849087085B94FF026
:104260004020846103204FF0402148613822AFF2A2
:10427000333111201CF06DF81CF067F8012070BD7F
:10428000012D0ED10E48846103200D49486138226A
:10429000AFF2A30112201CF05CF81CF056F80020CD
:1042A000EDE70120EBE7000030300010D26800108D
:1042B0002C000010EC5C0010206000107C0000104E
:1042C0000080004070B504460D46214643A01AF018
:1042D00025FF35B9042008F01EFD204608F041FDF9
:1042E00006E0032008F017FD204608F03AFD00BF65
:1042F00000BF08F02FFD70BD2DE9F05F81460E462E
:10430000924608F06FFD08F0FEFC4FF0000B43E012
:104310004FF00008002701214846FFF7D3FF07EBC5
:104320000900C7B2002408E0305D0021FFF7CAFF92
:10433000305D3844C7B2601CC4B25445F4DB002180
:104340003846FFF7BFFF28201DF08AFC24212548AE
:1043500008F01DFD0546294623A01AF0DFFE0024C3
:1043600006E02048015D1DA01AF0D8FE601CC4B212
:10437000AC42F6DB08F0C1FC804641461EA01AF0B4
:10438000CDFEB8F1000F00D109E014201DF068FC4B
:104390000BF1010000F0FF0BBBF1080FB8DB00BF11
:1043A000B8F1000F01D0404600E0681EC0B2BDE881
:1043B000F09F0246242900DD2421002004E0094B5F
:1043C0001B5C1354431CD8B28842F8DB704701468B
:1043D000242901DD012070470020FCE72025303230
:1043E00078000000505A00100D0A52203D20253060
:1043F0003278202D200000002009657272203D20B7
:10440000253032780000000070B50446092C22DD0A
:104410000020FF490860FF490870FF480470002031
:10442000FD494870FD48007A022809D1084621F06C
:1044300053FBC5B22A46F8499020FEF7EAFC2AE071
:10444000F54821F049FBC5B22A46F349F448007803
:10445000FEF7DFFC1FE0F049EE4A1278881822468A
:10446000F0A121F0ABF8ED48007A022809D1EA4822
:1044700021F032FBC5B22A46E7499020FEF7C9FC7D
:1044800009E0E54821F028FBC5B22A46E249E448A4
:104490000078FEF7BEFC70BD70B504460B2C26DD1F
:1044A0000020DB4908600024DA490870DEA1DA4800
:1044B00021F0EEFAD948007A022809D1D64821F035
:1044C0000BFBC5B22A46D4499020FEF7A2FC09E0B6
:1044D000D14821F001FBC5B22A46CF49D048007827
:1044E000FEF797FCCE480078FEF7BBFF18E10B2CD7
:1044F00070D1C8480078002867DDCE4800780128D0
:104500000DD10020CB490870C14800680A21B0FBDA
:10451000F1F000EB80004000BD49086025E0C6488E
:10452000007801280BD10020C3490870B848006802
:104530006421B0FBF1F04843B549086015E0BF487D
:10454000007801280AD10020BC490870B0480068F2
:104550006421B0FBF1F0AE49086006E0AC480068A9
:104560000A21B0FBF1F0AA490860AA490A78097843
:10457000491EA84B1970A8491144481EB0A121F04A
:104580001DF8A648007A022809D1A34821F0A4FA10
:10459000C5B22A46A0499020FEF73BFC09E09E48A0
:1045A00021F09AFAC5B22A469B499D480078FEF749
:1045B00030FC98490D7805EBD571994A127802EBD9
:1045C0006101C8B2FEF74DFFAAE000209D490870C6
:1045D000A6E0FFE78F4800789B490978884228DAEF
:1045E0000A2C33D19548007878BB98480078012888
:1045F0002CD19249087000208F4908708D490870AD
:1046000084490A780978491C824B197082495018EC
:104610008FA290A120F0D2FF8048007A022809D111
:104620007D4821F059FAC5B22A467B499020FEF711
:10463000F0FB75E0784821F04FFAC5B22A4676497A
:1046400077480078FEF7E5FB6AE0FFE70A2C67DAB7
:1046500001207C4908707948007801281FD17648EC
:10466000007801280DD173480078012800D170BD71
:104670000120704908706648006820446449086059
:1046800015E001206C4908706148006864214843C6
:1046900004EB840100EB41005D49086007E05C48E1
:1046A000006800EB800004EB4000594908606A484C
:1046B000007860B157490A780978491C554B197040
:1046C0005549501865A263A120F078FF0BE05149CD
:1046D0000A780978491C4F4B19704F4950182246E7
:1046E00050A120F06BFF4D48007A022804D04B48BF
:1046F00090F89200022809D1474821F0EDF9C5B29F
:104700002A4645499020FEF784FB09E0424821F003
:10471000E3F9C5B22A46404941480078FEF779FBE3
:1047200000BFA4E72DE9F0479AB0054600208DF8B8
:104730003800FEF78AF84FF00408C8F10A09484823
:10474000405D401E46B20024C3E006EB86004449AB
:10475000A03901EB4000005DE8B306EB860001EBF9
:104760004000005D401E47B2C6EBC60000EB800073
:104770003C4901EBC000C7EBC70100EB8100007AA8
:1047800080280CD12548017A374850F82130009311
:10479000631C6A1C35A102A820F010FF93E0C6EB51
:1047A000C60000EB80002F4901EBC000C7EBC7013A
:1047B00000EB8100007A82280ED11848017A2A483D
:1047C000103850F821300093631C6A1C27A102A8FE
:1047D00020F0F4FE77E07AE0C6EBC60000EB800044
:1047E000204901EBC000C7EBC70100EB8100007A54
:1047F00083283FD10948017A1B48703050F8213096
:104800000093631C6A1C19A102A820F0D7FE5AE08D
:10481000800100107C0100108A5A00103030001016
:104820007B0100102578000020202020202020205F
:10483000000000005A01001059010010580100103A
:1048400020000000840100105401001057010010E6
:104850002E00000025730000560100102A00000001
:10486000A0350010F0260010D42400102564256423
:1048700025730000C6EBC60000EB8000FA4901EB8F
:10488000C000C7EBC70100EB8100407A68B9F74868
:10489000017AF74850F821300093631C6A1CAFF28C
:1048A000340102A820F08AFE0DE0F048017AF048B9
:1048B000903850F821300093631C6A1CAFF2540109
:1048C00002A820F07BFE02A90EA821F024F9601CAA
:1048D000C4B24445FFF639AF0EA821F0FDF800F050
:1048E000FF0A52460EA98020FEF793FA00208DF8A9
:1048F0003800B9F1000F7DDD042496E006EB860058
:10490000DC4901EB4000005DF0B306EB860001EBF3
:104910004000005D401E47B2C6EBC60000EB8000C1
:10492000D14901EBC000C7EBC70100EB8100007A61
:1049300080280ED1CD48017ACD48703850F821300A
:104940000093631C6A1CAFF2DC0102A820F036FE63
:1049500065E0C6EBC60000EB8000C34901EBC00078
:10496000C7EBC70100EB8100007A822810D1BF4855
:10497000017ABF48803850F821300093631C6A1CCC
:10498000AFF2181102A800E04DE020F017FE46E05B
:10499000C6EBC60000EB8000B34901EBC000C7EBDB
:1049A000C70100EB8100007A83280DD1AF48017A5E
:1049B000AF4850F821300093631C6A1CAFF25411C9
:1049C00002A820F0FBFD2AE0C6EBC60000EB800049
:1049D000A54901EBC000C7EBC70100EB8100407A9D
:1049E00078B9A248017AA24850F821300093631C9C
:1049F0006A1C00E028E0AFF28C1102A820F0DEFD76
:104A00000DE09A48017A9A48903850F82130009386
:104A1000631C6A1CAFF2AC1102A820F0CFFD02A902
:104A20000EA821F078F8601CC4B209F10400844299
:104A3000FFF664AF0EA821F04FF800F0FF0A5246CF
:104A40000EA99020FEF7E5F9884890F89200012819
:104A500004D0864890F89200022875D1681CC5B22F
:104A600000208DF838004FF00408C8F10A09814889
:104A7000A030405D401E46B2002495E006EB860063
:104A80007C4901EB4000005DF0B306EB860001EBD2
:104A90004000005D401E47B2C6EBC60000EB800040
:104AA000714901EBC000C7EBC70100EB8100007A40
:104AB00080280ED16D48017A6D48703850F8213049
:104AC0000093631C6A1CAFF25C2102A820F076FD03
:104AD00064E0C6EBC60000EB8000634901EBC00058
:104AE000C7EBC70100EB8100007A822810D15F4834
:104AF000017A5F48803850F821300093631C6A1CAB
:104B0000AFF2982102A800E04CE020F057FD45E00C
:104B1000C6EBC60000EB8000534901EBC000C7EBB9
:104B2000C70100EB8100007A83280ED14F48017A3B
:104B30004F4850F821300093631C6A1CAFF2D42117
:104B400002A820F03BFD29E0B2E0C6EBC60000EB76
:104B50008000454901EBC000C7EBC70100EB8100B5
:104B6000407A68B94148017A414850F821300093B1
:104B7000631C6A1CAFF20C3102A820F01FFD0DE08F
:104B80003A48017A3A48903850F821300093631C33
:104B90006A1CAFF2283102A820F010FD02A90EA86D
:104BA00020F0B9FF601CC4B24445FFF667AF0EA801
:104BB00020F092FF00F0FF0A52460EA9E020FEF717
:104BC00028F900208DF83800B9F1000F70DD0424B9
:104BD0009EE006EB8600274901EB4000005DF0B344
:104BE00006EB860001EB4000005D401E47B2C6EBBD
:104BF000C60000EB80001C4901EBC000C7EBC701F9
:104C000000EB8100007A80280ED11848017A1848FC
:104C1000703850F821300093631C6A1CAFF2B43135
:104C200002A820F0CBFC6DE0C6EBC60000EB8000D4
:104C30000D4901EBC000C7EBC70100EB8100007A12
:104C4000822819D10948017A0948803850F8213062
:104C50000093631C6A1CAFF2EC3102A800E055E03F
:104C600020F0ACFC4EE00000F026001030300010C8
:104C70004425001000350010C6EBC60000EB800094
:104C8000FB4901EBC000C7EBC70100EB8100007AD4
:104C900083280ED1F748017AF74850F82130009365
:104CA000631C6A1CAFF23C4102A820F087FC29E09B
:104CB0003DE0C6EBC60000EB8000ED4901EBC00013
:104CC000C7EBC70100EB8100407A68B9E948017A77
:104CD000E94850F821300093631C6A1CAFF274411C
:104CE00002A820F06BFC0DE0E248017AE24890381F
:104CF00050F821300093631C6A1CAFF2904102A867
:104D000020F05CFC02A90EA820F005FF601CC4B2D4
:104D100009F104008442FFF65CAF0EA820F0DCFE2F
:104D200000F0FF0A52460EA9F020FEF772F80120AB
:104D30001AB0BDE8F0872DE9F0479AB00746002089
:104D40008DF83800FDF781FD4FF00408C8F10A091D
:104D5000CA48C05D401E44B2002585E004EB8400D3
:104D6000C649A03901EB4000405DB8B304EB8400B4
:104D700001EB4000405D401E46B230E0C4EBC40091
:104D800000EB8000BA4901EBC000C6EBC60100EBA6
:104D90008100007D00280EDDB648017AB6487038E3
:104DA00050F8213000936B1C7A1CAFF2405102A8DE
:104DB00020F004FC14E00A2E0AD004EB8400AF4972
:104DC000A03901EB40023046711C4EB2105C30B984
:104DD0000026601C44B2082C01D101E042E0CDE77E
:104DE00000BF2FE0C4EBC40000EB8000A04901EB42
:104DF000C000C6EBC60100EB8100007D00280EDD7F
:104E00009C48017A9C48703850F8213000936B1C04
:104E10007A1CAFF2A85102A820F0D0FB13E00A2EB2
:104E20000AD004EB84009549A03901EB40023046DA
:104E3000711C4EB2105C28B90026601C44B2082CCC
:104E400000D100E0CEE700BF02A90EA820F063FE6B
:104E50000EA820F041FE00F0FF0A52460EA9902055
:104E6000FDF7D7FF681CC5B24545FFF677AF0EA822
:104E700020F032FE00F0FF0A52460EA98020FDF716
:104E8000C8FF00208DF83800B9F1000F7EDD042541
:104E900097E004EB84007949A03901EB4000405DC4
:104EA000F0B304EB840001EB4000405D401E46B2CD
:104EB000C4EBC40000EB80006D4901EBC000C6EB01
:104EC000C60100EB8100007A80280ED16948017A82
:104ED0006948703850F8213000936B1C7A1CAFF28F
:104EE000746102A820F06AFB65E0C4EBC40000EB2B
:104EF00080005F4901EBC000C6EBC60100EB8100FA
:104F0000007A822810D15B48017A5B48803850F8DB
:104F1000213000936B1C7A1CAFF2B06102A800E054
:104F20004DE020F04BFB46E0C4EBC40000EB8000FA
:104F30004F4901EBC000C6EBC60100EB8100007ACF
:104F400083280DD14B48017A4B4850F8213000930B
:104F50006B1C7A1CAFF2EC6102A820F02FFB2AE058
:104F6000C4EBC40000EB8000414901EBC000C6EB7C
:104F7000C60100EB8100407A78B93E48017A3E488C
:104F800050F8213000936B1C7A1C00E028E0AFF24F
:104F9000247102A820F012FB0DE03648017A364851
:104FA000903850F8213000936B1C7A1CAFF244719A
:104FB00002A820F003FB02A90EA820F0ACFD681C9B
:104FC000C5B209F104008542FFF663AF0EA820F0D8
:104FD00083FD00F0FF0A52460EA99020FDF719FF4D
:104FE00001201AB0BDE8F087704710B504460020D4
:104FF00023490860FFF7F8FF0020FEF71FF91D485E
:10500000007A022805D107221EA19020FDF701FF9A
:1050100005E007221BA11D480078FDF7FAFE0020DD
:105020001B49087019480078FEF71BFA0120FEF7AB
:1050300044FA00201749087001201749087010BD74
:1050400001460A2908D11548007828B91348007884
:10505000401C124A107078E00E2921D10F480078C8
:1050600001281DD10D480078401C0C4A10706CE0DE
:10507000F02600103030001044250010A03500103C
:105080008001001020202020202020007B01001023
:1050900058010010840100107A0100104401001032
:1050A0000B2909D1F3480078022805D1F14800788E
:1050B000401CF04A107048E00C2909D1ED480078F6
:1050C000032805D1EB480078401CEA4A10703CE008
:1050D0000A2909D1E7480078042805D1E548007875
:1050E000401CE44A107030E0082909D1E1480078FA
:1050F000052805D1DF480078401CDE4A107024E006
:10510000082909D1DB480078062805D1D94800785C
:10511000401CD84A107018E00B2913D1D5480078EC
:1051200007280FD10020D34A1070D348807B012874
:1051300003D00120D04A907302E00020CE4A907341
:10514000012070470020CB4A10700020F9E7F8B525
:1051500000260120C9490860C949086012F077FE9D
:10516000022012F086F80020C6490860C64908707F
:10517000C64908700820C64908700020C549087053
:105180000120C54908700020C4490870C44908704E
:1051900012F043FE48E06A460021C24800681BF056
:1051A00087FF04469DF80000F0BBBA48007801284C
:1051B0007DD12078082855D006DC76D2DFE800F0D3
:1051C0003E1F1770626C661B0D283FD008DC092853
:1051D00044D00A2852D00B284CD00C2865D131E09D
:1051E0000E2837D00F2841D0FF285ED15CE02F2059
:1051F000FFF70AF95AE01820FFF706F956E09F4832
:10520000006800EB4000A84901EBC000C088A0F591
:105210004071E7390ED09948006800EB4000A24980
:1052200001EBC000C08800E0CBE394490860012096
:1052300012F01FF800209749087037E01920FFF797
:10524000E3F833E00120FFF7DFF82FE00220FFF75B
:10525000DBF82BE00320FFF7D7F827E00420FFF767
:10526000D3F823E00520FFF7CFF81FE00620FFF773
:10527000CBF81BE00720FFF7C7F817E00820FFF77F
:10528000C3F813E00920FFF7BFF80FE00020FFF795
:10529000BBF80BE00BE008E02E20FFF7B5F805E0C7
:1052A0002120FFF7B1F801E000E000BF89E3794871
:1052B000007802284ED1207810283FD2DFE800F095
:1052C0002A17083E473E4809434246453F4041446D
:1052D0003FE076480078002808DD74480078401EDA
:1052E0007249087008460078FFF71CFA31E0002088
:1052F000684908706148006800EB40006A4901EBAA
:10530000C000C088A0F54071E73902D0012011F03B
:10531000B0FF1EE06548007807280EDA644863494C
:105320000978491C405C40B160480078401C5F49E6
:10533000087008460078FFF7F5F90AE000BF00BFE3
:1053400000BF00BF00BF00BF00BF00BF00BF00BF65
:1053500000BF36E357480078F0B301205649087083
:10536000207808287ED006DC7DD2DFE800F0E8B4A3
:1053700017E4EFEEEDB30D2876D008DC092874D0E1
:105380000A2873D00B2872D00C286CD1D8E00E28D4
:105390006ED00F286DD0FF2865D100E13748006836
:1053A00000EB4000404901EBC00000694349086040
:1053B000084600688047012824D13048006800EB87
:1053C0004000394901EBC0008088A0F54071E73901
:1053D0000FD02A48006800E0E4E029490860274827
:1053E000006800EB4000304901EBC0008088234991
:1053F0000860022011F03DFF002022490860234987
:1054000008702EE02EA1304820F042FB2F48007A91
:10541000022809D12C4820F05FFBC7B23A462A493E
:105420000220FDF7F6FC09E0274820F055FBC7B243
:105430003A46254926480078FDF7EBFC64201CF02D
:105440000FFC0C20FFF728F80020104908701F48B7
:1054500090F89200022804D1002211469020FDF716
:105460005BFA9EE07FE09BE071E078E087E082E01D
:1054700071E07CE044010010E03000106C0100108D
:105480006801001080010010840100107C010010F0
:10549000540100107901001057010010560100104E
:1054A0004901001050000010941100104801001034
:1054B000A03500107A0100105B0100105C010010A3
:1054C00045202020000000008A5A001030300010D3
:1054D0007B01001065E0FD48007808BBFC480068CF
:1054E00000EB4000FB4901EBC0004088012808D1D7
:1054F000F748006800EB400001EBC000C088F449A9
:1055000008600120FDF7F5FF0820F349087000202E
:10551000F2490870F2490870012011F0AAFE09E072
:105520000020EA490870EF490860EF4908700C2034
:10553000FEF7B2FF35E00B20FEF7AEFF31E030E0C2
:105540000120FEF7A9FF2CE021E024E01BE002206F
:10555000FEF7A2FF25E00320FEF79EFF21E00420D6
:10556000FEF79AFF1DE00520FEF796FF19E00620E2
:10557000FEF792FF15E00720FEF78EFF11E00820EE
:10558000FEF78AFF0DE00920FEF786FF09E0002004
:10559000FEF782FF05E00A20FEF77EFF01E000E053
:1055A00000BF0BE2207808287ED006DC7DD2DFE841
:1055B00000F0FEA417FDFCFBFA470D2876D008DCAE
:1055C000092874D00A2873D00B2872D00C286CD10B
:1055D000D3E10E286ED00F286DD0FF2865D1EAE107
:1055E000BB48006800EB4000BA4901EBC00000690D
:1055F000BE49086008460068804701281CD1B448AD
:10560000006800EB4000B34901EBC0008088A0F5C2
:105610004071E73910D0AE480068B5490860AC4821
:10562000006800EB4000AB4901EBC0008088A8494E
:105630000860022011F01DFE0020AA490860BCE1AC
:10564000A348006800EB4000A24901EBC00040897C
:10565000A0F54071E7394FD09D480068A0F5407132
:10566000E73949D0A348807B012838D098480068A2
:1056700000EB4000974901EBC0004089C5B206E04D
:1056800005EB4500934901EBC0004089C5B205EB2D
:105690004500904901EBC0008089012819D18C4850
:1056A000006800EB400007E071E185E169E16DE130
:1056B0007BE171E166E16EE101EBC0000089A0F5DC
:1056C0004071E73905D082480068A0F54071E7399C
:1056D000D6D17F480560072011F0CBFD0CE07C4857
:1056E000006800EB40007B4901EBC000408978492D
:1056F0000860072011F0BDFD5FE17548006800EB10
:105700004000744901EBC000C088A0F54071E73942
:105710000DD06F48006800EB40006E4901EBC000FF
:10572000C0886B490860012011F0A3FD79E00120D9
:10573000FEF7CEF90120FEF70BFA0120FEF738FA4A
:10574000022012F084FB0120FEF768FA0120FEF728
:1057500080FA002067498873FDF777F8664890F86B
:105760009200012804D0644890F89200022829D1C0
:105770000022AFF2B0218020FDF74BFB0022AFF2F8
:10578000BC219020FDF745FB0022AFF2C821E020AC
:10579000FDF73FFB58490A7A584951F8220020F09A
:1057A0009BF9C7B204E005E1ACE002E1BCE039E0FE
:1057B0005148027A514850F822103A46F020FDF73D
:1057C00028FB22E04C490A7A4C4951F8220020F08B
:1057D00083F9C7B24848027A484850F822103A463E
:1057E0008020FDF716FB0022AFF228319020FDF754
:1057F00010FB0022AFF23431E020FDF70AFB00225B
:10580000AFF24031F020FDF704FBC8201CF028FA6D
:1058100001202F49086036490860012600203849D8
:105820000870CAE02A48006800EB4000294901EBF3
:10583000C0000089A0F54071E73946D024480068CF
:10584000A0F54071E73940D02A48807B01282FD04D
:105850001F48006800EB40001E4901EBC0000089B2
:10586000C5B206E005EB45001A4901EBC00000890E
:10587000C5B205EB4500174901EBC000808901283E
:1058800010D11348006800EB400001EBC000008914
:10589000A0F54071E73905D00D480068A0F54071CA
:1058A000E739DFD10A480560002011F0E2FC0CE086
:1058B0000748006800EB4000064901EBC000008982
:1058C00003490860002011F0D4FC76E08401001048
:1058D0006C01001094110010540100107A010010A6
:1058E00056010010800100107C0100105C010010C6
:1058F00068010010E03000103030001084240010E7
:105900005B010010FF48807B012809D1FD48C07B66
:1059100018B90120FB49C87302E00020F949C87397
:10592000022011F0A6FC48E0F648C07B012820D1F7
:10593000F448807B01281CD1F348006800EB40004C
:10594000F24901EBC0008089012809D1FF20EE490E
:10595000096801EB4101ED4A02EBC101888108E0D1
:105960000120E949096801EB4101E84A02EBC10164
:105970008881022011F07DFC1FE02078FFF760FB9A
:105980001BE000BF2078FFF75BFB16E000BF20782C
:10599000FFF756FB11E000BF2078FFF751FB01280D
:1059A00002D1022011F065FC07E02078FFF748FBE8
:1059B00003E000BF00BF00E000BF00BF012E00D128
:1059C00001E0FFF7E8BB00BFF8BD2DE9F84304464E
:1059D0006420B4FBF0F100FB1140C5B2CC4890F854
:1059E000980020B92246CBA1CB481FF0E7FDC8485C
:1059F00090F8980001280CD10A20B4FBF0F100FBCC
:105A00001146B4FBF0F733463A46C4A1C2481FF032
:105A1000D5FDBF4890F89800022810D10A2095FBC8
:105A2000F0F100FB115695FBF0F76420B4FBF0F8A1
:105A30003B464246BBA1B84800961FF0BFFDB648A2
:105A4000BDE8F88310B5B948006808B9002010BD5A
:105A5000AF48D0F8A400B5490968884209D10020B0
:105A6000B3490870B34908700120FDF742FD0120D9
:105A7000EDE70120FDF73DFDA549097AAE4A52F850
:105A8000210020F029F8C4B2A148007AAA4A52F8AD
:105A9000201022469020FDF7BCF9C8201CF0E0F849
:105AA000022011F0E6FB0020D1E710B59F48006806
:105AB00008B9002010BD9648D0F8A8009B49096895
:105AC000884209D100209A4908709A49087001203B
:105AD000FDF70FFD0120EDE70120FDF70AFD8C49E0
