:020000040000FA
:1000000000800010CD000000950702009507020057
:100010009507020095070200950702009507020068
:100020009507020095070200950702006102000093
:100030009507020000000000C9020000D131020053
:1000400095070200A54300005946000095070200ED
:1000500095070200BF410200A3F1010065D0000036
:10006000F9D2000095070200819001009507020077
:100070009507020095070200950702009507020008
:1000800095070200950702009507020095070200F8
:1000900089390000950702009507020095070200C4
:1000A00095070200950702009507020095070200D8
:1000B00095070200950702009507020095070200C8
:1000C00095070200950702009507020000F002F86C
:1000D00000F0B6F80AA090E8000C82448344AAF12C
:1000E0000107DA4501D100F0ABF8AFF2090EBAE82A
:1000F0000F0013F0010F18BFFB1A43F0010318475C
:10010000AC670400CC6704000A444FF0000C10F800
:10011000013B13F0070408BF10F8014B1D1108BF85
:1001200010F8015B641E05D010F8016B641E01F825
:10013000016BF9D113F0080F1EBF10F8014BAD1C75
:100140000C1B09D16D1E58BF01F801CBFAD505E093
:1001500014F8016B01F8016B6D1EF9D59142D6D3ED
:10016000704700000023002400250026103A28BF15
:1001700078C1FBD8520728BF30C148BF0B60704719
:100180006E2926F02782702925F0BC86662927F083
:10019000FC82652927F0F982672927F0F682612918
:1001A000AFF3008003681B0A28BF41F08001692972
:1001B00025F09285642925F08F85752925F08C8599
:1001C0006F2925F04786782925F08886E92926F0C9
:1001D0006182E42926F05E82F52926F05B82EF2910
:1001E00025F04486F82925F087860368DB0928BFB7
:1001F00041F08001632926F02A82732926F02F829C
:10020000E32926F03A82F32926F03F820020704746
:100210001FB527F0B3FA9DE8030026F04BF926F04E
:1002200061FD04000020002127F078FA401C606086
:100230000020002127F088FAE0601FBD10B510BD36
:1002400026F02AFD1146FFF7E3FF01F02FFF26F00D
:1002500003FE03B4FFF7F2FF03BC20F0DAFE000058
:10026000052828BF70474FEA80007844D0F802F094
:10027000C90200008F0200002D0300004D030000A2
:100280006D0300004FF0010080F3148800DF0A4C7A
:100290004FF001052570774625F034FCBE46074E29
:1002A0003668074C2660D6F800D001BC05490860C6
:1002B000BDE8F00F704700BF8F260010A026001089
:1002C00098260010B42600104FF0080282F311881F
:1002D00000B525F017FC5DF804EB2DE9F00F0E4991
:1002E000086801B40D4A1268C2F800D00C4C0D4DDC
:1002F0002E7826700C4E3668084C2660D6F800D052
:1003000001BC086000280CBF0022082282F311887B
:10031000BDE8F00F704700BFB4260010982600100B
:100320008426001085260010A026001006490868C3
:1003300000F101004FF0080282F31188002808BF85
:1003400070470860704700BFB4260010064908686F
:1003500000281CBF01380860002818BF70474FF004
:10036000000282F311887047B42600104FF000009D
:1003700080F3148870474FF0010080F314887047B1
:1003800088476FF0FF0021F0BEFD000010B500208F
:1003900021F04EFBFF490860002021F049FBFE4997
:1003A0000860002020F08BFEFC4908600221FC4818
:1003B00021F0D5F8FB490860002020F080FEFA49C2
:1003C00008601421F94821F0CAF8F94908600020B2
:1003D00020F075FEF7490860002020F070FEF64915
:1003E0000860002020F06BFEF4490860002020F037
:1003F00066FEF3490860002020F061FEF1490860C4
:10040000002020F05CFEF0490860002020F057FE3C
:10041000EE49086010BD2DE9F041002600270020BC
:1004200003F066FB002003F0AEFB002003F090FB1E
:10043000002003F0C3FB4FF49858E548008800F40F
:100440007F4008F47F41884218D003F009FC012066
:1004500003F00EFB012003F04BFB012003F093FBA4
:10046000012003F075FB012003F0A8FB012003F03D
:10047000C0FB00221146D74825F02BF8002003F0DE
:10048000F7FA002003F034FB002003F07CFB00208F
:1004900003F05EFB002003F091FB002003F0A9FBBA
:1004A00000244FE00021CC48015508300155C848D0
:1004B0007C30005D012809D1601CC2B23046711C3D
:1004C000CEB2C5490A5401F108000655002700259F
:1004D00034E0002004EB8401BF4AA03A02EB410162
:1004E0004855002104EB8402BB48503800EB420021
:1004F0004155C4EBC40000EB8000B84901EBC000DB
:10050000C5EBC50100EB8100007A00F08000802877
:1005100012D1681CC2B204EB8400AF49A03901EBD0
:1005200040033846791CCFB21A5404EB8401AA4820
:10053000503800EB41004755681C85B20A2DC8DBD6
:10054000601C84B2082CADDBBDE8F081012170474E
:1005500000B5034603E013F8010BFFF7F7FF187827
:100560000028F8D100BD1CB5012000909C4800680F
:1005700000226946036901A898479A4908600098D3
:1005800010B94FF0FF30019001981CBD03468B421B
:1005900003DB934201DC012070470020FCE770B5CB
:1005A00000247BE0002575E009F02EF9F8B9C4EBD2
:1005B000C40000EB8000894901EBC000C5EBC50118
:1005C00000EB8100007A00F0030001280FD0C4EB9B
:1005D000C40000EB8000814901EBC000C5EBC50100
:1005E00000EB8100007A00F00300032850D10520C1
:1005F000C4EBC40101EB8101784A02EBC101C5EBF8
:10060000C50201EB82014872C4EBC40000EB80001C
:10061000724901EBC000C5EBC50100EB8100007A17
:1006200000F00300032833D1C4EBC40000EB8000CA
:100630006A4901EBC000C5EBC50100EB8100007AFF
:1006400000F08000C4EBC40101EB8101634A02EBBE
:10065000C101C5EBC50201EB82010872C4EBC40005
:1006600000EB80005D4901EBC000C5EBC50100EB6C
:100670008100007A40F00100C4EBC40101EB81016C
:10068000564A02EBC101C5EBC50201EB82010872BB
:10069000681CC5B20A2D87DB601CC4B2082C81DB44
:1006A00070BD08B51BE06A4601214148006821F091
:1006B00013F804469DF8000070B920884A49C860C4
:1006C00002E0022021F0E0FD47490C313648006885
:1006D00020F0C5FD0028F4D1022021F0D5FDE2E78D
:1006E00000B585B0032300224FF400713F48CDE9E7
:1006F0000323CDE90101092300F2FC720021AFF2CE
:100700005D00009321F0A6FB05B000BD08B500BF59
:1007100037483349086009684868804719E0142061
:1007200000902F48006801226946036931489847C4
:100730002C490860002405E02E48005D2E4908552C
:10074000601CC4B200988442F6DB00BF322021F066
:100750009BFDE4E708B500BF0122D105002024F08D
:10076000EDF84FF40001002024F0FCF823A019F06C
:100770003EFD4FF4167021F087FD0CF001FD0CF0EA
:10078000E6FD19F0F3FC1EF037FD1EA019F02FFD59
:1007900000203BE03C00001040000010480000102A
:1007A000340000105000001054000010DC35001020
:1007B000580000105C0000104C00001044000010B5
:1007C0006000001064000010680000106C00001051
:1007D0003430001000400240A4350010F426001010
:1007E0007400001070000010B43500102C5200107E
:1007F000BC260010405A00102C5A00100D0A3D3D36
:10080000310000000D0A3D3D32000000FA494880E9
:100810000021F948007861F38710F749087000213A
:10082000F548007861F3C500F3490870F348806922
:10083000F349086008F0EBFF09F042F8F1A019F065
:10084000D6FCF248006A40F00050F04908620846C1
:10085000006A40F0805008620846806B40F000500B
:1008600088630846806B40F080508863022021F046
:100870000BFD0DF01BF8E6A019F0B9FC09F0C7F963
:1008800009F00CFA09F088F9E3A019F0B0FC09F0BE
:1008900024FA09F03CFA18F095FD09F075F9E0A08A
:1008A00019F0A5FCD948006A40F00050D749086209
:1008B0000846006A40F0805008620846C06B40F06D
:1008C0000050C8630846C06B40F08050C8630220E7
:1008D00021F0DAFC10F0BEFD142021F0D5FC10F060
:1008E000B7FBD1A019F083FC09F016FA10F010F84C
:1008F000CF48006821F063F9CEA019F078FCBF481A
:1009000090F89100012805D11BF0D8FECC48006872
:1009100021F055F9CBA019F06AFCB84890F8930083
:10092000012801D11EF01DFC1FF0EBFD83E2022027
:1009300021F0AAFCB14890F8AC0010B36A4614212B
:10094000C348006820F031FC04469DF8000018B947
:10095000206800F0FF0801E04FF0000840461FF05B
:1009600070FB1EF0F8FE30B1A348408840F4804090
:10097000A149488005E0A048408820F480409E4975
:1009800048809E4890F89300012812D1B14991F80F
:10099000E2021DF048FDC7B2FF2F0AD0AE488760C3
:1009A00000F10801AD48006820F0FEFE282021F08B
:1009B0006BFC09F0E9F810F049F8012806D08E48E0
:1009C0000078C0F3C20010F0010F01D010F06CFBF2
:1009D000142021F059FC0FF060FB012806D0864856
:1009E0000078C0F3C20010F0020F01D00FF0D4FF66
:1009F0008148407830B9814890F89100022801D1AF
:100A00001BF0CCFD09F0C0F87B4800788009012874
:100A100003D1142021F038FC0DE26A4614219048DD
:100A2000006820F0C2FB04469DF80000D8BB80217E
:100A30002068B1EB106F7AD87448006A40F000501B
:100A4000724908620846006A40F080500862084611
:100A5000806B40F0005088630846806B40F0805007
:100A60008863022021F010FC2068000E802806D048
:100A7000812809D0822817D0852859D13BE02168E8
:100A8000C8B20CF09EFF54E076A019F0B0FB002134
:100A90005948007861F38710574908702168C8B237
:100AA0000DF011F845E06FE15848006A40F0005041
:100AB000564908620846006A40F0805008620846BD
:100AC000C06B40F00050C8630846806B40F0805017
:100AD0008863022021F0D8FB00214748007861F3A9
:100AE0008710454908702268C2F30351C2F313000E
:100AF0000DF0EAFE1DE0206800F00103C0F34002A3
:100B0000C1B25CA019F073FB2068C0F340005149EA
:100B100081F8E302206800F0010081F8E4020A464F
:100B200092F8E41292F8E3021FF0A3FD01E01AE04C
:100B300000BF00BF3548006A40F0005033490862EA
:100B40000846006A40F0805008620846C06B40F0DA
:100B50000050C8630846C06B40F08050C863022054
:100B600021F092FB10E12068000E092842D2DFE854
:100B700000F0051DC19EE61EC213180044A019F026
:100B800036FB00211C48007861F387101A49087071
:100B9000206810F0B5FCF6E0424988880FF0EDFCC3
:100BA000F1E0404988880FF044FDECE000BF09F017
:100BB000C3F805212068B1EB106F77D100202649DA
:100BC0004860091D3848006820F049FB0A48407811
:100BD00001280BD108480078C0F3C20020F00100C2
:100BE0000549097860F3C50103480170142021F01C
:100BF0004BFBC8E0C6E059E0100000103430001094
:100C00001C0000100D0A3D3D3300000000C009200B
:100C10000D0A3D3D340000000D0A3D3D3500000049
:100C20000D0A3D3D360000000D0A3D3D3700000035
:100C30003C0000100D0A706320696E6974000000AA
:100C4000400000100D0A496E69744F4B000000000F
:100C50006800001024600010B4350010500000102F
:100C60004C0000100D0A434D445F474F4F44535F03
:100C70004F5554000D0A414344432C2523782C6CD6
:100C800065643D25642C646973743D25640000002F
:100C90000D0A434D445F434F494E5F4348414E4721
:100CA00045000000E23400104400001000BF09F0CD
:100CB0004BF80020FF494860091DFF48006820F0FC
:100CC000CEFAFE484078012810D103212068B1EB0C
:100CD000106F0BD1F9480078C0F3C20020F0020079
:100CE000F649097860F3C501F4480170142021F039
:100CF000CBFA48E000BF09F02FF806212068B1EBDD
:100D0000106F1BD10020EB494860091DEA480068BC
:100D100020F0A5FAE948407801280BD1E74800788F
:100D2000C0F3C20040F00100E449097860F3C50156
:100D3000E2480170142021F0A7FA24E000BF09F076
:100D40001BF80020DB494860091DDB48006820F0E3
:100D500086FADA484078012810D104212068B1EBE6
:100D6000106F0BD1D5480078C0F3C20040F00200EC
:100D7000D249097860F3C501D0480170142021F0F0
:100D800083FA00E000BF00BFCD4890F89100012831
:100D900050D1142021F078FA6A461421C94800681D
:100DA00020F003FA04469DF8000078BB2068000E8E
:100DB000102822D006DC052809D006280DD00C28E2
:100DC00036D12BE011280ED0842831D11FE000222B
:100DD000114605201BF018FB2BE0002211460620CF
:100DE0001BF012FB25E0206820F07F4020600021EE
:100DF000084622681BF01EFA1BE0206820F07F40A6
:100E00002060002021681BF0D6F912E012E01BF0F0
:100E100055FCAD48006820F0D2FE0AE02068C0F31F
:100E200007452068C6B2314628461BF08EFB00E01D
:100E300000BF00BF00BF7AE592B000200990089083
:100E400000BF069004900390029000BF9C48007A77
:100E5000022805D1002002F02FFA01F0C6FC01E0C3
:100E600001F0C3FC002095494870012197480078A3
:100E700061F30300954908700020487000219348F1
:100E8000007861F307109149087000218B480078C1
:100E900061F3000089490870F0200F908C48D0F869
:100EA000746101218548007861F3820083490870EC
:100EB0000021884824F02CFB874908600846006818
:100EC00090B17F4880690968B1EB400F0CD282482D
:100ED00000687F49C1F87001012002F08AFE0022FB
:100EE00011467C4824F0F5FA00207B4908600E90FA
:100EF0000F900120724981F8920001F0D7FB7748EA
:100F0000006C40F48070754908640846806D40F4B8
:100F1000807088657249002003F0CEFB002003F04A
:100F2000A8FB02F069FD6D48006820F480006B4961
:100F30000860142021F0A8F909F0DAFC09F06CFC33
:100F400011AA4FF47A616748006820F0E7FD5C4819
:100F500090F89300012801D11DF0FBFA6248C07A95
:100F600008B1FFF71CFB0020109040F6B8305F4935
:100F700088805F48006820F0CFFA4FF0010802989F
:100F800080BB00BF5B4890F8E4020490594890F899
:100F9000E302039054484078002801DD01200490CA
:100FA00051488079002801DD012003904FF0054170
:100FB000039801EB40010498084405903D490598C9
:100FC00008603D48006820F067F83A494A480068E0
:100FD00020F045F9642021F057F948A0DDE903121B
:100FE00019F005F9FEE300E24C48006810F0005FDC
:100FF00031D1022021F048F94848006810F0005F24
:1010000028D101202D49487008460078C0F380009F
:10101000012808D103F09AF900212848007861F3EB
:10102000820026490870264890F8910001280CD1CA
:101030002448006820F030F84FF0A0601D49886116
:1010400018312048006820F00AF9012002F021FA46
:1010500004F008FBC9E11948407801281AD1FF20A3
:1010600016494870164890F8910001280CD115488F
:10107000006820F011F84FF0C0600E498861183107
:101080001048006820F0EBF803E04FF47A7021F08C
:10109000FBF8FAE70A4890F89100012841D1099835
:1010A00038B911AA00210848006820F037FD012056
:1010B00036E036E0B4350010440000101000001097
:1010C0003430001060000010400000100E000010CE
:1010D000BC310010004002401800001000C0092080
:1010E0007FA903003C000010F43000102C00001019
:1010F00050000010246000104C0000100D0A203138
:101100002E4C45444465763D25642C436F6D7072CA
:101110006573734465763D256400000094C0092022
:1011200009900020FF49487008464088A0BB9DF800
:10113000380098B9B8F1010F02D14FF0000801E072
:101140004FF00108F848B0F8140238B94FF4FA60CB
:10115000F549A1F81402404609F005FCF34890F85F
:10116000AC00D0B111AA0121F148006820F01DF8AF
:1011700082469DF8440080B9BAF80000C0B20790DA
:1011800007981EF0D1F9C0B20D900D98FF2801D03C
:101190000D980E9000BF29E194E0E6484069C0F345
:1011A000805040BBE448006828B3E04890F89600BF
:1011B000022820D0DB480078C0F30000012804D0CA
:1011C000DA4890F88F00002815DDD84890F88F3065
:1011D000D44800930078C0F30003D6484069C0F3B8
:1011E000805080F00101D4480268D4A018F0FFFFBD
:1011F00001200690FAE011AA0121DC48006820F0E5
:101200006BFA8246BAF800509DF8440030B90120CC
:1012100002F03FF9142021F037F8E7E011AA01218C
:10122000D34800681FF0C1FF8246BAF800509DF80D
:10123000440018B9012002F02CF9D7E0CD484088CD
:1012400048B99DF8380009F070F80E909DF8380004
:1012500008B1FF25CAE0C748808828B940F6B830F1
:10126000C44988800BF0B8FAB348006898B9AD4813
:101270000078C0F3800001280DD108F0B5FA10B94C
:10128000BD48807838B9BC48407810F0020F02D0D1
:10129000042003F05BF8A54890F89100022809D1DA
:1012A0000BF046FD0746EE2F01D00E979EE014206E
:1012B00020F0EAFF9D4890F89300012801D11DF02D
:1012C00048F992E09C48006850B1FF250021AB48E6
:1012D000007861F30300A949087008200E9085E0AA
:1012E00090480078C0F38000012809D100218D4882
:1012F000007861F382008B490870012003F026F822
:101300009F48D0F87401B0420CD99D48D0F87401C0
:10131000801B9B49C1F874010846D0F87461012014
:1013200002F067FC012002F0B4F840F6B8309149B1
:10133000888058E009F04BF89248006810F0005F90
:1013400012D100200E9001218C48007861F3030037
:101350008A4908700020487000218848007861F3AD
:101360000710864908703FE06E48408820BB002087
:101370000E9001218148007861F303007F490870D5
:101380000020487000217D48007861F307107B49F8
:10139000087001216348007861F382006149087098
:1013A000022002F0D3FF7148006820F0B5F8002059
:1013B0005D49A1F8140217E06E48808828B940F60C
:1013C000B8306C4988800BF007FA584890F89100C3
:1013D000022808D10BF0ACFC0746EE2F00D00E9788
:1013E000142020F051FFA5E700BFFDE500BF15F474
:1013F000004F39D000206149487000215F480078D3
:1014000061F307105D490870C5F30E0BFF254A48CC
:10141000006858444849086042480078C0F380009A
:10142000012811D141488069096888420AD8002101
:101430003C48007861F382003A490870012002F0CC
:1014400085FF01E008F0D0F99DF83800062804D0A7
:101450003948006808B101200E9037480021026821
:10146000494824F036F82CE02812002822DD281202
:10147000012802D002281BD102E009200E9018E0BA
:101480002D48006898B127480078C0F30000012873
:1014900004D0264890F88F00002808DD234890F8F3
:1014A000AC0010B11EF070F908B908200E9000E0F1
:1014B00000BF06E00CAA29469DF8380008F0A0FC01
:1014C0000E900698012803D10020069008200E9067
:1014D000F9E39DF8380010909DF838000F287DD270
:1014E000DFE800F07CBAFEFDFCFBFAF9F8F78D9C12
:1014F00008F67D0000212148007861F303001F49B0
:1015000008700A4890F8930010B9084640780C908B
:101510000AAA0BA99DF830000CF006F901284CD15D
:10152000EAB233E0100000102460001034300010E4
:101530006C00001000C00920180000100D0A526550
:101540007475724B65793D25642C675F416D6F75CD
:101550006E743D25642C6861766573616C653D250C
:10156000642C7472616E733D25640000500000109D
:10157000540000102C000010140000100E00001089
:10158000BC31001094C00920004002409DF8281092
:101590009DF82C0009F0E5FB642020F075FE00208A
:1015A0000E90FC48006820F080F80121FA4800788D
:1015B00061F30300F849087001E00B200E90002051
:1015C000F54948700021F448007861F30710F249AA
:1015D00008700020F149A1F8140209E2F0E30021AB
:1015E000ED48007861F30300EB49087009F0A3FCB3
:1015F0004FF4C87020F048FE0D200E90F8E1012154
:10160000E548007861F30300E34908704FF4FA708D
:10161000E349488009F0E4FC0E90E9E10021DE484E
:10162000007861F30300DC49087009F058FE4FF4BC
:10163000C87020F029FE0020D74948700021D64804
:10164000007861F30710D44908700A200E90D14841
:10165000006820F02AF8CBE10121CF48007861F33F
:101660000300CD49087047F23050CD49488009F059
:10167000BFFECC480078C0F38000012827D0CA48BC
:1016800090F8AC0010B11EF07FF800BBC7480068AE
:10169000C749096888420AD20121C248007861F32B
:1016A0008200C0490870022002F050FE0FE0BE48E0
:1016B0008069BE490968884209D90121B948007882
:1016C00061F38200B7490870062002F03FFE08E08F
:1016D00099E319E0F8E246E2E2E282E289E11CE104
:1016E00060E0B14890F89300012801D11CF031FF6F
:1016F000AD4890F8AC00012805D11EF045F810B9AE
:1017000010201EF02BF873E10021A348007861F34C
:101710000300A14908700AF010F84FF4C87020F0D7
:10172000B3FD01219C48007861F303009A490870D9
:1017300047F230509A4948809C48006808B109F047
:1017400057FE98480078C0F38000012827D09648BB
:1017500090F8AC0010B11EF017F800BB9348006879
:101760009349096888420AD201218E48007861F3C2
:1017700082008C490870022002F0E8FD0FE08A48E0
:1017800080698A490968884209D901218548007819
:1017900061F3820083490870062002F0D7FD0F989C
:1017A0000E90DAE300217C48007861F303007A4967
:1017B00008707D4890F8930010B9084640780C9066
:1017C00000207549487000217348007861F30710C4
:1017D00071490870744890F89100012823D10AAA31
:1017E0000BA900E0D2E39DF830000BF09DFF71489B
:1017F00000681FF051FC9DF82C00C0EBC00000EB0E
:1018000080006D4901EBC0009DF82810C1EBC101BB
:1018100030F82100694908446949886118316548F0
:1018200000681FF01CFD5B4800681FF03EFF0AAA1D
:101830000BA99DF830000BF077FF01286AD19DF8C5
:101840002C00C0EBC00000EB80005B4901EBC00046
:101850009DF82810C1EBC10100EB8100007A00F077
:101860007F00012809D001214E48007861F3000073
:101870004C49087003200E904EE09DF82C00C0EB00
:10188000C00000EB80004C4901EBC0009DF828101F
:10189000C1EBC10100EB81004068444909688842FE
:1018A00035D801213F48007861F300003D490870B8
:1018B0003D4890F8AC0038B31DF066FF002823DDEA
:1018C000394890F8AD0090B19DF82C10C1EBC101E2
:1018D00001EB8101384A02EBC1019DF82820C2EBDF
:1018E000C20201EB820148681DF069FF02E000209E
:1018F0001DF065FF01201DF031FF4FF4FA62012158
:101900000EA81DF048FE07E004200E9004E005201C
:101910000E9001E00B200E901FE300211E4800787E
:1019200061F303001C4908709DF828109DF82C00F5
:1019300009F0A9FF4FF4C87020F0A6FC0121164859
:10194000007861F303001449087047F230501449DD
:10195000488009F04DFD13480078C0F3800001284D
:1019600040D0114890F8AC0010B11DF00DFF80B9C7
:101970000E4800680E490968884223D201210948AF
:10198000007861F3820007490870022002F0DEFC53
:1019900028E027E0500000100E0000102460001026
:1019A0002C0000101000001034300010180000103F
:1019B0001C00001060000010F42600100000020C53
:1019C000B4350010FF488069FF490968884209D989
:1019D0000121FE48007861F38200FC49087006206E
:1019E00002F0B4FCFA4800681FF05FFE01200E9080
:1019F000B3E20021F748007861F30300F54908706D
:101A000009F0CCFFF1480078C0F38000012809D12B
:101A10000021EE48007861F38200EC490870012053
:101A200002F094FCE94800788009022801D10AF00C
:101A300019FC9DF828209DF82C109DF830000AF024
:101A400020F80E90E04800210268E34823F041FDB1
:101A5000DE480078C0F34000012849D09DF82C00F2
:101A6000C0EBC00000EB8000DC4901EBC0009DF83A
:101A70002810C1EBC10100EB8100C068401C9DF83B
:101A80002C10C1EBC10101EB8101D44A02EBC10171
:101A90009DF82820C2EBC20201EB8201C860D04849
:101AA000D0F86801401CCE49C1F868019DF82C00AF
:101AB000C0EBC00000EB8000C84901EBC0009DF8FE
:101AC0002810C1EBC10100EB81008069401C9DF82A
:101AD0002C10C1EBC10101EB8101C04A02EBC10135
:101AE0009DF82820C2EBC20201EB820188612EE042
:101AF0009DF82C00C0EBC00000EB8000B74901EB63
:101B0000C0009DF82810C1EBC10100EB8100006905
:101B1000401C9DF82C10C1EBC10101EB8101AF4AC3
:101B200002EBC1019DF82820C2EBC20201EB820149
:101B30000861AB48D0F86C01401CA949C1F86C01A0
:101B40000021A248007861F34100A04908709D4837
:101B500090F89300012801D11CF0FBFC9C48006820
:101B60001FF0A3FDF9E101219A48007861F3030019
:101B70009849087047F230509A49488009F038FC7B
:101B800092480078C0F38000012827D08D4890F853
:101B9000AC0010B11DF0F8FD00BB8B480068924905
:101BA000096888420AD201218848007861F38200DE
:101BB00086490870022002F0C9FB0FE08148806965
:101BC00081490968884209D901218048007861F378
:101BD00082007E490870062002F0B8FB01200E90BA
:101BE000BBE100217B48007861F30300794908706C
:101BF0009DF82C10C1EBC10101EB8101774A02EB8A
:101C0000C1019DF82820C2EBC20201EB82014868A5
:101C10000AF02EF94FF4C87020F036FB01216D4810
:101C2000007861F303006B49087047F230506D494A
:101C3000488009F0DDFB65480078C0F3800001288A
:101C400027D0604890F8AC0010B11DF09DFD00BB9E
:101C50005D4800686449096888420AD201215B48EE
:101C6000007861F3820059490870022002F06EFB8F
:101C70000FE05448806954490968884209D9012114
:101C80005248007861F3820050490870062002F043
:101C90005DFB4F4800681FF008FD01200E905CE1DD
:101CA00001214C48007861F303004A49087047F26B
:101CB00030504C4948809DF828109DF82C000AF0BF
:101CC0004DF90E9049E15EE13E4890F896000028FB
:101CD00071DD00213F48007861F303003D49087041
:101CE0000020424908600AF088F9384800788009E5
:101CF000022801D10AF0CBFA34480078C0F3800002
:101D0000012809D100213148007861F382002F4970
:101D10000870012002F01AFB0AF0F9FA2A480021A3
:101D200002682D4823F0D5FB2748006880B3264879
:101D300000682B49C1F87001224890F891000128F1
:101D400023D1204890F89800012807D10846D0F800
:101D5000700100EB80004000089008E0194890F8FE
:101D60009800022803D11E48D0F87001089020483E
:101D700000681FF091F9089800F188501D498861AA
:101D800018311B4800681FF06AFA0AF096FB05E05C
:101D9000FFE71648006808B10AF063FC0B480078BA
:101DA000C0F34000012806D100210848007861F303
:101DB000410006490870104817F01EFBC8201DE0BE
:101DC000C3E00000343000101800001010000010B4
:101DD000500000100E00001000400240F4260010D9
:101DE000BC3100102C0000101C0000102806001050
:101DF00060000010B43500109831001020F044FA53
:101E00000D200E90A9E00021BB48007861F303008B
:101E1000B9490870B948D0F87401B04209D9B74837
:101E2000D0F87401801BB549C1F874010846D0F898
:101E30007461012001F0DDFE0020B149086000243A
:101E400004E00020AF490855601CC4B2202CF8DB28
:101E5000002405E00021AB4874300155601CC4B279
:101E6000202CF7DB002414E04FF000090CE00021E7
:101E700004EB8402A348203000EB420000F8091074
:101E800009F1010000F0FF09B9F10A0FEFDB601C56
:101E9000C4B2082CE8DB00209A490867012001F051
:101EA000E7FD0AF035FCC82020F0EEF900200E9086
:101EB0009549A1F8140201218F48007861F30300CD
:101EC0008D49087000219148007861F300008F4926
:101ED0000870002211468E4823F0FBFA8B480078E8
:101EE000C0F3800001280AD0022002F02FFA01215D
:101EF0008648007861F382008449087019E007F091
:101F000073FC10B98348807840B98248407810F05B
:101F1000020F03D0042002F019FA0AE07D4880780D
:101F200038B17C48407810F0020F02D1032002F053
:101F30000DFA794890F8AC00012805D11DF024FC79
:101F400010B911201DF00AFC07E001216A48007851
:101F500061F303006849087000BF00BF10980F903C
:101F60009DF8380008B900200F909DF8380001282E
:101F700000D10AE09DF838101098884202D09DF8F0
:101F8000380000B901E0FFF7A4BA00BFFFF72BB893
:101F900086B000BF0121002023F04BFB5F4823F0F7
:101FA0007EFB23F0C5FB5E4800680A21B0FBF1F41C
:101FB00000BF601E0400FCD123F0DFFB23F0CFFB49
:101FC00017F000FA23F060FB5648007B08B9FEF7D3
:101FD00022FA23F059FBFEF7D9F966E00323002229
:101FE0004FF400715048CDE90323CDE901010723E7
:101FF00000F2FC72C8214D4800931FF02BFF23F024
:1020000043FB032300224FF400714948CDE9032329
:10201000CDE90101052300F2FC720021454800933F
:102020001FF018FF23F030FB032300224FF4007150
:102030004148CDE90323CDE90101092300F2FC72F7
:1020400000213E4800931FF005FF23F01DFB0323F2
:1020500000224FF400713A48CDE90323CDE9010194
:10206000082300F2FC720021364800931FF0F2FEB4
:1020700019E023F009FB25484078FF2810D10720FC
:102080001FF041FF05201FF03EFF08201FF03BFF1F
:1020900009201FF038FF00201C494880487003E0E9
:1020A000C82020F0F1F8E4E700BF97E710B51EF074
:1020B00073FB1EF03BFB0122D105002022F03EFC09
:1020C0004FF40001002022F04DFC012251020220B9
:1020D00022F034FC4FF40071022022F04DFC20F07D
:1020E00078FA0623184A0021AFF25B101FF06AFE4F
:1020F00020F032FB002010BD0E000010BC3100109B
:1021000018000010043100102460001010000010AE
:10211000004002401400001034300010002D310146
:10212000EC260010E43000102C3A0010390E0000AC
:102130002C420010550700002C520010A30600008E
:102140002C4A00100D070000283A0010FF49097AB8
:10215000022901D1962000E0FA2000BF411E89B279
:102160000800FBD17047F94A127A022A0BD1F84ACB
:1021700012680623B2FBF3F24FF4FA63B2FBF3F2F8
:1021800002FB00F10AE0F24A12680623B2FBF3F206
:102190004FF47A73B2FBF3F202FB00F100BF4A1E68
:1021A0001100FCD17047EA4A12680623B2FBF3F231
:1021B00002FB00F100BF4A1E1100FCD170472DE95F
:1021C000F04106460F46022000DFF8240FB144F02C
:1021D0000204DE48007A022803D10120FFF7C3FF82
:1021E00002E00320FFF7BFFFDA48006E40F0007006
:1021F000D84908660846806F40F000708867084636
:10220000006A40F0806008620846C06B40F0806061
:10221000C863FFF79BFF002539E014F0800F0BD057
:10222000CC48006A40F08070CA4908620846806B5A
:1022300040F0807088630AE0C648006A40F0807011
:10224000C44908620846C06B40F08070C863FFF75D
:102250007DFFC048006A40F08060BE4908620846C1
:10226000C06B40F08060C863FFF770FFB948006A38
:1022700040F08060B74908620846806B40F080609B
:102280008863FFF763FF6006040E681CC5B2082D63
:10229000C3DB344604F0F004002539E014F0800F6D
:1022A0000BD0AC48006A40F08070AA49086208462A
:1022B000806B40F0807088630AE0A648006A40F0B6
:1022C0008070A44908620846C06B40F08070C86303
:1022D000FFF73CFF9F48006A40F080609D4908621C
:1022E0000846C06B40F08060C863FFF72FFF994835
:1022F000006A40F08060974908620846806B40F0B1
:1023000080608863FFF722FF6006040E681CC5B278
:10231000082DC3DB34462007040E002539E014F0F5
:10232000800F0BD08B48006A40F0807089490862AA
:102330000846806B40F0807088630AE08548006A38
:1023400040F08070834908620846C06B40F080709E
:10235000C863FFF7FBFE7F48006A40F080607D495C
:1023600008620846C06B40F08060C863FFF7EEFE6D
:102370007848006A40F08060764908620846806BC1
:1023800040F080608863FFF7E1FE6006040E681C81
:10239000C5B2082DC3DB6F48006E40F000706D4978
:1023A00008660846C06F40F00070C867032000DF71
:1023B000BDE8F081F0B506460F46F8240FB144F0B1
:1023C00002040320FFF7CFFE6248006E40F0007069
:1023D000604908660846806F40F0007088670846CC
:1023E000006A40F0007008620846C06B40F0007060
:1023F000C863FFF7ABFE002539E014F0800F0BD067
:102400005448006A40F08070524908620846806B68
:1024100040F0807088630AE04E48006A40F08070A7
:102420004C4908620846C06B40F08070C863FFF7F3
:102430008DFE4848006A40F0007046490862084630
:10244000C06B40F00070C863FFF780FE4148006A2F
:1024500040F000703F4908620846806B40F0007011
:102460008863FFF773FE6006040E681CC5B2082D72
:10247000C3DB344604F0F004002539E014F0800F8B
:102480000BD03448006A40F0807032490862084638
:10249000806B40F0807088630AE02E48006A40F04C
:1024A00080702C4908620846C06B40F08070C86399
:1024B000FFF74CFE2748006A40F00070254908628B
:1024C0000846C06B40F00070C863FFF73FFE21482C
:1024D000006A40F000701F4908620846806B40F0B7
:1024E00000708863FFF732FE6006040E681CC5B2F8
:1024F000082DC3DB34462007040E002540E014F00D
:10250000800F0BD01348006A40F0807011490862B8
:102510000846806B40F0807088630AE00D48006ACE
:1025200040F080700B4908620846C06B40F0807034
:10253000C863FFF70BFE0748006A40F000700549CA
:1025400008620846C06B40F0007005E034300010AF
:10255000EC26001000C00920C863FFF7F7FDF8481B
:10256000006A40F00070F64908620846806B40F04F
:1025700000708863FFF7EAFD6006040E681CC5B2B0
:10258000082DBCDBEE48006E40F00070EC49086698
:102590000846C06F40F00070C867F0BD002132E00F
:1025A000E74A126E42F00072E54B1A661A46D26F85
:1025B00042F00072DA6710F0800F0AD11A46126AF0
:1025C00042F080721A621A46D26B42F08072DA636D
:1025D0000AE0DB4A126A42F08072D94B1A621A464C
:1025E000926B42F080729A63D54A126E42F000728A
:1025F000D34B1A661A46926F42F000729A674206EF
:10260000100E4A1CD1B20829CADB704710B5044627
:10261000CB48006A40F00070C94908620846806BE8
:1026200040F0007088630846006A40F080600862ED
:102630000846C06B40F08060C8632046FFF7AEFFDD
:10264000BF48006A40F08060BD4908620846806B60
:1026500040F0806088630846006A40F000700862BD
:102660000846C06B40F00070C86310BD10B5E22092
:10267000FFF7CCFF04201FF007FE2620FFF7C6FF60
:102680002F20FFF7C3FFEA20FFF7C0FF8120FFF7ED
:10269000BDFF7220FFF7BAFFC820FFF7B7FF402049
:1026A000FFF7B4FFAF20FFF7B1FF10BD10B5A5488D
:1026B00090F89200022802D1FFF7D8FF40E03024C2
:1026C00000212046FFF77BFD062400212046FFF76E
:1026D00076FD0C2400212046FFF771FD0124002126
:1026E0002046FFF76CFD022400212046FFF767FD1E
:1026F000802400212046FFF762FD924890F8920066
:1027000001281DD1302400212046FFF753FE062466
:1027100000212046FFF74EFE0C2400212046FFF743
:1027200049FE012400212046FFF744FE0224002137
:102730002046FFF73FFE802400212046FFF73AFEA7
:1027400010BD10B504467E48006A40F000707C4918
:1027500008620846806B40F0007088630846006A93
:1027600040F0806008620846806B40F080608863BB
:102770002046FFF713FF7248006A40F080607049FE
:1027800008620846C06B40F08060C8630846006A73
:1027900040F0007008620846C06B40F00070C863EB
:1027A00010BD30B504460D4645F0B000FFF72EFFD2
:1027B000102141EA2410FFF729FF04F00F00FFF772
:1027C00025FF30BD30B500240CE0E1B20020FFF75A
:1027D000E8FF002503E00020FFF7B3FF6D1CF02D9C
:1027E000F9D3641C102CF0D330BD10B5554890F8C7
:1027F0009200022802D1FFF7E5FF0EE0012400213C
:102800002046FFF7DCFC4F4890F89200012804D1E5
:1028100000BF00212046FFF7CDFD10BD2DE9FF4F81
:1028200083B081460F469246109CCDF80490BB467B
:10283000069860430090082C02D10125082614E078
:10284000102C01D0202C02D1022566100DE0402C66
:1028500002D10425102608E0802C02D10425202670
:1028600003E0902C01D1062518264FF000081EE049
:102870000198C1B20BF0FF00FFF793FF0020029018
:102880000CE000991AF80100FFF75BFF0098401C6C
:1028900000900BF1010B0298401C02900298B0428C
:1028A000EFD30198401C0190BB4608F10108A845F0
:1028B000DED307B0BDE8F08F2DE9F043A5B0804628
:1028C00089461746902101A823F0DEFCB8F1E00FFD
:1028D00048D01ADCB8F1900F3CD00CDCB8F1800F76
:1028E0002BD0B8F1810F2FD0B8F1820F2ED0B8F1D4
:1028F000830F47D12CE0B8F1910F2DD0B8F1920F92
:102900002CD0B8F1930F3DD12AE0B8F1F00F31D0BF
:1029100009DCB8F1E10F27D0B8F1E20F26D0B8F109
:10292000E30F2FD124E0B8F1F10F25D0B8F1F20F69
:1029300024D0B8F1F30F25D122E0002422E00000DA
:1029400000C009203430001001241BE0022419E0EB
:10295000032417E0042415E0052413E0062411E005
:1029600007240FE008240DE009240BE00A2409E005
:102970000B2407E00C2405E00D2403E00E2401E005
:102980000F2400BF00BF2646B9F1010F0CD1F1B2F0
:102990000020FFF706FF002503E00120FFF7D1FE2E
:1029A0006D1CF02DF9D32CE0032F0DD1002508E08C
:1029B00040230093002301AAE9B2F0B2FFF72EFFF3
:1029C0000F35F02DF4D31CE0022F0DD1002508E0C7
:1029D00090230093002301AAE9B2F0B2FFF71EFF93
:1029E0001735F02DF4D30CE0002508E020230093E8
:1029F000002301AAE9B2F0B2FFF710FF0F35F02D66
:102A0000F4D325B0BDE8F0832DE9FF4FADF5357D5A
:102A100082468946DDF80CB390218FA823F034FC60
:102A2000302183A823F030FC002082904FF4007105
:102A300002A823F029FC00200190BAF1E00F43D056
:102A40001ADCBAF1900F37D00CDCBAF1800F2BD022
:102A5000BAF1810F2AD0BAF1820F29D0BAF1830FCF
:102A600042D127E0BAF1910F28D0BAF1920F27D0C6
:102A7000BAF1930F38D125E0BAF1F00F2CD009DC70
:102A8000BAF1E10F22D0BAF1E20F21D0BAF1E30F8F
:102A90002AD11FE0BAF1F10F20D0BAF1F20F1FD006
:102AA000BAF1F30F20D11DE000261DE001261BE046
:102AB000022619E0032617E0042615E0052613E098
:102AC000062611E007260FE008260DE009260BE098
:102AD0000A2609E00B2607E00C2605E00D2603E098
:102AE0000E2601E00F2600BF00BF35464C465FEAC8
:102AF000090404D15A4600215046FFF7DDFE83A8A1
:102B0000B79923F0D9FA0020B390002749E10020BB
:102B1000829083A8C05D802871DABBF1030F2AD1AF
:102B20004FF010080420B49038467F1C83A9085C3D
:102B30008DF808025B468FA982A8C29A1BF076FA2C
:102B4000F0B34023009300238FAAE1B2E8B2FFF76D
:102B500065FE04EB080000EB98049DF8080231289C
:102B600000D1E41FF02C02D34C46B4980544102D3C
:102B700026D3554615E1BBF1020F41D14FF018089D
:102B80000620B49038467F1C83A9085C8DF80802A3
:102B90005B468FA982A8C29A1BF048FA80B19DF8C3
:102BA00008022E2803D09DF808023A280DD1A4EB84
:102BB00098049023009300238FAAE1B2E8B200E0CA
:102BC0001CE0FFF72BFE444410E090230093002309
:102BD0008FAAE1B2E8B2FFF721FE04EB080000EB98
:102BE00098049DF80802312800D10B3CF02C02D348
:102BF0004C46B4980544102D00D35546D1E02FE043
:102C00004FF008080220B49038467F1C83A9085C66
:102C10008DF808025B468FA982A8C29A1BF006FABB
:102C2000F0B31023009300238FAAE1B2E8B2FFF7BC
:102C3000F5FDBBF1010F09D104EB080000EB98048E
:102C40009DF80802312802D1E41E00E04444F02C33
:102C500002D34C46B4980544102D21D35546A0E02C
:102C600083A8C05DF02803D083A8C05DF12829D1D6
:102C70004FF008080220B49038467F1C83A9085CF6
:102C80008DF8080238467F1C085C8DF809025B4607
:102C90008FA982A8C29A1BF0C9F908B1102300E0DD
:102CA0000FE0009300238FAAE1B2E8B2FFF7B6FD70
:102CB0004444F02C02D34C46B4980544102D70D3F4
:102CC00055466EE083A8C05D83AA791C515C01EB78
:102CD000002080B201900198A0F52141FB390ED06F
:102CE0000198A0F52141FA3909D00198A0F52141B8
:102CF000FC3904D00198A0F52141FD392AD1BBF15E
:102D0000030F27D14FF020080420B49038467F1CD1
:102D100083A9085C8DF8080238467F1C085C8DF892
:102D200009025B468FA982A8C29A1BF07FF9C0B343
:102D30008023009300238FAAE1B2E8B2FFF76EFD73
:102D40004444F02C02D34C46B4980544102D28D3AB
:102D5000554626E04FF010080220B49038467F1CFC
:102D600083A9085C8DF8080238467F1C085C8DF842
:102D700009025B468FA982A8C29A1BF057F980B15D
:102D80002023009300238FAAE1B2E8B2FFF746FDAB
:102D90004444F02C02D34C46B4980544102D00D383
:102DA0005546B8988742FFF4B2AE0DF5397DBDE8BF
:102DB000F08F2DE9F0478EB080460C461746302143
:102DC00002A823F061FA204623F09AF982460246CF
:102DD000214602A823F0BFF9F94890F89200022892
:102DE00009D10023009301933B462246002140462F
:102DF000FFF70AFED4E0F24890F89200012872D161
:102E000008F0F000802806D0902805D0E02807D0F0
:102E1000F0280FD109E000BF46464FF0010909E054
:102E200008F08F064FF0020904E008F09F064FF00B
:102E3000020900BF00BFB9F1010F39D1E048007AA3
:102E4000022821D106F0F000802802D090281AD163
:102E50000CE002A823F054F98246002300930346B5
:102E600002AA012108461AF071FF0CE002A823F023
:102E700047F9824600230093034602AA012102205B
:102E80001AF064FF00BF8BE000213046FFF792FA92
:102E9000142F00DD1427002507E014F8016B012131
:102EA0003046FFF787FA681CC5B2BD42F5DB77E014
:102EB000B9F1020F74D1C248007A022822D106F07B
:102EC000F000802802D090281BD10DE002A823F04A
:102ED00017F9824600230093034602AA022101202B
:102EE0001AF034FF0DE021E002A823F009F9824630
:102EF00000230093034602AA022108461AF026FF87
:102F000000BF4DE000213046FFF759F9142F00DDD6
:102F10001427002507E014F8016B01213046FFF764
:102F20004EF9681CC5B2BD42F5DB39E0A448007A11
:102F3000022821D108F0F000802802D090281AD170
:102F40000CE002A823F0DCF882460023009303463D
:102F500002AA022101201AF0F9FE0CE002A823F0D7
:102F6000CFF8824600230093034602AA02210846B6
:102F70001AF0ECFE00BF13E0464600213046FFF792
:102F80001EF9142F00DD1427002507E014F8016B4B
:102F900001213046FFF713F9681CC5B2BD42F5DBCD
:102FA0000EB0BDE8F0872DE9F0478EB080460D46A3
:102FB0001746302102A823F067F9284623F0A0F82D
:102FC00082460246294602A823F0C5F87C4890F8BC
:102FD0009200022809D10023009301933B462A4620
:102FE00000214046FFF710FDF5E0754890F892008B
:102FF00001286FD108F0F000802806D0902805D075
:10300000E02807D0F0280FD109E000BF46464FF076
:10301000010909E008F08F064FF0020904E008F00A
:103020009F064FF0020900BF00BFB9F1010F43D165
:103030006348007A022821D106F0F000802802D0EF
:1030400090281AD10CE002A823F05AF882460023F7
:103050000093034602AA012108461AF077FE0CE00D
:1030600002A823F04DF8824600230093034602AAEB
:10307000012102201AF06AFE00BFACE000213046B8
:10308000FFF798F9142F00DD1427002407E015F846
:10309000016B01213046FFF78DF9601CC4B2BC42C0
:1030A000F5DB06E0202601213046FFF783F9601C9E
:1030B000C4B2142CF6DB8EE0B9F1020F25D14048E2
:1030C000007A022822D106F0F000802803D0902850
:1030D0001BD10DE038E002A823F012F8824600234D
:1030E0000093034602AA022101201AF02FFE0CE0F1
:1030F00002A823F005F8824600230093034602AAA3
:10310000022108461AF022FE00BF64E0002130468A
:10311000FFF755F8142F00DD1427002407E015F8F9
:10312000016B01213046FFF74AF8601CC4B2BC4273
:10313000F5DB06E0202601213046FFF740F8601C51
:10314000C4B2142CF6DB46E01D48007A022821D1D7
:1031500008F0F000802802D090281AD10CE002A8D4
:1031600022F0CEFF824600230093034602AA0221EA
:1031700001201AF0EBFD0CE002A822F0C1FF82460C
:1031800000230093034602AA022108461AF0DEFD3E
:1031900000BF20E0464600213046FFF710F8142F0C
:1031A00000DD1427002407E015F8016B01213046EB
:1031B000FFF705F8601CC4B2BC42F5DB09E0000073
:1031C00034300010202601213046FEF7F8FF601C45
:1031D000C4B2142CF6DB0EB0BDE8F08770B504461F
:1031E000F84890F89200012849D134B1012C14D04C
:1031F000022C22D0032C40D12FE024250021284688
:10320000FFF7D8F8042500212846FFF7D3F820253A
:1032100000212846FFF7CEF830E02425002128467B
:10322000FFF7C8F8052500212846FFF7C3F8202539
:1032300000212846FFF7BEF820E02425002128467B
:10324000FEF7BDFF042500212846FEF7B8FF202524
:1032500000212846FEF7B3FF10E024250021284670
:10326000FEF7ADFF052500212846FEF7A8FF202523
:1032700000212846FEF7A3FF00E000BF1BE0242545
:1032800000212846FEF79BFF14B1012C0CD105E06C
:10329000042500212846FEF792FF06E005250021BF
:1032A0002846FEF78CFF00E000BF00BF202500216C
:1032B0002846FEF784FF70BD2DE9F0410746012F37
:1032C00001D1FF2600E000264FF0360800214046DD
:1032D000FEF775FF00BF00214046FEF770FF4FF07C
:1032E000010800214046FEF76AFF002415E004F1C2
:1032F0008001C8B20021FEF762FF00218020FEF7A6
:103300005EFF002505E001213046FEF758FF681CEE
:10331000C5B2102DF7DB601CC4B2202CE7DB002403
:1033200015E004F18001C8B20021FEF748FF00213A
:103330008820FEF744FF002505E001213046FEF716
:103340003EFF681CC5B2102DF7DB601CC4B2202CF8
:10335000E7DB4FF0200800214046FEF730FF994898
:1033600090F8920001284AD14FF0360800214046DB
:10337000FFF720F800BF00214046FFF71BF84FF091
:10338000010800214046FFF715F8002415E004F17C
:103390008001C8B20021FFF70DF800218020FFF75F
:1033A00009F8002505E001213046FFF703F8681C05
:1033B000C5B2102DF7DB601CC4B2202CE7DB002463
:1033C00015E004F18001C8B20021FEF7F3FF0021EF
:1033D0008820FEF7EFFF002505E001213046FEF7CB
:1033E000E9FF681CC5B2102DF7DB601CC4B2202CAD
:1033F000E7DB4FF0200800214046FEF7E0FEBDE885
:10340000F08170B505466F4890F8920001281FD1F1
:1034100005F0F000802806D0902805D0E02808D0DC
:10342000F02814D10CE000BF00212846FEF7C2FFAF
:103430000DE005F08F0400212046FEF7C0FE06E0F7
:1034400005F09F0400212046FEF7B9FE00BF03E00F
:1034500000212846FEF7B3FE70BD70B504465948FA
:1034600090F8920001280ED10F25012C04D10021E3
:103470002846FEF79FFF0BE0022C09D100212846C9
:10348000FEF79DFE04E00F2500212846FEF797FE7B
:1034900070BD70B504464B4890F8920001280ED1DB
:1034A0000C25012C04D100212846FEF783FF0BE0F8
:1034B000022C09D100212846FEF781FE04E00C25EC
:1034C00000212846FEF77BFE70BD70B5044600253E
:1034D0000DE0E9B20020FFF764F9002604E014F8DB
:1034E000010BFFF72EF9761CF02EF8D36D1C102D72
:1034F000EFD370BD70B50546FFF764F9002412E004
:10350000E1B20020FFF74DF9FF20FFF71AF900267E
:1035100003E0285DFFF715F9761CEE2EF9D3FF20A6
:10352000FFF70FF9641C102CEAD370BD2DE9F74F9B
:10353000ADF5447D0D4616464FF44271684622F0C3
:10354000A3FEC498E02834D012DC902829D008DCEF
:1035500080281ED081281ED082281ED083283BD1EF
:103560001DE091281FD092281FD0932834D11EE04F
:10357000F02829D006DCE1281DD0E2281DD0E32860
:103580002AD11CE0F12821D0F22821D0F32823D120
:1035900020E0002420E001241EE002241CE003249B
:1035A0001AE0042418E0052416E0062414E0072499
:1035B00012E0082410E009240EE00A240CE00B2499
:1035C0000AE00000343000100C2405E00D2403E074
:1035D0000E2401E00F2400BF00BFA046A9461EB97B
:1035E0000DF5477DBDE8F08F694630461AF037FE8D
:1035F0000520C3909B20C2904FF0000A002719E0DD
:1036000008F0FF0109F0FF00FFF7CBF84FF0000BC7
:1036100009E01DF80A00FFF794F80AF1010A09F120
:1036200001090BF1010BC2988345F2D308F101089F
:10363000A9467F1CC3988742E2D300BFD0E710B5EC
:1036400004461A48FFF741FF10BDF0B504460D4689
:1036500017462E46E91705EB5171C910B031C8B2B3
:10366000FEF7D4FF2646E11704EB1171091101F1B1
:103670001000FEF7CBFFE11704EB11710911A4EB69
:103680000111C8B2FEF7C2FF67B12E46E91705EB7C
:103690005171C910A5EBC10201219140C8B2FFF7D9
:1036A00050F802E00020FFF74CF8F0BD8E770200E2
:1036B0000146082917D007DCF9B101290DD00229EC
:1036C0000DD004291BD10CE010290ED020290ED0DA
:1036D00040290ED0802912D10DE0002011E00120F8
:1036E0000FE002200DE003200BE0042009E005209C
:1036F00007E0062005E0072003E0102001E020207D
:1037000000BF00BF70472DE9F04700224FF4404151
:10371000012021F013F901224FF47C71002021F0E7
:103720000DF901224FF44031104621F007F94FF412
:103730007C71002021F020F94FF44031012021F06C
:103740001BF94FF0180900BFA9F10100C0B25FEAF0
:103750000009F9D1012021F019F9C0F381370022C5
:103760004FF47C71104621F0E9F800224FF440310B
:10377000012021F0E3F801224FF44041104621F0EE
:10378000DDF84FF44041012021F0F6F84FF0180920
:1037900000BFA9F10100C0B25FEA0009F9D1012020
:1037A00021F0F4F8C0F3014A002021F0EFF8C0F353
:1037B00005104AEA8008032121EA0700FFF778FF95
:1037C00004466FEA0800C0B2FFF772FF0546102CEE
:1037D00003D1102D01D1FF260EE0102C01D0102DA9
:1037E00001D1FE2608E0202C01D0202D01D1FD269C
:1037F00002E005EBC400C6B200224FF440410120B4
:1038000021F09CF801224FF47C71002021F096F801
:1038100001224FF44031104621F090F84FF47C71B2
:10382000002021F0A9F84FF44031012021F0A4F844
:103830004FF0180900BFA9F10100C0B25FEA00090A
:10384000F9D13046BDE8F08770B57E480078012890
:1038500075D1FFF758FF7C490870FF2828D17B48B5
:103860000078FF2803D17A480078002809DD01227A
:103870009107104621F062F84FF08041012021F0BD
:103880007BF8002072490870FF20704908706E496B
:10389000087000206B4908706E48006920F0407085
:1038A0006C4908610846006940F08070086166E074
:1038B0006648007864490978884260D16248007897
:1038C000FD283DD060480078FE2839D06048007857
:1038D000A0BB01205E4908705C4800785E498860A2
:1038E00008315E4800681DF05FFF0646642522E04F
:1038F000002400E0641C42F228308442FADB0122FA
:10390000C106104621F01AF84FF08041012021F045
:1039100029F8002400E0641C42F228308442FADBDB
:103920000122C106104621F009F84FF08041012024
:1039300021F022F86D1E002DDADC20E000E022E00C
:1039400043480078002809DD41480078FF2805DA5F
:103950003F480078401C3E49087002E000203C4986
:1039600008703B480078052809D1012281071046DC
:1039700020F0E4FF4FF08041012020F0FDFF3248AD
:1039800000783249087070BD10B5022000DF1EF0CB
:1039900038FE3048006920F040702E49086101204F
:1039A0002849087004202E4908601EF038FE0320C4
:1039B00000DF10BD10B52748006920F04070254990
:1039C00008610846006940F0807008612548006879
:1039D00040F004002449C1F848014FF00000234999
:1039E00008604FF03802AFF25F014FF024001CF086
:1039F000C4FF1CF0BEFF10BD10B500224FF44041C3
:103A0000012020F09BFF01224FF47C71002020F068
:103A100095FF01224FF44031104620F08FFF4FF404
:103A20007C71002020F0A8FF4FF44031012020F0ED
:103A3000A3FF182400BF601EC0B20400FBD1FFF733
:103A4000B9FF10BD780000107A0000107B00001054
:103A50007900001000C00240B43500105000001082
:103A600040C10F4048C10F4000C00F404CC10F4043
:103A70002DE9F04107460024FC4E4FF40C654FF44D
:103A8000047095FBF0F0401C0FFA80F8012F0ED166
:103A900000BF09E004F10A0188B2314621F049FF74
:103AA00006F50476601C84B24445F3DB1EE01BE09F
:103AB000B5F5047F09DD04F10A0188B233464FF4FD
:103AC0000472002121F06CFE07E004F10A0188B2C3
:103AD0003346AAB2002121F063FE601C84B2A5F532
:103AE000047005B206F50476002DE1DCBDE8F08136
:103AF0002DE9F041054600BFDD4EB0244FF40470BF
:103B000094FBF0F0401C07B2012D04D1314609208E
:103B100021F00FFF05E03346A2B20021092021F079
:103B20003FFED44E0D244FF4047094FBF0F0401C83
:103B300007B2012D04D13146462021F0FAFE05E0FE
:103B40003346A2B20021462021F02AFEBDE8F081D2
:103B50002DE9F041044600BFC74D50264FF40470D4
:103B600096FBF0F0401C07B2012C04D12946152029
:103B700021F0DFFE05E02B46B2B20021152021F036
:103B80000FFEBDE8F0812DE9F041044600BFBB4DBA
:103B900010264FF4047096FBF0F0401C07B2012C85
:103BA00004D12946072021F0C4FE05E02B46B2B21D
:103BB0000021072021F0F4FDBDE8F0812DE9F0415E
:103BC000044600BFAE4DF5264FF4047096FBF0F0AE
:103BD000401C07B2012C04D12946322021F0A9FE55
:103BE00005E02B46B2B20021322021F0D9FDBDE81C
:103BF000F08170B50446A34DB826012C06D1A24928
:103C0000B1F84401294621F094FE07E09E49B1F83D
:103C100044012B46B2B2002121F0C2FD9A48B0F80F
:103C20004411B0F84401401C974AA2F84401B1F590
:103C30007A6F04DD4FF4FA701146A1F84401924DF9
:103C40004FF4CE76012C04D12946082021F071FED4
:103C500005E02B46B2B20021082021F0A1FD70BD85
:103C600070B5ACB0FEF7C1FDB0228149684622F0C4
:103C7000B7FA7F4E002404E0002006F8010B601C18
:103C800084B2B02CF8D3794E002404E0002006F86A
:103C9000010B601C84B2B4F50C6FF7D300246CE008
:103CA000012173487C3001551A2108300155601CF0
:103CB000C1B276480155601CC1B274480830015544
:103CC000002556E005F0A0FDD0B98320C4EBC40167
:103CD00001EB8101654A02EBC101C5EBC50201EBB5
:103CE000820108720020C4EBC40101EB81015F4A2C
:103CF00002EBC101C5EBC50201EB8201487219E07C
:103D00008120C4EBC40101EB8101584A02EBC101DF
:103D1000C5EBC50201EB820108726320C4EBC4014C
:103D200001EB8101514A02EBC101C5EBC50201EB78
:103D3000820148726420C4EBC40101EB81014B4A4B
:103D400002EBC101C5EBC50201EB82014860681CB2
:103D500004EB84014D4AA03A02EB41014855C1B23F
:103D600004EB84024948503800EB42004155681C7E
:103D700085B20A2DA6DB601C84B2082C90DB4FF4C0
:103D800098503B4908804FF4B850488005F039FD01
:103D900048B93F48364948603E48C1F8A4003E480B
:103DA000C1F8A80006E03A4831494860C1F8A400CB
:103DB000C1F8A80014203449A1F8440164212C481A
:103DC000816400202A49C8630021294801644164B4
:103DD000816400202649C8650021254801664166A6
:103DE000816600202249C8600021214801614FF40A
:103DF000FA601F4988616420C861002081F88C0046
:103E0000022081F89800002081F88E0081F88F0050
:103E1000012081F89500022081F8960081F8970032
:103E2000002081F8900081F891009DF8920081F8BF
:103E300092009DF8930081F893009DF8940081F81A
:103E400094009DF8AC0081F8AC009DF8AD0081F8BD
:103E5000AD00012081F89900002081F89A0001202E
:103E60000449C872002008732CB070BDF4260010FD
:103E700034300010F43000108C330010E4300010A7
:103E8000DC33001004310010BC310010A4350010E8
:103E900040E201009D71FD048931FD04002085E0B0
:103EA00000EB4001FF4A32F831103A2960D028DC9B
:103EB000292953D018DC18294BD00CDC112945D006
:103EC00004DC082940D010296DD13EE012293ED0F3
:103ED000152968D13CE01A293CD01C293BD01E2969
:103EE0003AD024295FD138E02A3910295BD2DFE8A3
:103EF00001F03637385A5A393A5A5A3B5A5A5A3CCC
:103F00003D3E59293ED00ADCA1F13B0109294AD2A4
:103F1000DFE801F02F3031323334353637007A297B
:103F200035D008DC62292ED068292DD078292CD0F4
:103F3000792938D12AE07B292AD07C2929D08D29DA
:103F400028D0B9292FD126E000BF00BF00BF00BF95
:103F500000BF00BF00BF00BF00BF00BF00BF00BF69
:103F600000BF00BF00BF00BF00BF00BF00BF00BF59
:103F700000BF00BF00BF00BF00BF00BF00BF00BF49
:103F800000BF00BF00BF00BF00BF00BF00BF00BF39
:103F900000BF00BF00BF012100EB4002C14B03EB9B
:103FA000C202918100BF00BF411C88B2C628FFF643
:103FB00077AF7047F0B503460C460025022C7BDA3C
:103FC0000820B94E307004BBC2EBC20000EB800089
:103FD000B64E06EBC000C3EBC30600EB8600007ACA
:103FE00020F08000C2EBC20606EB8606AF4F07EB5F
:103FF000C606C3EBC30706EB87063072002002EB50
:104000008206AB4F07EB4606F054012C19D1C2EBE8
:10401000C20000EB8000A54E06EBC000C3EBC30658
:1040200000EB8600007A40F08000C2EBC20606EB8F
:1040300086069E4F07EBC606C3EBC30706EB870653
:104040003072002133E0002002EB8206994F07EB2B
:1040500046067054002602EB82079648503000EB6B
:1040600047004654C2EBC20000EB80008F4E06EBC7
:10407000C000C1EBC10600EB8600007A00F08000B2
:10408000802812D1481CC7B202EB8200894E06EB91
:10409000400C28466E1CF5B20CF8007002EB82064C
:1040A0008448503000EB46004554481CC1B20A29F0
:1040B000C9DB0120F0BDFFE700207F4E307000BF5C
:1040C000F8E770B502460B460024022A20DA0820E1
:1040D000754D28707948C254002115E000257548B7
:1040E000A0304554083045547448405C012809D13B
:1040F000481CC6B22546601CC4B26E48A030465566
:1041000008304454481CC1B20829E7DB012070BDC7
:104110000020694D287000BFF9E710B5FEF765FB78
:104120004FF4FA6065497C3988616420C8610020D9
:1041300081F88C00022081F89800002081F88E0020
:1041400081F88F00012081F89500022081F8960007
:1041500081F89700002081F8900081F891000220FA
:1041600081F89200002081F89300032081F89400E8
:10417000002081F8AC0081F8AD00012081F89900A1
:10418000002081F89A0001204D49C8720873002070
:104190004A497C3981F89B00002148487C3880F8E6
:1041A0009D1080F89E10002211461046FFF702FF76
:1041B000002211460220FFF7FDFE002211460420D6
:1041C000FFF7F8FE06210020FFF77BFF0721002004
:1041D000FFF777FF02203A49487000213848817084
:1041E000C170172101713B2141710220344988714E
:1041F00000213348C1710172172141723B21817244
:1042000010BD00209EE000EB4001264A32F831103C
:10421000392977D02EDC1E296AD016DC122962D00B
:104220000ADCA1F108010A297ED2DFE801F05788F3
:104230008888888858595A5B152955D0182954D030
:104240001A2953D01C297AD151E0302955D008DCE5
:1042500024294ED028294DD02C294CD02F296ED17D
:104260004AE032294AD0332949D0372948D0382961
:1042700065D146E043294FD00ADCA1F13A01092972
:104280005DD2DFE801F040414243444546474800E3
:10429000792946D019DC59293FD062293ED06829B6
:1042A0003DD00FE09811001058010010F4260010C6
:1042B0008C3300100435001088010010B03000105D
:1042C000F430001078293AD12AE07A292AD07B29C3
:1042D00029D08D292AD0B92931D128E000BF00BFCB
:1042E00000BF00BF00BF00BF00BF00BF00BF00BFD6
:1042F00000BF00BF00BF00BF00BF00BF00BF00BFC6
:1043000000BF00BF00BF00BF00BF00BF00BF00BFB5
:1043100000BF00BF00BF00BF00BF00BF00BF00BFA5
:1043200000BF00BF00BF00E009E000BF00BF0121E7
:1043300000EB4002124B03EBC202918100BF00BFB1
:10434000411C88B2C628FFF65EAF704738B50446F8
:1043500021460CA015F04BFF0F4800681CF09CFE96
:1043600020060E4908600E4800681CF078FF6A4677
:104370004FF4C861084800681CF017FF38BD000002
:10438000981100100D0A536574546F754269537487
:104390006174203D2025750044000010B4350010E4
:1043A0004C00001010B5022000DF1EF02AF9012099
:1043B0004FF040210860FFF747FAD54890F8960083
:1043C000012801D10BF02EFDD2484089002804DDE0
:1043D000D0484089401ECF494881CF4800880028F6
:1043E00004DDCD480088401ECB490880CA4840887B
:1043F000002804DDC8484088401EC7494880C64898
:104400008088002804DDC4488088401EC249888016
:10441000C248B0F80C02002806DDC048B0F80C0213
:10442000401EBE49A1F80C02BC48B0F80E0200289C
:1044300006DDBA48B0F80E02401EB849A1F80E02D7
:10444000B748B0F80602002806DDB548B0F8060205
:10445000401EB349A1F80602B148B0F8080200288E
:1044600006DDAF48B0F80802401EAD49A1F80802C9
:10447000AB48B0F80A02002806DDA948B0F80A02E5
:10448000401EA749A1F80A02A548B0F80C0200286E
:1044900006DDA348B0F80C02401EA149A1F80C02A9
:1044A0009E48B0F80C02002806DD9C48B0F80C02CB
:1044B000401E9A49A1F80C029848B0F80E02002854
:1044C00006DD9648B0F80E02401E9449A1F80E028F
:1044D0009348B0F81402002806DD9148B0F81402A1
:1044E000401E8F49A1F814028D48B0F82202401CEA
:1044F0008B49A1F822020846B0F82602002805DD03
:104500000846B0F82602401EA1F826028548007829
:10451000401C844908700846007864287EDB00202F
:1045200008707E48B0F81002002806DD7B48B0F81D
:104530001002401E7949A1F810027848B0F8120222
:10454000002806DD7548B0F81202401E7349A1F834
:1045500012027348B0F80E02002806DD7048B0F869
:104560000E02401E6E49A1F80E026D48B0F810020E
:10457000002806DD6A48B0F81002401E6849A1F81C
:1045800010026748B0F81202002806DD6448B0F84F
:104590001202401E6249A1F812026148B0F8680395
:1045A000002806DD5E48B0F86803401E5C49A1F8AB
:1045B00068035B48B0F86C0330B15948B0F86C033D
:1045C000401E5749A1F86C03554890F8160210F0A8
:1045D000010F06D05248B0F81802401C5049A1F80B
:1045E00018024F48B0F81A02401C4D49A1F81A02AF
:1045F000084690F8160210F0040F05D00846B0F8EF
:104600001C02401CA1F81C02454890F8160210F04C
:10461000080F08D04248B0F81E0200E017E0401C26
:104620003F49A1F81E023E4890F8160210F0100F04
:1046300006D03B48B0F82002401C3949A1F82002BE
:104640003748B0F87603401C3549A1F876031DF0D1
:10465000E6FF032000DF10BD10B5022000DF1DF0D3
:10466000D0FF0120304908601DF0D9FF032000DF92
:1046700010BD20B901214FF04022516002E001211C
:10468000294A5160704720B900214FF04022516003
:1046900002E00021244A51607047014631B94FF0D1
:1046A0004022506840F00200506004E01E4A50680A
:1046B00040F002005060704770B505460C4600207F
:1046C0001849087085B94FF04020846103204FF0ED
:1046D000402148613822AFF2333111201CF04DF9EE
:1046E0001CF047F9012070BD012D0ED10E488461E8
:1046F00003200D4948613822AFF2A30112201CF0BB
:104700003CF91CF036F90020EDE70120EBE7000052
:1047100034300010D86800102C000010F05C00103D
:10472000246000107C0000100080004070B504463A
:104730000D46214643A01BF005F835B9042008F0CA
:1047400060FD204608F083FD06E0032008F059FDD7
:10475000204608F07CFD00BF00BF08F071FD70BD71
:104760002DE9F05F81460E46924608F0B1FD08F053
:1047700040FD4FF0000B43E04FF0000800270121FF
:104780004846FFF7D3FF07EB0900C7B2002408E053
:10479000305D0021FFF7CAFF305D3844C7B2601CAE
:1047A000C4B25445F4DB00213846FFF7BFFF282090
:1047B0001DF06AFD2421254808F05FFD05462946C5
:1047C00023A01AF0BFFF002406E02048015D1DA0D1
:1047D0001AF0B8FF601CC4B2AC42F6DB08F003FD6F
:1047E000804641461EA01AF0ADFFB8F1000F00D17F
:1047F00009E014201DF048FD0BF1010000F0FF0B53
:10480000BBF1080FB8DB00BFB8F1000F01D0404684
:1048100000E0681EC0B2BDE8F09F0246242900DD1A
:104820002421002004E0094B1B5C1354431CD8B224
:104830008842F8DB70470146242901DD01207047DA
:104840000020FCE72025303278000000545A001088
:104850000D0A52203D2025303278202D2000000006
:104860002009657272203D2025303278000000005A
:1048700070B50446092C22DD0020FF490860FF497D
:104880000870FF4804700020FD494870FD48007A18
:10489000022809D1084621F033FCC5B22A46F8495E
:1048A0009020FEF786FA2AE0F54821F029FCC5B2EF
:1048B0002A46F349F4480078FEF77BFA1FE0F049F6
:1048C000EE4A127888182246F0A121F08BF9ED48C3
:1048D000007A022809D1EA4821F012FCC5B22A4622
:1048E000E7499020FEF765FA09E0E54821F008FC69
:1048F000C5B22A46E249E4480078FEF75AFA70BD8C
:1049000070B504460B2C26DD0020DB49086000242E
:10491000DA490870DEA1DA4821F0CEFBD948007AE6
:10492000022809D1D64821F0EBFBC5B22A46D4496A
:104930009020FEF73EFA09E0D14821F0E1FBC5B234
:104940002A46CF49D0480078FEF733FACE4800789F
:10495000FEF757FD18E10B2C70D1C84800780028ED
:1049600067DDCE48007801280DD10020CB490870C2
:10497000C14800680A21B0FBF1F000EB8000400064
:10498000BD49086025E0C648007801280BD1002009
:10499000C3490870B84800686421B0FBF1F048438F
:1049A000B549086015E0BF48007801280AD1002009
:1049B000BC490870B04800686421B0FBF1F0AE4912
:1049C000086006E0AC4800680A21B0FBF1F0AA4993
:1049D0000860AA490A780978491EA84B1970A849A5
:1049E0001144481EB0A121F0FDF8A648007A022823
:1049F00009D1A34821F084FBC5B22A46A0499020E2
:104A0000FEF7D7F909E09E4821F07AFBC5B22A46A5
:104A10009B499D480078FEF7CCF998490D7805EB45
:104A2000D571994A127802EB6101C8B2FEF7E9FC30
:104A3000AAE000209D490870A6E0FFE78F480078B3
:104A40009B490978884228DA0A2C33D195480078A6
:104A500078BB9848007801282CD192490870002032
:104A60008F4908708D49087084490A780978491C73
:104A7000824B1970824950188FA290A121F0B2F890
:104A80008048007A022809D17D4821F039FBC5B25F
:104A90002A467B499020FEF78CF975E0784821F092
:104AA0002FFBC5B22A46764977480078FEF781F990
:104AB0006AE0FFE70A2C67DA01207C490870794830
:104AC000007801281FD17648007801280DD173485D
:104AD0000078012800D170BD012070490870664837
:104AE000006820446449086015E001206C490870A2
:104AF000614800686421484304EB840100EB4100F5
:104B00005D49086007E05C48006800EB800004EB4A
:104B10004000594908606A48007860B157490A78EE
:104B20000978491C554B19705549501865A263A165
:104B300021F058F80BE051490A780978491C4F4B8D
:104B400019704F495018224650A121F04BF84D489A
:104B5000007A022804D04B4890F89200022809D12C
:104B6000474821F0CDFAC5B22A4645499020FEF7C4
:104B700020F909E0424821F0C3FAC5B22A4640496B
:104B800041480078FEF715F900BFA4E72DE9F0478A
:104B90009AB0054600208DF83800FDF726FE4FF04C
:104BA0000408C8F10A094848405D401E46B2002486
:104BB000C3E006EB86004449A03901EB4000005DEC
:104BC000E8B306EB860001EB4000005D401E47B2F3
:104BD000C6EBC60000EB80003C4901EBC000C7EB10
:104BE000C70100EB8100007A80280CD12548017AAA
:104BF000374850F821300093631C6A1C35A102A885
:104C000020F0F0FF93E0C6EBC60000EB80002F49D8
:104C100001EBC000C7EBC70100EB8100007A8228DE
:104C20000ED11848017A2A48103850F821300093E4
:104C3000631C6A1C27A102A820F0D4FF77E07AE069
:104C4000C6EBC60000EB8000204901EBC000C7EBBB
:104C5000C70100EB8100007A83283FD10948017A1F
:104C60001B48703050F821300093631C6A1C19A156
:104C700002A820F0B7FF5AE0840100108001001064
:104C80008E5A0010343000107F010010257800008B
:104C90002020202020202020000000005E010010A5
:104CA0005D0100105C010010200000008801001070
:104CB000580100105B0100102E0000002573000059
:104CC0005A0100102A000000A4350010F42600103C
:104CD000D82400102564256425730000C6EBC600A7
:104CE00000EB8000FA4901EBC000C7EBC70100EB05
:104CF0008100407A68B9F748017AF74850F82130C6
:104D00000093631C6A1CAFF2340102A820F06AFF12
:104D10000DE0F048017AF048903850F821300093C7
:104D2000631C6A1CAFF2540102A820F05BFF02A9C9
:104D30000EA821F004FA601CC4B24445FFF639AF56
:104D40000EA821F0DDF900F0FF0A52460EA98020DE
:104D5000FEF72FF800208DF83800B9F1000F7DDD47
:104D6000042496E006EB8600DC4901EB4000005D80
:104D7000F0B306EB860001EB4000005D401E47B239
:104D8000C6EBC60000EB8000D14901EBC000C7EBC9
:104D9000C70100EB8100007A80280ED1CD48017A4E
:104DA000CD48703850F821300093631C6A1CAFF274
:104DB000DC0102A820F016FF65E0C6EBC60000EBA0
:104DC0008000C34901EBC000C7EBC70100EB8100C5
:104DD000007A822810D1BF48017ABF48803850F845
:104DE00021300093631C6A1CAFF2181102A800E086
:104DF0004DE020F0F7FE46E0C6EBC60000EB800079
:104E0000B34901EBC000C7EBC70100EB8100007A9A
:104E100083280DD1AF48017AAF4850F82130009374
:104E2000631C6A1CAFF2541102A820F0DBFE2AE0DA
:104E3000C6EBC60000EB8000A54901EBC000C7EB44
:104E4000C70100EB8100407A78B9A248017AA248F4
:104E500050F821300093631C6A1C00E028E0AFF298
:104E60008C1102A820F0BEFE0DE09A48017A9A4803
:104E7000903850F821300093631C6A1CAFF2AC11DB
:104E800002A820F0AFFE02A90EA821F058F9601C7C
:104E9000C4B209F104008442FFF664AF0EA821F009
:104EA0002FF900F0FF0A52460EA99020FDF781FF6E
:104EB000884890F89200012804D0864890F8920023
:104EC000022875D1681CC5B200208DF838004FF05B
:104ED0000408C8F10A098148A030405D401E46B26E
:104EE000002495E006EB86007C4901EB4000005D64
:104EF000F0B306EB860001EB4000005D401E47B2B8
:104F0000C6EBC60000EB8000714901EBC000C7EBA7
:104F1000C70100EB8100007A80280ED16D48017A2C
:104F20006D48703850F821300093631C6A1CAFF252
:104F30005C2102A820F056FE64E0C6EBC60000EB40
:104F40008000634901EBC000C7EBC70100EB8100A3
:104F5000007A822810D15F48017A5F48803850F883
:104F600021300093631C6A1CAFF2982102A800E074
:104F70004CE020F037FE45E0C6EBC60000EB8000B9
:104F8000534901EBC000C7EBC70100EB8100007A79
:104F900083280ED14F48017A4F4850F821300093B2
:104FA000631C6A1CAFF2D42102A820F01BFE29E08A
:104FB000B2E0C6EBC60000EB8000454901EBC00043
:104FC000C7EBC70100EB8100407A68B94148017A1C
:104FD000414850F821300093631C6A1CAFF20C3139
:104FE00002A820F0FFFD0DE03A48017A3A489038D7
:104FF00050F821300093631C6A1CAFF2283102A8DC
:1050000020F0F0FD02A90EA821F099F8601CC4B2AE
:105010004445FFF667AF0EA821F072F800F0FF0AD2
:1050200052460EA9E020FDF7C4FE00208DF838009E
:10503000B9F1000F70DD04249EE006EB86002749DD
:1050400001EB4000005DF0B306EB860001EB400091
:10505000005D401E47B2C6EBC60000EB80001C4955
:1050600001EBC000C7EBC70100EB8100007A80288C
:105070000ED11848017A1848703850F82130009342
:10508000631C6A1CAFF2B43102A820F0ABFD6DE0E6
:10509000C6EBC60000EB80000D4901EBC000C7EB7A
:1050A000C70100EB8100007A822819D10948017AF2
:1050B0000948803850F821300093631C6A1CAFF215
:1050C000EC3102A800E055E020F08CFD4EE000003D
:1050D000F42600103430001048250010043500106C
:1050E000C6EBC60000EB8000F84901EBC000C7EB3F
:1050F000C70100EB8100007A83280ED1F448017AC1
:10510000F44850F821300093631C6A1CAFF23C4114
:1051100002A820F067FD29E03DE0C6EBC60000EBE9
:105120008000EA4901EBC000C7EBC70100EB81003A
:10513000407A68B9E648017AE64850F82130009391
:10514000631C6A1CAFF2744102A820F04BFD0DE015
:10515000DF48017ADF48903850F821300093631C13
:105160006A1CAFF2904102A820F03CFD02A90EA8F3
:1051700020F0E5FF601CC4B209F104008442FFF690
:105180005CAF0EA820F0BCFF00F0FF0A52460EA94B
:10519000F020FDF70EFE01201AB0BDE8F0872DE9E2
:1051A000F0479AB0074600208DF83800FDF71DFB48
:1051B0004FF00408C8F10A09C748C05D401E44B258
:1051C000002585E004EB8400C349A03901EB4000D1
:1051D000405DB8B304EB840001EB4000405D401E2D
:1051E00046B230E0C4EBC40000EB8000B74901EBED
:1051F000C000C6EBC60100EB8100007D00280EDD7B
:10520000B348017AB348703850F8213000936B1CD2
:105210007A1CAFF2405102A820F0E4FC14E00A2E00
:105220000AD004EB8400AC49A03901EB40023046BF
:10523000711C4EB2105C30B90026601C44B2082CC0
:1052400001D101E042E0CDE700BF2FE0C4EBC40094
:1052500000EB80009D4901EBC000C6EBC60100EBEE
:105260008100007D00280EDD9948017A9948703848
:1052700050F8213000936B1C7A1CAFF2A85102A8A1
:1052800020F0B0FC13E00A2E0AD004EB840092490F
:10529000A03901EB40023046711C4EB2105C28B9B7
:1052A0000026601C44B2082C00D100E0CEE700BF0D
:1052B00002A90EA820F043FF0EA820F021FF00F065
:1052C000FF0A52460EA99020FDF773FD681CC5B277
:1052D0004545FFF677AF0EA820F012FF00F0FF0A59
:1052E00052460EA98020FDF764FD00208DF838009D
:1052F000B9F1000F7EDD042597E004EB84007649C8
:10530000A03901EB4000405DF0B304EB840001EBF9
:105310004000405D401E46B2C4EBC40000EB80007C
:105320006A4901EBC000C6EBC60100EB8100007AC0
:1053300080280ED16648017A6648703850F82130CE
:1053400000936B1C7A1CAFF2746102A820F04AFC37
:1053500065E0C4EBC40000EB80005C4901EBC000D9
:10536000C6EBC60100EB8100007A822810D15848B4
:10537000017A5848803850F8213000936B1C7A1C11
:10538000AFF2B06102A800E04DE020F02BFC46E057
:10539000C4EBC40000EB80004C4901EBC000C6EB3D
:1053A000C60100EB8100007A83280DD14848017ABC
:1053B000484850F8213000936B1C7A1CAFF2EC6126
:1053C00002A820F00FFC2AE0C4EBC40000EB800030
:1053D0003E4901EBC000C6EBC60100EB8100407AFC
:1053E00078B93B48017A3B4850F8213000936B1C58
:1053F0007A1C00E028E0AFF2247102A820F0F2FB52
:105400000DE03348017A3348903850F8213000934A
:105410006B1C7A1CAFF2447102A820F0E3FB02A9D6
:105420000EA820F08CFE681CC5B209F1040085426C
:10543000FFF663AF0EA820F063FE00F0FF0A5246AD
:105440000EA99020FDF7B5FC01201AB0BDE8F08749
:10545000704710B50446002020490860FFF7F8FFA8
:105460000020FDF7BBFE1A48007A022805D107226A
:105470001BA19020FDF79DFC05E0072218A11A480A
:105480000078FDF796FC002018490870164800784F
:10549000FDF7B7FF0120FDF7E0FF00201449087079
:1054A00001201449087010BD10B504460A2C27D1FC
:1054B0001148007820BB10480078401C0E49087045
:1054C0000E480078401C0D490870C9E0F426001011
:1054D0003430001048250010A4350010840100105D
:1054E00020202020202020007F0100105C010010DF
:1054F000880100107E0100104401001045010010D9
:105500000E2C0ED1FF48007801280AD1FD48007802
:10551000401CFC490870FC480078401CFA4908709F
:105520009EE00B2C0ED1F748007802280AD1F548EE
:105530000078401CF3490870F3480078401CF24999
:1055400008708DE00C2C0ED1EE48007803280AD1AB
:10555000EC480078401CEB490870EB480078401C90
:10556000E94908707CE00A2C0ED1E648007804284E
:105570000AD1E4480078401CE2490870E24800780B
:10558000401CE14908706BE0082C0CD1DD48007824
:10559000052808D1DB480078401CDA490870002053
:1055A000D94908705CE0082C0CD1D6480078062850
:1055B00008D1D4480078401CD24908700020D24954
:1055C00008704DE00B2C15D1CE480078072811D17A
:1055D0000020CC490870CC490870CC48807B012859
:1055E00003D00120C949887302E00020C7498873AD
:1055F000012010BD0A2C0CD1C3480078052808D121
:105600000020C0490870C0480078401CBE4908709E
:1056100026E00A2C0CD1BC480078062808D10020CE
:10562000B8490870B8480078401CB749087017E0BE
:105630000A2C10D1B448007807280CD10020B149B9
:105640000870B1490870FEF768FDFEF7DAFD00202A
:1056500012F0E1F904E00020AA490870AA49087094
:105660000020C6E7F8B500260120A9490860A9492D
:10567000086012F0BEFF022012F0CDF90020A6490A
:105680000860A6490870A64908700820A549087056
:105690000020A54908700120A44908700020A449F1
:1056A0000870A449087012F08AFF48E06A46002199
:1056B000A14800681CF010F804469DF80000F0BBFB
:1056C0009948007801287DD12078082855D006DC3B
:1056D00076D2DFE800F03E1F1770626C661B0D2863
:1056E0003FD008DC092844D00A2852D00B284CD0DF
:1056F0000C2865D131E00E2837D00F2841D0FF2883
:105700005ED15CE02F20FFF7B3F85AE01820FFF7D6
:10571000AFF856E07E48006800EB4000874901EB97
:10572000C000C088A0F54071E7390ED07848006805
:1057300000EB4000814901EBC000C08800E0C7E3F6
:1057400073490860012012F066F90020764908705C
:1057500037E01920FFF78CF833E00120FFF788F8D5
:105760002FE00220FFF784F82BE00320FFF780F8FA
:1057700027E00420FFF77CF823E00520FFF778F806
:105780001FE00620FFF774F81BE00720FFF770F812
:1057900017E00820FFF76CF813E00920FFF768F81E
:1057A0000FE00020FFF764F80BE00BE008E02E208C
:1057B000FFF75EF805E02120FFF75AF801E000E06E
:1057C00000BF85E35848007802284ED12078102881
:1057D0003FD2DFE800F02A17083E473E480943421F
:1057E00046453F4041443FE055480078002808DDE9
:1057F00053480078401E5249087008460078FFF769
:10580000C5F931E00020484908704148006800EBC4
:1058100040004A4901EBC000C088A0F54071E7395B
:1058200002D0012012F0F7F81EE045480078072862
:105830000EDA444842490978491C405C40B140486E
:105840000078401C3E49087008460078FFF79EF932
:105850000AE000BF00BF00BF00BF00BF00BF00BF25
:1058600000BF00BF00BF00BF32E337480078F0B38D
:10587000012036490870207808286BD006DC6AD2EF
:10588000DFE800F0E1AD17DDF0EFEEAC0D286FD0F2
:1058900008DC09286DD00A286CD00B286BD00C28A6
:1058A00059D1D1E00E2867D00F2878D0FF2852D1E7
:1058B000F9E01748006800EB4000204901EBC00008
:1058C000006923490860084600688047012854D1D0
:1058D0000F48006800EB4000184901EBC0008088C9
:1058E000A0F54071E7393AD00948006800E0DDE0F2
:1058F000084908600648006800EB40000F4901EBCA
:10590000C00029E04401001045010010E4300010FF
:10591000700100106C01001084010010880100105B
:1059200080010010580100107D0100105B01001083
:105930005A0100104A010010500000109811001088
:1059400049010010A43500107E0100105F01001015
:10595000600100108BE0A7E08088FF49086002200A
:1059600012F059F80020FD490860FD49087034E044
:105970006EE078E087E082E06EE0FAA1FB4820F07C
:105980009BFBFB48007A02280AD1F84820F0B8FBBC
:10599000C7B23A46F5490220FDF70BFA0AE06AE081
:1059A000F24820F0ADFBC7B23A46F049F148007822
:1059B000FDF7FFF964201CF067FC0C20FEF7A0FF48
:1059C0000020E7490870EA4890F89200022804D1C4
:1059D000002211469020FCF76FFF66E065E0E64884
:1059E000007808BBDC48006800EB4000E34901EBAD
:1059F000C0004088012808D1D748006800EB40006B
:105A000001EBC000C088D44908600120FDF741FDCA
:105A10000820DB4908700020DA490870DA4908706C
:105A2000012011F0F8FF09E00020D3490870CB49AC
:105A30000860CB4908700C20FEF762FF35E00B20B0
:105A4000FEF75EFF31E030E00120FEF759FF2CE069
:105A50000220FEF755FF28E00320FEF751FF24E067
:105A600019E01CE013E00420FEF74AFF1DE00520CA
:105A7000FEF746FF19E00620FEF742FF15E007207B
:105A8000FEF73EFF11E00820FEF73AFF0DE0092087
:105A9000FEF736FF09E00020FEF732FF05E00A209E
:105AA000FEF72EFF01E000E000BF0EE2207808289C
:105AB0007ED006DC7DD2DFE800F0FEA417FDFCFB03
:105AC000FA470D2876D008DC092874D00A2873D04C
:105AD0000B2872D00C286CD1D6E10E286ED00F287E
