:020000040000FA
:1000000000800010CD00000035030200350302001F
:1000100035030200350302003503020035030200F8
:1000200035030200350302003503020061020000BF
:100030003503020000000000C9020000712D02001B
:1000400035030200D13F0000854200003503020065
:10005000350302005F3D020043ED010021CD0000A9
:10006000B5CF0000350302009D8A01003503020070
:100070003503020035030200350302003503020098
:100080003503020035030200350302003503020088
:100090007D3A0000350302003503020035030200FB
:1000A0003503020035030200350302003503020068
:1000B0003503020035030200350302003503020058
:1000C00035030200350302003503020000F002F898
:1000D00000F0B6F80AA090E8000C82448344AAF12C
:1000E0000107DA4501D100F0ABF8AFF2090EBAE82A
:1000F0000F0013F0010F18BFFB1A43F0010318475C
:100100000C6304002C6304000A444FF0000C10F848
:10011000013B13F0070408BF10F8014B1D1108BF85
:1001200010F8015B641E05D010F8016B641E01F825
:10013000016BF9D113F0080F1EBF10F8014BAD1C75
:100140000C1B09D16D1E58BF01F801CBFAD505E093
:1001500014F8016B01F8016B6D1EF9D59142D6D3ED
:10016000704700000023002400250026103A28BF15
:1001700078C1FBD8520728BF30C148BF0B60704719
:100180006E2925F0F787702925F08C84662927F0E1
:10019000CC80652927F0C980672927F0C6806129AE
:1001A000AFF3008003681B0A28BF41F08001692972
:1001B00025F06283642925F05F83752925F05C832F
:1001C0006F2925F01784782925F05884E92926F02D
:1001D0003180E42926F02E80F52926F02B80EF29A6
:1001E00025F01484F82925F057840368DB0928BF1B
:1001F00041F08001632925F0FA87732925F0FF87F4
:10020000E32926F00A80F32926F00F8000207047AA
:100210001FB527F083F89DE8030025F01BFF26F0AB
:1002200031FB04000020002127F048F8401C6060EA
:100230000020002127F058F8E0601FBD10B510BD68
:1002400026F0FAFA1146FFF7E3FF01F0A2FF26F0CD
:10025000D3FB03B4FFF7F2FF03BC20F0AAFC0000BD
:10026000052828BF70474FEA80007844D0F802F094
:10027000C90200008F0200002D0300004D030000A2
:100280006D0300004FF0010080F3148800DF0A4C7A
:100290004FF001052570774625F004FABE46074E5B
:1002A0003668074C2660D6F800D001BC05490860C6
:1002B000BDE8F00F704700BF8B2600109C26001091
:1002C00094260010B02600104FF0080282F3118827
:1002D00000B525F0E7F95DF804EB2DE9F00F0E49C4
:1002E000086801B40D4A1268C2F800D00C4C0D4DDC
:1002F0002E7826700C4E3668084C2660D6F800D052
:1003000001BC086000280CBF0022082282F311887B
:10031000BDE8F00F704700BFB02600109426001013
:1003200080260010812600109C26001006490868CF
:1003300000F101004FF0080282F31188002808BF85
:1003400070470860704700BFB02600100649086873
:1003500000281CBF01380860002818BF70474FF004
:10036000000282F311887047B02600104FF00000A1
:1003700080F3148870474FF0010080F314887047B1
:1003800088476FF0FF0021F08EFB000010B50020C1
:1003900021F01EF9FF490860002021F019F9FE49FB
:1003A0000860002020F05BFCFC4908600221FC484A
:1003B00020F0A5FEFB490860002020F050FCFA491F
:1003C00008601421F94820F09AFEF94908600020DD
:1003D00020F045FCF7490860002020F040FCF64979
:1003E0000860002020F03BFCF4490860002020F069
:1003F00036FCF3490860002020F031FCF149086028
:10040000002020F02CFCF0490860002020F027FCA0
:10041000EE49086010BD2DE9F041002600270020BC
:1004200003F0E0FB002003F028FC002003F00AFCAE
:10043000002003F03DFC4FF49858E548008800F494
:100440007F4008F47F41884218D003F082FC0120ED
:1004500003F088FB012003F0C5FB012003F00DFC35
:10046000012003F0EFFB012003F022FC012003F048
:100470003AFC00221146D74824F0FBFD002003F08F
:1004800071FB002003F0AEFB002003F0F6FB002020
:1004900003F0D8FB002003F00BFC002003F023FC4A
:1004A00000244FE00021CC48015508300155C848D0
:1004B0007C30005D012809D1601CC2B23046711C3D
:1004C000CEB2C5490A5401F108000655002700259F
:1004D00034E0002004EB8401BF4AA03A02EB410162
:1004E0004855002104EB8402BB48503800EB420021
:1004F0004155C4EBC40000EB8000B84901EBC000DB
:10050000C5EBC50100EB8100007A00F08000802877
:1005100012D1681CC2B204EB8400AF49A03901EBD0
:1005200040033846791CCFB21A5404EB8401AA4820
:10053000503800EB41004755681C85B20A2DC8DBD6
:10054000601C84B2082CADDBBDE8F081012170474E
:1005500000B5034603E013F8010BFFF7F7FF187827
:100560000028F8D100BD1CB5012000909C4800680F
:1005700000226946036901A898479A4908600098D3
:1005800010B94FF0FF30019001981CBD03468B421B
:1005900003DB934201DC012070470020FCE770B5CB
:1005A00000247BE0002575E008F0FAFEF8B9C4EB02
:1005B000C40000EB8000894901EBC000C5EBC50118
:1005C00000EB8100007A00F0030001280FD0C4EB9B
:1005D000C40000EB8000814901EBC000C5EBC50100
:1005E00000EB8100007A00F00300032850D10520C1
:1005F000C4EBC40101EB8101784A02EBC101C5EBF8
:10060000C50201EB82014872C4EBC40000EB80001C
:10061000724901EBC000C5EBC50100EB8100007A17
:1006200000F00300032833D1C4EBC40000EB8000CA
:100630006A4901EBC000C5EBC50100EB8100007AFF
:1006400000F08000C4EBC40101EB8101634A02EBBE
:10065000C101C5EBC50201EB82010872C4EBC40005
:1006600000EB80005D4901EBC000C5EBC50100EB6C
:100670008100007A40F00100C4EBC40101EB81016C
:10068000564A02EBC101C5EBC50201EB82010872BB
:10069000681CC5B20A2D87DB601CC4B2082C81DB44
:1006A00070BD08B51BE06A4601214148006820F092
:1006B000E3FD04469DF8000070B920884A49C860EF
:1006C00002E0022021F0B0FB47490C3136480068B7
:1006D00020F095FB0028F4D1022021F0A5FBE2E7F1
:1006E00000B585B0032300224FF400713F48CDE9E7
:1006F0000323CDE90101092300F2FC720021AFF2CE
:100700005D00009321F076F905B000BD08B500BF8B
:1007100037483349086009684868804719E0142061
:1007200000902F48006801226946036931489847C4
:100730002C490860002405E02E48005D2E4908552C
:10074000601CC4B200988442F6DB00BF322021F066
:100750006BFBE4E708B500BF0122D105002023F0C0
:10076000BDFE4FF40001002023F0CCFE23A019F0C1
:100770004CFA4FF4167021F057FB0CF05FFB0CF0B5
:1007800044FC19F001FA1EF007FB1EA019F03DFA17
:1007900000203BE03C00001040000010480000102A
:1007A000340000105000001054000010D835001024
:1007B000580000105C0000104C00001044000010B5
:1007C0006000001064000010680000106C00001051
:1007D0003030001000400240A0350010F02600101C
:1007E0007400001070000010B03500102852001086
:1007F000B82600103C5A0010285A00100D0A3D3D42
:10080000310000000D0A3D3D32000000FA494880E9
:100810000021F948007861F38710F749087000213A
:10082000F548007861F3C500F3490870F348806922
:10083000F349086008F0B7FD08F00EFEF1A019F0CA
:10084000E4F9F248006A40F00050F04908620846B6
:10085000006A40F0805008620846806B40F000500B
:1008600088630846806B40F080508863022021F046
:10087000DBFA0CF076FEE6A019F0C7F908F093FF5A
:1008800008F0D8FF08F054FFE3A019F0BEF908F013
:10089000F2FF09F00AF818F0A3FA08F041FFE0A00F
:1008A00019F0B3F9D948006A40F00050D7490862FE
:1008B0000846006A40F0805008620846C06B40F06D
:1008C0000050C8630846C06B40F08050C8630220E7
:1008D00021F0AAFA10F0CCFA142021F0A5FA10F0B9
:1008E000C4F8D1A019F091F908F0E8FF0FF0F6FC78
:1008F000CF48006820F033FFCEA019F086F9BF483A
:1009000090F89100012805D11BF085FCCC480068C7
:1009100020F025FFCBA019F078F9B84890F89300A3
:10092000012801D11EF0EDF91FF0BBFB83E202208C
:1009300021F07AFAB14890F8AC0010B36A4614215D
:10094000C348006820F001FA04469DF8000018B979
:10095000206800F0FF0801E04FF0000840461FF05B
:1009600040F91EF0C8FC30B1A348408840F48040F4
:10097000A149488005E0A048408820F480409E4975
:1009800048809E4890F89300012812D1B14991F80F
:10099000E2021DF018FBC7B2FF2F0AD0AE488760F5
:1009A00000F10801AD48006820F0CEFC282021F0BD
:1009B0003BFA08F0B5FE0FF02FFD012806D08E4857
:1009C0000078C0F3C20010F0010F01D010F079F8E8
:1009D000142021F029FA0FF046F8012806D08648A5
:1009E0000078C0F3C20010F0020F01D00FF0BAFC83
:1009F0008148407830B9814890F89100012801D1B0
:100A00001BF079FB08F08CFE7B48007880090128F8
:100A100003D1142021F008FA0DE26A46142190480F
:100A2000006820F092F904469DF80000D8BB8021B0
:100A30002068B1EB106F7AD87448006A40F000501B
:100A4000724908620846006A40F080500862084611
:100A5000806B40F0005088630846806B40F0805007
:100A60008863022021F0E0F92068000E802806D07B
:100A7000812809D0822817D0852859D13BE02168E8
:100A8000C8B20CF0F1FD54E076A019F0BEF80021D8
:100A90005948007861F38710574908702168C8B237
:100AA0000CF064FE45E06FE15848006A40F00050E9
:100AB000564908620846006A40F0805008620846BD
:100AC000C06B40F00050C8630846806B40F0805017
:100AD0008863022021F0A8F900214748007861F3DB
:100AE0008710454908702268C2F30351C2F313000E
:100AF0000DF0CCFB1DE0206800F00103C0F34002C4
:100B0000C1B25CA019F081F82068C0F340005149DF
:100B100081F8E302206800F0010081F8E4020A464F
:100B200092F8E41292F8E3021FF073FB01E01AE07E
:100B300000BF00BF3548006A40F0005033490862EA
:100B40000846006A40F0805008620846C06B40F0DA
:100B50000050C8630846C06B40F08050C863022054
:100B600021F062F910E12068000E092842D2DFE886
:100B700000F0051DC19EE61EC213180044A019F026
:100B800044F800211C48007861F387101A49087066
:100B9000206810F0C3F9F6E0424988880FF0D3F9D5
:100BA000F1E0404988880FF02AFAECE000BF08F035
:100BB00095FE05212068B1EB106F77D10020264902
:100BC0004860091D3848006820F019F90A48407843
:100BD00001280BD108480078C0F3C20020F00100C2
:100BE0000549097860F3C50103480170142021F01C
:100BF0001BF9C8E0C6E059E01000001030300010CA
:100C00001C0000100D0A3D3D3300000000C009200B
:100C10000D0A3D3D340000000D0A3D3D3500000049
:100C20000D0A3D3D360000000D0A3D3D3700000035
:100C30003C0000100D0A706320696E6974000000AA
:100C4000400000100D0A496E69744F4B000000000F
:100C50006800001020600010B03500105000001037
:100C60004C0000100D0A434D445F474F4F44535F03
:100C70004F5554000D0A414344432C2523782C6CD6
:100C800065643D25642C646973743D25640000002F
:100C90000D0A434D445F434F494E5F4348414E4721
:100CA00045000000DE3400104400001000BF08F0D2
:100CB0001DFE0020FF494860091DFF48006820F024
:100CC0009EF8FE484078012810D103212068B1EB3E
:100CD000106F0BD1F9480078C0F3C20020F0020079
:100CE000F649097860F3C501F4480170142021F039
:100CF0009BF848E000BF08F001FE06212068B1EB38
:100D0000106F1BD10020EB494860091DEA480068BC
:100D100020F075F8E948407801280BD1E7480078C1
:100D2000C0F3C20040F00100E449097860F3C50156
:100D3000E2480170142021F077F824E000BF08F0A9
:100D4000EDFD0020DB494860091DDB48006820F00C
:100D500056F8DA484078012810D104212068B1EB18
:100D6000106F0BD1D5480078C0F3C20040F00200EC
:100D7000D249097860F3C501D0480170142021F0F0
:100D800053F800E000BF00BFCD4890F89100012863
:100D900050D1142021F048F86A461421C94800684F
:100DA0001FF0D3FF04469DF8000078BB2068000EBA
:100DB000102822D006DC052809D006280DD00C28E2
:100DC00036D12BE011280ED0842831D11FE000222B
:100DD000114605201BF0ECF82BE0002211460620FE
:100DE0001BF0E6F825E0206820F07F40206000211D
:100DF000084622681AF0DDFF1BE0206820F07F40E3
:100E00002060002021681AF095FF12E012E01BF02C
:100E100002FAAD48006820F0A2FC0AE02068C0F3A6
:100E200007452068C6B2314628461BF03BF900E072
:100E300000BF00BF00BF7AE594B000200990089081
:100E400000BF069000BF00BF019000BF9C48007A21
:100E5000022805D1002002F0A9FA01F040FD01E0CE
:100E600001F03DFD00209549487001219748007828
:100E700061F30300954908700020487000219348F1
:100E8000007861F307109149087000218B480078C1
:100E900061F3000089490870F02010908C48D0F868
:100EA000746101218548007861F3820083490870EC
:100EB0000021884824F0FCF887490860084600684B
:100EC00090B17F4880690968B1EB400F0CD282482D
:100ED00000687F49C1F87001012002F004FF002280
:100EE00011467C4824F0C5F800207B4908600F902B
:100EF00010900220724981F8920001F051FC77486D
:100F0000006C40F48070754908640846806D40F4B8
:100F1000807088657249002003F0E4F9002003F036
:100F2000BEF902F0E3FD6D48006820F480006B49D3
:100F30000860142020F078FF09F0ACFA09F03EFABE
:100F400012AA4FF47A616748006820F0B7FB5C484A
:100F500090F89300012801D11DF0CBF86248C07AC7
:100F600008B1FFF71CFB0020119040F6B8305F4934
:100F700088805F48006820F09FF84FF0010AFEE388
:100F80009BE25C48006810F0005F31D1022020F045
:100F90004BFF5848006810F0005F28D101204749F6
:100FA000487008460078C0F38000012808D102F09C
:100FB000CBFF00214148007861F382003F4908706F
:100FC0003F4890F8910001280CD13E4800681FF07E
:100FD00033FE4FF0A0603749886118313948006806
:100FE0001FF00DFF012002F0CEFA04F0FAF864E2DF
:100FF0003248407801281AD1FF20304948703048E3
:1010000090F8910001280CD12E4800681FF014FEC2
:101010004FF0C0602749886118312A4800681FF0E6
:10102000EEFE03E04FF47A7020F0FEFEFAE724486B
:1010300090F89100012809D1099838B912AA002125
:101040002148006820F03AFB0120099000201B494C
:1010500048700846408860BB9DF83C0098B9BAF1DA
:10106000010F02D14FF0000A01E04FF0010A2248BF
:10107000B0F8140238B94FF4FA601F49A1F814020D
:10108000504609F042FA0E4890F8AC00C0B312AADC
:1010900001211A4800681FF058FE83469DF8480059
:1010A00070BBBBF80000C0B2079007981EF00CF8A8
:1010B00027E06DE1B0350010440000101000001072
:1010C0003030001060000010400000100E000010D2
:1010D000B8310010004002401800001000C0092084
:1010E0007FA903003C000010F03000102C0000101D
:1010F0005000001094C00920206000106C00001007
:1011000008E0C0B20E900E98FF2801D00E980F9004
:1011100000BFD3E1FF484069C0F3805018BBFE48D0
:10112000006800B3FD480078C0F30000012804D037
:10113000FB4890F88F00002815DDF94890F88F30B3
:10114000F64800930078C0F30003F2484069C0F30A
:10115000805080F00101F0480268F2A018F055FDBF
:1011600001200690AAE112AA0121FA48006820F0A5
:1011700083F88346BBF800509DF8480030B9012041
:1011800002F001FA142020F04FFE97E112AA01218B
:10119000F14800681FF0D9FD8346BBF800509DF868
:1011A000480018B9012002F0EEF987E1EB484088C9
:1011B00048B99DF83C0008F08AFE0F909DF83C006D
:1011C00008B1FF257AE1E548808828B940F6B830B3
:1011D000E24988800BF03CF9CF48006898B9CF48C5
:1011E0000078C0F3800001280DD108F0C9F810B9CB
:1011F000DB48807838B9DA48407810F0020F02D026
:10120000042002F0A1FEC64890F8910001280BD1FD
:101210000BF0E7FB8146B9F1EE0F02D0CDF83C9020
:101220004CE1142020F000FEBD4890F89300012806
:1012300001D11CF05EFFCB488079012803D0C9485A
:101240004078012877D1C84890F8E4020390C64856
:1012500090F8E3020290C54817F0DCFD022020F070
:10126000E3FDC2489438D0F89810D0F89C0000EB09
:10127000C00202EB001001EB800080B2049040F647
:10128000C4110498884256DCB648807901282ED1D2
:10129000B448017AC07900EBC00202EB001001EB08
:1012A0008007B048817A407A00EBC00202EB001060
:1012B00001EB8008424639460498FFF767F938B1D8
:1012C000A94890F8E30218B90120029001900EE0BD
:1012D000424639460498FFF759F940B9A24890F8B8
:1012E000E302012803D100200290012001909D48D3
:1012F000407801282FD19B48C178807800EBC0024C
:1013000002EB001001EB800796484179007900EB71
:10131000C00202EB001001EB8008424639460498F7
:10132000FFF734F940B1904890F8E40220B9012069
:10133000039001900FE02AE0424639460498FFF7F7
:1013400025F940B9884890F8E402012803D100202B
:101350000390012001900198012818D100200190EC
:101360004FF00541029801EB4001039808440590B5
:101370007F49059808607F4800681FF05DFC7C4944
:101380007D4800681FF03BFD642020F04DFD94E097
:101390006148006850B1FF2500217848007861F36A
:1013A00003007649087008200F9087E05B480078BA
:1013B000C0F38000012809D100215848007861F36A
:1013C000820056490870012002F0BEFD6C48D0F83A
:1013D0007401B0420CD96A48D0F87401801B684986
:1013E000C1F874010846D0F87461012002F07BFC5A
:1013F000012002F0C8F840F6B830584988805AE019
:1014000008F0B7FD5F48006810F0005F12D10020BF
:101410000F9001215948007861F303005749087083
:101420000020487000215548007861F307105349A7
:10143000087041E03948408820BB00200F9001210E
:101440004E48007861F303004C4908700020487052
:1014500000214A48007861F30710484908700121CB
:101460002E48007861F382002C490870022002F0B7
:101470006BFD384800681FF01FFE00203A49A1F8B4
:10148000140219E03548808828B940F6B83033494D
:1014900088800AF0DDFF224890F8910001280AD1E7
:1014A0000BF09FFA8146B9F1EE0F01D0CDF83C90D8
:1014B000142020F0B9FCA3E700BF62E500BF15F4DB
:1014C000004F77D000202D49487000212B4800782C
:1014D00061F3071029490870C5F30E000A90FF2533
:1014E0000D4801680A9808440B4908600B480078C9
:1014F000C0F3800001284CD10948806909688842FE
:1015000045D800210548007861F38200034908703E
:10151000012039E000C00920180000101000001060
:10152000303000100D0A52657475724B65793D2597
:10153000642C675F416D6F756E743D25642C686126
:10154000766573616C653D25642C7472616E733DC4
:101550002564000050000010540000102C00001002
:1015600014000010F03000102060001094310010C2
:10157000B0350010440000104C0000100E000010A8
:10158000B831001094C0092002F0DEFC01E007F041
:10159000F7FE9DF83C00062804D0FF48006808B11B
:1015A00001200F90FC4800210268FC4823F061FDF7
:1015B0002DE0FFE72812002822DD2812012802D0A2
:1015C00002281BD102E009200F9018E0F2480068C1
:1015D00098B1F3480078C0F30000012804D0F14826
:1015E00090F88F00002808DDEE4890F8AC0010B1AC
:1015F0001DF09AFE08B908200F9000E000BF06E039
:101600000DAA29469DF83C0008F0CCF90F900698E9
:10161000012803D10020069008200F90F2E39DF8E6
:101620003C0011909DF83C000F287ED2DFE800F0CE
:101630007D86FDFCFBFAF9F8F7D6576608F64700F9
:101640000021D948007861F30300D7490870D548D4
:1016500090F8930010B9084640780D900BAA0CA999
:101660009DF834000BF0BBFE012817D1EAB29DF8BB
:101670002C109DF8300009F046F9642020F0D4FBCE
:1016800000200F90C94800681FF0DFFD0121C64807
:10169000007861F30300C449087001E00B200F904B
:1016A0000020C14948700021BF48007861F307104D
:1016B000BD4908700020BE49A1F814020DE20021C6
:1016C000B948007861F30300B749087009F005FADA
:1016D0004FF4C87020F0A8FB0D200F90FDE1012110
:1016E000B148007861F30300AF4908704FF4FA7015
:1016F000B049488009F046FA0F90EEE10021AA486F
:10170000007861F30300A849087009F0BAFB4FF4B0
:10171000C87020F089FB0020A34948700021A2482E
:10172000007861F30710A04900E0F8E308700A2090
:101730000F909E4800681FF088FDCEE101219A4875
:10174000007861F303009849087047F230509949D6
:10175000488009F01FFC92480078C0F380000128FF
:1017600029D0904890F8AC0010B11DF0DDFD10BB01
:10177000894800689049096888420CD200E0FEE37D
:1017800001218748007861F38200854908700220B2
:1017900002F0DAFB0FE0834880697F4909688842DC
:1017A00009D901217E48007861F382007C490870E4
:1017B000062002F0C9FB7B4890F89300012801D174
:1017C0001CF097FC774890F8AC00012805D11DF07B
:1017D000ABFD10B910201DF091FD7EE10021724893
:1017E000007861F303007049087009F078FD4FF448
:1017F000C87020F019FB01216B48007861F30300E9
:101800006949087047F230506A4948806248006868
:1018100008B109F0BFFB6248007807E061E3C7E266
:1018200016E2B2E252E259E105E12EE0C0F3800097
:10183000012827D05B4890F8AC0010B11DF074FD72
:1018400000BB554800685C49096888420AD20121FA
:101850005348007861F3820051490870022002F079
:1018600073FB0FE04F4880694B490968884209D9EA
:1018700001214B48007861F3820049490870062035
:1018800002F062FB10980F90DAE3002146480078DE
:1018900061F3030044490870424890F8930010B97E
:1018A000084640780D9000203F49487000213E488E
:1018B000007861F307103C4908703A4890F89100AD
:1018C000012821D10BAA0CA99DF834000BF087FD4B
:1018D0003A4800681FF0B0F99DF83000C0EBC00036
:1018E00000EB8000364901EBC0009DF82C10C1EBE5
:1018F000C10130F821003349084433498861183167
:101900002E4800681FF07BFA284800681FF09DFCF5
:101910000BAA0CA99DF834000BF061FD012873D1CE
:101920009DF83000C0EBC00000EB8000244901EBC3
:10193000C0009DF82C10C1EBC10100EB8100007AC2
:1019400000F07F00012809D001211548007861F3DB
:1019500000001349087003200F906BE09DF83000E1
:10196000C0EBC00000EB8000154901EBC0009DF802
:101970002C10C1EBC10100EB8100406806490968E9
:10198000884252D801210648007861F300000449DA
:10199000087004481AE000001800001000400240DF
:1019A00010000010303000100E0000105000001029
:1019B000206000102C0000101C00001060000010BF
:1019C000F02600100000020CB035001090F8AC00BA
:1019D00040B31DF0A9FC002824DDFF4890F8AD00BD
:1019E00098B19DF83010C1EBC10101EB8101FB4AB8
:1019F00002EBC1019DF82C20C2EBC20201EB820177
:101A000048681DF0ACFC03E012E000201DF0A7FCCC
:101A100001201DF073FC4FF4FA6201210FA81DF0A4
:101A20008AFB07E004200F9004E005200F9001E0FE
:101A30000B200F9004E30021E948007861F30300D4
:101A4000E74908709DF82C109DF8300009F0EDFC76
:101A50004FF4C87020F0E8F90121E148007861F303
:101A60000300DF49087047F23050DE49488009F032
:101A700091FADD480078C0F38000012827D0D648CD
:101A800090F8AC0010B11DF04FFC00BBD7480068C7
:101A9000D749096888420AD20121D348007861F306
:101AA0008200D1490870022002F04EFA0FE0CA48C5
:101AB0008069CE490968884209D90121CA4800785D
:101AC00061F38200C8490870062002F03DFAC94857
:101AD00000681FF0BAFB01200F90B1E20021C0485E
:101AE000007861F30300BE49087009F029FDBE4883
:101AF0000078C0F38000012809D10021BA4800789D
:101B000061F38200B8490870012002F01DFAB6485E
:101B100000788009022801D10AF0DEF99DF82C2016
:101B20009DF830109DF8340009F07DFD0F90AF480E
:101B300000210268B04823F09CFAAB480078C0F35B
:101B40004000012849D09DF83000C0EBC00000EBF8
:101B50008000A24901EBC0009DF82C10C1EBC1012F
:101B600000EB8100C068401C9DF83010C1EBC10142
:101B700001EB8101994A02EBC1019DF82C20C2EBD7
:101B8000C20201EB8201C8609C48D0F86801401C89
:101B90009A49C1F868019DF83000C0EBC00000EB25
:101BA00080008E4901EBC0009DF82C10C1EBC101F3
:101BB00000EB81008069401C9DF83010C1EBC10131
:101BC00001EB8101854A02EBC1019DF82C20C2EB9B
:101BD000C20201EB820188612EE09DF83000C0EB6B
:101BE000C00000EB80007D4901EBC0009DF82C1087
:101BF000C1EBC10100EB81000069401C9DF8301071
:101C0000C1EBC10101EB8101744A02EBC1019DF8F6
:101C10002C20C2EBC20201EB820108617748D0F8A8
:101C20006C01401C7549C1F86C0100216E480078B8
:101C300061F341006C490870674890F893000128EF
:101C400001D11CF056FA6B4800681FF0FEFAF7E16C
:101C500001216348007861F303006149087047F28D
:101C600030506049488009F095F95F480078C0F32A
:101C70008000012827D0584890F8AC0010B11DF022
:101C800053FB00BB594800685949096888420AD289
:101C900001215548007861F3820053490870022001
:101CA00002F052F90FE04C488069504909688842B7
:101CB00009D901214C48007861F382004A49087033
:101CC000062002F041F901200F90B9E100214448BB
:101CD000007861F30300424908709DF83010C1EBB1
:101CE000C10101EB81013D4A02EBC1019DF82C20AD
:101CF000C2EBC20201EB8201486809F0F5FE4FF425
:101D0000C87020F091F801213548007861F3030094
:101D10003349087047F230503249488009F03AF9A7
:101D200031480078C0F38000012827D02A4890F875
:101D3000AC0010B11DF0F8FA00BB2C4800682C492B
:101D4000096888420AD201212748007861F382009D
:101D500025490870022002F0F7F80FE01E4880695C
:101D600022490968884209D901211F48007861F396
:101D700082001D490870062002F0E6F81D48006840
:101D80001FF063FA01200F905AE1012114480078F6
:101D900061F303001249087047F23050114948803E
:101DA0009DF82C109DF8300009F014FF0F9047E1CA
:101DB000094890F89600002876DD00210848007850
:101DC00061F303000649087000200D49086009F01E
:101DD00063FF0548007816E030300010F026001050
:101DE0000E0000102C000010100000101800001051
:101DF0001C0000105000001000400240B8310010DC
:101E00002406001032E18009022801D10AF079F895
:101E1000F3480078C0F38000012809D10021F04880
:101E2000007861F38200EE490870012002F08CF81E
:101E30000AF0A7F8EB4800210268EB4823F019F9F3
:101E4000E848006888B3E7480068E849C1F87001CD
:101E5000E74890F89100012823D1E54890F89800D0
:101E6000012807D10846D0F8700100EB800040003F
:101E7000089008E0DE4890F89800022803D1DB487B
:101E8000D0F870010890DB4800681EF0D5FE089875
:101E900000F18850D84988611831D64800681EF092
:101EA000AEFF0AF062F906E012E0FFE7D3480068EF
:101EB00008B10AF012FACA480078C0F340000128BD
:101EC00006D10021C648007861F34100C44908707A
:101ED000CB4816F09FFFC8201FF0A6FF0D200F90E3
:101EE000AEE00021C748007861F30300C5490870DF
:101EF000BE48D0F87401B04209D9BC48D0F874018A
:101F0000801BBA49C1F874010846D0F874610120F9
:101F100001F0E9FE0020B3490860002406E087E0F4
:101F20000020B74994390855601CC4B2202CF7DB57
:101F3000002405E00021B24820380155601CC4B2DD
:101F4000202CF7DB002414E0002013900CE000218B
:101F500004EB8402AA48743800EB4202139811542F
:101F60001398401CC0B2139013980A28EFDB601C32
:101F7000C4B2082CE8DB0020A149943900E078E0E5
:101F80000867012001F0EEFD0AF0FEF9C8201FF0FD
:101F90004BFF00200F909C49A1F8140201219948A1
:101FA000007861F303009749087000218C4800789D
:101FB00061F300008A490870002211468A4823F024
:101FC00058F887480078C0F3800001280AD0022022
:101FD00001F0BAFF01218248007861F38200804954
:101FE000087019E007F0CCF910B98848807840B93A
:101FF0008648407810F0020F03D0042001F0A4FFBF
:102000000AE08248807838B18048407810F0020FAA
:1020100002D1032001F098FF754890F8AC00012828
:1020200005D11DF081F910B911201DF067F907E005
:1020300001217448007861F303007249087000BF01
:1020400000BF119810909DF83C0008B90020109036
:102050009DF83C00012800D10AE09DF83C10119841
:10206000884202D09DF83C0000B901E0FFF7D7BAE2
:1020700000BFFEF785BF86B000BF0121002023F01E
:10208000A8F8634823F0DBF823F022F961480068E0
:102090000A21B0FBF1F400BF601E0400FCD123F064
:1020A0003CF923F02CF916F09BFE23F0BDF85A48BA
:1020B000007B08B9FEF7AFF923F0B6F8FEF766F932
:1020C00066E0032300224FF400715448CDE9032356
:1020D000CDE90101072300F2FC72C82150480093AA
:1020E0001FF088FC23F0A0F8032300224FF40071B6
:1020F0004C48CDE90323CDE90101052300F2FC7230
:102100000021494800931FF075FC23F08DF803234C
:1021100000224FF400714548CDE90323CDE90101C8
:10212000092300F2FC720021414800931FF062FC79
:1021300023F07AF8032300224FF400713D48CDE9E3
:102140000323CDE90101082300F2FC7200213A4883
:1021500000931FF04FFC19E023F066F82048407808
:10216000FF2810D107201FF09EFC05201FF09BFCCC
:1021700008201FF098FC09201FF095FC002018494A
:102180004880487003E0C8201FF04EFEE4E700BF1F
:1021900097E710B51EF0D0F81EF098F80122D1058F
:1021A000002022F09BF94FF40001002022F0AAF950
:1021B00001225102022022F091F94FF40071022015
:1021C00022F0AAF91FF0D5FF06231C4A0021AFF226
:1021D00059101FF0C7FB20F08FF8002010BD000041
:1021E000100000101800001000400240B83100102C
:1021F0003030001060000010B035001024060010D0
:10220000943100100E000010206000101400001027
:10221000002D3101E8260010E0300010283A0010AF
:10222000390E000028420010550700002852001007
:10223000A3060000284A00100D070000243A0010F1
:10224000FF49097A022901D1962000E0FA2000BF57
:10225000411E89B20800FBD17047F94A127A022A5E
:102260000BD1F84A12680623B2FBF3F24FF4FA637B
:10227000B2FBF3F202FB00F10AE0F24A1268062315
:10228000B2FBF3F24FF47A73B2FBF3F202FB00F10C
:1022900000BF4A1E1100FCD17047EA4A12680623AB
:1022A000B2FBF3F202FB00F100BF4A1E1100FCD1A9
:1022B00070472DE9F04106460F46022000DFF82462
:1022C0000FB144F00204DE48007A022803D1012055
:1022D000FFF7C3FF02E00320FFF7BFFFDA48006EFD
:1022E00040F00070D84908660846806F40F00070E2
:1022F00088670846006A40F0806008620846C06B44
:1023000040F08060C863FFF79BFF002539E014F0C0
:10231000800F0BD0CC48006A40F08070CA49086238
:102320000846806B40F0807088630AE0C648006A07
:1023300040F08070C44908620846C06B40F080706D
:10234000C863FFF77DFFC048006A40F08060BE4967
:1023500008620846C06B40F08060C863FFF770FFFA
:10236000B948006A40F08060B74908620846806B4F
:1023700040F080608863FFF763FF6006040E681C0E
:10238000C5B2082DC3DB344604F0F004002539E063
:1023900014F0800F0BD0AC48006A40F08070AA495E
:1023A00008620846806B40F0807088630AE0A648A7
:1023B000006A40F08070A44908620846C06B40F093
:1023C0008070C863FFF73CFF9F48006A40F0806060
:1023D0009D4908620846C06B40F08060C863FFF703
:1023E0002FFF9948006A40F08060974908620846CC
:1023F000806B40F080608863FFF722FF6006040E68
:10240000681CC5B2082DC3DB34462007040E002526
:1024100039E014F0800F0BD08B48006A40F08070D8
:10242000894908620846806B40F0807088630AE042
:102430008548006A40F08070834908620846C06B96
:1024400040F08070C863FFF7FBFE7F48006A40F0F1
:1024500080607D4908620846C06B40F08060C863B8
:10246000FFF7EEFE7848006A40F080607649086227
:102470000846806B40F080608863FFF7E1FE6006ED
:10248000040E681CC5B2082DC3DB6F48006E40F017
:1024900000706D4908660846C06F40F00070C8675C
:1024A000032000DFBDE8F081F0B506460F46F824B2
:1024B0000FB144F002040320FFF7CFFE6248006E24
:1024C00040F00070604908660846806F40F0007078
:1024D00088670846006A40F0007008620846C06BD2
:1024E00040F00070C863FFF7ABFE002539E014F040
:1024F000800F0BD05448006A40F080705249086247
:102500000846806B40F0807088630AE04E48006A9D
:1025100040F080704C4908620846C06B40F0807003
:10252000C863FFF78DFE4848006A40F000704649D6
:1025300008620846C06B40F00070C863FFF780FE79
:102540004148006A40F000703F4908620846806BCD
:1025500040F000708863FFF773FE6006040E681C8D
:10256000C5B2082DC3DB344604F0F004002539E081
:1025700014F0800F0BD03448006A40F0807032496C
:1025800008620846806B40F0807088630AE02E483D
:10259000006A40F080702C4908620846C06B40F029
:1025A0008070C863FFF74CFE2748006A40F0007057
:1025B000254908620846C06B40F00070C863FFF709
:1025C0003FFE2148006A40F000701F49086208463B
:1025D000806B40F000708863FFF732FE6006040EE7
:1025E000681CC5B2082DC3DB34462007040E002545
:1025F00040E014F0800F0BD01348006A40F0807068
:10260000114908620846806B40F0807088630AE0D8
:102610000D48006A40F080700B4908620846C06BA4
:1026200040F08070C863FFF70BFE0748006A40F077
:102630000070054908620846C06B40F0007005E074
:1026400030300010E826001000C00920C863FFF7F2
:10265000F7FDF848006A40F00070F6490862084645
:10266000806B40F000708863FFF7EAFD6006040E9F
:10267000681CC5B2082DBCDBEE48006E40F000704F
:10268000EC4908660846C06F40F00070C867F0BDAE
:10269000002132E0E74A126E42F00072E54B1A6602
:1026A0001A46D26F42F00072DA6710F0800F0AD13A
:1026B0001A46126A42F080721A621A46D26B42F0CF
:1026C0008072DA630AE0DB4A126A42F08072D94B08
:1026D0001A621A46926B42F080729A63D54A126E61
:1026E00042F00072D34B1A661A46926F42F00072A3
:1026F0009A674206100E4A1CD1B20829CADB7047FD
:1027000010B50446CB48006A40F00070C949086221
:102710000846806B40F0007088630846006A40F00D
:10272000806008620846C06B40F08060C863204645
:10273000FFF7AEFFBF48006A40F08060BD49086205
:102740000846806B40F0806088630846006A40F06D
:10275000007008620846C06B40F00070C86310BD8E
:1027600010B5E220FFF7CCFF04201FF05DFB262010
:10277000FFF7C6FF2F20FFF7C3FFEA20FFF7C0FFD8
:102780008120FFF7BDFF7220FFF7BAFFC820FFF7D7
:10279000B7FF4020FFF7B4FFAF20FFF7B1FF10BD38
:1027A00010B5A54890F89200022802D1FFF7D8FF93
:1027B00040E0302400212046FFF77BFD0624002165
:1027C0002046FFF776FD0C2400212046FFF771FD1F
:1027D000012400212046FFF76CFD02240021204641
:1027E000FFF767FD802400212046FFF762FD924835
:1027F00090F8920001281DD1302400212046FFF7D7
:1028000053FE062400212046FFF74EFE0C24002133
:102810002046FFF749FE012400212046FFF744FE31
:10282000022400212046FFF73FFE8024002120469D
:10283000FFF73AFE10BD10B504467E48006A40F02E
:1028400000707C4908620846806B40F00070886325
:102850000846006A40F0806008620846806B40F0DD
:10286000806088632046FFF713FF7248006A40F0DB
:102870008060704908620846C06B40F08060C863A1
:102880000846006A40F0007008620846C06B40F0DD
:102890000070C86310BD30B504460D4645F0B00069
:1028A000FFF72EFF102141EA2410FFF729FF04F063
:1028B0000F00FFF725FF30BD30B500240CE0E1B27A
:1028C0000020FFF7E8FF002503E00020FFF7B3FF3B
:1028D0006D1CF02DF9D3641C102CF0D330BD10B555
:1028E000554890F89200022802D1FFF7E5FF0EE06C
:1028F000012400212046FFF7DCFC4F4890F89200AD
:10290000012804D100BF00212046FFF7CDFD10BDF6
:102910002DE9FF4F83B081460F469246109CCDF8BB
:102920000490BB46069860430090082C02D1012514
:10293000082614E0102C01D0202C02D102256610AC
:102940000DE0402C02D10425102608E0802C02D195
:102950000425202603E0902C01D1062518264FF0EF
:1029600000081EE00198C1B20BF0FF00FFF793FFD3
:10297000002002900CE000991AF80100FFF75BFFBD
:102980000098401C00900BF1010B0298401C029033
:102990000298B042EFD30198401C0190BB4608F169
:1029A0000108A845DED307B0BDE8F08F2DE9F0435C
:1029B000A5B0804689461746902101A823F034FA35
:1029C000B8F1E00F48D01ADCB8F1900F3CD00CDC25
:1029D000B8F1800F2BD0B8F1810F2FD0B8F1820F52
:1029E0002ED0B8F1830F47D12CE0B8F1910F2DD044
:1029F000B8F1920F2CD0B8F1930F3DD12AE0B8F185
:102A0000F00F31D009DCB8F1E10F27D0B8F1E20FB7
:102A100026D0B8F1E30F2FD124E0B8F1F10F25D083
:102A2000B8F1F20F24D0B8F1F30F25D122E0002441
:102A300022E0000000C009203030001001241BE01B
:102A4000022419E0032417E0042415E0052413E010
:102A5000062411E007240FE008240DE009240BE010
:102A60000A2409E00B2407E00C2405E00D2403E010
:102A70000E2401E00F2400BF00BF2646B9F1010F6C
:102A80000CD1F1B20020FFF706FF002503E0012082
:102A9000FFF7D1FE6D1CF02DF9D32CE0032F0DD1E3
:102AA000002508E040230093002301AAE9B2F0B218
:102AB000FFF72EFF0F35F02DF4D31CE0022F0DD1C0
:102AC000002508E090230093002301AAE9B2F0B2A8
:102AD000FFF71EFF1735F02DF4D30CE0002508E0BA
:102AE00020230093002301AAE9B2F0B2FFF710FF00
:102AF0000F35F02DF4D325B0BDE8F0832DE9FF4F5D
:102B0000ADF5357D82468946DDF80CB390218FA85E
:102B100023F08AF9302183A823F086F900208290DF
:102B20004FF4007102A823F07FF900200190BAF160
:102B3000E00F43D01ADCBAF1900F37D00CDCBAF1B9
:102B4000800F2BD0BAF1810F2AD0BAF1820F29D091
:102B5000BAF1830F42D127E0BAF1910F28D0BAF130
:102B6000920F27D0BAF1930F38D125E0BAF1F00FC8
:102B70002CD009DCBAF1E10F22D0BAF1E20F21D05A
:102B8000BAF1E30F2AD11FE0BAF1F10F20D0BAF168
:102B9000F20F1FD0BAF1F30F20D11DE000261DE087
:102BA00001261BE0022619E0032617E0042615E0A3
:102BB000052613E0062611E007260FE008260DE0A3
:102BC00009260BE00A2609E00B2607E00C2605E0A3
:102BD0000D2603E00E2601E00F2600BF00BF35469C
:102BE0004C465FEA090404D15A4600215046FFF7DB
:102BF000DDFE83A8B79923F02FF80020B3900027BB
:102C000049E10020829083A8C05D802871DABBF181
:102C1000030F2AD14FF010080420B49038467F1CCF
:102C200083A9085C8DF808025B468FA982A8C29A26
:102C30001AF0CCFFF0B34023009300238FAAE1B237
:102C4000E8B2FFF765FE04EB080000EB98049DF87E
:102C50000802312800D1E41FF02C02D34C46B4986E
:102C60000544102D26D3554615E1BBF1020F41D185
:102C70004FF018080620B49038467F1C83A9085CE2
:102C80008DF808025B468FA982A8C29A1AF09EFFAF
:102C900080B19DF808022E2803D09DF808023A283A
:102CA0000DD1A4EB98049023009300238FAAE1B2E6
:102CB000E8B200E01CE0FFF72BFE444410E0902354
:102CC000009300238FAAE1B2E8B2FFF721FE04EBE4
:102CD000080000EB98049DF80802312800D10B3C55
:102CE000F02C02D34C46B4980544102D00D3554621
:102CF000D1E02FE04FF008080220B49038467F1C46
:102D000083A9085C8DF808025B468FA982A8C29A45
:102D10001AF05CFFF0B31023009300238FAAE1B2F6
:102D2000E8B2FFF7F5FDBBF1010F09D104EB080094
:102D300000EB98049DF80802312802D1E41E00E05F
:102D40004444F02C02D34C46B4980544102D21D3B2
:102D50005546A0E083A8C05DF02803D083A8C05DDD
:102D6000F12829D14FF008080220B49038467F1C82
:102D700083A9085C8DF8080238467F1C085C8DF832
:102D800009025B468FA982A8C29A1AF01FFF08B1F8
:102D9000102300E00FE0009300238FAAE1B2E8B215
:102DA000FFF7B6FD4444F02C02D34C46B4980544DA
:102DB000102D70D355466EE083A8C05D83AA791CA0
:102DC000515C01EB002080B201900198A0F52141F7
:102DD000FB390ED00198A0F52141FA3909D00198AC
:102DE000A0F52141FC3904D00198A0F52141FD391D
:102DF0002AD1BBF1030F27D14FF020080420B49053
:102E000038467F1C83A9085C8DF8080238467F1C71
:102E1000085C8DF809025B468FA982A8C29A1AF055
:102E2000D5FEC0B38023009300238FAAE1B2E8B29D
:102E3000FFF76EFD4444F02C02D34C46B498054491
:102E4000102D28D3554626E04FF010080220B490EC
:102E500038467F1C83A9085C8DF8080238467F1C21
:102E6000085C8DF809025B468FA982A8C29A1AF005
:102E7000ADFE80B12023009300238FAAE1B2E8B217
:102E8000FFF746FD4444F02C02D34C46B498054469
:102E9000102D00D35546B8988742FFF4B2AE0DF519
:102EA000397DBDE8F08F2DE9F0478EB080460C46A5
:102EB0001746302102A822F0B7FF204622F0F0FE8C
:102EC00082460246214602A822F015FFF94890F8F2
:102ED0009200022809D10023009301933B46224629
:102EE00000214046FFF70AFED4E0F24890F8920035
:102EF000012872D108F0F000802806D0902805D073
:102F0000E02807D0F0280FD109E000BF46464FF077
:102F1000010909E008F08F064FF0020904E008F00B
:102F20009F064FF0020900BF00BFB9F1010F39D170
:102F3000E048007A022821D106F0F000802802D073
:102F400090281AD10CE002A822F0AAFE82460023A3
:102F50000093034602AA012108461AF0C7FC0CE0C0
:102F600002A822F09DFE824600230093034602AA97
:102F7000012102201AF0BAFC00BF8BE0002130468C
:102F8000FFF792FA142F00DD1427002507E014F84C
:102F9000016B01213046FFF787FA681CC5B2BD42BC
:102FA000F5DB77E0B9F1020F74D1C248007A02284C
:102FB00022D106F0F000802802D090281BD10DE02D
:102FC00002A822F06DFE824600230093034602AA67
:102FD000022101201AF08AFC0DE021E002A822F073
:102FE0005FFE824600230093034602AA02210846A0
:102FF0001AF07CFC00BF4DE000213046FFF759F984
:10300000142F00DD1427002507E014F8016B0121BF
:103010003046FFF74EF9681CC5B2BD42F5DB39E01A
:10302000A448007A022821D108F0F000802802D0BC
:1030300090281AD10CE002A822F032FE824600232A
:103040000093034602AA022101201AF04FFC0CE073
:1030500002A822F025FE824600230093034602AA1E
:10306000022108461AF042FC00BF13E04646002148
:103070003046FFF71EF9142F00DD1427002507E066
:1030800014F8016B01213046FFF713F9681CC5B233
:10309000BD42F5DB0EB0BDE8F0872DE9F0478EB0FC
:1030A00080460D461746302102A822F0BDFE284674
:1030B00022F0F6FD82460246294602A822F01BFEB7
:1030C0007C4890F89200022809D1002300930193D4
:1030D0003B462A4600214046FFF710FDF5E07548C3
:1030E00090F8920001286FD108F0F000802806D0F7
:1030F000902805D0E02807D0F0280FD109E000BFC4
:1031000046464FF0010909E008F08F064FF002092A
:1031100004E008F09F064FF0020900BF00BFB9F1BC
:10312000010F43D16348007A022821D106F0F00054
:10313000802802D090281AD10CE002A822F0B0FD1D
:10314000824600230093034602AA012108461AF092
:10315000CDFB0CE002A822F0A3FD824600230093E1
:10316000034602AA012102201AF0C0FB00BFACE016
:1031700000213046FFF798F9142F00DD14270024B2
:1031800007E015F8016B01213046FFF78DF9601C4F
:10319000C4B2BC42F5DB06E0202601213046FFF731
:1031A00083F9601CC4B2142CF6DB8EE0B9F1020F77
:1031B00025D14048007A022822D106F0F00080286C
:1031C00003D090281BD10DE038E002A822F068FD62
:1031D000824600230093034602AA022101201AF02E
:1031E00085FB0CE002A822F05BFD824600230093E1
:1031F000034602AA022108461AF078FB00BF64E0E9
:1032000000213046FFF755F8142F00DD1427002465
:1032100007E015F8016B01213046FFF74AF8601C02
:10322000C4B2BC42F5DB06E0202601213046FFF7A0
:1032300040F8601CC4B2142CF6DB46E01D48007A4E
:10324000022821D108F0F000802802D090281AD15D
:103250000CE002A822F024FD8246002300930346DE
:1032600002AA022101201AF041FB0CE002A822F080
:1032700017FD824600230093034602AA0221084656
:103280001AF034FB00BF20E0464600213046FFF72D
:1032900010F8142F00DD1427002407E015F8016B47
:1032A00001213046FFF705F8601CC4B2BC42F5DBD3
:1032B00009E0000030300010202601213046FEF7E2
:1032C000F8FF601CC4B2142CF6DB0EB0BDE8F0872A
:1032D00070B50446F84890F89200012849D134B1FD
:1032E000012C14D0022C22D0032C40D12FE0242515
:1032F00000212846FFF7D8F8042500212846FFF7CB
:10330000D3F8202500212846FFF7CEF830E0242509
:1033100000212846FFF7C8F8052500212846FFF7B9
:10332000C3F8202500212846FFF7BEF820E0242519
:1033300000212846FEF7BDFF042500212846FEF7A0
:10334000B8FF202500212846FEF7B3FF10E0242512
:1033500000212846FEF7ADFF052500212846FEF78F
:10336000A8FF202500212846FEF7A3FF00E000BFAC
:103370001BE0242500212846FEF79BFF14B1012CF9
:103380000CD105E0042500212846FEF792FF06E057
:10339000052500212846FEF78CFF00E000BF00BF96
:1033A000202500212846FEF784FF70BD2DE9F0415D
:1033B0000746012F01D1FF2600E000264FF0360816
:1033C00000214046FEF775FF00BF00214046FEF792
:1033D00070FF4FF0010800214046FEF76AFF00240D
:1033E00015E004F18001C8B20021FEF762FF002160
:1033F0008020FEF75EFF002505E001213046FEF744
:1034000058FF681CC5B2102DF7DB601CC4B2202C1D
:10341000E7DB002415E004F18001C8B20021FEF7CB
:1034200048FF00218820FEF744FF002505E0012128
:103430003046FEF73EFF681CC5B2102DF7DB601C5E
:10344000C4B2202CE7DB4FF0200800214046FEF7F5
:1034500030FF994890F8920001284AD14FF0360881
:1034600000214046FFF720F800BF00214046FFF74B
:103470001BF84FF0010800214046FFF715F8002423
:1034800015E004F18001C8B20021FFF70DF800211A
:103490008020FFF709F8002505E001213046FFF7FD
:1034A00003F8681CC5B2102DF7DB601CC4B2202CD9
:1034B000E7DB002415E004F18001C8B20021FEF72B
:1034C000F3FF00218820FEF7EFFF002505E0012132
:1034D0003046FEF7E9FF681CC5B2102DF7DB601C13
:1034E000C4B2202CE7DB4FF0200800214046FEF755
:1034F000E0FEBDE8F08170B505466F4890F8920097
:1035000001281FD105F0F000802806D0902805D0B2
:10351000E02808D0F02814D10CE000BF0021284694
:10352000FEF7C2FF0DE005F08F0400212046FEF7F4
:10353000C0FE06E005F09F0400212046FEF7B9FE1C
:1035400000BF03E000212846FEF7B3FE70BD70B552
:103550000446594890F8920001280ED10F25012CFD
:1035600004D100212846FEF79FFF0BE0022C09D171
:1035700000212846FEF79DFE04E00F250021284685
:10358000FEF797FE70BD70B504464B4890F8920068
:1035900001280ED10C25012C04D100212846FEF76C
:1035A00083FF0BE0022C09D100212846FEF781FEA3
:1035B00004E00C2500212846FEF77BFE70BD70B5A7
:1035C000044600250DE0E9B20020FFF764F900266B
:1035D00004E014F8010BFFF72EF9761CF02EF8D357
:1035E0006D1C102DEFD370BD70B50546FFF764F963
:1035F000002412E0E1B20020FFF74DF9FF20FFF7B1
:103600001AF9002603E0285DFFF715F9761CEE2E67
:10361000F9D3FF20FFF70FF9641C102CEAD370BD1B
:103620002DE9F74FADF5447D0D4616464FF4427136
:10363000684622F0F9FBC498E02834D012DC9028C8
:1036400029D008DC80281ED081281ED082281ED0D8
:1036500083283BD11DE091281FD092281FD09328AA
:1036600034D11EE0F02829D006DCE1281DD0E22864
:103670001DD0E3282AD11CE0F12821D0F22821D046
:10368000F32823D120E0002420E001241EE00224BE
:103690001CE003241AE0042418E0052416E00624A4
:1036A00014E0072412E0082410E009240EE00A24A4
:1036B0000CE00B240AE00000303000100C2405E080
:1036C0000D2403E00E2401E00F2400BF00BFA0463C
:1036D000A9461EB90DF5477DBDE8F08F6946304615
:1036E0001AF08DFB0520C3909B20C2904FF0000A7A
:1036F000002719E008F0FF0109F0FF00FFF7CBF801
:103700004FF0000B09E01DF80A00FFF794F80AF1EA
:10371000010A09F101090BF1010BC2988345F2D3AB
:1037200008F10108A9467F1CC3988742E2D300BF75
:10373000D0E710B504461A48FFF741FF10BDF0B5B9
:1037400004460D4617462E46E91705EB5171C91080
:10375000B031C8B2FEF7D4FF2646E11704EB117171
:10376000091101F11000FEF7CBFFE11704EB117115
:103770000911A4EB0111C8B2FEF7C2FF67B12E46D2
:10378000E91705EB5171C910A5EBC1020121914068
:10379000C8B2FFF750F802E00020FFF74CF8F0BD88
:1037A0002E7302000146082917D007DCF9B1012960
:1037B0000DD002290DD004291BD10CE010290ED008
:1037C00020290ED040290ED0802912D10DE00020F2
:1037D00011E001200FE002200DE003200BE00420A7
:1037E00009E0052007E0062005E0072003E010209F
:1037F00001E0202000BF00BF70472DE9F047002204
:103800004FF44041012020F069FE01224FF47C7109
:10381000002020F063FE01224FF44031104620F0DA
:103820005DFE4FF47C71002020F076FE4FF44031B5
:10383000012020F071FE4FF0180900BFA9F101002E
:10384000C0B25FEA0009F9D1012020F06FFEC0F399
:10385000813700224FF47C71104620F03FFE002299
:103860004FF44031012020F039FE01224FF4404155
:10387000104620F033FE4FF44041012020F04CFE72
:103880004FF0180900BFA9F10100C0B25FEA0009BA
:10389000F9D1012020F04AFEC0F3014A002020F0B7
:1038A00045FEC0F305104AEA8008032121EA07001B
:1038B000FFF778FF04466FEA0800C0B2FFF772FF17
:1038C0000546102C03D1102D01D1FF260EE0102C3F
:1038D00001D0102D01D1FE2608E0202C01D0202D92
:1038E00001D1FD2602E005EBC400C6B200224FF470
:1038F0004041012020F0F2FD01224FF47C710020B4
:1039000020F0ECFD01224FF44031104620F0E6FD9E
:103910004FF47C71002020F0FFFD4FF44031012076
:1039200020F0FAFD4FF0180900BFA9F10100C0B264
:103930005FEA0009F9D13046BDE8F08770B57E48EE
:103940000078012875D1FFF758FF7C490870FF28DF
:1039500028D17B480078FF2803D17A4800780028D6
:1039600009DD01229107104620F0B8FD4FF080419B
:10397000012020F0D1FD002072490870FF2070491D
:1039800008706E49087000206B4908706E48006925
:1039900020F040706C4908610846006940F0807072
:1039A000086166E06648007864490978884260D119
:1039B00062480078FD283DD060480078FE2839D064
:1039C00060480078A0BB01205E4908705C48007820
:1039D0005E49886008315E4800681DF0B5FC064607
:1039E000642522E0002400E0641C42F22830844276
:1039F000FADB0122C106104620F070FD4FF0804135
:103A0000012020F07FFD002400E0641C42F22830F9
:103A10008442FADB0122C106104620F05FFD4FF020
:103A20008041012020F078FD6D1E002DDADC20E0C1
:103A300000E022E043480078002809DD4148007892
:103A4000FF2805DA3F480078401C3E49087002E034
:103A500000203C4908703B480078052809D1012224
:103A60008107104620F03AFD4FF08041012020F000
:103A700053FD324800783249087070BD10B50220FD
:103A800000DF1EF08EFB3048006920F040702E49A8
:103A9000086101202849087004202E4908601EF0A2
:103AA0008EFB032000DF10BD10B52748006920F011
:103AB0004070254908610846006940F0807008613F
:103AC0002548006840F004002449C1F848014FF03F
:103AD0000000234908604FF03802AFF25F014FF059
:103AE00024001CF01AFD1CF014FD10BD10B50022BE
:103AF0004FF44041012020F0F1FC01224FF47C7191
:103B0000002020F0EBFC01224FF44031104620F061
:103B1000E5FC4FF47C71002020F0FEFC4FF44031B6
:103B2000012020F0F9FC182400BF601EC0B2040080
:103B3000FBD1FFF7B9FF10BD780000107A0000102C
:103B40007B0000107900001000C00240B03500106A
:103B50005000001040C10F4048C10F4000C00F404E
:103B60004CC10F402DE9F04107460024FF4E4FF4B1
:103B70000C654FF4047095FBF0F0401C0FFA80F8D0
:103B8000012F0ED100BF09E004F10A0188B23146CD
:103B900021F09FFC06F50476601C84B24445F3DBFB
:103BA0001EE01BE0B5F5047F09DD04F10A0188B2CF
:103BB00033464FF40472002121F0C2FB07E004F108
:103BC0000A0188B23346AAB2002121F0B9FB601C79
:103BD00084B2A5F5047005B206F50476002DE1DC8B
:103BE000BDE8F0812DE9F041054600BFE04EB0246C
:103BF0004FF4047094FBF0F0401C07B2012D04D187
:103C00003146092021F065FC05E03346A2B20021CF
:103C1000092021F095FBD74E0D244FF4047094FB3E
:103C2000F0F0401C07B2012D04D13146172021F0DD
:103C300050FC05E03346A2B20021172021F080FBA2
:103C4000BDE8F0812DE9F041044600BFCA4D502681
:103C50004FF4047096FBF0F0401C07B2012C04D125
:103C60002946152021F035FC05E02B46B2B2002193
:103C7000152021F065FBBDE8F0812DE9F0410446F7
:103C800000BFBE4D10264FF4047096FBF0F0401CB0
:103C900007B2012C04D12946072021F01AFC05E0C7
:103CA0002B46B2B20021072021F04AFBBDE8F0818B
:103CB0002DE9F041044600BFB14DF5264FF40470E4
:103CC00096FBF0F0401C07B2012C04D129461620C7
:103CD00021F0FFFB05E02B46B2B20021162021F0B7
:103CE0002FFBBDE8F08170B50446A64DB826012C27
:103CF00006D1A549B1F84401294621F0EAFB07E0C5
:103D0000A149B1F844012B46B2B2002121F018FBC1
:103D10009D48B0F84411B0F84401401C9A4AA2F8FA
:103D20004401B1F57A6F03DD1E201146A1F844016C
:103D3000954D4FF4CE76012C04D12946082021F070
:103D4000C8FB05E02B46B2B20021082021F0F8FAAA
:103D500070BD70B5ACB0FEF7C2FDB02284496846B4
:103D600022F00EF8824E002404E0002006F8010B39
:103D7000601C84B2B02CF8D37C4E002404E00020F8
:103D800006F8010B601C84B2B4F50C6FF7D3002465
:103D90006CE0012176487C3001551A21083001552C
:103DA000601CC1B279480155601CC1B27748083027
:103DB0000155002556E005F0F3FAD0B98320C4EB95
:103DC000C40101EB8101694A02EBC101C5EBC502E7
:103DD00001EB820108720020C4EBC40101EB8101F8
:103DE000624A02EBC101C5EBC50201EB82014872D8
:103DF00019E08120C4EBC40101EB81015B4A02EBB5
:103E0000C101C5EBC50201EB820108726320C4EB5E
:103E1000C40101EB8101554A02EBC101C5EBC502AA
:103E200001EB820148726420C4EBC40101EB810103
:103E30004E4A02EBC101C5EBC50201EB82014860AD
:103E4000681C04EB8401514AA03A02EB4101485539
:103E5000C1B204EB84024D48503800EB420041559A
:103E6000681C85B20A2DA6DB601C84B2082C90DB8E
:103E70004FF498503E4908804FF4B850488005F000
:103E80008CFA48B942483A4948604248C1F8A4000F
:103E90004148C1F8A80006E03D4835494860C1F8EE
:103EA000A400C1F8A80014203749A1F844016421F6
:103EB0002F48816400202E49C86300212C480164EA
:103EC0004164816400202A49C865002128480166B0
:103ED0004166816600202649C860002124480161AE
:103EE0004FF4FA60224988616420C861002081F89B
:103EF0008C00022081F89800012081F88E0081F862
:103F00008F0081F89500022081F8960081F89700D3
:103F10009DF8920081F892009DF8930081F893003B
:103F20009DF8940081F894009DF8AC0081F8AC00F5
:103F30009DF8AD0081F8AD00012081F899000020C6
:103F400081F89A002CB070BD38B50446214613A004
:103F500015F05BFE164800681CF06EFE2006154941
:103F60000860154800681CF04AFF27E0F0260010A2
:103F700030300010F030001088330010E0300010B6
:103F8000D833001000310010B8310010A0350010F7
:103F900040E201009D71FD048931FD040D0A536565
:103FA00074546F75426953746174203D2025750007
:103FB00044000010B03500104C0000106A464FF469
:103FC000C861024800681CF0C0FE38BD4400001003
:103FD00010B5022000DF1EF0E4F801204FF0402170
:103FE0000860FFF7ABFCD54890F89600012801D196
:103FF0000BF0FAFBD2484089002804DDD048408904
:10400000401ECF494881CF480088002804DDCD48B4
:104010000088401ECB490880CA484088002804DD3B
:10402000C8484088401EC7494880C6488088002844
:1040300004DDC4488088401EC2498880C248B0F868
:104040000C02002806DDC048B0F80C02401EBE4934
:10405000A1F80C02BC48B0F80E02002806DDBA48F0
:10406000B0F80E02401EB849A1F80E02B748B0F8E9
:104070000602002806DDB548B0F80602401EB34926
:10408000A1F80602B148B0F80802002806DDAF48E2
:10409000B0F80802401EAD49A1F80802AB48B0F8DC
:1040A0000A02002806DDA948B0F80A02401EA74906
:1040B000A1F80A02A548B0F80C02002806DDA348C2
:1040C000B0F80C02401EA149A1F80C029E48B0F8BD
:1040D0000C02002806DD9C48B0F80C02401E9A49EC
:1040E000A1F80C029848B0F80E02002806DD9648A8
:1040F000B0F80E02401E9449A1F80E029348B0F8A1
:104100001402002806DD9148B0F81402401E8F49C1
:10411000A1F814028D48B0F82202401C8B49A1F886
:1041200022020846B0F82602002805DD0846B0F84D
:104130002602401EA1F8260285480078401C8449CA
:1041400008700846007864287EDB002008707E48EE
:10415000B0F81002002806DD7B48B0F81002401EBF
:104160007949A1F810027848B0F81202002806DD5B
:104170007548B0F81202401E7349A1F81202734844
:10418000B0F80E02002806DD7048B0F80E02401E9E
:104190006E49A1F80E026D48B0F81002002806DD45
:1041A0006A48B0F81002401E6849A1F8100267483A
:1041B000B0F81202002806DD6448B0F81202401E72
:1041C0006249A1F812026148B0F86603002806DDD2
:1041D0005E48B0F86603401E5C49A1F866035B4880
:1041E000B0F86A0330B15948B0F86A03401E574925
:1041F000A1F86A03554890F8160210F0010F06D096
:104200005248B0F81802401C5049A1F818024F4813
:10421000B0F81A02401C4D49A1F81A02084690F85D
:10422000160210F0040F05D00846B0F81C02401C1E
:10423000A1F81C02454890F8160210F0080F08D0AB
:104240004248B0F81E0200E017E0401C3F49A1F8C8
:104250001E023E4890F8160210F0100F06D03B48A0
:10426000B0F82002401C3949A1F820023748B0F8C4
:104270007403401C3549A1F874031DF0A0FF03200E
:1042800000DF10BD10B5022000DF1DF08AFF012005
:10429000304908601DF093FF032000DF10BD20B9F6
:1042A00001214FF04022516002E00121294A516072
:1042B000704720B900214FF04022516002E00021F8
:1042C000244A51607047014631B94FF0402250688E
:1042D00040F00200506004E01E4A506840F00200C6
:1042E0005060704770B505460C46002018490870AC
:1042F00085B94FF04020846103204FF04021486190
:104300003822AFF2333111201CF007F91CF001F90B
:10431000012070BD012D0ED10E48846103200D498E
:1043200048613822AFF2A30112201CF0F6F81CF00D
:10433000F0F80020EDE70120EBE70000303000103E
:10434000D26800102C000010EC5C001020600010FF
:104350007C0000100080004070B504460D462146E8
:1043600043A01AF0BFFF35B9042008F0A8FD20468D
:1043700008F0CBFD06E0032008F0A1FD204608F080
:10438000C4FD00BF00BF08F0B9FD70BD2DE9F05FAE
:1043900081460E46924608F0F9FD08F088FD4FF080
:1043A000000B43E04FF00008002701214846FFF7CB
:1043B000D3FF07EB0900C7B2002408E0305D0021FD
:1043C000FFF7CAFF305D3844C7B2601CC4B2544521
:1043D000F4DB00213846FFF7BFFF28201DF024FD45
:1043E0002421254808F0A7FD0546294623A01AF0F8
:1043F00079FF002406E02048015D1DA01AF072FF3D
:10440000601CC4B2AC42F6DB08F04BFD804641466E
:104410001EA01AF067FFB8F1000F00D109E01420C8
:104420001DF002FD0BF1010000F0FF0BBBF1080FC6
:10443000B8DB00BFB8F1000F01D0404600E0681EB5
:10444000C0B2BDE8F09F0246242900DD24210020EF
:1044500004E0094B1B5C1354431CD8B28842F8DBC0
:1044600070470146242901DD012070470020FCE748
:104470002025303278000000505A00100D0A5220DA
:104480003D2025303278202D200000002009657263
:1044900072203D20253032780000000070B50446BF
:1044A000092C22DD0020FF490860FF490870FF4801
:1044B00004700020FD494870FD48007A022809D1A7
:1044C000084621F0EDFBC5B22A46F8499020FEF7D8
:1044D000EAFC2AE0F54821F0E3FBC5B22A46F3499D
:1044E000F4480078FEF7DFFC1FE0F049EE4A12784E
:1044F00088182246F0A121F045F9ED48007A0228FB
:1045000009D1EA4821F0CCFBC5B22A46E749902000
:10451000FEF7C9FC09E0E54821F0C2FBC5B22A4616
:10452000E249E4480078FEF7BEFC70BD70B5044671
:104530000B2C26DD0020DB4908600024DA490870D6
:10454000DEA1DA4821F088FBD948007A022809D197
:10455000D64821F0A5FBC5B22A46D4499020FEF7E3
:10456000A2FC09E0D14821F09BFBC5B22A46CF4905
:10457000D0480078FEF797FCCE480078FEF7BBFFE6
:1045800018E10B2C70D1C8480078002867DDCE48B0
:10459000007801280DD10020CB490870C14800687F
:1045A0000A21B0FBF1F000EB80004000BD4908603B
:1045B00025E0C648007801280BD10020C3490870C7
:1045C000B84800686421B0FBF1F04843B549086081
:1045D00015E0BF48007801280AD10020BC490870C6
:1045E000B04800686421B0FBF1F0AE49086006E015
:1045F000AC4800680A21B0FBF1F0AA490860AA495A
:104600000A780978491EA84B1970A8491144481E18
:10461000B0A121F0B7F8A648007A022809D1A34832
:1046200021F03EFBC5B22A46A0499020FEF73BFC94
:1046300009E09E4821F034FBC5B22A469B499D48BB
:104640000078FEF730FC98490D7805EBD571994A52
:10465000127802EB6101C8B2FEF74DFFAAE000201C
:104660009D490870A6E0FFE78F4800789B490978CC
:10467000884228DA0A2C33D19548007878BB9848CC
:10468000007801282CD19249087000208F490870C9
:104690008D49087084490A780978491C824B197041
:1046A000824950188FA290A121F06CF88048007ABE
:1046B000022809D17D4821F0F3FAC5B22A467B4988
:1046C0009020FEF7F0FB75E0784821F0E9FAC5B2DA
:1046D0002A46764977480078FEF7E5FB6AE0FFE76F
:1046E0000A2C67DA01207C49087079480078012893
:1046F0001FD17648007801280DD173480078012831
:1047000000D170BD012070490870664800682044DF
:104710006449086015E001206C4908706148006830
:104720006421484304EB840100EB41005D490860CB
:1047300007E05C48006800EB800004EB400059494A
:1047400008606A48007860B157490A780978491CBE
:10475000554B19705549501865A263A121F012F804
:104760000BE051490A780978491C4F4B19704F49A1
:104770005018224650A121F005F84D48007A022831
:1047800004D04B4890F89200022809D1474821F004
:1047900087FAC5B22A4645499020FEF784FB09E016
:1047A000424821F07DFAC5B22A4640494148007886
:1047B000FEF779FB00BFA4E72DE9F0479AB0054664
:1047C00000208DF83800FEF78AF84FF00408C8F191
:1047D0000A094848405D401E46B20024C3E006EB8B
:1047E00086004449A03901EB4000005DE8B306EBC8
:1047F000860001EB4000005D401E47B2C6EBC600DC
:1048000000EB80003C4901EBC000C7EBC70100EBA7
:104810008100007A80280CD12548017A374850F869
:1048200021300093631C6A1C35A102A820F0AAFF66
:1048300093E0C6EBC60000EB80002F4901EBC000FF
:10484000C7EBC70100EB8100007A82280ED118481F
:10485000017A2A48103850F821300093631C6A1CF2
:1048600027A102A820F08EFF77E07AE0C6EBC60011
:1048700000EB8000204901EBC000C7EBC70100EB53
:104880008100007A83283FD10948017A1B487030A3
:1048900050F821300093631C6A1C19A102A820F073
:1048A00071FF5AE0800100107C0100108A5A00104C
:1048B000303000107B0100102578000020202020DF
:1048C00020202020000000005A0100105901001093
:1048D0005801001020000000840100105401001055
:1048E000570100102E000000257300005601001033
:1048F0002A000000A0350010F0260010D42400107B
:104900002564256425730000C6EBC60000EB80001B
:10491000FA4901EBC000C7EBC70100EB8100407A08
:1049200068B9F748017AF74850F821300093631CC2
:104930006A1CAFF2340102A820F024FF0DE0F04819
:10494000017AF048903850F821300093631C6A1CBB
:10495000AFF2540102A820F015FF02A90EA821F021
:10496000BEF9601CC4B24445FFF639AF0EA821F071
:1049700097F900F0FF0A52460EA98020FEF793FA3D
:1049800000208DF83800B9F1000F7DDD042496E099
:1049900006EB8600DC4901EB4000005DF0B306EB5E
:1049A000860001EB4000005D401E47B2C6EBC6002A
:1049B00000EB8000D14901EBC000C7EBC70100EB61
:1049C0008100007A80280ED1CD48017ACD48703818
:1049D00050F821300093631C6A1CAFF2DC0102A87E
:1049E00020F0D0FE65E0C6EBC60000EB8000C349B6
:1049F00001EBC000C7EBC70100EB8100007A822801
:104A000010D1BF48017ABF48803850F82130009358
:104A1000631C6A1CAFF2181102A800E04DE020F000
:104A2000B1FE46E0C6EBC60000EB8000B34901EBE7
:104A3000C000C7EBC70100EB8100007A83280DD1CD
:104A4000AF48017AAF4850F821300093631C6A1CCC
:104A5000AFF2541102A820F095FE2AE0C6EBC60082
:104A600000EB8000A54901EBC000C7EBC70100EBDC
:104A70008100407A78B9A248017AA24850F82130E2
:104A80000093631C6A1C00E028E0AFF28C1102A8BE
:104A900020F078FE0DE09A48017A9A48903850F854
:104AA00021300093631C6A1CAFF2AC1102A820F005
:104AB00069FE02A90EA821F012F9601CC4B209F126
:104AC00004008442FFF664AF0EA821F0E9F800F07C
:104AD000FF0A52460EA99020FEF7E5F9884890F8A3
:104AE0009200012804D0864890F89200022875D1DF
:104AF000681CC5B200208DF838004FF00408C8F1DA
:104B00000A098148A030405D401E46B2002495E06D
:104B100006EB86007C4901EB4000005DF0B306EB3C
:104B2000860001EB4000005D401E47B2C6EBC600A8
:104B300000EB8000714901EBC000C7EBC70100EB3F
:104B40008100007A80280ED16D48017A6D48703856
:104B500050F821300093631C6A1CAFF25C2102A85C
:104B600020F010FE64E0C6EBC60000EB8000634955
:104B700001EBC000C7EBC70100EB8100007A82287F
:104B800010D15F48017A5F48803850F82130009397
:104B9000631C6A1CAFF2982102A800E04CE020F0F0
:104BA000F1FD45E0C6EBC60000EB8000534901EB88
:104BB000C000C7EBC70100EB8100007A83280ED14B
:104BC0004F48017A4F4850F821300093631C6A1C0B
:104BD000AFF2D42102A820F0D5FD29E0B2E0C6EB67
:104BE000C60000EB8000454901EBC000C7EBC701E0
:104BF00000EB8100407A68B94148017A414850F899
:104C000021300093631C6A1CAFF20C3102A820F023
:104C1000B9FD0DE03A48017A3A48903850F8213011
:104C20000093631C6A1CAFF2283102A820F0AAFD91
:104C300002A90EA821F053F8601CC4B24445FFF647
:104C400067AF0EA821F02CF800F0FF0A52460EA91B
:104C5000E020FEF728F900208DF83800B9F1000FA8
:104C600070DD04249EE006EB8600274901EB40003E
:104C7000005DF0B306EB860001EB4000005D401ED6
:104C800047B2C6EBC60000EB80001C4901EBC00038
:104C9000C7EBC70100EB8100007A80280ED11848CD
:104CA000017A1848703850F821300093631C6A1C50
:104CB000AFF2B43102A820F065FD6DE0C6EBC6008E
:104CC00000EB80000D4901EBC000C7EBC70100EB12
:104CD0008100007A822819D10948017A0948803870
:104CE00050F821300093631C6A1CAFF2EC3102A82B
:104CF00000E055E020F046FD4EE00000F0260010F8
:104D0000303000104425001000350010C6EBC600FE
:104D100000EB8000FB4901EBC000C7EBC70100EBD3
:104D20008100007A83280ED1F748017AF74850F8BD
:104D300021300093631C6A1CAFF23C4102A820F0B2
:104D400021FD29E03DE0C6EBC60000EB8000ED4907
:104D500001EBC000C7EBC70100EB8100407A68B9E6
:104D6000E948017AE94850F821300093631C6A1C35
:104D7000AFF2744102A820F005FD0DE0E248017A8F
:104D8000E248903850F821300093631C6A1CAFF25F
:104D9000904102A820F0F6FC02A90EA820F09FFF87
:104DA000601CC4B209F104008442FFF65CAF0EA897
:104DB00020F076FF00F0FF0A52460EA9F020FEF721
:104DC00072F801201AB0BDE8F0872DE9F0479AB0DB
:104DD000074600208DF83800FDF781FD4FF00408EC
:104DE000C8F10A09CA48C05D401E44B2002585E0EA
:104DF00004EB8400C649A03901EB4000405DB8B324
:104E000004EB840001EB4000405D401E46B230E000
:104E1000C4EBC40000EB8000BA4901EBC000C6EB54
:104E2000C60100EB8100007D00280EDDB648017A46
:104E3000B648703850F8213000936B1C7A1CAFF2E2
:104E4000405102A820F09EFC14E00A2E0AD004EB88
:104E50008400AF49A03901EB40023046711C4EB2CC
:104E6000105C30B90026601C44B2082C01D101E06E
:104E700042E0CDE700BF2FE0C4EBC40000EB8000B0
:104E8000A04901EBC000C6EBC60100EB8100007D2C
:104E900000280EDD9C48017A9C48703850F821307B
:104EA00000936B1C7A1CAFF2A85102A820F06AFC98
:104EB00013E00A2E0AD004EB84009549A03901EBD7
:104EC00040023046711C4EB2105C28B90026601CAE
:104ED00044B2082C00D100E0CEE700BF02A90EA822
:104EE00020F0FDFE0EA820F0DBFE00F0FF0A524687
:104EF0000EA99020FDF7D7FF681CC5B24545FFF607
:104F000077AF0EA820F0CCFE00F0FF0A52460EA9A3
:104F10008020FDF7C8FF00208DF83800B9F1000FA0
:104F20007EDD042597E004EB84007949A03901EB8C
:104F30004000405DF0B304EB840001EB4000405DB5
:104F4000401E46B2C4EBC40000EB80006D4901EB8B
:104F5000C000C6EBC60100EB8100007A80280ED1AC
:104F60006948017A6948703850F8213000936B1C09
:104F70007A1CAFF2746102A820F004FC65E0C4EB77
:104F8000C40000EB80005F4901EBC000C6EBC60126
:104F900000EB8100007A822810D15B48017A5B48DF
:104FA000803850F8213000936B1C7A1CAFF2B0614E
:104FB00002A800E04DE020F0E5FB46E0C4EBC400B1
:104FC00000EB80004F4901EBC000C6EBC60100EBCF
:104FD0008100007A83280DD14B48017A4B4850F864
:104FE000213000936B1C7A1CAFF2EC6102A820F018
:104FF000C9FB2AE0C4EBC40000EB8000414901EB8F
:10500000C000C6EBC60100EB8100407A78B93E488B
:10501000017A3E4850F8213000936B1C7A1C00E066
:1050200028E0AFF2247102A820F0ACFB0DE0364876
:10503000017A3648903850F8213000936B1C7A1C66
:10504000AFF2447102A820F09DFB02A90EA820F047
:1050500046FE681CC5B209F104008542FFF663AF45
:105060000EA820F01DFE00F0FF0A52460EA9902067
:10507000FDF719FF01201AB0BDE8F087704710B5A1
:105080000446002023490860FFF7F8FF0020FEF7E0
:105090001FF91D48007A022805D107221EA1902081
:1050A000FDF701FF05E007221BA11D480078FDF771
:1050B000FAFE00201B49087019480078FEF71BFA19
:1050C0000120FEF744FA0020174908700120174913
:1050D000087010BD01460A2908D11548007828B982
:1050E00013480078401C124A107078E00E2921D134
:1050F0000F48007801281DD10D480078401C0C4A4B
:1051000010706CE0F02600103030001044250010C4
:10511000A035001080010010202020202020200039
:105120007B01001058010010840100107A0100106A
:10513000440100100B2909D1F3480078022805D159
:10514000F1480078401CF04A107048E00C2909D161
:10515000ED480078032805D1EB480078401CEA4A66
:1051600010703CE00A2909D1E7480078042805D1ED
:10517000E5480078401CE44A107030E0082909D165
:10518000E1480078052805D1DF480078401CDE4A58
:10519000107024E0082909D1DB480078062805D1E1
:1051A000D9480078401CD84A107018E00B2913D158
:1051B000D548007807280FD10020D34A1070D34873
:1051C000807B012803D00120D04A907302E00020A8
:1051D000CE4A9073012070470020CB4A1070002007
:1051E000F9E7F8B500260120C9490860C9490860F7
:1051F00012F00DFF022012F01CF90020C6490860D1
:10520000C6490870C64908700820C64908700020C1
:10521000C54908700120C54908700020C4490870BC
:10522000C449087012F0D9FE48E06A460021C2481D
:1052300000681CF021F804469DF80000F0BBBA4855
:10524000007801287DD12078082855D006DC76D258
:10525000DFE800F03E1F1770626C661B0D283FD020
:1052600008DC092844D00A2852D00B284CD00C283E
:1052700065D131E00E2837D00F2841D0FF285ED10C
:105280005CE02F20FFF70AF95AE01820FFF706F933
:1052900056E09F48006800EB4000A84901EBC000C1
:1052A000C088A0F54071E7390ED09948006800EB3E
:1052B0004000A24901EBC000C08800E0CBE3944964
:1052C0000860012012F0B5F800209749087037E017
:1052D0001920FFF7E3F833E00120FFF7DFF82FE0B4
:1052E0000220FFF7DBF82BE00320FFF7D7F827E0D9
:1052F0000420FFF7D3F823E00520FFF7CFF81FE0E5
:105300000620FFF7CBF81BE00720FFF7C7F817E0F0
:105310000820FFF7C3F813E00920FFF7BFF80FE0FC
:105320000020FFF7BBF80BE00BE008E02E20FFF7B2
:10533000B5F805E02120FFF7B1F801E000E000BF7B
:1053400089E37948007802284ED1207810283FD28E
:10535000DFE800F02A17083E473E48094342464529
:105360003F4041443FE076480078002808DD74481B
:105370000078401E7249087008460078FFF71CFA52
:1053800031E00020684908706148006800EB400087
:105390006A4901EBC000C088A0F54071E73902D02E
:1053A000012012F046F81EE06548007807280EDA62
:1053B000644863490978491C405C40B16048007802
:1053C000401C5F49087008460078FFF7F5F90AE0CD
:1053D00000BF00BF00BF00BF00BF00BF00BF00BFD5
:1053E00000BF00BF00BF36E357480078F0B301208C
:1053F00056490870207808287ED006DC7DD2DFE888
:1054000000F0E8B417E4EFEEEDB30D2876D008DC39
:10541000092874D00A2873D00B2872D00C286CD1BC
:10542000D8E00E286ED00F286DD0FF2865D100E19E
:105430003748006800EB4000404901EBC0000069BC
:1054400043490860084600688047012824D1304855
:10545000006800EB4000394901EBC0008088A0F5EE
:105460004071E7390FD02A48006800E0E4E029499C
:1054700008602748006800EB4000304901EBC0009D
:10548000808823490860022011F0D3FF00202249C0
:105490000860234908702EE02EA1304820F0DCFB84
:1054A0002F48007A022809D12C4820F0F9FBC7B216
:1054B0003A462A490220FDF7F6FC09E0274820F089
:1054C000EFFBC7B23A46254926480078FDF7EBFCCA
:1054D00064201CF0A9FC0C20FFF728F800201049DC
:1054E00008701F4890F89200022804D1002211464B
:1054F0009020FDF75BFA9EE07FE09BE071E078E0B2
:1055000087E082E071E07CE044010010E0300010B0
:105510006C0100106801001080010010840100106F
:105520007C01001054010010790100105701001097
:105530005601001049010010500000109411001095
:1055400048010010A03500107A0100105B01001026
:105550005C01001045202020000000008A5A001045
:10556000303000107B01001065E0FD48007808BB7A
:10557000FC48006800EB4000FB4901EBC00040889C
:10558000012808D1F748006800EB400001EBC0009B
:10559000C088F44908600120FDF7F5FF0820F349B1
:1055A00008700020F2490870F2490870012011F0DB
:1055B00040FF09E00020EA490870EF490860EF4920
:1055C00008700C20FEF7B2FF35E00B20FEF7AEFFAF
:1055D00031E030E00120FEF7A9FF2CE021E024E0DB
:1055E0001BE00220FEF7A2FF25E00320FEF79EFF4E
:1055F00021E00420FEF79AFF1DE00520FEF796FF4C
:1056000019E00620FEF792FF15E00720FEF78EFF57
:1056100011E00820FEF78AFF0DE00920FEF786FF63
:1056200009E00020FEF782FF05E00A20FEF77EFF7A
:1056300001E000E000BF0BE2207808287ED006DC05
:105640007DD2DFE800F0FEA417FDFCFBFA470D2831
:1056500076D008DC092874D00A2873D00B2872D0C1
:105660000C286CD1D3E10E286ED00F286DD0FF2806
:1056700065D1EAE1BB48006800EB4000BA4901EBA4
:10568000C0000069BE4908600846006880470128DC
:105690001CD1B448006800EB4000B34901EBC000E6
:1056A0008088A0F54071E73910D0AE480068B54950
:1056B0000860AC48006800EB4000AB4901EBC0005B
:1056C0008088A8490860022011F0B3FE0020AA4992
:1056D0000860BCE1A348006800EB4000A24901EB70
:1056E000C0004089A0F54071E7394FD09D4800685F
:1056F000A0F54071E73949D0A348807B012838D014
:105700009848006800EB4000974901EBC0004089D1
:10571000C5B206E005EB4500934901EBC0004089A6
:10572000C5B205EB4500904901EBC0008089012816
:1057300019D18C48006800EB400007E071E185E179
:1057400069E16DE17BE171E166E16EE101EBC000D1
:105750000089A0F54071E73905D082480068A0F5BE
:105760004071E739D6D17F480560072011F061FE0E
:105770000CE07C48006800EB40007B4901EBC00076
:10578000408978490860072011F053FE5FE17548B1
:10579000006800EB4000744901EBC000C088A0F530
:1057A0004071E7390DD06F48006800EB40006E494A
:1057B00001EBC000C0886B490860012011F039FE80
:1057C00079E00120FEF7CEF90120FEF70BFA012067
:1057D000FEF738FA022012F01AFC0120FEF768FAF0
:1057E0000120FEF780FA002067498873FDF777F8FB
:1057F000664890F89200012804D0644890F892001E
:10580000022829D10022AFF2B0218020FDF74BFB06
:105810000022AFF2BC219020FDF745FB0022AFF241
:10582000C821E020FDF73FFB58490A7A584951F852
:10583000220020F035FAC7B204E005E1ACE002E155
:10584000BCE039E05148027A514850F822103A46FB
:10585000F020FDF728FB22E04C490A7A4C4951F828
:10586000220020F01DFAC7B24848027A484850F892
:1058700022103A468020FDF716FB0022AFF22831B5
:105880009020FDF710FB0022AFF23431E020FDF74D
:105890000AFB0022AFF24031F020FDF704FBC820E4
:1058A0001CF0C2FA01202F49086036490860012621
:1058B000002038490870CAE02A48006800EB400020
:1058C000294901EBC0000089A0F54071E73946D0B5
:1058D00024480068A0F54071E73940D02A48807B11
:1058E00001282FD01F48006800EB40001E4901EB43
:1058F000C0000089C5B206E005EB45001A4901EB7E
:10590000C0000089C5B205EB4500174901EBC00096
:105910008089012810D11348006800EB400001EB9A
:10592000C0000089A0F54071E73905D00D48006836
:10593000A0F54071E739DFD10A480560002011F079
:1059400078FD0CE00748006800EB4000064901EBD9
:10595000C000008903490860002011F06AFD76E06C
:10596000840100106C01001094110010540100100B
:105970007A01001056010010800100107C01001017
:105980005C01001068010010E030001030300010A1
:10599000842400105B010010FF48807B012809D19E
:1059A000FD48C07B18B90120FB49C87302E0002004
:1059B000F949C873022011F03CFD48E0F648C07B6D
:1059C000012820D1F448807B01281CD1F3480068CD
:1059D00000EB4000F24901EBC0008089012809D1A9
:1059E000FF20EE49096801EB4101ED4A02EBC101DC
:1059F000888108E00120E949096801EB4101E84A92
:105A000002EBC1018881022011F013FD1FE0207814
:105A1000FFF760FB1BE000BF2078FFF75BFB16E0A1
:105A200000BF2078FFF756FB11E000BF2078FFF79A
:105A300051FB012802D1022011F0FBFC07E0207885
:105A4000FFF748FB03E000BF00BF00E000BF00BF5E
:105A5000012E00D101E0FFF7E8BB00BFF8BD2DE942
:105A6000F84304466420B4FBF0F100FB1140C5B2DA
:105A7000CC4890F8980020B92246CBA1CB481FF023
:105A800081FEC84890F8980001280CD10A20B4FB88
:105A9000F0F100FB1146B4FBF0F733463A46C4A1DF
:105AA000C2481FF06FFEBF4890F89800022810D13E
:105AB0000A2095FBF0F100FB115695FBF0F76420EE
:105AC000B4FBF0F83B464246BBA1B84800961FF035
:105AD00059FEB648BDE8F88310B5B948006808B962
