:020000040000FA
:1000000000800010CD0000004109020041090200FB
:1000100041090200410902004109020041090200B0
:100020004109020041090200410902006102000089
:100030004109020000000000C90200007D330200F7
:1000400041090200D1430000854600004109020039
:10005000410902006B4302004FF30100A1D00000F0
:1000600035D30000410902002D9201004109020030
:100070004109020041090200410902004109020050
:100080004109020041090200410902004109020040
:1000900085390000410902004109020041090200BE
:1000A0004109020041090200410902004109020020
:1000B0004109020041090200410902004109020010
:1000C00041090200410902004109020000F002F862
:1000D00000F0B6F80AA090E8000C82448344AAF12C
:1000E0000107DA4501D100F0ABF8AFF2090EBAE82A
:1000F0000F0013F0010F18BFFB1A43F0010318475C
:1001000058690400786904000A444FF0000C10F8A4
:10011000013B13F0070408BF10F8014B1D1108BF85
:1001200010F8015B641E05D010F8016B641E01F825
:10013000016BF9D113F0080F1EBF10F8014BAD1C75
:100140000C1B09D16D1E58BF01F801CBFAD505E093
:1001500014F8016B01F8016B6D1EF9D59142D6D3ED
:10016000704700000023002400250026103A28BF15
:1001700078C1FBD8520728BF30C148BF0B60704719
:100180006E2926F0FD82702925F09287662927F0D6
:10019000D283652927F0CF83672927F0CC83612993
:1001A000AFF3008003681B0A28BF41F08001692972
:1001B00025F06886642925F06586752925F0628614
:1001C0006F2925F01D87782925F05E87E92926F01B
:1001D0003783E42926F03483F52926F03183EF298B
:1001E00025F01A87F82925F05D870368DB0928BF09
:1001F00041F08001632926F00083732926F00583EE
:10020000E32926F01083F32926F015830020704798
:100210001FB527F089FB9DE8030026F021FA26F0A0
:1002200037FE04000020002127F04EFB401C6060D8
:100230000020002127F05EFBE0601FBD10B510BD5F
:1002400026F000FE1146FFF7E3FF01F02DFF26F038
:10025000D9FE03B4FFF7F2FF03BC20F0B0FF0000AB
:10026000052828BF70474FEA80007844D0F802F094
:10027000C90200008F0200002D0300004D030000A2
:100280006D0300004FF0010080F3148800DF0A4C7A
:100290004FF001052570774625F00AFDBE46074E52
:1002A0003668074C2660D6F800D001BC05490860C6
:1002B000BDE8F00F704700BF8F260010A026001089
:1002C00098260010B42600104FF0080282F311881F
:1002D00000B525F0EDFC5DF804EB2DE9F00F0E49BB
:1002E000086801B40D4A1268C2F800D00C4C0D4DDC
:1002F0002E7826700C4E3668084C2660D6F800D052
:1003000001BC086000280CBF0022082282F311887B
:10031000BDE8F00F704700BFB4260010982600100B
:100320008426001085260010A026001006490868C3
:1003300000F101004FF0080282F31188002808BF85
:1003400070470860704700BFB4260010064908686F
:1003500000281CBF01380860002818BF70474FF004
:10036000000282F311887047B42600104FF000009D
:1003700080F3148870474FF0010080F314887047B1
:1003800088476FF0FF0021F094FE000010B50020B8
:1003900021F024FCFF490860002021F01FFCFE49E9
:1003A0000860002020F061FFFC4908600221FC4841
:1003B00021F0ABF9FB490860002020F056FFFA4914
:1003C00008601421F94821F0A0F9F94908600020DB
:1003D00020F04BFFF7490860002020F046FFF64967
:1003E0000860002020F041FFF4490860002020F060
:1003F0003CFFF3490860002020F037FFF149086016
:10040000002020F032FFF0490860002020F02DFF8E
:10041000EE49086010BD2DE9F041002600270020BC
:1004200003F064FB002003F0B2FB4FF49858E84857
:10043000008800F47F4008F47F41884212D003F026
:1004400013FC012003F012FB012003F04FFB0120FD
:1004500003F09DFB012003F0D0FB00221146DD4894
:1004600025F00DF9002003F001FB002003F03EFB16
:10047000002003F08CFB002003F053FB002003F06E
:100480006BFB002003F09EFB002003F0B6FB002472
:100490004FE00021D048015508300155CC487C3050
:1004A000005D012809D1601CC2B23046711CCEB279
:1004B000C9490A5401F1080006550027002534E017
:1004C000002004EB8401C44AA03A02EB41014855E4
:1004D000002104EB8402C048503800EB4200415533
:1004E000C4EBC40000EB8000BC4901EBC000C5EBCD
:1004F000C50100EB8100007A00F08000802812D155
:10050000681CC2B204EB8400B349A03901EB40037C
:100510003846791CCFB21A5404EB8401AE485038E7
:1005200000EB41004755681C85B20A2DC8DB601CF2
:1005300084B2082CADDBBDE8F0810121704700B525
:10054000034603E013F8010BFFF7F7FF18780028C4
:10055000F8D100BD1CB501200090A1480068002220
:100560006946036901A898479E490860009810B938
:100570004FF0FF30019001981CBD03468B4203DB16
:10058000934201DC012070470020FCE770B5002495
:100590007BE0002575E009F053F9F8B9C4EBC4001D
:1005A00000EB80008D4901EBC000C5EBC50100EBFD
:1005B0008100007A00F0030001280FD0C4EBC400D2
:1005C00000EB8000854901EBC000C5EBC50100EBE5
:1005D0008100007A00F00300032850D10520C4EB0D
:1005E000C40101EB81017D4A02EBC101C5EBC502EB
:1005F00001EB82014872C4EBC40000EB8000774934
:1006000001EBC000C5EBC50100EB8100007A00F0F2
:100610000300032833D1C4EBC40000EB80006F4912
:1006200001EBC000C5EBC50100EB8100007A00F0D2
:100630008000C4EBC40101EB8101684A02EBC101F7
:10064000C5EBC50201EB82010872C4EBC40000EBEC
:100650008000624901EBC000C5EBC50100EB8100E1
:10066000007A40F00100C4EBC40101EB81015B4A58
:1006700002EBC101C5EBC50201EB82010872681CE7
:10068000C5B20A2D87DB601CC4B2082C81DB70BDAB
:1006900008B51BE06A4601214548006821F0F2F8E0
:1006A00004469DF8000070B920884F49C86002E0F8
:1006B000022021F0BFFE4C490C313B48006820F07D
:1006C000A4FE0028F4D1022021F0B4FEE2E700B538
:1006D00085B0032300224FF400714448CDE9032381
:1006E000CDE90101092300F2FC720021AFF25F00A5
:1006F000009321F085FC05B000BD08B500BF3C4863
:100700003749086009684868804719E0142000905C
:1007100033480068012269460369364898473149E1
:100720000860002405E03348005D33490855601C2B
:10073000C4B200988442F6DB00BF322021F07AFE7A
:10074000E4E708B500BF0122D105002024F0CCF970
:100750004FF40001002024F0DBF928A019F01DFE61
:100760004FF4167021F066FE0CF028FD0CF00DFE23
:1007700019F0D2FD1EF016FE22A019F00EFE002088
:100780002249488000212148007861F387101F49E1
:1007900008703DE03C0000104000001048000010D0
:1007A000340000105000001054000010DC35001020
:1007B000580000105C0000104C00001044000010B5
:1007C0006000001064000010680000106C00001051
:1007D0003430001000400240A4350010F426001010
:1007E0007400001070000010B43500102C5200107E
:1007F000BC260010405A00102C5A00100D0A3D3D36
:10080000310000000D0A3D3D3200000010000010D4
:100810000021FF48007861F3C500FD490870FD48DC
:100820008069FD49086009F00EF809F065F8FBA041
:1008300019F0B3FDFB48006A40F00050F949086226
:100840000846006A40F0805008620846806B40F01D
:10085000005088630846806B40F080508863022017
:1008600021F0E8FD0DF040F8EFA019F096FD09F039
:10087000EAF909F031FA09F0ABF9EDA019F08DFDB4
:1008800009F049FA09F061FA18F072FE09F098F9D6
:10089000E9A019F082FDE348006A40F00050E14908
:1008A00008620846006A40F0805008620846C06B43
:1008B00040F00050C8630846C06B40F08050C863E9
:1008C000022021F0B7FD10F09BFE142021F0B2FDB4
:1008D00010F094FCDAA019F060FD09F03BFA10F07A
:1008E000EDF8D948006821F040FAD8A019F055FD7C
:1008F000C84890F89100012805D11BF0B5FFD648F3
:10090000006821F032FAD5A019F047FDC14890F8EF
:100910009300012801D11EF0FAFC1FF0C8FE83E20B
:10092000022021F087FDBB4890F8AC0010B36A4666
:100930001421CD48006820F00EFD04469DF800000B
:1009400018B9206800F0FF0801E04FF000084046A9
:100950001FF04DFC1EF0D5FF30B1AD48408840F48B
:100960008040AB49488005E0A948408820F4804099
:10097000A7494880A74890F89300012812D1BB49A5
:1009800091F8E2021DF025FEC7B2FF2F0AD0B84849
:10099000876000F10801B748006820F0DBFF2820DD
:1009A00021F048FD09F00CF910F026F9012806D0D5
:1009B00097480078C0F3C20010F0010F01D010F08A
:1009C00049FC142021F036FD0FF03DFC012806D033
:1009D0008F480078C0F3C20010F0020F01D010F071
:1009E000B1F88B48407830B98A4890F891000228D5
:1009F00001D11BF0A9FE09F0E3F8854800788009D1
:100A0000012803D1142021F015FD0DE26A461421BE
:100A10009948006820F09FFC04469DF80000D8BB70
:100A200080212068B1EB106F7AD87E48006A40F0D0
:100A300000507C4908620846006A40F08050086215
:100A40000846806B40F0005088630846806B40F099
:100A500080508863022021F0EDFC2068000E802881
:100A600006D0812809D0822817D0852859D13BE0AB
:100A70002168C8B20CF0C3FF54E080A019F08DFCCF
:100A800000216348007861F387106149087021688C
:100A9000C8B20DF036F845E06FE16248006A40F0F8
:100AA0000050604908620846006A40F080500862C1
:100AB0000846C06B40F00050C8630846806B40F0A9
:100AC00080508863022021F0B5FC00215048007856
:100AD00061F387104E4908702268C2F30351C2F3D4
:100AE00013000DF00FFF1DE0206800F00103C0F3BC
:100AF0004002C1B265A019F050FC2068C0F340006C
:100B00005A4981F8E302206800F0010081F8E4020C
:100B10000A4692F8E41292F8E3021FF080FE01E028
:100B20001AE000BF00BF3F48006A40F000503D4956
:100B300008620846006A40F0805008620846C06BB0
:100B400040F00050C8630846C06B40F08050C86356
:100B5000022021F06FFC10E12068000E092856D217
:100B6000DFE800F0051DC142E61EC21318004EA0CA
:100B700019F013FC00212648007861F387102449FE
:100B80000870206810F092FDF6E04C4988880FF05C
:100B9000CAFDF1E0494988880FF021FEECE000BF72
:100BA00009F0E8F805212068B1EB106F1BD1002097
:100BB0002F494860091D4248006820F026FC14486F
:100BC000407801280BD112480078C0F3C20020F011
:100BD00001000F49097860F3C5010D480170142028
:100BE00021F028FCC8E000BF09F0CCF80020204923
:100BF0004860091D3248006820F007FC044840782E
:100C000001286CD103212068B1EB106F5AE0B2E0EB
:100C100010000010343000101C0000100D0A3D3D83
:100C20003300000000C009200D0A3D3D34000000E3
:100C30000D0A3D3D350000000D0A3D3D3600000027
:100C40000D0A3D3D370000003C0000100D0A7063A6
:100C500020696E6974000000400000100D0A496EA2
:100C600069744F4B00000000680000102460001001
:100C7000B4350010500000104C0000100D0A434D18
:100C8000445F474F4F44535F4F5554000D0A414353
:100C900044432C2523782C6C65643D25642C6469C1
:100CA00073743D25640000000D0A434D445F434FBB
:100CB000494E5F4348414E4745000000E234001072
:100CC000440000100BD1FF480078C0F3C20020F0B0
:100CD0000200FC49097860F3C501FA48017014204C
:100CE00021F0A8FB48E000BF09F054F80621206875
:100CF000B1EB106F1BD10020F3494860091DF34888
:100D0000006820F082FBEF48407801280BD1ED48C5
:100D10000078C0F3C20040F00100EA49097860F3AE
:100D2000C501E8480170142021F084FB24E000BFD5
:100D300009F040F80020E4494860091DE3480068D4
:100D400020F063FBDF484078012810D1042120689F
:100D5000B1EB106F0BD1DB480078C0F3C20040F05C
:100D60000200D849097860F3C501D6480170142003
:100D700021F060FB00E000BF00BFD54890F8910073
:100D8000012850D1142021F055FB6A461421D14886
:100D9000006820F0E0FA04469DF8000078BB206867
:100DA000000E102822D006DC052809D006280DD018
:100DB0000C2836D12BE011280ED0842831D11FE029
:100DC0000022114605201BF0F5FB2BE00022114606
:100DD00006201BF0EFFB25E0206820F07F4020601C
:100DE0000021084622681BF0FBFA1BE0206820F077
:100DF0007F402060002021681BF0B3FA12E012E06F
:100E00001BF032FDB448006820F0AFFF0AE0206814
:100E1000C0F307452068C6B2314628461BF06BFC7C
:100E200000E000BF00BF00BF7AE592B0002009904B
:100E3000089000BF069004900390029000BFA44861
:100E4000007A022805D1002002F034FA01F0CBFC30
:100E500001E001F0C8FC00209A49487001219F4838
:100E6000007861F303009D4908700020487000215C
:100E70009A48007861F3071098490870002191485A
:100E8000007861F300008F490870F0200F909448BB
:100E9000D0F8746101218B48007861F382008949A0
:100EA000087000218F4824F009FC8F49086008462B
:100EB000006890B1864880690968B1EB400F0CD298
:100EC000894800688649C1F87001012002F095FE4A
:100ED00000221146834824F0D2FB0020824908609A
:100EE0000E900F9001207A4981F8920000207F49EE
:100EF00008730120C87201F0D7FB7D48006C40F4F4
:100F000080707B4908640846806D40F48070886575
:100F10007849002003F0E6FB002003F0C0FB02F05C
:100F200069FD7348006820F480007149086014204E
:100F300021F080FA09F0FAFC09F08CFC11AA4FF4B8
:100F40007A616D48006820F0BFFE614890F8930018
:100F5000012801D11DF0D3FB6448C07A08B1FFF726
:100F600015FB0020109040F6B83064498880644832
:100F7000006820F0A7FB4FF00108029880BB00BF7B
:100F8000604890F8E40204905E4890F8E302039011
:100F900056484078002801DD0120049053488079AC
:100FA000002801DD012003904FF00541039801EB7B
:100FB0004001049808440590434905980860434857
:100FC000006820F03FF940494F48006820F01DFAC2
:100FD000642021F02FFA4DA0DDE9031219F0DDF9AC
:100FE000FEE300E25148006810F0005F31D10220BA
:100FF00021F020FA4D48006810F0005F28D1012050
:101000003049487008460078C0F38000012808D1B4
:1010100003F0B3F900212B48007861F382002949DD
:1010200008702B4890F8910001280CD129480068DD
:1010300020F008F94FF0A060234988611831254855
:10104000006820F0E2F9012002F021FA04F020FB10
:10105000C9E11C48407801281AD1FF20194948707D
:101060001B4890F8910001280CD11A48006820F024
:10107000E9F84FF0C06014498861183115480068DC
:1010800020F0C3F903E04FF47A7021F0D3F9FAE7C6
:101090000F4890F89100012809D1099838B911AA90
:1010A00000210D48006820F00FFE0120099000206B
:1010B000044948700846408818B99DF83800B8BB04
:1010C00037E0FDE010000010B435001044000010BF
:1010D0003430001060000010400000100E000010BE
:1010E000BC3100100040024018000010F430001025
:1010F00000C009207FA903003C0000102C00001054
:1011000050000010246000104C0000100D0A203127
:101110002E4C45444465763D25642C436F6D7072BA
:101120006573734465763D256400000094C0092012
:1011300013E0B8F1010F02D14FF0000801E04FF0C9
:101140000108FF48B0F8140238B94FF4FA60FC49BE
:10115000A1F81402404609F024FCFA4890F8AC00CB
:10116000C8B111AA0121F848006820F0F4F88246BD
:101170009DF8440078B9BAF80000C0B2079007980B
:101180001EF0A8FAC0B20D900D98FF2801D00D985E
:101190000E9000BF28E1ED484069C0F3805040BB8D
:1011A000EB48006828B3E74890F89600022820D062
:1011B000E8480078C0F30000012804D0E14890F826
:1011C0008F00002815DDDF4890F88F30E14800934C
:1011D0000078C0F30003DD484069C0F3805080F020
:1011E0000101DB480268DCA019F0D7F80120069065
:1011F000FAE011AA0121E448006820F043FB82468E
:10120000BAF800509DF8440030B9012002F03FF9CF
:10121000142021F00FF9E7E011AA0121DB48006852
:1012200020F099F88246BAF800509DF8440018B9A9
:10123000012002F02CF9D7E0D548408848B99DF844
:10124000380009F090F80E909DF8380008B1FF259D
:10125000CAE0CF48808828B940F6B830CC498880A9
:101260000BF0D8FABA48006898B9BA480078C0F3C9
:10127000800001280DD108F0D3FA10B9C548807854
:1012800038B9C448407810F0020F02D0042003F0AF
:1012900074F8AC4890F89100022809D10BF066FD73
:1012A0000746EE2F01D00E979EE0142021F0C2F8E1
:1012B000A44890F89300012801D11DF020FA92E093
:1012C000A348006850B1FF250021B348007861F3BE
:1012D0000300B149087008200E9085E09D48007811
:1012E000C0F38000012809D100219A48007861F3F9
:1012F000820098490870012003F03FF8A748D0F811
:101300007401B0420CD9A548D0F87401801BA349E0
:10131000C1F874010846D0F87461012002F06DFC38
:10132000012002F0B4F840F6B8309949888058E0BE
:1013300009F06BF89A48006810F0005F12D10020A5
:101340000E9001219448007861F3030092490870DF
:101350000020487000219048007861F307108E4902
:1013600008703FE07B48408820BB00200E900121A0
:101370008948007861F303008749087000204870AD
:1013800000218548007861F3071083490870012126
:101390007048007861F382006E490870022002F004
:1013A000ECFF7948006820F08DF900206449A1F82D
:1013B000140217E07648808828B940F6B83074499E
:1013C00088800BF027FA5F4890F89100022808D136
:1013D0000BF0CCFC0746EE2F00D00E97142021F026
:1013E00029F8A5E700BFFDE500BF15F4004F39D08F
:1013F00000206949487000216748007861F30710B0
:1014000065490870C5F30E0BFF2551480068584424
:101410004F4908604F480078C0F38000012811D17F
:1014200048488069096888420AD8002149480078FC
:1014300061F3820047490870012002F09EFF01E03D
:1014400008F0EEF99DF83800062804D040480068FE
:1014500008B101200E903E4800210268514824F056
:101460000EF92CE02812002822DD2812012802D0D3
:1014700002281BD102E009200E9018E034480068D1
:1014800098B134480078C0F30000012804D02D48FA
:1014900090F88F00002808DD2A4890F8AC0010B1C1
:1014A0001EF048FA08B908200E9000E000BF06E0E0
:1014B0000CAA29469DF8380008F0C0FC0E9006984A
:1014C000012803D10020069008200E90F9E39DF832
:1014D000380010909DF838000F287DD2DFE800F02A
:1014E0007CBAFEFDFCFBFAF9F8F78D9C08F67D004E
:1014F00000212948007861F303002749087011484A
:1015000090F8930010B9084640780C900AAA0BA9ED
:101510009DF830000CF026F901284CD1EAB29DF874
:1015200028109DF82C0009F03AFC642020F082FF7E
:1015300000200E901448006820F08DF9012133E05E
:1015400024600010343000106C00001000C009202E
:1015500018000010100000100D0A52657475724BCF
:1015600065793D25642C675F416D6F756E743D250F
:10157000642C6861766573616C653D25642C7472BA
:10158000616E733D2564000050000010540000108F
:101590002C000010140000100E000010BC310010D0
:1015A00094C0092000400240F948007861F303002C
:1015B000F749087001E00B200E900020F4494870B4
:1015C0000021F348007861F30710F149087000200A
:1015D000F049A1F8140209E2F0E30021EC48007898
:1015E00061F30300EA49087009F0C3FC4FF4C870C6
:1015F00020F020FF0D200E90F8E10121E448007852
:1016000061F30300E24908704FF4FA70E249488040
:1016100009F004FD0E90E9E10021DD48007861F356
:101620000300DB49087009F078FE4FF4C87020F021
:1016300001FF0020D64948700021D548007861F3A9
:101640000710D34908700A200E90D448006820F093
:1016500002F9CBE10121CE48007861F30300CC49C7
:10166000087047F23050CC49488009F0DFFECC4882
:101670000078C0F38000012827D0CA4890F8AC0059
:1016800010B11EF057F900BBC7480068C749096888
:1016900088420AD20121C248007861F38200C04921
:1016A0000870022002F069FE0FE0BE488069BE4962
:1016B0000968884209D90121B948007861F382009C
:1016C000B7490870062002F058FE08E099E319E0D7
:1016D000F8E246E2E2E282E289E11CE160E0B14840
:1016E00090F89300012801D11DF009F8AD4890F859
:1016F000AC00012805D11EF01DF910B910201EF014
:1017000003F973E10021A248007861F30300A049C6
:1017100008700AF030F84FF4C87020F08BFE0121F9
:101720009B48007861F303009949087047F23050F4
:10173000994948809C48006808B109F077FE9848AC
:101740000078C0F38000012827D0964890F8AC00BC
:1017500010B11EF0EFF800BB934800689349096888
:1017600088420AD201218E48007861F382008C49B8
:101770000870022002F001FE0FE08A4880698A4961
:101780000968884209D901218548007861F38200FF
:1017900083490870062002F0F0FD0F980E90DAE3FE
:1017A00000217B48007861F30300794908707D4887
:1017B00090F8930010B9084640780C9000207449C6
:1017C000487000217248007861F307107049087072
:1017D000744890F89100012823D10AAA0BA900E0CF
:1017E000D2E39DF830000BF0BDFF714800681FF098
:1017F00029FD9DF82C00C0EBC00000EB80006D4976
:1018000001EBC0009DF82810C1EBC10130F82100A8
:1018100069490844694988611831654800681FF0C2
:10182000F4FD5E48006820F016F80AAA0BA99DF89E
:1018300030000BF097FF01286AD19DF82C00C0EB17
:10184000C00000EB80005B4901EBC0009DF8281050
:10185000C1EBC10100EB8100007A00F07F0001289C
:1018600009D001214E48007861F300004C4908700E
:1018700003200E904EE09DF82C00C0EBC00000EB62
:1018800080004C4901EBC0009DF82810C1EBC1015C
:1018900000EB8100406844490968884235D801213D
:1018A0003F48007861F300003D4908703D4890F8DA
:1018B000AC0038B31EF03EF8002823DD394890F81C
:1018C000AD0090B19DF82C10C1EBC10101EB81017D
:1018D000384A02EBC1019DF82820C2EBC20201EB9D
:1018E000820148681EF041F802E000201EF03DF839
:1018F00001201EF009F84FF4FA6201210EA81DF034
:1019000020FF07E004200E9004E005200E9001E087
:101910000B200E901FE300211D48007861F30300A7
:101920001B4908709DF828109DF82C0009F0C9FF8C
:101930004FF4C87020F07EFD01211548007861F356
:1019400003001349087047F230501349488009F0EA
:101950006DFD13480078C0F38000012840D0114885
:1019600090F8AC0010B11DF0E5FF80B90E4800689A
:101970000E490968884223D201210948007861F3A1
:10198000820007490870022002F0F7FC28E027E0F7
:101990000E000010246000102C00001050000010F9
:1019A0001000001034300010180000101C0000104F
:1019B00060000010F42600100000020CB435001086
:1019C000FF488069FF490968884209D90121FE481A
:1019D000007861F38200FC490870062002F0CDFC1B
:1019E000FA4800681FF037FF01200E90B3E2002193
:1019F000F748007861F30300F549087009F0ECFF3F
:101A0000F1480078C0F38000012809D10021EE4898
:101A1000007861F38200EC490870012002F0ADFC0F
:101A2000E94800788009022801D10AF039FC9DF8C4
:101A300028209DF82C109DF830000AF040F80E90F8
:101A4000E04800210268E34823F019FEDE480078F0
:101A5000C0F34000012849D09DF82C00C0EBC00025
:101A600000EB8000DC4901EBC0009DF82810C1EBC1
:101A7000C10100EB8100C068401C9DF82C10C1EB37
:101A8000C10101EB8101D44A02EBC1019DF828207C
:101A9000C2EBC20201EB8201C860D048D0F86801F5
:101AA000401CCE49C1F868019DF82C00C0EBC00075
:101AB00000EB8000C84901EBC0009DF82810C1EB85
:101AC000C10100EB81008069401C9DF82C10C1EB26
:101AD000C10101EB8101C04A02EBC1019DF8282040
:101AE000C2EBC20201EB820188612EE09DF82C005E
:101AF000C0EBC00000EB8000B74901EBC0009DF8CF
:101B00002810C1EBC10100EB81000069401C9DF869
:101B10002C10C1EBC10101EB8101AF4A02EBC10105
:101B20009DF82820C2EBC20201EB82010861AB489C
:101B3000D0F86C01401CA949C1F86C010021A248F1
:101B4000007861F34100A04908709D4890F8930027
:101B5000012801D11CF0D3FD9C4800681FF07BFEDA
:101B6000F9E101219A48007861F30300984908706F
:101B700047F230509A49488009F058FC9248007862
:101B8000C0F38000012827D08D4890F8AC0010B138
:101B90001DF0D0FE00BB8B4800689249096888425E
:101BA0000AD201218848007861F3820086490870D2
:101BB000022002F0E2FB0FE0814880698149096858
:101BC000884209D901218048007861F382007E496A
:101BD0000870062002F0D1FB01200E90BBE100212D
:101BE0007B48007861F30300794908709DF82C1058
:101BF000C1EBC10101EB8101774A02EBC1019DF804
:101C00002820C2EBC20201EB820148680AF04EF9BB
:101C10004FF4C87020F00EFC01216D48007861F38C
:101C200003006B49087047F230506D49488009F055
:101C3000FDFB65480078C0F38000012827D060488C
:101C400090F8AC0010B11DF075FE00BB5D48006857
:101C50006449096888420AD201215B48007861F32F
:101C6000820059490870022002F087FB0FE05448B7
:101C7000806954490968884209D90121524800788D
:101C800061F3820050490870062002F076FB4F484D
:101C900000681FF0E0FD01200E905CE101214C483E
:101CA000007861F303004A49087047F230504C490C
:101CB00048809DF828109DF82C000AF06DF90E90D0
:101CC00049E15EE13E4890F89600002871DD002170
:101CD0003F48007861F303003D4908700020424905
:101CE00008600AF0A8F9384800788009022801D174
:101CF0000AF0EBFA34480078C0F38000012809D1DB
:101D000000213148007861F382002F4908700120DA
:101D100002F033FB0AF019FB2A48002102682D4823
:101D200023F0ADFC2748006880B3264800682B49A3
:101D3000C1F87001224890F89100012823D1204871
:101D400090F89800012807D10846D0F8700100EB00
:101D500080004000089008E0194890F89800022898
:101D600003D11E48D0F870010890204800681FF089
:101D700069FA089800F188501D49886118311B489C
:101D800000681FF042FB0AF0B6FB05E0FFE71648CB
:101D9000006808B10AF083FC0B480078C0F34000EB
:101DA000012806D100210848007861F34100064966
:101DB0000870104817F0F6FBC8201DE0C3E00000D3
:101DC00034300010180000101000001050000010F7
:101DD0000E00001000400240F4260010BC3100103C
:101DE0002C0000101C0000102806001060000010DD
:101DF000B43500109831001020F01CFB0D200E901F
:101E0000A9E00021BB48007861F30300B9490870DC
:101E1000B948D0F87401B04209D9B748D0F8740174
:101E2000801BB549C1F874010846D0F874610120DF
:101E300001F0E3FE0020B1490860002404E0002026
:101E4000AF490855601CC4B2202CF8DB002405E023
:101E50000021AB4874300155601CC4B2202CF7DB64
:101E6000002414E04FF000090CE0002104EB840290
:101E7000A348203000EB420000F8091009F10100EE
:101E800000F0FF09B9F10A0FEFDB601CC4B2082CA7
:101E9000E8DB00209A490867012001F0E7FD0AF01D
:101EA00055FCC82020F0C6FA00200E909549A1F8F4
:101EB000140201218F48007861F303008D490870F6
:101EC00000219148007861F300008F4908700022DA
:101ED00011468E4823F0D3FB8B480078C0F3800076
:101EE00001280AD0022002F048FA01218648007831
:101EF00061F382008449087019E007F091FC10B981
:101F00008348807840B98248407810F0020F03D0AF
:101F1000042002F032FA0AE07D48807838B17C482B
:101F2000407810F0020F02D1032002F026FA79481F
:101F300090F8AC00012805D11DF0FCFC10B911206F
:101F40001DF0E2FC07E001216A48007861F303001C
:101F50006849087000BF00BF10980F909DF83800C6
:101F600008B900200F909DF83800012800D10AE040
:101F70009DF838101098884202D09DF8380000B9BA
:101F800001E0FFF7A4BA00BFFFF72BB886B000BF8F
:101F90000121002023F023FC5F4823F056FC23F0AE
:101FA0009DFC5E4800680A21B0FBF1F400BF601E92
:101FB0000400FCD123F0B7FC23F0A7FC17F0D8FAFB
:101FC00023F038FC5648007B08B9FEF724FA23F0CA
:101FD00031FCFEF7DBF966E0032300224FF40071C9
:101FE0005048CDE90323CDE90101072300F2FC723B
:101FF000C8214D48009320F003F823F01BFC032375
:1020000000224FF400714948CDE90323CDE90101D5
:10201000052300F2FC720021454800931FF0F0FFF9
:1020200023F008FC032300224FF400714148CDE95E
:102030000323CDE90101092300F2FC7200213E488F
:1020400000931FF0DDFF23F0F5FB032300224FF484
:1020500000713A48CDE90323CDE90101082300F2DC
:10206000FC720021364800931FF0CAFF19E023F0EC
:10207000E1FB25484078FF2810D1072020F019F80F
:10208000052020F016F8082020F013F8092020F091
:1020900010F800201C494880487003E0C82020F058
:1020A000C9F9E4E700BF97E710B51EF04BFC1EF03E
:1020B00013FC0122D105002022F016FD4FF400018F
:1020C000002022F025FD01225102022022F00CFD09
:1020D0004FF40071022022F025FD20F050FB062372
:1020E000184A0021AFF25B101FF042FF20F00AFCFB
:1020F000002010BD0E000010BC31001018000010B0
:102100000431001024600010100000100040024054
:102110001400001034300010002D3101EC260010A6
:10212000E43000102C3A00102B0E00002C4200105E
:10213000430700002C520010910600002C4A0010AA
:10214000FB060000283A0010FF49097A022901D154
:10215000962000E0FA2000BF411E89B20800FBD1A2
:102160007047F94A127A022A0BD1F84A12680623FC
:10217000B2FBF3F24FF4FA63B2FBF3F202FB00F1AD
:102180000AE0F24A12680623B2FBF3F24FF47A73C4
:10219000B2FBF3F202FB00F100BF4A1E1100FCD1BA
:1021A0007047EA4A12680623B2FBF3F202FB00F121
:1021B00000BF4A1E1100FCD170472DE9F0410646D0
:1021C0000F46022000DFF8240FB144F00204DE487D
:1021D000007A022803D10120FFF7C3FF02E00320A9
:1021E000FFF7BFFFDA48006E40F00070D84908667C
:1021F0000846806F40F0007088670846006A40F02B
:10220000806008620846C06B40F08060C863FFF7DA
:102210009BFF002539E014F0800F0BD0CC48006AFA
:1022200040F08070CA4908620846806B40F08070B8
:1022300088630AE0C648006A40F08070C4490862BA
:102240000846C06B40F08070C863FFF77DFFC04850
:10225000006A40F08060BE4908620846C06B40F0EA
:102260008060C863FFF770FFB948006A40F0806083
:10227000B74908620846806B40F080608863FFF7CA
:1022800063FF6006040E681CC5B2082DC3DB34462C
:1022900004F0F004002539E014F0800F0BD0AC48B6
:1022A000006A40F08070AA4908620846806B40F0DE
:1022B000807088630AE0A648006A40F08070A449F4
:1022C00008620846C06B40F08070C863FFF73CFFAF
:1022D0009F48006A40F080609D4908620846C06BD4
:1022E00040F08060C863FFF72FFF9948006A40F014
:1022F0008060974908620846806B40F08060886380
:10230000FFF722FF6006040E681CC5B2082DC3DB70
:1023100034462007040E002539E014F0800F0BD05E
:102320008B48006A40F08070894908620846806BDB
:1023300040F0807088630AE08548006A40F0807051
:10234000834908620846C06B40F08070C863FFF79D
:10235000FBFE7F48006A40F080607D4908620846C5
:10236000C06B40F08060C863FFF7EEFE7848006AFB
:1023700040F08060764908620846806B40F08060DB
:102380008863FFF7E1FE6006040E681CC5B2082DE5
:10239000C3DB6F48006E40F000706D490866084668
:1023A000C06F40F00070C867032000DFBDE8F08117
:1023B000F0B506460F46F8240FB144F0020403209E
:1023C000FFF7CFFE6248006E40F00070604908667B
:1023D0000846806F40F0007088670846006A40F049
:1023E000007008620846C06B40F00070C863FFF7D9
:1023F000ABFE002539E014F0800F0BD05448006A82
:1024000040F08070524908620846806B40F080704E
:1024100088630AE04E48006A40F080704C490862C8
:102420000846C06B40F08070C863FFF78DFE4848D7
:10243000006A40F00070464908620846C06B40F0F0
:102440000070C863FFF780FE4148006A40F00070EA
:102450003F4908620846806B40F000708863FFF7D0
:1024600073FE6006040E681CC5B2082DC3DB34463B
:1024700004F0F004002539E014F0800F0BD034484C
:10248000006A40F08070324908620846806B40F074
:10249000807088630AE02E48006A40F080702C4902
:1024A00008620846C06B40F08070C863FFF74CFEBE
:1024B0002748006A40F00070254908620846C06B52
:1024C00040F00070C863FFF73FFE2148006A40F00B
:1024D00000701F4908620846806B40F000708863F6
:1024E000FFF732FE6006040E681CC5B2082DC3DB80
:1024F00034462007040E002540E014F0800F0BD076
:102500001348006A40F08070114908620846806BE9
:1025100040F0807088630AE00D48006A40F08070E7
:102520000B4908620846C06B40F08070C863FFF733
:102530000BFE0748006A40F0007005490862084633
:10254000C06B40F0007005E034300010EC26001045
:1025500000C00920C863FFF7F7FDF848006A40F0A3
:102560000070F64908620846806B40F0007088638E
:10257000FFF7EAFD6006040E681CC5B2082DBCDB3F
:10258000EE48006E40F00070EC4908660846C06FE7
:1025900040F00070C867F0BD002132E0E74A126EDB
:1025A00042F00072E54B1A661A46D26F42F0007292
:1025B000DA6710F0800F0AD11A46126A42F0807270
:1025C0001A621A46D26B42F08072DA630AE0DB4A82
:1025D000126A42F08072D94B1A621A46926B42F02C
:1025E00080729A63D54A126E42F00072D34B1A661B
:1025F0001A46926F42F000729A674206100E4A1C09
:10260000D1B20829CADB704710B50446CB48006A2E
:1026100040F00070C94908620846806B40F00070C5
:1026200088630846006A40F0806008620846C06B14
:1026300040F08060C8632046FFF7AEFFBF48006AE5
:1026400040F08060BD4908620846806B40F08060C1
:1026500088630846006A40F0007008620846C06B54
:1026600040F00070C86310BD10B5E220FFF7CCFF4A
:1026700004201FF0DFFE2620FFF7C6FF2F20FFF704
:10268000C3FFEA20FFF7C0FF8120FFF7BDFF7220E4
:10269000FFF7BAFFC820FFF7B7FF4020FFF7B4FFEE
:1026A000AF20FFF7B1FF10BD10B5A54890F892001C
:1026B000022802D1FFF7D8FF40E030240021204655
:1026C000FFF77BFD062400212046FFF776FD0C2452
:1026D00000212046FFF771FD012400212046FFF76D
:1026E0006CFD022400212046FFF767FD80240021B5
:1026F0002046FFF762FD924890F8920001281DD114
:10270000302400212046FFF753FE062400212046F6
:10271000FFF74EFE0C2400212046FFF749FE01245E
:1027200000212046FFF744FE022400212046FFF747
:102730003FFE802400212046FFF73AFE10BD10B571
:1027400004467E48006A40F000707C4908620846F2
:10275000806B40F0007088630846006A40F080603B
:1027600008620846806B40F0806088632046FFF76F
:1027700013FF7248006A40F08060704908620846A2
:10278000C06B40F08060C8630846006A40F000708B
:1027900008620846C06B40F00070C86310BD30B5D9
:1027A00004460D4645F0B000FFF72EFF102141EA28
:1027B0002410FFF729FF04F00F00FFF725FF30BDBD
:1027C00030B500240CE0E1B20020FFF7E8FF00255F
:1027D00003E00020FFF7B3FF6D1CF02DF9D3641C5C
:1027E000102CF0D330BD10B5554890F89200022857
:1027F00002D1FFF7E5FF0EE0012400212046FFF79C
:10280000DCFC4F4890F89200012804D100BF002161
:102810002046FFF7CDFD10BD2DE9FF4F83B0814667
:102820000F469246109CCDF80490BB460698604334
:102830000090082C02D10125082614E0102C01D0AC
:10284000202C02D1022566100DE0402C02D1042577
:10285000102608E0802C02D10425202603E0902CCD
:1028600001D1062518264FF000081EE00198C1B2DC
:102870000BF0FF00FFF793FF002002900CE000999F
:102880001AF80100FFF75BFF0098401C00900BF165
:10289000010B0298401C02900298B042EFD30198BD
:1028A000401C0190BB4608F10108A845DED307B0E3
:1028B000BDE8F08F2DE9F043A5B080468946174664
:1028C000902101A823F0B6FDB8F1E00F48D01ADC42
:1028D000B8F1900F3CD00CDCB8F1800F2BD0B8F1E0
:1028E000810F2FD0B8F1820F2ED0B8F1830F47D1CE
:1028F0002CE0B8F1910F2DD0B8F1920F2CD0B8F197
:10290000930F3DD12AE0B8F1F00F31D009DCB8F1D6
:10291000E10F27D0B8F1E20F26D0B8F1E30F2FD1A5
:1029200024E0B8F1F10F25D0B8F1F20F24D0B8F1BE
:10293000F30F25D122E0002422E0000000C009208E
:102940003430001001241BE0022419E0032417E0B6
:10295000042415E0052413E0062411E007240FE009
:1029600008240DE009240BE00A2409E00B2407E009
:102970000C2405E00D2403E00E2401E00F2400BF29
:1029800000BF2646B9F1010F0CD1F1B20020FFF7CC
:1029900006FF002503E00120FFF7D1FE6D1CF02D9E
:1029A000F9D32CE0032F0DD1002508E0402300933C
:1029B000002301AAE9B2F0B2FFF72EFF0F35F02D88
:1029C000F4D31CE0022F0DD1002508E090230093E2
:1029D000002301AAE9B2F0B2FFF71EFF1735F02D70
:1029E000F4D30CE0002508E020230093002301AA83
:1029F000E9B2F0B2FFF710FF0F35F02DF4D325B098
:102A0000BDE8F0832DE9FF4FADF5357D824689465F
:102A1000DDF80CB390218FA823F00CFD302183A8A2
:102A200023F008FD002082904FF4007102A823F0EB
:102A300001FD00200190BAF1E00F43D01ADCBAF199
:102A4000900F37D00CDCBAF1800F2BD0BAF1810F88
:102A50002AD0BAF1820F29D0BAF1830F42D127E0F0
:102A6000BAF1910F28D0BAF1920F27D0BAF1930F93
:102A700038D125E0BAF1F00F2CD009DCBAF1E10F22
:102A800022D0BAF1E20F21D0BAF1E30F2AD11FE030
:102A9000BAF1F10F20D0BAF1F20F1FD0BAF1F30F53
:102AA00020D11DE000261DE001261BE0022619E0D2
:102AB000032617E0042615E0052613E0062611E09C
:102AC00007260FE008260DE009260BE00A2609E09C
:102AD0000B2607E00C2605E00D2603E00E2601E09C
:102AE0000F2600BF00BF35464C465FEA090404D1FB
:102AF0005A4600215046FFF7DDFE83A8B79923F020
:102B0000B1FB0020B390002749E10020829083A808
:102B1000C05D802871DABBF1030F2AD14FF0100895
:102B20000420B49038467F1C83A9085C8DF8080205
:102B30005B468FA982A8C29A1BF04EFBF0B34023DC
:102B4000009300238FAAE1B2E8B2FFF765FE04EB21
:102B5000080000EB98049DF80802312800D1E41F1A
:102B6000F02C02D34C46B4980544102D26D355467C
:102B700015E1BBF1020F41D14FF018080620B490C7
:102B800038467F1C83A9085C8DF808025B468FA934
:102B900082A8C29A1BF020FB80B19DF808022E2863
:102BA00003D09DF808023A280DD1A4EB9804902395
:102BB000009300238FAAE1B2E8B200E01CE0FFF727
:102BC0002BFE444410E09023009300238FAAE1B22F
:102BD000E8B2FFF721FE04EB080000EB98049DF833
:102BE0000802312800D10B3CF02C02D34C46B4989B
:102BF0000544102D00D35546D1E02FE04FF00808D2
:102C00000220B49038467F1C83A9085C8DF8080226
:102C10005B468FA982A8C29A1BF0DEFAF0B310239C
:102C2000009300238FAAE1B2E8B2FFF7F5FDBBF1F4
:102C3000010F09D104EB080000EB98049DF808028D
:102C4000312802D1E41E00E04444F02C02D34C466B
:102C5000B4980544102D21D35546A0E083A8C05D4B
:102C6000F02803D083A8C05DF12829D14FF00808CF
:102C70000220B49038467F1C83A9085C8DF80802B6
:102C800038467F1C085C8DF809025B468FA982A834
:102C9000C29A1BF0A1FA08B1102300E00FE00093E4
:102CA00000238FAAE1B2E8B2FFF7B6FD4444F02C4E
:102CB00002D34C46B4980544102D70D355466EE0AF
:102CC00083A8C05D83AA791C515C01EB002080B20F
:102CD00001900198A0F52141FB390ED00198A0F593
:102CE0002141FA3909D00198A0F52141FC3904D0DD
:102CF0000198A0F52141FD392AD1BBF1030F27D15D
:102D00004FF020080420B49038467F1C83A9085C4B
:102D10008DF8080238467F1C085C8DF809025B4676
:102D20008FA982A8C29A1BF057FAC0B380230093E0
:102D300000238FAAE1B2E8B2FFF76EFD4444F02C05
:102D400002D34C46B4980544102D28D3554626E0AE
:102D50004FF010080220B49038467F1C83A9085C0D
:102D60008DF8080238467F1C085C8DF809025B4626
:102D70008FA982A8C29A1BF02FFA80B1202300935A
:102D800000238FAAE1B2E8B2FFF746FD4444F02CDD
:102D900002D34C46B4980544102D00D35546B8983C
:102DA0008742FFF4B2AE0DF5397DBDE8F08F2DE915
:102DB000F0478EB080460C461746302102A823F01B
:102DC00039FB204623F072FA82460246214602A8C9
:102DD00023F097FAF94890F89200022809D10023CD
:102DE000009301933B46224600214046FFF70AFE2E
:102DF000D4E0F24890F89200012872D108F0F00077
:102E0000802806D0902805D0E02807D0F0280FD1E0
:102E100009E000BF46464FF0010909E008F08F06BF
:102E20004FF0020904E008F09F064FF0020900BFCE
:102E300000BFB9F1010F39D1E048007A022821D151
:102E400006F0F000802802D090281AD10CE002A8E9
:102E500023F02CFA824600230093034602AA0121A4
:102E600008461BF049F80CE002A823F01FFA82463E
:102E700000230093034602AA012102201BF03CF824
:102E800000BF8BE000213046FFF792FA142F00DDDF
:102E90001427002507E014F8016B01213046FFF7E5
:102EA00087FA681CC5B2BD42F5DB77E0B9F1020FC5
:102EB00074D1C248007A022822D106F0F00080289E
:102EC00002D090281BD10DE002A823F0EFF9824632
:102ED00000230093034602AA022101201BF00CF8F4
:102EE0000DE021E002A823F0E1F9824600230093DF
:102EF000034602AA022108461AF0FEFF00BF4DE079
:102F000000213046FFF759F9142F00DD1427002562
:102F100007E014F8016B01213046FFF74EF9681CF9
:102F2000C5B2BD42F5DB39E0A448007A022821D1C0
:102F300008F0F000802802D090281AD10CE002A8F6
:102F400023F0B4F9824600230093034602AA02212B
:102F500001201AF0D1FF0CE002A823F0A7F9824665
:102F600000230093034602AA022108461AF0C4FF78
:102F700000BF13E0464600213046FFF71EF9142F2C
:102F800000DD1427002507E014F8016B012130460D
:102F9000FFF713F9681CC5B2BD42F5DB0EB0BDE802
:102FA000F0872DE9F0478EB080460D461746302158
:102FB00002A823F03FFA284623F078F98246024619
:102FC000294602A823F09DF97C4890F89200022837
:102FD00009D10023009301933B462A460021404635
:102FE000FFF710FDF5E0754890F8920001286FD1C9
:102FF00008F0F000802806D0902805D0E02807D0FF
:10300000F0280FD109E000BF46464FF0010909E062
:1030100008F08F064FF0020904E008F09F064FF019
:10302000020900BF00BFB9F1010F43D16348007A24
:10303000022821D106F0F000802802D090281AD171
:103040000CE002A823F032F98246002300930346E5
:1030500002AA012108461AF04FFF0CE002A823F053
:1030600025F9824600230093034602AA012102208B
:103070001AF042FF00BFACE000213046FFF798F99C
:10308000142F00DD1427002407E015F8016B01213F
:103090003046FFF78DF9601CC4B2BC42F5DB06E098
:1030A000202601213046FFF783F9601CC4B2142C9E
:1030B000F6DB8EE0B9F1020F25D14048007A0228F4
:1030C00022D106F0F000802803D090281BD10DE01B
:1030D00038E002A823F0EAF8824600230093034672
:1030E00002AA022101201AF007FF0CE002A823F037
:1030F000DDF8824600230093034602AA0221084617
:103100001AF0FAFE00BF64E000213046FFF755F8E0
:10311000142F00DD1427002407E015F8016B0121AE
:103120003046FFF74AF8601CC4B2BC42F5DB06E04B
:10313000202601213046FFF740F8601CC4B2142C51
:10314000F6DB46E01D48007A022821D108F0F000A5
:10315000802802D090281AD10CE002A823F0A6F80B
:10316000824600230093034602AA022101201AF09E
:10317000C3FE0CE002A823F099F8824600230093D6
:10318000034602AA022108461AF0B6FE00BF20E05C
:10319000464600213046FFF710F8142F00DD1427B3
:1031A000002407E015F8016B01213046FFF705F810
:1031B000601CC4B2BC42F5DB09E0000034300010F2
:1031C000202601213046FEF7F8FF601CC4B2142C03
:1031D000F6DB0EB0BDE8F08770B50446F84890F80D
:1031E0009200012849D134B1012C14D0022C22D0F4
:1031F000032C40D12FE0242500212846FFF7D8F8E2
:10320000042500212846FFF7D3F820250021284671
:10321000FFF7CEF830E0242500212846FFF7C8F854
:10322000052500212846FFF7C3F820250021284660
:10323000FFF7BEF820E0242500212846FEF7BDFF59
:10324000042500212846FEF7B8FF20250021284646
:10325000FEF7B3FF10E0242500212846FEF7ADFF5E
:10326000052500212846FEF7A8FF20250021284635
:10327000FEF7A3FF00E000BF1BE024250021284645
:10328000FEF79BFF14B1012C0CD105E004250021B1
:103290002846FEF792FF06E0052500212846FEF7A6
:1032A0008CFF00E000BF00BF202500212846FEF76C
:1032B00084FF70BD2DE9F0410746012F01D1FF26A3
:1032C00000E000264FF0360800214046FEF775FF6B
:1032D00000BF00214046FEF770FF4FF001080021BB
:1032E0004046FEF76AFF002415E004F18001C8B2F1
:1032F0000021FEF762FF00218020FEF75EFF00251F
:1033000005E001213046FEF758FF681CC5B2102DBC
:10331000F7DB601CC4B2202CE7DB002415E004F1CD
:103320008001C8B20021FEF748FF00218820FEF787
:1033300044FF002505E001213046FEF73EFF681CF2
:10334000C5B2102DF7DB601CC4B2202CE7DB4FF0B8
:10335000200800214046FEF730FF994890F892007F
:1033600001284AD14FF0360800214046FFF720F8E7
:1033700000BF00214046FFF71BF84FF00108002175
:103380004046FFF715F8002415E004F18001C8B2AB
:103390000021FFF70DF800218020FFF709F8002534
:1033A00005E001213046FFF703F8681CC5B2102D77
:1033B000F7DB601CC4B2202CE7DB002415E004F12D
:1033C0008001C8B20021FEF7F3FF00218820FEF73C
:1033D000EFFF002505E001213046FEF7E9FF681CFC
:1033E000C5B2102DF7DB601CC4B2202CE7DB4FF018
:1033F000200800214046FEF7E0FEBDE8F08170B5F0
:1034000005466F4890F8920001281FD105F0F000A2
:10341000802806D0902805D0E02808D0F02814D1C4
:103420000CE000BF00212846FEF7C2FF0DE005F0CA
:103430008F0400212046FEF7C0FE06E005F09F0441
:1034400000212046FEF7B9FE00BF03E00021284618
:10345000FEF7B3FE70BD70B50446594890F892006F
:1034600001280ED10F25012C04D100212846FEF79A
:103470009FFF0BE0022C09D100212846FEF79DFE9C
:1034800004E00F2500212846FEF797FE70BD70B5B9
:1034900004464B4890F8920001280ED10C25012CCF
:1034A00004D100212846FEF783FF0BE0022C09D14E
:1034B00000212846FEF781FE04E00C250021284665
:1034C000FEF77BFE70BD70B5044600250DE0E9B245
:1034D0000020FFF764F9002604E014F8010BFFF761
:1034E0002EF9761CF02EF8D36D1C102DEFD370BD85
:1034F00070B50546FFF764F9002412E0E1B2002040
:10350000FFF74DF9FF20FFF71AF9002603E0285DC9
:10351000FFF715F9761CEE2EF9D3FF20FFF70FF910
:10352000641C102CEAD370BD2DE9F74FADF5447D36
:103530000D4616464FF44271684622F07BFFC49850
:10354000E02834D012DC902829D008DC80281ED056
:1035500081281ED082281ED083283BD11DE09128CF
:103560001FD092281FD0932834D11EE0F02829D0F4
:1035700006DCE1281DD0E2281DD0E3282AD11CE07A
:10358000F12821D0F22821D0F32823D120E00024F3
:1035900020E001241EE002241CE003241AE004249D
:1035A00018E0052416E0062414E0072412E008249D
:1035B00010E009240EE00A240CE00B240AE00000CD
:1035C000343000100C2405E00D2403E00E2401E04B
:1035D0000F2400BF00BFA046A9461EB90DF5477DC8
:1035E000BDE8F08F694630461AF00FFF0520C39002
:1035F0009B20C2904FF0000A002719E008F0FF015D
:1036000009F0FF00FFF7CBF84FF0000B09E01DF8C1
:103610000A00FFF794F80AF1010A09F101090BF118
:10362000010BC2988345F2D308F10108A9467F1C1B
:10363000C3988742E2D300BFD0E710B504461A48CA
:10364000FFF741FF10BDF0B504460D4617462E4664
:10365000E91705EB5171C910B031C8B2FEF7D4FFBC
:103660002646E11704EB1171091101F11000FEF774
:10367000CBFFE11704EB11710911A4EB0111C8B2E2
:10368000FEF7C2FF67B12E46E91705EB5171C9106D
:10369000A5EBC10201219140C8B2FFF750F802E04A
:1036A0000020FFF74CF8F0BD3A79020001460829E6
:1036B00017D007DCF9B101290DD002290DD004295A
:1036C0001BD10CE010290ED020290ED040290ED09D
:1036D000802912D10DE0002011E001200FE002202E
:1036E0000DE003200BE0042009E0052007E00620A0
:1036F00005E0072003E0102001E0202000BF00BF0C
:1037000070472DE9F04700224FF44041012021F09D
:10371000EBF901224FF47C71002021F0E5F9012240
:103720004FF44031104621F0DFF94FF47C71002056
:1037300021F0F8F94FF44031012021F0F3F94FF076
:10374000180900BFA9F10100C0B25FEA0009F9D170
:10375000012021F0F1F9C0F3813700224FF47C7190
:10376000104621F0C1F900224FF44031012021F030
:10377000BBF901224FF44041104621F0B5F94FF456
:103780004041012021F0CEF94FF0180900BFA9F106
:103790000100C0B25FEA0009F9D1012021F0CCF9A3
:1037A000C0F3014A002021F0C7F9C0F305104AEA2E
:1037B0008008032121EA0700FFF778FF04466FEA3B
:1037C0000800C0B2FFF772FF0546102C03D1102D80
:1037D00001D1FF260EE0102C01D0102D01D1FE26C4
:1037E00008E0202C01D0202D01D1FD2602E005EBC0
:1037F000C400C6B200224FF44041012021F074F908
:1038000001224FF47C71002021F06EF901224FF467
:103810004031104621F068F94FF47C71002021F00E
:1038200081F94FF44031012021F07CF94FF0180963
:1038300000BFA9F10100C0B25FEA0009F9D130462A
:10384000BDE8F08770B57E480078012875D1FFF794
:1038500058FF7C490870FF2828D17B480078FF2852
:1038600003D17A480078002809DD0122910710462B
:1038700021F03AF94FF08041012021F053F9002066
:1038800072490870FF20704908706E490870002066
:103890006B4908706E48006920F040706C490861FF
:1038A0000846006940F08070086166E0664800786C
:1038B00064490978884260D162480078FD283DD08B
:1038C00060480078FE2839D060480078A0BB01200D
:1038D0005E4908705C4800785E49886008315E483F
:1038E00000681EF037F80646642522E0002400E058
:1038F000641C42F228308442FADB0122C1061046E1
:1039000021F0F2F84FF08041012021F001F900246C
:1039100000E0641C42F228308442FADB0122C10636
:10392000104621F0E1F84FF08041012021F0FAF833
:103930006D1E002DDADC20E000E022E04348007834
:10394000002809DD41480078FF2805DA3F48007863
:10395000401C3E49087002E000203C4908703B488A
:103960000078052809D101228107104621F0BCF812
:103970004FF08041012021F0D5F8324800783249DB
:10398000087070BD10B5022000DF1EF010FF304837
:10399000006920F040702E49086101202849087014
:1039A00004202E4908601EF010FF032000DF10BD28
:1039B00010B52748006920F0407025490861084685
:1039C000006940F0807008612548006840F00400FC
:1039D0002449C1F848014FF00000234908604FF026
:1039E0003802AFF25F014FF024001DF09CF81DF08B
:1039F00096F810BD10B500224FF44041012021F08F
:103A000073F801224FF47C71002021F06DF801223F
:103A10004FF44031104621F067F84FF47C710020DC
:103A200021F080F84FF44031012021F07BF8182478
:103A300000BF601EC0B20400FBD1FFF7B9FF10BD8C
:103A4000780000107A0000107B0000107900001050
:103A500000C00240B43500105000001040C10F40BB
:103A600048C10F4000C00F404CC10F402DE9F0414C
:103A700007460024FF4E4FF40C654FF4047095FB8D
:103A8000F0F0401C0FFA80F8012F0ED100BF09E0C2
:103A900004F10A0188B2314622F021F806F50476D5
:103AA000601C84B24445F3DB1EE01BE0B5F5047FE7
:103AB00009DD04F10A0188B233464FF40472002193
:103AC00021F044FF07E004F10A0188B23346AAB2AC
:103AD000002121F03BFF601C84B2A5F5047005B203
:103AE00006F50476002DE1DCBDE8F0812DE9F0411A
:103AF000044600BFE04DB0264FF4047096FBF0F092
:103B0000401C07B2012C04D12946092021F0E7FF0F
:103B100005E02B46B2B20021092021F017FFBDE8D5
:103B2000F0812DE9F041044600BFD44D0D264FF43D
:103B3000047096FBF0F0401C07B2012C04D129461A
:103B4000462021F0CCFF05E02B46B2B200214620F2
:103B500021F0FCFEBDE8F0812DE9F041044600BFF4
:103B6000C74D50264FF4047096FBF0F0401C07B28E
:103B7000012C04D12946152021F0B1FF05E02B4688
:103B8000B2B20021152021F0E1FEBDE8F0812DE95F
:103B9000F041044600BFBB4D10264FF4047096FB65
:103BA000F0F0401C07B2012C04D12946072021F077
:103BB00096FF05E02B46B2B20021072021F0C6FE99
:103BC000BDE8F0812DE9F041044600BFAE4DF52679
:103BD0004FF4047096FBF0F0401C07B2012C04D1A6
:103BE0002946322021F07BFF05E02B46B2B20021AE
:103BF000322021F0ABFEBDE8F08170B50446A34D44
:103C0000B826012C06D1A249B1F84401294621F079
:103C100066FF07E09E49B1F844012B46B2B200218D
:103C200021F094FE9A48B0F84411B0F84401401CC9
:103C3000974AA2F84401B1F57A6F04DD4FF4FA70A7
:103C40001146A1F84401924D4FF4CE76012C04D1D7
:103C50002946082021F043FF05E02B46B2B200219F
:103C6000082021F073FE70BD70B5ACB0FEF7BBFD4F
:103C7000B0228149684622F089FB7F4E002404E08F
:103C8000002006F8010B601C84B2B02CF8D3794EEA
:103C9000002404E0002006F8010B601C84B2B4F597
:103CA0000C6FF7D300246CE0012173487C30015580
:103CB0001A2108300155601CC1B276480155601CBC
:103CC000C1B2744808300155002556E005F0B8FD32
:103CD000D0B98320C4EBC40101EB8101654A02EB3A
:103CE000C101C5EBC50201EB820108720020C4EBE3
:103CF000C40101EB81015F4A02EBC101C5EBC502C2
:103D000001EB8201487219E08120C4EBC40101EB90
:103D10008101584A02EBC101C5EBC50201EB8201EA
:103D200008726320C4EBC40101EB8101514A02EB2C
:103D3000C101C5EBC50201EB820148726420C4EBEE
:103D4000C40101EB81014B4A02EBC101C5EBC50285
:103D500001EB82014860681C04EB84014D4AA03AE3
:103D600002EB41014855C1B204EB84024948503886
:103D700000EB42004155681C85B20A2DA6DB601C91
:103D800084B2082C90DB4FF498503B4908804FF4E4
:103D9000B850488005F051FD48B93F483649486061
:103DA0003E48C1F8A4003E48C1F8A80006E03A48E1
:103DB00031494860C1F8A400C1F8A8001420344972
:103DC000A1F8440164212C48816400202A49C86379
:103DD0000021294801644164816400202649C865A6
:103DE0000021254801664166816600202249C8609D
:103DF0000021214801614FF4FA601F498861642065
:103E0000C861002081F88C00022081F89800002011
:103E100081F88E0081F88F00012081F89500022042
:103E200081F8960081F89700002081F8900081F8D1
:103E300091009DF8920081F892009DF8930081F81E
:103E400093009DF8940081F894009DF8AC0081F8EF
:103E5000AC009DF8AD0081F8AD00012081F899001B
:103E6000002081F89A0001200449C87200200873DC
:103E70002CB070BDF426001034300010F430001067
:103E80008C330010E4300010DC33001004310010DB
:103E9000BC310010A435001040E201009D71FD040A
:103EA0008931FD04002085E000EB4001FB4A32F837
:103EB00031103A2960D028DC292953D018DC182980
:103EC0004BD00CDC112945D004DC082940D0102946
:103ED0006DD13EE012293ED0152968D13CE01A2967
:103EE0003CD01C293BD01E293AD024295FD138E090
:103EF0002A3910295BD2DFE801F03637385A5A39AF
:103F00003A5A5A3B5A5A5A3C3D3E59293ED00ADC4D
:103F1000A1F13B0109294AD2DFE801F02F3031320B
:103F20003334353637007A2935D008DC62292ED073
:103F300068292DD078292CD0792938D12AE07B29FD
:103F40002AD07C2929D08D2928D0B9292FD126E043
:103F500000BF00BF00BF00BF00BF00BF00BF00BF69
:103F600000BF00BF00BF00BF00BF00BF00BF00BF59
:103F700000BF00BF00BF00BF00BF00BF00BF00BF49
:103F800000BF00BF00BF00BF00BF00BF00BF00BF39
:103F900000BF00BF00BF00BF00BF00BF00BF0121C6
:103FA00000EB4002BD4B03EBC202918100BF00BF9A
:103FB000411C88B2C628FFF677AF7047F0B50346BC
:103FC0000C460025022C7BDA0820B54E307004BB6D
:103FD000C2EBC20000EB8000B24E06EBC000C3EBA8
:103FE000C30600EB8600007A20F08000C2EBC20618
:103FF00006EB8606AB4F07EBC606C3EBC30706EB23
:1040000087063072002002EB8206A74F07EB4606B8
:10401000F054012C19D1C2EBC20000EB8000A14E7C
:1040200006EBC000C3EBC30600EB8600007A40F04D
:104030008000C2EBC20606EB86069A4F07EBC60667
:10404000C3EBC30706EB87063072002133E0002084
:1040500002EB8206954F07EB46067054002602EBF2
:1040600082079248503000EB47004654C2EBC20032
:1040700000EB80008B4E06EBC000C1EBC10600EBED
:104080008600007A00F08000802812D1481CC7B258
:1040900002EB8200854E06EB400C28466E1CF5B202
:1040A0000CF8007002EB82068048503000EB4600AE
:1040B0004554481CC1B20A29C9DB0120F0BDFFE705
:1040C00000207B4E307000BFF8E770B502460B460B
:1040D0000024022A20DA0820714D28707548C25445
:1040E000002115E000257148A030455408304554A2
:1040F0007048405C012809D1481CC6B22546601CA6
:10410000C4B26A48A030465508304454481CC1B275
:104110000829E7DB012070BD0020654D287000BF35
:10412000F9E710B5FEF75FFB4FF4FA6061497C399F
:1041300088616420C861002081F88C00022081F829
:104140009800002081F88E0081F88F00012081F80E
:104150009500022081F8960081F89700002081F8F0
:10416000900081F89100022081F89200002081F8EF
:104170009300032081F89400002081F8AC0081F8BE
:10418000AD00012081F89900002081F89A000120FB
:104190004949C8720873002046497C3981F89B0060
:1041A000002144487C3880F89D1080F89E10002241
:1041B00011461046FFF702FF002211460220FFF7CA
:1041C000FDFE002211460420FFF7F8FE0621002024
:1041D000FFF77BFF07210020FFF777FF022036491A
:1041E0004870002134488170C170172101713B2152
:1041F000417102203049887100212F48C17101723C
:10420000172141723B21817210BD0020B1E000EB0B
:104210004001224A32F831103A2972D032DC1E298C
:104220007DD016DC122975D00ADCA1F108010A291B
:104230006AD2DFE801F06A9B9B9B9B9B6B6C6D6E67
:10424000152968D0182967D01A2966D01C295BD196
:1042500064E0322969D00CDC2C2963D004DC2429E9
:104260005ED0282950D15CE02F295CD030297DD147
:104270005AE033295AD0372959D0382958D039290A
:1042800074D156E0622960D026DC402958D01ADC6F
:10429000A1F13B01052969D210E00000981100103E
:1042A00058010010F42600108C3300100435001063
:1042B00088010010B0300010F4300010DFE801F089
:1042C0003B3C3D3E3F0041293BD042293AD0432967
:1042D00039D059294AD137E07B293BD008DC6829FD
:1042E00034D0782933D0792932D07A293ED130E0C0
:1042F000812930D087292FD08D292ED0B92935D1C9
:104300002CE017E00BE005E030E000BF00BF00BF8D
:1043100000BF00BF00BF00BF00BF00BF00BF00BFA5
:1043200000BF00BF00BF00BF00BF00BF00BF00BF95
:1043300000BF00BF00BF00BF00BF00BF00BF00BF85
:1043400000BF00BF00BF00BF00BF00BF00BF00BF75
:1043500000BF00BF00BF00BF00BF00BF012100EBD6
:104360004002124B03EBC202918100BF00BF411C0F
:1043700088B2C628FFF64BAF704738B504462146D1
:104380000BA016F00AF80F4800681CF05BFF20062F
:104390000D4908600D4800681DF037F86A464FF473
:1043A000C861084800681CF0D6FF38BD981100109D
:1043B0000D0A536574546F75426953746174203DDE
:1043C0002025750044000010B43500104C0000108A
:1043D00010B5022000DF1EF0EAF901204FF0402165
:1043E0000860FFF72FFAD54890F89600012801D110
:1043F0000BF0EEFDD2484089002804DDD04840890A
:10440000401ECF494881CF480088002804DDCD48B0
:104410000088401ECB490880CA484088002804DD37
:10442000C8484088401EC7494880C6488088002840
:1044300004DDC4488088401EC2498880C248B0F864
:104440000C02002806DDC048B0F80C02401EBE4930
:10445000A1F80C02BC48B0F80E02002806DDBA48EC
:10446000B0F80E02401EB849A1F80E02B748B0F8E5
:104470000602002806DDB548B0F80602401EB34922
:10448000A1F80602B148B0F80802002806DDAF48DE
:10449000B0F80802401EAD49A1F80802AB48B0F8D8
:1044A0000A02002806DDA948B0F80A02401EA74902
:1044B000A1F80A02A548B0F80C02002806DDA348BE
:1044C000B0F80C02401EA149A1F80C029E48B0F8B9
:1044D0000C02002806DD9C48B0F80C02401E9A49E8
:1044E000A1F80C029848B0F80E02002806DD9648A4
:1044F000B0F80E02401E9449A1F80E029348B0F89D
:104500001402002806DD9148B0F81402401E8F49BD
:10451000A1F814028D48B0F82202401C8B49A1F882
:1045200022020846B0F82602002805DD0846B0F849
:104530002602401EA1F8260285480078401C8449C6
:1045400008700846007864287EDB002008707E48EA
:10455000B0F81002002806DD7B48B0F81002401EBB
:104560007949A1F810027848B0F81202002806DD57
:104570007548B0F81202401E7349A1F81202734840
:10458000B0F80E02002806DD7048B0F80E02401E9A
:104590006E49A1F80E026D48B0F81002002806DD41
:1045A0006A48B0F81002401E6849A1F81002674836
:1045B000B0F81202002806DD6448B0F81202401E6E
:1045C0006249A1F812026148B0F86803002806DDCC
:1045D0005E48B0F86803401E5C49A1F868035B4878
:1045E000B0F86C0330B15948B0F86C03401E57491D
:1045F000A1F86C03554890F8160210F0010F06D090
:104600005248B0F81802401C5049A1F818024F480F
:10461000B0F81A02401C4D49A1F81A02084690F859
:10462000160210F0040F05D00846B0F81C02401C1A
:10463000A1F81C02454890F8160210F0080F08D0A7
:104640004248B0F81E0200E017E0401C3F49A1F8C4
:104650001E023E4890F8160210F0100F06D03B489C
:10466000B0F82002401C3949A1F820023748B0F8C0
:104670007603401C3549A1F876031EF0A6F8032006
:1046800000DF10BD10B5022000DF1EF090F8012001
:10469000304908601EF099F8032000DF10BD20B9F2
:1046A00001214FF04022516002E00121294A51606E
:1046B000704720B900214FF04022516002E00021F4
:1046C000244A51607047014631B94FF0402250688A
:1046D00040F00200506004E01E4A506840F00200C2
:1046E0005060704770B505460C46002018490870A8
:1046F00085B94FF04020846103204FF0402148618C
:104700003822AFF2333111201CF00DFA1CF007FAF9
:10471000012070BD012D0ED10E48846103200D498A
:1047200048613822AFF2A30112201CF0FCF91CF002
:10473000F6F90020EDE70120EBE70000343000102F
:10474000D86800102C000010F05C001024600010ED
:104750007C0000100080004070B504460D462146E4
:1047600043A01BF0C5F835B9042008F068FD2046C9
:1047700008F08BFD06E0032008F061FD204608F0FC
:1047800084FD00BF00BF08F079FD70BD2DE9F05F2A
:1047900081460E46924608F0B9FD08F048FD4FF0FC
:1047A000000B43E04FF00008002701214846FFF7C7
:1047B000D3FF07EB0900C7B2002408E0305D0021F9
:1047C000FFF7CAFF305D3844C7B2601CC4B254451D
:1047D000F4DB00213846FFF7BFFF28201DF02AFE3A
:1047E0002421254808F067FD0546294623A01BF033
:1047F0007FF8002406E02048015D1DA01BF078F83A
:10480000601CC4B2AC42F6DB08F00BFD80464146AA
:104810001EA01BF06DF8B8F1000F00D109E01420C4
:104820001DF008FE0BF1010000F0FF0BBBF1080FBB
:10483000B8DB00BFB8F1000F01D0404600E0681EB1
:10484000C0B2BDE8F09F0246242900DD24210020EB
:1048500004E0094B1B5C1354431CD8B28842F8DBBC
:1048600070470146242901DD012070470020FCE744
:104870002025303278000000545A00100D0A5220D2
:104880003D2025303278202D20000000200965725F
:1048900072203D20253032780000000070B50446BB
:1048A000092C22DD0020FF490860FF490870FF48FD
:1048B00004700020FD494870FD48007A022809D1A3
:1048C000084621F0F3FCC5B22A46F8499020FEF7CD
:1048D0006EFA2AE0F54821F0E9FCC5B22A46F34910
:1048E000F4480078FEF763FA1FE0F049EE4A1278C8
:1048F00088182246F0A121F04BFAED48007A0228F0
:1049000009D1EA4821F0D2FCC5B22A46E7499020F5
:10491000FEF74DFA09E0E54821F0C8FCC5B22A4689
:10492000E249E4480078FEF742FA70BD70B50446EB
:104930000B2C26DD0020DB4908600024DA490870D2
:10494000DEA1DA4821F08EFCD948007A022809D18C
:10495000D64821F0ABFCC5B22A46D4499020FEF7D8
:1049600026FA09E0D14821F0A1FCC5B22A46CF4978
:10497000D0480078FEF71BFACE480078FEF73FFDDE
:1049800018E10B2C70D1C8480078002867DDCE48AC
:10499000007801280DD10020CB490870C14800687B
:1049A0000A21B0FBF1F000EB80004000BD49086037
:1049B00025E0C648007801280BD10020C3490870C3
:1049C000B84800686421B0FBF1F04843B54908607D
:1049D00015E0BF48007801280AD10020BC490870C2
:1049E000B04800686421B0FBF1F0AE49086006E011
:1049F000AC4800680A21B0FBF1F0AA490860AA4956
:104A00000A780978491EA84B1970A8491144481E14
:104A1000B0A121F0BDF9A648007A022809D1A34827
:104A200021F044FCC5B22A46A0499020FEF7BFF908
:104A300009E09E4821F03AFCC5B22A469B499D48B0
:104A40000078FEF7B4F998490D7805EBD571994ACD
:104A5000127802EB6101C8B2FEF7D1FCAAE0002097
:104A60009D490870A6E0FFE78F4800789B490978C8
:104A7000884228DA0A2C33D19548007878BB9848C8
:104A8000007801282CD19249087000208F490870C5
:104A90008D49087084490A780978491C824B19703D
:104AA000824950188FA290A121F072F98048007AB3
:104AB000022809D17D4821F0F9FBC5B22A467B497D
:104AC0009020FEF774F975E0784821F0EFFBC5B24D
:104AD0002A46764977480078FEF769F96AE0FFE7E9
:104AE0000A2C67DA01207C4908707948007801288F
:104AF0001FD17648007801280DD17348007801282D
:104B000000D170BD012070490870664800682044DB
:104B10006449086015E001206C490870614800682C
:104B20006421484304EB840100EB41005D490860C7
:104B300007E05C48006800EB800004EB4000594946
:104B400008606A48007860B157490A780978491CBA
:104B5000554B19705549501865A263A121F018F9F9
:104B60000BE051490A780978491C4F4B19704F499D
:104B70005018224650A121F00BF94D48007A022826
:104B800004D04B4890F89200022809D1474821F000
:104B90008DFBC5B22A4645499020FEF708F909E089
:104BA000424821F083FBC5B22A464049414800787B
:104BB000FEF7FDF800BFA4E72DE9F0479AB00546DF
:104BC00000208DF83800FDF70EFE4FF00408C8F104
:104BD0000A094848405D401E46B20024C3E006EB87
:104BE00086004449A03901EB4000005DE8B306EBC4
:104BF000860001EB4000005D401E47B2C6EBC600D8
:104C000000EB80003C4901EBC000C7EBC70100EBA3
:104C10008100007A80280CD12548017A374850F865
:104C200021300093631C6A1C35A102A821F0B0F862
:104C300093E0C6EBC60000EB80002F4901EBC000FB
:104C4000C7EBC70100EB8100007A82280ED118481B
:104C5000017A2A48103850F821300093631C6A1CEE
:104C600027A102A821F094F877E07AE0C6EBC6000D
:104C700000EB8000204901EBC000C7EBC70100EB4F
:104C80008100007A83283FD10948017A1B4870309F
:104C900050F821300093631C6A1C19A102A821F06E
:104CA00077F85AE084010010800100108E5A00103D
:104CB000343000107F0100102578000020202020D3
:104CC00020202020000000005E0100105D01001087
:104CD0005C01001020000000880100105801001045
:104CE0005B0100102E000000257300005A01001027
:104CF0002A000000A4350010F4260010D82400106B
:104D00002564256425730000C6EBC60000EB800017
:104D1000FA4901EBC000C7EBC70100EB8100407A04
:104D200068B9F748017AF74850F821300093631CBE
:104D30006A1CAFF2340102A821F02AF80DE0F04815
:104D4000017AF048903850F821300093631C6A1CB7
:104D5000AFF2540102A821F01BF802A90EA821F01D
:104D6000C4FA601CC4B24445FFF639AF0EA821F066
:104D70009DFA00F0FF0A52460EA98020FEF717F8B0
:104D800000208DF83800B9F1000F7DDD042496E095
:104D900006EB8600DC4901EB4000005DF0B306EB5A
:104DA000860001EB4000005D401E47B2C6EBC60026
:104DB00000EB8000D14901EBC000C7EBC70100EB5D
:104DC0008100007A80280ED1CD48017ACD48703814
:104DD00050F821300093631C6A1CAFF2DC0102A87A
:104DE00020F0D6FF65E0C6EBC60000EB8000C349AB
:104DF00001EBC000C7EBC70100EB8100007A8228FD
:104E000010D1BF48017ABF48803850F82130009354
:104E1000631C6A1CAFF2181102A800E04DE020F0FC
:104E2000B7FF46E0C6EBC60000EB8000B34901EBDC
:104E3000C000C7EBC70100EB8100007A83280DD1C9
:104E4000AF48017AAF4850F821300093631C6A1CC8
:104E5000AFF2541102A820F09BFF2AE0C6EBC60077
:104E600000EB8000A54901EBC000C7EBC70100EBD8
:104E70008100407A78B9A248017AA24850F82130DE
:104E80000093631C6A1C00E028E0AFF28C1102A8BA
:104E900020F07EFF0DE09A48017A9A48903850F849
:104EA00021300093631C6A1CAFF2AC1102A820F001
:104EB0006FFF02A90EA821F018FA601CC4B209F114
:104EC00004008442FFF664AF0EA821F0EFF900F071
:104ED000FF0A52460EA99020FDF769FF884890F816
:104EE0009200012804D0864890F89200022875D1DB
:104EF000681CC5B200208DF838004FF00408C8F1D6
:104F00000A098148A030405D401E46B2002495E069
:104F100006EB86007C4901EB4000005DF0B306EB38
:104F2000860001EB4000005D401E47B2C6EBC600A4
:104F300000EB8000714901EBC000C7EBC70100EB3B
:104F40008100007A80280ED16D48017A6D48703852
:104F500050F821300093631C6A1CAFF25C2102A858
:104F600020F016FF64E0C6EBC60000EB800063494A
:104F700001EBC000C7EBC70100EB8100007A82287B
:104F800010D15F48017A5F48803850F82130009393
:104F9000631C6A1CAFF2982102A800E04CE020F0EC
:104FA000F7FE45E0C6EBC60000EB8000534901EB7D
:104FB000C000C7EBC70100EB8100007A83280ED147
:104FC0004F48017A4F4850F821300093631C6A1C07
:104FD000AFF2D42102A820F0DBFE29E0B2E0C6EB5C
:104FE000C60000EB8000454901EBC000C7EBC701DC
:104FF00000EB8100407A68B94148017A414850F895
:1050000021300093631C6A1CAFF20C3102A820F01F
:10501000BFFE0DE03A48017A3A48903850F8213006
:105020000093631C6A1CAFF2283102A820F0B0FE86
:1050300002A90EA821F059F9601CC4B24445FFF63C
:1050400067AF0EA821F032F900F0FF0A52460EA910
:10505000E020FDF7ACFE00208DF83800B9F1000F1C
:1050600070DD04249EE006EB8600274901EB40003A
:10507000005DF0B306EB860001EB4000005D401ED2
:1050800047B2C6EBC60000EB80001C4901EBC00034
:10509000C7EBC70100EB8100007A80280ED11848C9
:1050A000017A1848703850F821300093631C6A1C4C
:1050B000AFF2B43102A820F06BFE6DE0C6EBC60083
:1050C00000EB80000D4901EBC000C7EBC70100EB0E
:1050D0008100007A822819D10948017A094880386C
:1050E00050F821300093631C6A1CAFF2EC3102A827
:1050F00000E055E020F04CFE4EE00000F4260010E9
:10510000343000104825001004350010C6EBC600EE
:1051100000EB8000F84901EBC000C7EBC70100EBD2
:105120008100007A83280ED1F448017AF44850F8BF
:1051300021300093631C6A1CAFF23C4102A820F0AE
:1051400027FE29E03DE0C6EBC60000EB8000EA49FF
:1051500001EBC000C7EBC70100EB8100407A68B9E2
:10516000E648017AE64850F821300093631C6A1C37
:10517000AFF2744102A820F00BFE0DE0DF48017A87
:10518000DF48903850F821300093631C6A1CAFF25E
:10519000904102A820F0FCFD02A90EA821F0A5F87C
:1051A000601CC4B209F104008442FFF65CAF0EA893
:1051B00021F07CF800F0FF0A52460EA9F020FDF71E
:1051C000F6FD01201AB0BDE8F0872DE9F0479AB04E
:1051D000074600208DF83800FDF705FB4FF0040866
:1051E000C8F10A09C748C05D401E44B2002585E0E9
:1051F00004EB8400C349A03901EB4000405DB8B323
:1052000004EB840001EB4000405D401E46B230E0FC
:10521000C4EBC40000EB8000B74901EBC000C6EB53
:10522000C60100EB8100007D00280EDDB348017A45
:10523000B348703850F8213000936B1C7A1CAFF2E1
:10524000405102A820F0A4FD14E00A2E0AD004EB7D
:105250008400AC49A03901EB40023046711C4EB2CB
:10526000105C30B90026601C44B2082C01D101E06A
:1052700042E0CDE700BF2FE0C4EBC40000EB8000AC
:105280009D4901EBC000C6EBC60100EB8100007D2B
:1052900000280EDD9948017A9948703850F821307D
:1052A00000936B1C7A1CAFF2A85102A820F070FD8D
:1052B00013E00A2E0AD004EB84009249A03901EBD6
:1052C00040023046711C4EB2105C28B90026601CAA
:1052D00044B2082C00D100E0CEE700BF02A90EA81E
:1052E00021F003F80EA820F0E1FF00F0FF0A52467B
:1052F0000EA99020FDF75BFD681CC5B24545FFF681
:1053000077AF0EA820F0D2FF00F0FF0A52460EA998
:105310008020FDF74CFD00208DF83800B9F1000F1A
:105320007EDD042597E004EB84007649A03901EB8B
:105330004000405DF0B304EB840001EB4000405DB1
:10534000401E46B2C4EBC40000EB80006A4901EB8A
:10535000C000C6EBC60100EB8100007A80280ED1A8
:105360006648017A6648703850F8213000936B1C0B
:105370007A1CAFF2746102A820F00AFD65E0C4EB6C
:10538000C40000EB80005C4901EBC000C6EBC60125
:1053900000EB8100007A822810D15848017A5848E1
:1053A000803850F8213000936B1C7A1CAFF2B0614A
:1053B00002A800E04DE020F0EBFC46E0C4EBC400A6
:1053C00000EB80004C4901EBC000C6EBC60100EBCE
:1053D0008100007A83280DD14848017A484850F866
:1053E000213000936B1C7A1CAFF2EC6102A820F014
:1053F000CFFC2AE0C4EBC40000EB80003E4901EB87
:10540000C000C6EBC60100EB8100407A78B93B488A
:10541000017A3B4850F8213000936B1C7A1C00E065
:1054200028E0AFF2247102A820F0B2FC0DE033486E
:10543000017A3348903850F8213000936B1C7A1C65
:10544000AFF2447102A820F0A3FC02A90EA820F03C
:105450004CFF681CC5B209F104008542FFF663AF3A
:105460000EA820F023FF00F0FF0A52460EA990205C
:10547000FDF79DFC01201AB0BDE8F087704710B51C
:105480000446002020490860FFF7F8FF0020FDF7E0
:10549000A3FE1A48007A022805D107221BA19020FA
:1054A000FDF785FC05E0072218A11A480078FDF7F2
:1054B0007EFC00201849087016480078FDF79FFF11
:1054C0000120FDF7C8FF002014490870012014498D
:1054D000087010BD10B504460A2C27D11148007879
:1054E00020BB10480078401C0E4908700E48007818
:1054F000401C0D490870C9E0F4260010343000103B
:1055000048250010A4350010840100102020202020
:10551000202020007F0100105C0100108801001095
:105520007E01001044010010450100100E2C0ED128
:10553000FF48007801280AD1FD480078401CFC494A
:105540000870FC480078401CFA4908709EE00B2C5B
:105550000ED1F748007802280AD1F5480078401C9F
:10556000F3490870F3480078401CF24908708DE058
:105570000C2C0ED1EE48007803280AD1EC480078B4
:10558000401CEB490870EB480078401CE949087062
:105590007CE00A2C0ED1E648007804280AD1E448C1
:1055A0000078401CE2490870E2480078401CE1495C
:1055B00008706BE0082C0CD1DD480078052808D174
:1055C000DB480078401CDA4908700020D94908708F
:1055D0005CE0082C0CD1D6480078062808D1D448C5
:1055E0000078401CD24908700020D24908704DE074
:1055F0000B2C15D1CE480078072811D10020CC49BA
:105600000870CC490870CC48807B012803D0012069
:10561000C949887302E00020C7498873012010BD82
:105620000A2C0CD1C3480078052808D10020C049B5
:105630000870C0480078401CBE49087026E00A2C5B
:105640000CD1BC480078062808D10020B849087061
:10565000B8480078401CB749087017E00A2C10D1F0
:10566000B448007807280CD10020B1490870B1492E
:105670000870FEF756FDFEF7C8FD002012F0A1FAF3
:1056800004E00020AA490870AA4908700020C6E773
:10569000F8B500260120A9490860A949086013F05F
:1056A0007EF8022012F08DFA0020A6490860A64973
:1056B0000870A64908700820A54908700020A5496F
:1056C00008700120A44908700020A4490870A4496A
:1056D000087013F04AF848E06A460021A1480068C3
:1056E0001CF0D0F804469DF80000F0BB9948007803
:1056F00001287DD12078082855D006DC76D2DFE855
:1057000000F03E1F1770626C661B0D283FD008DC4E
:10571000092844D00A2852D00B284CD00C2865D137
:1057200031E00E2837D00F2841D0FF285ED15CE051
:105730002F20FFF7B3F85AE01820FFF7AFF856E034
:105740007E48006800EB4000874901EBC000C0883C
:10575000A0F54071E7390ED07848006800EB4000B2
:10576000814901EBC000C08800E0CAE373490860CA
:10577000012012F026FA00207649087037E019203F
:10578000FFF78CF833E00120FFF788F82FE00220C4
:10579000FFF784F82BE00320FFF780F827E00420D0
:1057A000FFF77CF823E00520FFF778F81FE00620DC
:1057B000FFF774F81BE00720FFF770F817E00820E8
:1057C000FFF76CF813E00920FFF768F80FE00020FE
:1057D000FFF764F80BE00BE008E02E20FFF75EF81F
:1057E00005E02120FFF75AF801E000E000BF88E360
:1057F0005848007802284ED1207810283FD2DFE8A0
:1058000000F02A17083E473E4809434246453F40BC
:1058100041443FE055480078002808DD53480078AF
:10582000401E5249087008460078FFF7C5F931E07C
:105830000020484908704148006800EB40004A4990
:1058400001EBC000C088A0F54071E73902D001200B
:1058500012F0B7F91EE04548007807280EDA4448F0
:1058600042490978491C405C40B140480078401CDE
:105870003E49087008460078FFF79EF90AE000BF2D
:1058800000BF00BF00BF00BF00BF00BF00BF00BF20
:1058900000BF00BF35E337480078F0B30120364938
:1058A0000870207808286BD006DC6AD2DFE800F0A8
:1058B000E1AD17DDF0EFEEAC0D286FD008DC092864
:1058C0006DD00A286CD00B286BD00C2859D1D1E0B0
:1058D0000E2867D00F2878D0FF2852D1F9E017485A
:1058E000006800EB4000204901EBC000006923493B
:1058F0000860084600688047012854D10F480068B6
:1059000000EB4000184901EBC0008088A0F5407111
:10591000E7393AD00948006800E0DDE0084908604E
:105920000648006800EB40000F4901EBC00029E089
:105930004401001045010010E43000107001001017
:105940006C0100108401001088010010800100101B
:10595000580100107D0100105B0100105A01001079
:105960004A01001050000010981100104901001069
:10597000A43500107E0100105F01001060010010CE
:105980008BE0A7E08088FF490860022012F019F937
:105990000020FD490860FD49087034E06EE078E0C1
:1059A00087E082E06EE0FAA1FB4820F05BFCFB4858
:1059B000007A02280AD1F84820F078FCC7B23A46AB
:1059C000F5490220FDF7F3F90AE06AE0F24820F019
:1059D0006DFCC7B23A46F049F1480078FDF7E7F9A7
:1059E00064201CF027FD0C20FEF7A0FF0020E749F3
:1059F0000870EA4890F89200022804D1002211466B
:105A00009020FCF757FF66E065E0E648007808BBA9
:105A1000DC48006800EB4000E34901EBC00040882F
:105A2000012808D1D748006800EB400001EBC00016
:105A3000C088D44908600120FDF729FD0820DB4912
:105A400008700020DA490870DA490870012012F065
:105A5000B8F809E00020D3490870CB490860CB4969
:105A600008700C20FEF762FF35E00B20FEF75EFFAA
:105A700031E030E00120FEF759FF2CE00220FEF774
:105A800055FF28E00320FEF751FF24E019E01CE059
:105A900013E00420FEF74AFF1DE00520FEF746FF55
:105AA00019E00620FEF742FF15E00720FEF73EFF53
:105AB00011E00820FEF73AFF0DE00920FEF736FF5F
:105AC00009E00020FEF732FF05E00A20FEF72EFF76
:105AD00001E000E000BF11E2207808287ED006DC5B
