:020000040000FA
:1000000000800010CD000000690C0200690C0200A5
:10001000690C0200690C0200690C0200690C020004
:10002000690C0200690C0200690C02006102000008
:10003000690C020000000000C9020000A5360200A1
:10004000690C0200794400002D470000690C020091
:10005000690C02009346020077F601003DD10000D2
:10006000D1D30000690C020055950100690C020013
:10007000690C0200690C0200690C0200690C0200A4
:10008000690C0200690C0200690C0200690C020094
:100090008D390000690C0200690C0200690C020035
:1000A000690C0200690C0200690C0200690C020074
:1000B000690C0200690C0200690C0200690C020064
:1000C000690C0200690C0200690C020000F002F8E1
:1000D00000F0B6F80AA090E8000C82448344AAF12C
:1000E0000107DA4501D100F0ABF8AFF2090EBAE82A
:1000F0000F0013F0010F18BFFB1A43F0010318475C
:10010000EC6B04000C6C04000A444FF0000C10F877
:10011000013B13F0070408BF10F8014B1D1108BF85
:1001200010F8015B641E05D010F8016B641E01F825
:10013000016BF9D113F0080F1EBF10F8014BAD1C75
:100140000C1B09D16D1E58BF01F801CBFAD505E093
:1001500014F8016B01F8016B6D1EF9D59142D6D3ED
:10016000704700000023002400250026103A28BF15
:1001700078C1FBD8520728BF30C148BF0B60704719
:100180006E2926F09184702926F02681662927F0B1
:100190006685652927F06385672927F060856129D1
:1001A000AFF3008003681B0A28BF41F08001692972
:1001B00025F0FC87642925F0F987752925F0F68755
:1001C0006F2926F0B180782926F0F280E92926F0FF
:1001D000CB84E42926F0C884F52926F0C584EF29CC
:1001E00026F0AE80F82926F0F1800368DB0928BFED
:1001F00041F08001632926F09484732926F09984C4
:10020000E32926F0A484F32926F0A984002070476E
:100210001FB527F01DFD9DE8030026F0B5FB26F075
:10022000CBFF04000020002127F0E2FC401C6060AE
:100230000020002127F0F2FCE0601FBD10B510BDCA
:1002400026F094FF1146FFF7E3FF01F033FF27F09C
:100250006DF803B4FFF7F2FF03BC21F044F900008E
:10026000052828BF70474FEA80007844D0F802F094
:10027000C90200008F0200002D0300004D030000A2
:100280006D0300004FF0010080F3148800DF0A4C7A
:100290004FF001052570774625F09EFEBE46074EBD
:1002A0003668074C2660D6F800D001BC05490860C6
:1002B000BDE8F00F704700BF8F260010A026001089
:1002C00098260010B42600104FF0080282F311881F
:1002D00000B525F081FE5DF804EB2DE9F00F0E4925
:1002E000086801B40D4A1268C2F800D00C4C0D4DDC
:1002F0002E7826700C4E3668084C2660D6F800D052
:1003000001BC086000280CBF0022082282F311887B
:10031000BDE8F00F704700BFB4260010982600100B
:100320008426001085260010A026001006490868C3
:1003300000F101004FF0080282F31188002808BF85
:1003400070470860704700BFB4260010064908686F
:1003500000281CBF01380860002818BF70474FF004
:10036000000282F311887047B42600104FF000009D
:1003700080F3148870474FF0010080F314887047B1
:1003800088476FF0FF0022F028F8000010B5002029
:1003900021F0B8FDFF490860002021F0B3FDFE49BF
:1003A0000860002021F0F5F8FC4908600221FC48B3
:1003B00021F03FFBFB490860002021F0EAF8FA49F0
:1003C00008601421F94821F034FBF9490860002045
:1003D00021F0DFF8F7490860002021F0DAF8F6494B
:1003E0000860002021F0D5F8F4490860002021F0D1
:1003F000D0F8F3490860002021F0CBF8F1490860FB
:10040000002021F0C6F8F0490860002021F0C1F872
:10041000EE49086010BD2DE9F041002600270020BC
:1004200003F068FB002003F0B6FB4FF49858E8484F
:10043000008800F47F4008F47F41884212D003F026
:1004400017FC012003F016FB012003F053FB0120F1
:1004500003F0A1FB012003F0D4FB00221146DD488C
:1004600025F0A1FA002003F005FB002003F042FB79
:10047000002003F090FB002003F057FB002003F066
:100480006FFB002003F0A2FB002003F0BAFB002466
:100490004FE00021D048015508300155CC487C3050
:1004A000005D012809D1601CC2B23046711CCEB279
:1004B000C9490A5401F1080006550027002534E017
:1004C000002004EB8401C44AA03A02EB41014855E4
:1004D000002104EB8402C048503800EB4200415533
:1004E000C4EBC40000EB8000BC4901EBC000C5EBCD
:1004F000C50100EB8100007A00F08000802812D155
:10050000681CC2B204EB8400B349A03901EB40037C
:100510003846791CCFB21A5404EB8401AE485038E7
:1005200000EB41004755681C85B20A2DC8DB601CF2
:1005300084B2082CADDBBDE8F0810121704700B525
:10054000034603E013F8010BFFF7F7FF18780028C4
:10055000F8D100BD1CB501200090A1480068002220
:100560006946036901A898479E490860009810B938
:100570004FF0FF30019001981CBD03468B4203DB16
:10058000934201DC012070470020FCE770B5002495
:100590007BE0002575E009F0A1F9F8B9C4EBC400CF
:1005A00000EB80008D4901EBC000C5EBC50100EBFD
:1005B0008100007A00F0030001280FD0C4EBC400D2
:1005C00000EB8000854901EBC000C5EBC50100EBE5
:1005D0008100007A00F00300032850D10520C4EB0D
:1005E000C40101EB81017D4A02EBC101C5EBC502EB
:1005F00001EB82014872C4EBC40000EB8000774934
:1006000001EBC000C5EBC50100EB8100007A00F0F2
:100610000300032833D1C4EBC40000EB80006F4912
:1006200001EBC000C5EBC50100EB8100007A00F0D2
:100630008000C4EBC40101EB8101684A02EBC101F7
:10064000C5EBC50201EB82010872C4EBC40000EBEC
:100650008000624901EBC000C5EBC50100EB8100E1
:10066000007A40F00100C4EBC40101EB81015B4A58
:1006700002EBC101C5EBC50201EB82010872681CE7
:10068000C5B20A2D87DB601CC4B2082C81DB70BDAB
:1006900001204F4981F8AD00704708B51BE06A465C
:1006A00001214348006821F081FA04469DF80000CA
:1006B00070B920884C49C86002E0022022F04EF850
:1006C00049490C313848006821F033F80028F4D14A
:1006D000022022F043F8E2E700B585B003230022B0
:1006E0004FF400714148CDE90323CDE9010109230D
:1006F00000F2FC720021AFF25D00009321F014FEC5
:1007000005B000BD08B500BF394835490860096823
:100710004868804719E014200090314800680122A1
:1007200069460369334898472E490860002405E06C
:100730003048005D30490855601CC4B200988442BE
:10074000F6DB00BF322022F009F8E4E708B500BF6D
:100750000122D105002024F05BFB4FF400010020B2
:1007600024F06AFB25A019F0ACFF4FF4167021F0BD
:10077000F5FF0CF071FD0CF056FE19F061FF1EF054
:10078000A5FF20A019F09DFF0020204948800021EE
:100790001E483DE03C0000104000001048000010E2
:1007A000340000105000001054000010DC35001020
:1007B000580000105C0000104C00001044000010B5
:1007C0006000001064000010680000106C00001051
:1007D0003430001000400240A4350010F426001010
:1007E0007400001070000010B43500102C5200107E
:1007F000BC260010405A00102C5A00100D0A3D3D36
:10080000310000000D0A3D3D3200000010000010D4
:10081000007861F38710FF4908700021FD480078D7
:1008200061F3C500FB490870FB488069FB4908601B
:1008300009F057F809F0AEF8F9A019F042FFFA48AC
:10084000006A40F00050F84908620846006A40F02B
:10085000805008620846806B40F00050886308466C
:10086000806B40F080508863022021F077FF0DF00C
:1008700089F8EEA019F025FF09F033FA09F07AFAA9
:1008800009F0F4F9EBA019F01CFF09F092FA09F055
:10089000AAFA19F001F809F0E1F9E8A019F011FF3E
:1008A000E148006A40F00050DF4908620846006AEB
:1008B00040F0805008620846C06B40F00050C863AA
:1008C0000846C06B40F08050C863022021F046FF0C
:1008D00011F02AF8142021F041FF10F023FED9A0D6
:1008E00019F0EFFE09F084FA10F07CFAD74800689E
:1008F00021F0CFFBD6A019F0E4FEC74890F8910094
:10090000012805D11CF044F9D448006821F0C1FB4E
:10091000D3A019F0D6FEC04890F89300012801D169
:100920001EF089FE20F057F883E2022021F016FF26
:10093000B94890F8AC0010B36A461421CB4800685F
:1009400020F09DFE04469DF8000018B9206800F0D4
:10095000FF0801E04FF0000840461FF0DCFD1FF0EB
:1009600064F930B1AB48408840F48040A9494880E0
:1009700005E0A848408820F48040A6494880A64861
:1009800090F89300012812D1B94991F8E2021DF0C4
:10099000B4FFC7B2FF2F0AD0B648876000F1080144
:1009A000B548006821F06AF9282021F0D7FE09F047
:1009B00055F910F0B5FA012806D096480078C0F332
:1009C000C20010F0010F01D010F0D8FD142021F06A
:1009D000C5FE0FF0CCFD012806D08E480078C0F38C
:1009E000C20010F0020F01D010F040FA89484078A0
:1009F00030B9894890F89100022801D11CF038F8EC
:100A000009F02CF9834800788009012803D11420CB
:100A100021F0A4FE0DE26A4614219848006820F0F7
:100A20002EFE04469DF80000D8BB80212068B1EB63
:100A3000106F7AD87C48006A40F000507A4908620A
:100A40000846006A40F0805008620846806B40F01B
:100A5000005088630846806B40F080508863022015
:100A600021F07CFE2068000E802806D0812809D065
:100A7000822817D0852859D13BE02168C8B20DF0F3
:100A80000CF854E07EA019F01CFE002161480078AB
:100A900061F387105F4908702168C8B20DF07FF8D4
:100AA00045E06FE16048006A40F000505E4908622E
:100AB0000846006A40F0805008620846C06B40F06B
:100AC0000050C8630846806B40F080508863022065
:100AD00021F044FE00214F48007861F387104D4912
:100AE00008702268C2F30351C2F313000EF09EF89F
:100AF0001DE0206800F00103C0F34002C1B264A011
:100B000019F0DFFD2068C0F34000594981F8E30285
:100B1000206800F0010081F8E4020A4692F8E4122D
:100B200092F8E30220F00FF801E01AE000BF00BFE6
:100B30003D48006A40F000503B4908620846006AA0
:100B400040F0805008620846C06B40F00050C86317
:100B50000846C06B40F08050C863022021F0FEFDC3
:100B600010E12068000E092853D2DFE800F0051DCF
:100B7000C142E61EC21318004CA019F0A2FD0021CC
:100B80002448007861F3871022490870206810F02B
:100B900021FFF6E04A4988880FF059FFF1E0484903
:100BA00088880FF0B0FFECE000BF09F031F90521B3
:100BB0002068B1EB106F1BD100202E494860091D41
:100BC0004048006820F0B5FD1248407801280BD15C
:100BD00010480078C0F3C20020F001000D490978E8
:100BE00060F3C5010B480170142021F0B7FDC8E087
:100BF00000BF09F015F900201E494860091D314861
:100C0000006820F096FD0348407801286CD103214C
:100C10005AE0B5E010000010343000101C00001045
:100C20000D0A3D3D3300000000C009200D0A3D3D86
:100C3000340000000D0A3D3D350000000D0A3D3D29
:100C4000360000000D0A3D3D370000003C0000105A
:100C50000D0A706320696E69740000004000001086
:100C60000D0A496E69744F4B0000000068000010C7
:100C700024600010B4350010500000104C0000102B
:100C80000D0A434D445F474F4F44535F4F55540047
:100C90000D0A414344432C2523782C6C65643D2583
:100CA000642C646973743D25640000000D0A434D93
:100CB000445F434F494E5F4348414E474500000063
:100CC000E2340010440000102068B1EB106F0BD12B
:100CD000FF480078C0F3C20020F00200FC49097808
:100CE00060F3C501FA480170142021F037FD48E097
:100CF00000BF09F09DF806212068B1EB106F1BD1F1
:100D00000020F4494860091DF348006820F011FDF7
:100D1000EF48407801280BD1ED480078C0F3C200BD
:100D200040F00100EA49097860F3C501E848017024
:100D3000142021F013FD24E000BF09F089F8002001
:100D4000E4494860091DE448006820F0F2FCE048EE
:100D50004078012810D104212068B1EB106F0BD12D
:100D6000DB480078C0F3C20040F00200D84909789F
:100D700060F3C501D6480170142021F0EFFC00E0BB
:100D800000BF00BFD54890F89100012850D1142031
:100D900021F0E4FC6A461421D148006820F06FFC81
:100DA00004469DF8000078BB2068000E102822D071
:100DB00006DC052809D006280DD00C2836D12BE0FA
:100DC00011280ED0842831D11FE0002211460520C1
:100DD0001BF084FD2BE00022114606201BF07EFD57
:100DE00025E0206820F07F4020600021084622682E
:100DF0001BF08AFC1BE0206820F07F402060002070
:100E000021681BF042FC12E012E01BF0C1FEB54865
:100E1000006821F03EF90AE02068C0F30745206829
:100E2000C6B2314628461BF0FAFD00E000BF00BF05
:100E300000BF7AE592B000200990089000BF0690AC
:100E400004900390029000BFA448007A022805D1C4
:100E5000002002F033FA01F0CAFC01E001F0C7FC07
:100E600000209B49487001219F48007861F30300EE
:100E70009D4908700020487000219B48007861F36C
:100E800007109949087000219148007861F300002B
:100E90008F490870F0200F909448D0F874610121B8
:100EA0008B48007861F382008949087000219048DE
:100EB00024F098FD8F4908600846006890B1874883
:100EC00080690968B1EB400F0CD28A4800688749F5
:100ED000C1F87001012002F094FE002211468448FE
:100EE00024F061FD0020834908600E900F900220DD
:100EF0007A4981F8920001207F490873FFF7C8FB07
:100F000001207D49C87201F0D3FB7C48006C40F49D
:100F100080707A4908640846806D40F48070886566
:100F20007749002003F032FC002003F00CFC02F0B3
:100F300065FD7248006820F4800070490860142044
:100F400021F00CFC09F040FD09F0D2FC11AA4FF48D
:100F50007A616C48006821F04BF8604890F8930083
:100F6000012801D11DF05FFD6348C07A08B1FFF789
:100F70000DFB0020109040F6B8306349888063482C
:100F8000006820F033FD4FF00108029880BB00BFDD
:100F90005F4890F8E40204905D4890F8E302039003
:100FA00055484078002801DD01200490524880799E
:100FB000002801DD012003904FF00541039801EB6B
:100FC0004001049808440590424905980860424849
:100FD000006820F0CBFA3F494E48006820F0A9FB9A
:100FE000642021F0BBFB4CA0DDE9031219F069FB82
:100FF000FDE3FFE15048006810F0005F31D10220AE
:1010000021F0ACFB4C48006810F0005F28D10120B3
:101010002F49487008460078C0F38000012808D1A5
:1010200003F0FFF900212A48007861F38200284983
:1010300008702A4890F8910001280CD128480068CF
:1010400020F094FA4FF0A0602249886118312448BA
:10105000006820F06EFB012002F01DFA04F06CFB2A
:10106000C8E11B48407801281AD1FF201849487070
:101070001A4890F8910001280CD11948006820F016
:1010800075FA4FF0C0601349886118311448006840
:1010900020F04FFB03E04FF47A7021F05FFBFAE79A
:1010A0000E4890F89100012809D1099838B911AA81
:1010B00000210C48006820F09BFF012009900020CF
:1010C0000349487008464088C0BB9DF8380036E0A8
:1010D00010000010B435001044000010343000102F
:1010E00060000010400000100E000010BC31001025
:1010F0000040024018000010F430001000C0092029
:101100007FA903003C0000102C00001050000010CC
:10111000246000104C0000100D0A20312E4C454474
:101120004465763D25642C436F6D7072657373441E
:1011300065763D256400000094C00920C7E098B999
:10114000B8F1010F02D14FF0000801E04FF00108A3
:10115000FF48B0F8140238B94FF4FA60FC49A1F81E
:101160001402404609F06BFCFA4890F8AC00C8B194
:1011700011AA0121F848006820F081FA82469DF802
:10118000440078B9BAF80000C0B2079007981EF082
:1011900035FCC0B20D900D98FF2801D00D980E902F
:1011A00000BF28E1ED484069C0F3805040BBEC48E7
:1011B000006828B3E74890F89600022820D0E94854
:1011C0000078C0F30000012804D0E24890F88F00B6
:1011D000002815DDDF4890F88F30E2480093007852
:1011E000C0F30003DD484069C0F3805080F0010186
:1011F000DB480268DCA019F064FA01200690FAE0EE
:1012000011AA0121E448006820F0D0FC8246BAF817
:1012100000509DF8440030B9012002F03CF9142040
:1012200021F09CFAE7E011AA0121DC48006820F0D7
:1012300026FA8246BAF800509DF8440018B90120F9
:1012400002F029F9D7E0D648408848B99DF838001F
:1012500009F0D7F80E909DF8380008B1FF25CAE0D4
:10126000CF48808828B940F6B830CD4988800BF047
:1012700022FBBB48006898B9BA480078C0F38000E8
:1012800001280DD108F01AFB10B9C648807838B98A
:10129000C448407810F0020F02D0042003F0C1F8D7
:1012A000AC4890F89100022809D10BF0AEFD07463A
:1012B000EE2F01D00E979EE0142021F04FFAA548A2
:1012C00090F89300012801D11DF0ADFB92E0A448F5
:1012D000006850B1FF250021B348007861F3030096
:1012E000B149087008200E9085E09E480078C0F350
:1012F0008000012809D100219A48007861F382001A
:1013000098490870012003F08CF8A848D0F87401BF
:10131000B0420CD9A548D0F87401801BA349C1F88C
:1013200074010846D0F87461012002F06AFC0120C3
:1013300002F0B1F840F6B8309949888058E009F0D9
:10134000B2F89B48006810F0005F12D100200E90A8
:1013500001219548007861F303009349087000204B
:10136000487000219048007861F307108E4908709A
:101370003FE07C48408820BB00200E9001218A4835
:10138000007861F30300884908700020487000214C
:101390008548007861F3071083490870012171487E
:1013A000007861F382006F490870022003F039F879
:1013B0007948006820F01AFB00206549A1F8140262
:1013C00017E07748808828B940F6B830744988809B
:1013D0000BF071FA5F4890F89100022808D10BF0E9
:1013E00014FD0746EE2F00D00E97142021F0B6F919
:1013F000A5E700BFFEE500BF15F4004F39D000207F
:101400006949487000216848007861F3071066490F
:101410000870C5F30E0BFF25514800685844504929
:10142000086050480078C0F38000012811D1494875
:101430008069096888420AD800214A48007861F327
:10144000820048490870012002F0EBFF01E008F03B
:1014500035FA9DF83800062804D04148006808B1E4
:1014600001200E903E4800210268524824F09BFA69
:101470002CE02812002822DD2812012802D00228A0
:101480001BD102E009200E9018E03548006898B1A1
:1014900034480078C0F30000012804D02D4890F8AB
:1014A0008F00002808DD2B4890F8AC0010B11EF02A
:1014B000D5FB08B908200E9000E000BF06E00CAA9A
:1014C00029469DF8380008F007FD0E90069801287F
:1014D00003D10020069008200E90F9E39DF8380013
:1014E00010909DF838000F2866D2DFE800F065BA4A
:1014F000FEFDFCFBFAF9F8F78D9C08F67D00002153
:101500002948007861F3030027490870114890F8D2
:10151000930010B9084640780C900AAA0BA99DF8D0
:1015200030000CF06DF901284DD1EAB29DF8281079
:101530009DF82C0009F081FC642021F00FF90020B7
:101540000E901548006820F01AFB0121164834E07F
:1015500024600010343000106C00001000C009201E
:1015600018000010100000100D0A52657475724BBF
:1015700065793D25642C675F416D6F756E743D25FF
:10158000642C6861766573616C653D25642C7472AA
:10159000616E733D2564000050000010540000107F
:1015A0002C000010140000100E000010BC310010C0
:1015B00094C0092000400240F0E3007861F303008A
:1015C000FF49087001E00B200E900020FC49487094
:1015D0000021FB48007861F30710F94908700020EA
:1015E000F849A1F8140208E20021F548007861F3F7
:1015F0000300F349087009F00AFD4FF4C87021F0A8
:10160000ADF80D200E90F8E10121ED48007861F36E
:101610000300EB4908704FF4FA70EB49488009F079
:101620004BFD0E90E9E10021E548007861F30300ED
:10163000E349087009F0BFFE4FF4C87021F08EF83E
:101640000020DF4948700021DD48007861F3071071
:10165000DB4908700A200E90DC48006820F08FFA01
:10166000CBE10121D648007861F30300D44908702A
:1016700047F23050D449488009F026FFD44800781A
:10168000C0F38000012827D0D24890F8AC0010B1F8
:101690001EF0E4FA00BBD0480068D04909688842CF
:1016A0000AD20121CA48007861F38200C849087053
:1016B000022002F0B6FE0FE0C6488069C6490968FC
:1016C000884209D90121C248007861F38200C049EB
:1016D0000870062002F0A5FE08E07BE319E0F8E2BE
:1016E00046E2E2E282E289E11CE160E0B94890F87A
:1016F0009300012801D11DF096F9B64890F8AC008E
:10170000012805D11EF0AAFA10B910201EF090FA97
:1017100073E10021AA48007861F30300A84908702A
:101720000AF077F84FF4C87021F018F80121A448A6
:10173000007861F30300A249087047F23050A249D3
:101740004880A548006808B109F0BEFEA0480078AE
:10175000C0F38000012827D09E4890F8AC0010B15B
:101760001EF07CFA00BB9C4800689C4909688842CE
:101770000AD201219648007861F3820094490870EA
:10178000022002F04EFE0FE09248806992490968FB
:10179000884209D901218E48007861F382008C4982
:1017A0000870062002F03DFE0F980E90D9E300214C
:1017B0008348007861F3030081490870854890F8F8
:1017C000930010B9084640780C9000207C4948707E
:1017D00000217B48007861F30710794908707D4843
:1017E00090F89100012823D10AAA0BA900E0D1E3C7
:1017F0009DF830000CF004F8794800681FF0B6FE40
:101800009DF82C00C0EBC00000EB8000754901EB97
:10181000C0009DF82810C1EBC10130F821007249C9
:1018200008447249886118316D4800681FF081FFD3
:101830006648006820F0A3F90AAA0BA99DF83000B9
:101840000BF0DEFF01286AD19DF82C00C0EBC00030
:1018500000EB8000634901EBC0009DF82810C1EB4C
:10186000C10100EB8100007A00F07F00012809D05F
:1018700001215748007861F30000554908700320A2
:101880000E904EE09DF82C00C0EBC00000EB8000F5
:10189000544901EBC0009DF82810C1EBC10100EBD9
:1018A000810040684C490968884235D80121484880
:1018B000007861F3000046490870464890F8AC0093
:1018C00038B31EF0CBF9002823DD424890F8AD0074
:1018D00090B19DF82C10C1EBC10101EB8101414A8F
:1018E00002EBC1019DF82820C2EBC20201EB82018C
:1018F00048681EF0CEF902E000201EF0CAF901206F
:101900001EF096F94FF4FA6201210EA81EF0ADF810
:1019100007E004200E9004E005200E9001E00B206B
:101920000E901EE300212648007861F3030024494D
:1019300008709DF828109DF82C000AF010F84FF45C
:10194000C87020F00BFF01211D48007861F30300EF
:101950001B49087047F230501B49488009F0B4FD1C
:101960001B480078C0F38000012827D0194890F860
:10197000AC0010B11EF072F900BB1748006817499F
:10198000096888420AD201211148007861F3820077
:101990000F490870022002F044FD0FE00D488069F5
:1019A0000D490968884209D901210948007861F385
:1019B000820007490870062002F033FD034817E053
:1019C0000E000010246000102C00001050000010C9
:1019D0001000001034300010180000101C0000101F
:1019E00060000010F42600100000020CB435001056
:1019F000006820F0C4F801200E90B2E20021FF48F8
:101A0000007861F30300FD4908700AF033F8FC48E0
:101A10000078C0F38000012809D10021F84800783F
:101A200061F38200F6490870012002F0FAFCF448E4
:101A300000788009022801D10AF085FC9DF8282051
:101A40009DF82C109DF830000AF087F80E90ED48B4
:101A500000210268EC4823F0A6FFE9480078C0F3B3
:101A60004000012849D09DF82C00C0EBC00000EBDD
:101A70008000E64901EBC0009DF82810C1EBC101D0
:101A800000EB8100C068401C9DF82C10C1EBC10127
:101A900001EB8101DD4A02EBC1019DF82820C2EB78
:101AA000C20201EB8201C860D948D0F86801401C2D
:101AB000D749C1F868019DF82C00C0EBC00000EBCD
:101AC0008000D24901EBC0009DF82810C1EBC10194
:101AD00000EB81008069401C9DF82C10C1EBC10116
:101AE00001EB8101C94A02EBC1019DF82820C2EB3C
:101AF000C20201EB820188612EE09DF82C00C0EB50
:101B0000C00000EB8000C14901EBC0009DF8281027
:101B1000C1EBC10100EB81000069401C9DF82C1055
:101B2000C1EBC10101EB8101B84A02EBC1019DF893
:101B30002820C2EBC20201EB82010861B448D0F850
:101B40006C01401CB249C1F86C010021AC4800781E
:101B500061F34100AA490870AE4890F8930001284B
:101B600001D11CF060FFAC48006820F008F8F8E1F3
:101B70000121A248007861F30300A049087047F2F0
:101B80003050A649488009F09FFC9D480078C0F37A
:101B90008000012827D09F4890F8AC0010B11EF0BB
:101BA0005DF800BB974800689D49096888420AD2E1
:101BB00001219348007861F3820091490870022066
:101BC00002F02FFC0FE0934880698E490968884233
:101BD00009D901218A48007861F382008849087098
:101BE000062002F01EFC01200E90BAE1002183487D
:101BF000007861F30300814908709DF82C10C1EB57
:101C0000C10101EB8101814A02EBC1019DF828204D
:101C1000C2EBC20201EB820148680AF099F94FF465
:101C2000C87020F09BFD01217448007861F3030027
:101C30007249087047F230507849488009F044FCF6
:101C40006F480078C0F38000012827D0714890F8D1
:101C5000AC0010B11EF002F800BB6A480068704981
:101C6000096888420AD201216548007861F3820040
:101C700063490870022002F0D4FB0FE065488069D8
:101C800060490968884209D901215D48007861F3FB
:101C900082005B490870062002F0C3FB5E480068C2
:101CA0001FF06DFF01200E905BE101215348007889
:101CB00061F303005149087047F23050574948809A
:101CC0009DF828109DF82C000AF0B8F90E9048E114
:101CD0005DE1504890F89600002872DD00214748E9
:101CE000007861F303004549087000204D49086001
:101CF0000AF0F3F9424800788009022801D10AF07D
:101D000037FB3F480078C0F38000012809D100214B
:101D10003B48007861F3820039490870012002F0E5
:101D200080FB0AF065FB374800210268364823F043
:101D30003AFE3448006880B3324800683449C1F83C
:101D40007001344890F89100012823D1314890F86F
:101D50009800012807D10846D0F8700100EB8000F8
:101D60004000089008E02B4890F89800022803D122
:101D70002748D0F8700108902B4800681FF0F6FB48
:101D8000089800F188502949886118312648006870
:101D90001FF0CFFC0AF002FC06E000E0D9E0214889
:101DA000006808B10AF0CCFC15480078C0F3400088
:101DB000012806D100211248007861F34100104942
:101DC00008701B4817F082FDC82020F0C7FC0D20CA
:101DD0000E90C6E000210948007861F3030007492E
:101DE00008700B48D0F87401B04226D90848D0F8E2
:101DF0007401801B0649C1F874011BE00E0000103D
:101E0000100000101800001000400240F4260010DE
:101E1000BC31001034300010500000102C000010B5
:101E20001C0000102806001060000010B4350010DF
:101E3000983100100846D0F87461012001F0E1FEED
:101E40000020AF490860002404E00020AD49085597
:101E5000601CC4B2202CF8DB002405E00021A94856
:101E600074300155601CC4B2202CF7DB002414E050
:101E70004FF000090CE0002104EB8402A14820305F
:101E800000EB420000F8091009F1010000F0FF0921
:101E9000B9F10A0FEFDB601CC4B2082CE8DB0020AC
:101EA00098490867012001F0E5FD0AF0A0FCC82070
:101EB00020F054FC00200E909349A1F81402012157
:101EC0009248007861F3030090490870002190481F
:101ED000007861F300008E490870002211468D4899
:101EE00023F061FD8A480078C0F3800001280AD001
:101EF000022002F096FA01218548007861F3820001
:101F00008349087019E007F0D9FC10B9824880783D
:101F100040B98148407810F0020F03D0042002F04D
:101F200080FA0AE07C48807838B17B48407810F02D
:101F3000020F02D1032002F074FA784890F8AC0046
:101F4000012805D11DF08AFE10B911201DF070FE88
:101F500007E001216D48007861F303006B490870C8
:101F600000BF00BF10980F909DF8380008B90020FE
:101F70000F909DF83800012800D10AE09DF8381034
:101F80001098884202D09DF8380000B901E0FFF7B0
:101F9000A5BA00BFFFF72DB886B000BF0121002011
:101FA00023F0B1FD5E4823F0E4FD23F02BFE5D48F5
:101FB00000680A21B0FBF1F400BF601E0400FCD1F0
:101FC00023F045FE23F035FE17F066FC23F0C6FD36
:101FD0005548007B08B9FEF71EFA23F0BFFDFEF757
:101FE000D5F966E0032300224FF400714F48CDE994
:101FF0000323CDE90101072300F2FC72C8214C48FC
:10200000009320F091F923F0A9FD032300224FF45F
:1020100000714848CDE90323CDE90101052300F211
:10202000FC7200214448009320F07EF923F096FDD5
:10203000032300224FF400714048CDE90323CDE98A
:102040000101092300F2FC7200213D48009320F0B9
:102050006BF923F083FD032300224FF4007139480C
:10206000CDE90323CDE90101082300F2FC72002130
:102070003548009320F058F919E023F06FFD24480B
:102080004078FF2810D1072020F0A7F9052020F084
:10209000A4F9082020F0A1F9092020F09EF90020E1
:1020A0001B494880487003E0C82020F057FBE4E754
:1020B00000BF97E710B51EF0D9FD1EF0A1FD01226B
:1020C000D105002022F0A4FE4FF40001002022F0F0
:1020D000B3FE01225102022022F09AFE4FF4007159
:1020E000022022F0B3FE20F0DEFC0623174A002176
:1020F000AFF25B1020F0D0F820F098FD002010BD6A
:102100001800001004310010246000100E000010B0
:102110001000001000400240140000103430001085
:10212000002D3101EC260010E43000102C3A001094
:10213000350E00002C4200104D0700002C520010FC
:102140009B0600002C4A001005070000283A0010EA
:10215000FF49097A022901D1962000E0FA2000BF48
:10216000411E89B20800FBD17047F94A127A022A4F
:102170000BD1F84A12680623B2FBF3F24FF4FA636C
:10218000B2FBF3F202FB00F10AE0F24A1268062306
:10219000B2FBF3F24FF47A73B2FBF3F202FB00F1FD
:1021A00000BF4A1E1100FCD17047EA4A126806239C
:1021B000B2FBF3F202FB00F100BF4A1E1100FCD19A
:1021C00070472DE9F04106460F46022000DFF82453
:1021D0000FB144F00204DE48007A022803D1012046
:1021E000FFF7C3FF02E00320FFF7BFFFDA48006EEE
:1021F00040F00070D84908660846806F40F00070D3
:1022000088670846006A40F0806008620846C06B34
:1022100040F08060C863FFF79BFF002539E014F0B1
:10222000800F0BD0CC48006A40F08070CA49086229
:102230000846806B40F0807088630AE0C648006AF8
:1022400040F08070C44908620846C06B40F080705E
:10225000C863FFF77DFFC048006A40F08060BE4958
:1022600008620846C06B40F08060C863FFF770FFEB
:10227000B948006A40F08060B74908620846806B40
:1022800040F080608863FFF763FF6006040E681CFF
:10229000C5B2082DC3DB344604F0F004002539E054
:1022A00014F0800F0BD0AC48006A40F08070AA494F
:1022B00008620846806B40F0807088630AE0A64898
:1022C000006A40F08070A44908620846C06B40F084
:1022D0008070C863FFF73CFF9F48006A40F0806051
:1022E0009D4908620846C06B40F08060C863FFF7F4
:1022F0002FFF9948006A40F08060974908620846BD
:10230000806B40F080608863FFF722FF6006040E58
:10231000681CC5B2082DC3DB34462007040E002517
:1023200039E014F0800F0BD08B48006A40F08070C9
:10233000894908620846806B40F0807088630AE033
:102340008548006A40F08070834908620846C06B87
:1023500040F08070C863FFF7FBFE7F48006A40F0E2
:1023600080607D4908620846C06B40F08060C863A9
:10237000FFF7EEFE7848006A40F080607649086218
:102380000846806B40F080608863FFF7E1FE6006DE
:10239000040E681CC5B2082DC3DB6F48006E40F008
:1023A00000706D4908660846C06F40F00070C8674D
:1023B000032000DFBDE8F081F0B506460F46F824A3
:1023C0000FB144F002040320FFF7CFFE6248006E15
:1023D00040F00070604908660846806F40F0007069
:1023E00088670846006A40F0007008620846C06BC3
:1023F00040F00070C863FFF7ABFE002539E014F031
:10240000800F0BD05448006A40F080705249086237
:102410000846806B40F0807088630AE04E48006A8E
:1024200040F080704C4908620846C06B40F08070F4
:10243000C863FFF78DFE4848006A40F000704649C7
:1024400008620846C06B40F00070C863FFF780FE6A
:102450004148006A40F000703F4908620846806BBE
:1024600040F000708863FFF773FE6006040E681C7E
:10247000C5B2082DC3DB344604F0F004002539E072
:1024800014F0800F0BD03448006A40F0807032495D
:1024900008620846806B40F0807088630AE02E482E
:1024A000006A40F080702C4908620846C06B40F01A
:1024B0008070C863FFF74CFE2748006A40F0007048
:1024C000254908620846C06B40F00070C863FFF7FA
:1024D0003FFE2148006A40F000701F49086208462C
:1024E000806B40F000708863FFF732FE6006040ED8
:1024F000681CC5B2082DC3DB34462007040E002536
:1025000040E014F0800F0BD01348006A40F0807058
:10251000114908620846806B40F0807088630AE0C9
:102520000D48006A40F080700B4908620846C06B95
:1025300040F08070C863FFF70BFE0748006A40F068
:102540000070054908620846C06B40F0007005E065
:1025500034300010EC26001000C00920C863FFF7DB
:10256000F7FDF848006A40F00070F6490862084636
:10257000806B40F000708863FFF7EAFD6006040E90
:10258000681CC5B2082DBCDBEE48006E40F0007040
:10259000EC4908660846C06F40F00070C867F0BD9F
:1025A000002132E0E74A126E42F00072E54B1A66F3
:1025B0001A46D26F42F00072DA6710F0800F0AD12B
:1025C0001A46126A42F080721A621A46D26B42F0C0
:1025D0008072DA630AE0DB4A126A42F08072D94BF9
:1025E0001A621A46926B42F080729A63D54A126E52
:1025F00042F00072D34B1A661A46926F42F0007294
:102600009A674206100E4A1CD1B20829CADB7047ED
:1026100010B50446CB48006A40F00070C949086212
:102620000846806B40F0007088630846006A40F0FE
:10263000806008620846C06B40F08060C863204636
:10264000FFF7AEFFBF48006A40F08060BD490862F6
:102650000846806B40F0806088630846006A40F05E
:10266000007008620846C06B40F00070C86310BD7F
:1026700010B5E220FFF7CCFF042020F06FF82620F1
:10268000FFF7C6FF2F20FFF7C3FFEA20FFF7C0FFC9
:102690008120FFF7BDFF7220FFF7BAFFC820FFF7C8
:1026A000B7FF4020FFF7B4FFAF20FFF7B1FF10BD29
:1026B00010B5A54890F89200022802D1FFF7D8FF84
:1026C00040E0302400212046FFF77BFD0624002156
:1026D0002046FFF776FD0C2400212046FFF771FD10
:1026E000012400212046FFF76CFD02240021204632
:1026F000FFF767FD802400212046FFF762FD924826
:1027000090F8920001281DD1302400212046FFF7C7
:1027100053FE062400212046FFF74EFE0C24002124
:102720002046FFF749FE012400212046FFF744FE22
:10273000022400212046FFF73FFE8024002120468E
:10274000FFF73AFE10BD10B504467E48006A40F01F
:1027500000707C4908620846806B40F00070886316
:102760000846006A40F0806008620846806B40F0CE
:10277000806088632046FFF713FF7248006A40F0CC
:102780008060704908620846C06B40F08060C86392
:102790000846006A40F0007008620846C06B40F0CE
:1027A0000070C86310BD30B504460D4645F0B0005A
:1027B000FFF72EFF102141EA2410FFF729FF04F054
:1027C0000F00FFF725FF30BD30B500240CE0E1B26B
:1027D0000020FFF7E8FF002503E00020FFF7B3FF2C
:1027E0006D1CF02DF9D3641C102CF0D330BD10B546
:1027F000554890F89200022802D1FFF7E5FF0EE05D
:10280000012400212046FFF7DCFC4F4890F892009D
:10281000012804D100BF00212046FFF7CDFD10BDE7
:102820002DE9FF4F83B081460F469246109CCDF8AC
:102830000490BB46069860430090082C02D1012505
:10284000082614E0102C01D0202C02D1022566109D
:102850000DE0402C02D10425102608E0802C02D186
:102860000425202603E0902C01D1062518264FF0E0
:1028700000081EE00198C1B20BF0FF00FFF793FFC4
:10288000002002900CE000991AF80100FFF75BFFAE
:102890000098401C00900BF1010B0298401C029024
:1028A0000298B042EFD30198401C0190BB4608F15A
:1028B0000108A845DED307B0BDE8F08F2DE9F0434D
:1028C000A5B0804689461746902101A823F046FF0F
:1028D000B8F1E00F48D01ADCB8F1900F3CD00CDC16
:1028E000B8F1800F2BD0B8F1810F2FD0B8F1820F43
:1028F0002ED0B8F1830F47D12CE0B8F1910F2DD035
:10290000B8F1920F2CD0B8F1930F3DD12AE0B8F175
:10291000F00F31D009DCB8F1E10F27D0B8F1E20FA8
:1029200026D0B8F1E30F2FD124E0B8F1F10F25D074
:10293000B8F1F20F24D0B8F1F30F25D122E0002432
:1029400022E0000000C009203430001001241BE008
:10295000022419E0032417E0042415E0052413E001
:10296000062411E007240FE008240DE009240BE001
:102970000A2409E00B2407E00C2405E00D2403E001
:102980000E2401E00F2400BF00BF2646B9F1010F5D
:102990000CD1F1B20020FFF706FF002503E0012073
:1029A000FFF7D1FE6D1CF02DF9D32CE0032F0DD1D4
:1029B000002508E040230093002301AAE9B2F0B209
:1029C000FFF72EFF0F35F02DF4D31CE0022F0DD1B1
:1029D000002508E090230093002301AAE9B2F0B299
:1029E000FFF71EFF1735F02DF4D30CE0002508E0AB
:1029F00020230093002301AAE9B2F0B2FFF710FFF1
:102A00000F35F02DF4D325B0BDE8F0832DE9FF4F4D
:102A1000ADF5357D82468946DDF80CB390218FA84F
:102A200023F09CFE302183A823F098FE00208290A2
:102A30004FF4007102A823F091FE00200190BAF13A
:102A4000E00F43D01ADCBAF1900F37D00CDCBAF1AA
:102A5000800F2BD0BAF1810F2AD0BAF1820F29D082
:102A6000BAF1830F42D127E0BAF1910F28D0BAF121
:102A7000920F27D0BAF1930F38D125E0BAF1F00FB9
:102A80002CD009DCBAF1E10F22D0BAF1E20F21D04B
:102A9000BAF1E30F2AD11FE0BAF1F10F20D0BAF159
:102AA000F20F1FD0BAF1F30F20D11DE000261DE078
:102AB00001261BE0022619E0032617E0042615E094
:102AC000052613E0062611E007260FE008260DE094
:102AD00009260BE00A2609E00B2607E00C2605E094
:102AE0000D2603E00E2601E00F2600BF00BF35468D
:102AF0004C465FEA090404D15A4600215046FFF7CC
:102B0000DDFE83A8B79923F041FD0020B390002794
:102B100049E10020829083A8C05D802871DABBF172
:102B2000030F2AD14FF010080420B49038467F1CC0
:102B300083A9085C8DF808025B468FA982A8C29A17
:102B40001BF0DEFCF0B34023009300238FAAE1B218
:102B5000E8B2FFF765FE04EB080000EB98049DF86F
:102B60000802312800D1E41FF02C02D34C46B4985F
:102B70000544102D26D3554615E1BBF1020F41D176
:102B80004FF018080620B49038467F1C83A9085CD3
:102B90008DF808025B468FA982A8C29A1BF0B0FC90
:102BA00080B19DF808022E2803D09DF808023A282B
:102BB0000DD1A4EB98049023009300238FAAE1B2D7
:102BC000E8B200E01CE0FFF72BFE444410E0902345
:102BD000009300238FAAE1B2E8B2FFF721FE04EBD5
:102BE000080000EB98049DF80802312800D10B3C46
:102BF000F02C02D34C46B4980544102D00D3554612
:102C0000D1E02FE04FF008080220B49038467F1C36
:102C100083A9085C8DF808025B468FA982A8C29A36
:102C20001BF06EFCF0B31023009300238FAAE1B2D7
:102C3000E8B2FFF7F5FDBBF1010F09D104EB080085
:102C400000EB98049DF80802312802D1E41E00E050
:102C50004444F02C02D34C46B4980544102D21D3A3
:102C60005546A0E083A8C05DF02803D083A8C05DCE
:102C7000F12829D14FF008080220B49038467F1C73
:102C800083A9085C8DF8080238467F1C085C8DF823
:102C900009025B468FA982A8C29A1BF031FC08B1D9
:102CA000102300E00FE0009300238FAAE1B2E8B206
:102CB000FFF7B6FD4444F02C02D34C46B4980544CB
:102CC000102D70D355466EE083A8C05D83AA791C91
:102CD000515C01EB002080B201900198A0F52141E8
:102CE000FB390ED00198A0F52141FA3909D001989D
:102CF000A0F52141FC3904D00198A0F52141FD390E
:102D00002AD1BBF1030F27D14FF020080420B49043
:102D100038467F1C83A9085C8DF8080238467F1C62
:102D2000085C8DF809025B468FA982A8C29A1BF045
:102D3000E7FBC0B38023009300238FAAE1B2E8B27F
:102D4000FFF76EFD4444F02C02D34C46B498054482
:102D5000102D28D3554626E04FF010080220B490DD
:102D600038467F1C83A9085C8DF8080238467F1C12
:102D7000085C8DF809025B468FA982A8C29A1BF0F5
:102D8000BFFB80B12023009300238FAAE1B2E8B2F9
:102D9000FFF746FD4444F02C02D34C46B49805445A
:102DA000102D00D35546B8988742FFF4B2AE0DF50A
:102DB000397DBDE8F08F2DE9F0478EB080460C4696
:102DC0001746302102A823F0C9FC204623F002FC5C
:102DD00082460246214602A823F027FCF94890F8D3
:102DE0009200022809D10023009301933B4622461A
:102DF00000214046FFF70AFED4E0F24890F8920026
:102E0000012872D108F0F000802806D0902805D063
:102E1000E02807D0F0280FD109E000BF46464FF068
:102E2000010909E008F08F064FF0020904E008F0FC
:102E30009F064FF0020900BF00BFB9F1010F39D161
:102E4000E048007A022821D106F0F000802802D064
:102E500090281AD10CE002A823F0BCFB8246002384
:102E60000093034602AA012108461BF0D9F90CE0A1
:102E700002A823F0AFFB824600230093034602AA78
:102E8000012102201BF0CCF900BF8BE0002130466D
:102E9000FFF792FA142F00DD1427002507E014F83D
:102EA000016B01213046FFF787FA681CC5B2BD42AD
:102EB000F5DB77E0B9F1020F74D1C248007A02283D
:102EC00022D106F0F000802802D090281BD10DE01E
:102ED00002A823F07FFB824600230093034602AA48
:102EE000022101201BF09CF90DE021E002A823F053
:102EF00071FB824600230093034602AA0221084682
:102F00001BF08EF900BF4DE000213046FFF759F964
:102F1000142F00DD1427002507E014F8016B0121B0
:102F20003046FFF74EF9681CC5B2BD42F5DB39E00B
:102F3000A448007A022821D108F0F000802802D0AD
:102F400090281AD10CE002A823F044FB824600230B
:102F50000093034602AA022101201BF061F90CE054
:102F600002A823F037FB824600230093034602AAFF
:102F7000022108461BF054F900BF13E04646002129
:102F80003046FFF71EF9142F00DD1427002507E057
:102F900014F8016B01213046FFF713F9681CC5B224
:102FA000BD42F5DB0EB0BDE8F0872DE9F0478EB0ED
:102FB00080460D461746302102A823F0CFFB284655
:102FC00023F008FB82460246294602A823F02DFB87
:102FD0007C4890F89200022809D1002300930193C5
:102FE0003B462A4600214046FFF710FDF5E07548B4
:102FF00090F8920001286FD108F0F000802806D0E8
:10300000902805D0E02807D0F0280FD109E000BFB4
:1030100046464FF0010909E008F08F064FF002091B
:1030200004E008F09F064FF0020900BF00BFB9F1AD
:10303000010F43D16348007A022821D106F0F00045
:10304000802802D090281AD10CE002A823F0C2FAFE
:10305000824600230093034602AA012108461BF082
:10306000DFF80CE002A823F0B5FA824600230093B3
:10307000034602AA012102201BF0D2F800BFACE0F7
:1030800000213046FFF798F9142F00DD14270024A3
:1030900007E015F8016B01213046FFF78DF9601C40
:1030A000C4B2BC42F5DB06E0202601213046FFF722
:1030B00083F9601CC4B2142CF6DB8EE0B9F1020F68
:1030C00025D14048007A022822D106F0F00080285D
:1030D00003D090281BD10DE038E002A823F07AFA43
:1030E000824600230093034602AA022101201BF01E
:1030F00097F80CE002A823F06DFA824600230093B3
:10310000034602AA022108461BF08AF800BF64E0C9
:1031100000213046FFF755F8142F00DD1427002456
:1031200007E015F8016B01213046FFF74AF8601CF3
:10313000C4B2BC42F5DB06E0202601213046FFF791
:1031400040F8601CC4B2142CF6DB46E01D48007A3F
:10315000022821D108F0F000802802D090281AD14E
:103160000CE002A823F036FA8246002300930346BF
:1031700002AA022101201BF053F80CE002A823F060
:1031800029FA824600230093034602AA0221084638
:103190001BF046F800BF20E0464600213046FFF70E
:1031A00010F8142F00DD1427002407E015F8016B38
:1031B00001213046FFF705F8601CC4B2BC42F5DBC4
:1031C00009E0000034300010202601213046FEF7CF
:1031D000F8FF601CC4B2142CF6DB0EB0BDE8F0871B
:1031E00070B50446F84890F89200012849D134B1EE
:1031F000012C14D0022C22D0032C40D12FE0242506
:1032000000212846FFF7D8F8042500212846FFF7BB
:10321000D3F8202500212846FFF7CEF830E02425FA
:1032200000212846FFF7C8F8052500212846FFF7AA
:10323000C3F8202500212846FFF7BEF820E024250A
:1032400000212846FEF7BDFF042500212846FEF791
:10325000B8FF202500212846FEF7B3FF10E0242503
:1032600000212846FEF7ADFF052500212846FEF780
:10327000A8FF202500212846FEF7A3FF00E000BF9D
:103280001BE0242500212846FEF79BFF14B1012CEA
:103290000CD105E0042500212846FEF792FF06E048
:1032A000052500212846FEF78CFF00E000BF00BF87
:1032B000202500212846FEF784FF70BD2DE9F0414E
:1032C0000746012F01D1FF2600E000264FF0360807
:1032D00000214046FEF775FF00BF00214046FEF783
:1032E00070FF4FF0010800214046FEF76AFF0024FE
:1032F00015E004F18001C8B20021FEF762FF002151
:103300008020FEF75EFF002505E001213046FEF734
:1033100058FF681CC5B2102DF7DB601CC4B2202C0E
:10332000E7DB002415E004F18001C8B20021FEF7BC
:1033300048FF00218820FEF744FF002505E0012119
:103340003046FEF73EFF681CC5B2102DF7DB601C4F
:10335000C4B2202CE7DB4FF0200800214046FEF7E6
:1033600030FF994890F8920001284AD14FF0360872
:1033700000214046FFF720F800BF00214046FFF73C
:103380001BF84FF0010800214046FFF715F8002414
:1033900015E004F18001C8B20021FFF70DF800210B
:1033A0008020FFF709F8002505E001213046FFF7EE
:1033B00003F8681CC5B2102DF7DB601CC4B2202CCA
:1033C000E7DB002415E004F18001C8B20021FEF71C
:1033D000F3FF00218820FEF7EFFF002505E0012123
:1033E0003046FEF7E9FF681CC5B2102DF7DB601C04
:1033F000C4B2202CE7DB4FF0200800214046FEF746
:10340000E0FEBDE8F08170B505466F4890F8920087
:1034100001281FD105F0F000802806D0902805D0A3
:10342000E02808D0F02814D10CE000BF0021284685
:10343000FEF7C2FF0DE005F08F0400212046FEF7E5
:10344000C0FE06E005F09F0400212046FEF7B9FE0D
:1034500000BF03E000212846FEF7B3FE70BD70B543
:103460000446594890F8920001280ED10F25012CEE
:1034700004D100212846FEF79FFF0BE0022C09D162
:1034800000212846FEF79DFE04E00F250021284676
:10349000FEF797FE70BD70B504464B4890F8920059
:1034A00001280ED10C25012C04D100212846FEF75D
:1034B00083FF0BE0022C09D100212846FEF781FE94
:1034C00004E00C2500212846FEF77BFE70BD70B598
:1034D000044600250DE0E9B20020FFF764F900265C
:1034E00004E014F8010BFFF72EF9761CF02EF8D348
:1034F0006D1C102DEFD370BD70B50546FFF764F954
:10350000002412E0E1B20020FFF74DF9FF20FFF7A1
:103510001AF9002603E0285DFFF715F9761CEE2E58
:10352000F9D3FF20FFF70FF9641C102CEAD370BD0C
:103530002DE9F74FADF5447D0D4616464FF4427127
:10354000684623F00BF9C498E02834D012DC9028A8
:1035500029D008DC80281ED081281ED082281ED0C9
:1035600083283BD11DE091281FD092281FD093289B
:1035700034D11EE0F02829D006DCE1281DD0E22855
:103580001DD0E3282AD11CE0F12821D0F22821D037
:10359000F32823D120E0002420E001241EE00224AF
:1035A0001CE003241AE0042418E0052416E0062495
:1035B00014E0072412E0082410E009240EE00A2495
:1035C0000CE00B240AE00000343000100C2405E06D
:1035D0000D2403E00E2401E00F2400BF00BFA0462D
:1035E000A9461EB90DF5477DBDE8F08F6946304606
:1035F0001BF09FF80520C3909B20C2904FF0000A5B
:10360000002719E008F0FF0109F0FF00FFF7CBF8F1
:103610004FF0000B09E01DF80A00FFF794F80AF1DB
:10362000010A09F101090BF1010BC2988345F2D39C
:1036300008F10108A9467F1CC3988742E2D300BF66
:10364000D0E710B504461A48FFF741FF10BDF0B5AA
:1036500004460D4617462E46E91705EB5171C91071
:10366000B031C8B2FEF7D4FF2646E11704EB117162
:10367000091101F11000FEF7CBFFE11704EB117106
:103680000911A4EB0111C8B2FEF7C2FF67B12E46C3
:10369000E91705EB5171C910A5EBC1020121914059
:1036A000C8B2FFF750F802E00020FFF74CF8F0BD79
:1036B000627C02000146082917D007DCF9B1012914
:1036C0000DD002290DD004291BD10CE010290ED0F9
:1036D00020290ED040290ED0802912D10DE00020E3
:1036E00011E001200FE002200DE003200BE0042098
:1036F00009E0052007E0062005E0072003E0102090
:1037000001E0202000BF00BF70472DE9F0470022F4
:103710004FF44041012021F07BFB01224FF47C71EA
:10372000002021F075FB01224FF44031104621F0BA
:103730006FFB4FF47C71002021F088FB4FF4403187
:10374000012021F083FB4FF0180900BFA9F101000F
:10375000C0B25FEA0009F9D1012021F081FBC0F37A
:10376000813700224FF47C71104621F051FB00227A
:103770004FF44031012021F04BFB01224FF4404136
:10378000104621F045FB4FF44041012021F05EFB43
:103790004FF0180900BFA9F10100C0B25FEA0009AB
:1037A000F9D1012021F05CFBC0F3014A002021F097
:1037B00057FBC0F305104AEA8008032121EA0700FD
:1037C000FFF778FF04466FEA0800C0B2FFF772FF08
:1037D0000546102C03D1102D01D1FF260EE0102C30
:1037E00001D0102D01D1FE2608E0202C01D0202D83
:1037F00001D1FD2602E005EBC400C6B200224FF461
:103800004041012021F004FB01224FF47C71002093
:1038100021F0FEFA01224FF44031104621F0F8FA6F
:103820004FF47C71002021F011FB4FF44031012056
:1038300021F00CFB4FF0180900BFA9F10100C0B244
:103840005FEA0009F9D13046BDE8F08770B57E48DF
:103850000078012875D1FFF758FF7C490870FF28D0
:1038600028D17B480078FF2803D17A4800780028C7
:1038700009DD01229107104621F0CAFA4FF080417C
:10388000012021F0E3FA002072490870FF207049FE
:1038900008706E49087000206B4908706E48006916
:1038A00020F040706C4908610846006940F0807063
:1038B000086166E06648007864490978884260D10A
:1038C00062480078FD283DD060480078FE2839D055
:1038D00060480078A0BB01205E4908705C48007811
:1038E0005E49886008315E4800681EF0C7F90646E8
:1038F000642522E0002400E0641C42F22830844267
:10390000FADB0122C106104621F082FA4FF0804115
:10391000012021F091FA002400E0641C42F22830DA
:103920008442FADB0122C106104621F071FA4FF001
:103930008041012021F08AFA6D1E002DDADC20E0A2
:1039400000E022E043480078002809DD4148007883
:10395000FF2805DA3F480078401C3E49087002E025
:1039600000203C4908703B480078052809D1012215
:103970008107104621F04CFA4FF08041012021F0E0
:1039800065FA324800783249087070BD10B50220DF
:1039900000DF1FF0A0F83048006920F040702E4989
:1039A000086101202849087004202E4908601FF092
:1039B000A0F8032000DF10BD10B52748006920F0F3
:1039C0004070254908610846006940F08070086130
:1039D0002548006840F004002449C1F848014FF030
:1039E0000000234908604FF03802AFF25F014FF04A
:1039F00024001DF02CFA1DF026FA10BD10B500228F
:103A00004FF44041012021F003FA01224FF47C7170
:103A1000002021F0FDF901224FF44031104621F041
:103A2000F7F94FF47C71002021F010FA4FF4403187
:103A3000012021F00BFA182400BF601EC0B2040060
:103A4000FBD1FFF7B9FF10BD780000107A0000101D
:103A50007B0000107900001000C00240B435001057
:103A60005000001040C10F4048C10F4000C00F403F
:103A70004CC10F402DE9F04107460024FF4E4FF4A2
:103A80000C654FF4047095FBF0F0401C0FFA80F8C1
:103A9000012F0ED100BF09E004F10A0188B23146BE
:103AA00022F0B1F906F50476601C84B24445F3DBDC
:103AB0001EE01BE0B5F5047F09DD04F10A0188B2C0
:103AC00033464FF40472002122F0D4F807E004F1E9
:103AD0000A0188B23346AAB2002122F0CBF8601C5A
:103AE00084B2A5F5047005B206F50476002DE1DC7C
:103AF000BDE8F0812DE9F041044600BFE04DB0265D
:103B00004FF4047096FBF0F0401C07B2012C04D176
:103B10002946092022F077F905E02B46B2B20021B0
:103B2000092022F0A7F8BDE8F0812DE9F041044614
:103B300000BFD44D0D264FF4047096FBF0F0401CEE
:103B400007B2012C04D12946462022F05CF905E099
:103B50002B46B2B20021462022F08CF8BDE8F0815D
:103B60002DE9F041044600BFC74D50264FF40470C4
:103B700096FBF0F0401C07B2012C04D12946152019
:103B800022F041F905E02B46B2B20021152022F0C7
:103B900071F8BDE8F0812DE9F041044600BFBB4D4E
:103BA00010264FF4047096FBF0F0401C07B2012C75
:103BB00004D12946072022F026F905E02B46B2B2AF
:103BC0000021072022F056F8BDE8F0812DE9F041F0
:103BD000044600BFAE4DF5264FF4047096FBF0F09E
:103BE000401C07B2012C04D12946322022F00BF9E7
:103BF00005E02B46B2B20021322022F03BF8BDE8AE
:103C0000F08170B50446A34DB826012C06D1A24917
:103C1000B1F84401294622F0F6F807E09E49B1F8D0
:103C200044012B46B2B2002122F024F89A48B0F8A1
:103C30004411B0F84401401C974AA2F84401B1F580
:103C40007A6F04DD4FF4FA701146A1F84401924DE9
:103C50004FF4CE76012C04D12946082022F0D3F867
:103C600005E02B46B2B20021082022F003F870BD17
:103C700070B5ACB0FEF7BBFDB0228149684622F0BA
:103C800019FD7F4E002404E0002006F8010B601CA3
:103C900084B2B02CF8D3794E002404E0002006F85A
:103CA000010B601C84B2B4F50C6FF7D300246CE0F8
:103CB000012173487C3001551A2108300155601CE0
:103CC000C1B276480155601CC1B274480830015534
:103CD000002556E005F002FED0B98320C4EBC401F4
:103CE00001EB8101654A02EBC101C5EBC50201EBA5
:103CF000820108720020C4EBC40101EB81015F4A1C
:103D000002EBC101C5EBC50201EB8201487219E06B
:103D10008120C4EBC40101EB8101584A02EBC101CF
:103D2000C5EBC50201EB820108726320C4EBC4013C
:103D300001EB8101514A02EBC101C5EBC50201EB68
:103D4000820148726420C4EBC40101EB81014B4A3B
:103D500002EBC101C5EBC50201EB82014860681CA2
:103D600004EB84014D4AA03A02EB41014855C1B22F
:103D700004EB84024948503800EB42004155681C6E
:103D800085B20A2DA6DB601C84B2082C90DB4FF4B0
:103D900098503B4908804FF4B850488005F09BFD8F
:103DA00048B93F48364948603E48C1F8A4003E48FB
:103DB000C1F8A80006E03A4831494860C1F8A400BB
:103DC000C1F8A80014203449A1F8440164212C480A
:103DD000816400202A49C8630021294801644164A4
:103DE000816400202649C865002125480166416696
:103DF000816600202249C8600021214801614FF4FA
:103E0000FA601F4988616420C861002081F88C0035
:103E1000022081F89800002081F88E0081F88F0040
:103E2000012081F89500022081F8960081F8970022
:103E3000002081F8900081F891009DF8920081F8AF
:103E400092009DF8930081F893009DF8940081F80A
:103E500094009DF8AC0081F8AC009DF8AD0081F8AD
:103E6000AD00012081F89900002081F89A0001201E
:103E70000449C872002008732CB070BDF4260010ED
:103E800034300010F43000108C330010E430001097
:103E9000DC33001004310010BC310010A4350010D8
:103EA00040E201009D71FD048931FD04002085E0A0
:103EB00000EB4001FB4A32F831103A2960D028DC8F
:103EC000292953D018DC18294BD00CDC112945D0F6
:103ED00004DC082940D010296DD13EE012293ED0E3
:103EE000152968D13CE01A293CD01C293BD01E2959
:103EF0003AD024295FD138E02A3910295BD2DFE893
:103F000001F03637385A5A393A5A5A3B5A5A5A3CBB
:103F10003D3E59293ED00ADCA1F13B0109294AD294
:103F2000DFE801F02F3031323334353637007A296B
:103F300035D008DC62292ED068292DD078292CD0E4
:103F4000792938D12AE07B292AD07C2929D08D29CA
:103F500028D0B9292FD126E000BF00BF00BF00BF85
:103F600000BF00BF00BF00BF00BF00BF00BF00BF59
:103F700000BF00BF00BF00BF00BF00BF00BF00BF49
:103F800000BF00BF00BF00BF00BF00BF00BF00BF39
:103F900000BF00BF00BF00BF00BF00BF00BF00BF29
:103FA00000BF00BF00BF012100EB4002BD4B03EB8F
:103FB000C202918100BF00BF411C88B2C628FFF633
:103FC00077AF7047F0B503460C460025022C7BDA2C
:103FD0000820B54E307004BBC2EBC20000EB80007D
:103FE000B24E06EBC000C3EBC30600EB8600007ABE
:103FF00020F08000C2EBC20606EB8606AB4F07EB53
:10400000C606C3EBC30706EB87063072002002EB3F
:104010008206A74F07EB4606F054012C19D1C2EBDC
:10402000C20000EB8000A14E06EBC000C3EBC3064C
:1040300000EB8600007A40F08000C2EBC20606EB7F
:1040400086069A4F07EBC606C3EBC30706EB870647
:104050003072002133E0002002EB8206954F07EB1F
:1040600046067054002602EB82079248503000EB5F
:1040700047004654C2EBC20000EB80008B4E06EBBB
:10408000C000C1EBC10600EB8600007A00F08000A2
:10409000802812D1481CC7B202EB8200854E06EB85
:1040A000400C28466E1CF5B20CF8007002EB82063C
:1040B0008048503000EB46004554481CC1B20A29E4
:1040C000C9DB0120F0BDFFE700207B4E307000BF50
:1040D000F8E770B502460B460024022A20DA0820D1
:1040E000714D28707548C254002115E000257148B3
:1040F000A0304554083045547048405C012809D12F
:10410000481CC6B22546601CC4B26A48A030465559
:1041100008304454481CC1B20829E7DB012070BDB7
:104120000020654D287000BFF9E710B5FEF75FFB72
:104130004FF4FA6061497C3988616420C8610020CD
:1041400081F88C00022081F89800002081F88E0010
:1041500081F88F00012081F89500022081F89600F7
:1041600081F89700002081F8900081F891000220EA
:1041700081F89200002081F89300032081F89400D8
:10418000002081F8AC00012081F8AD0081F8990091
:10419000002081F89A0001204949C8720873002064
:1041A00046497C3981F89B00002144487C3880F8DE
:1041B0009D1080F89E10002211461046FFF702FF66
:1041C000002211460220FFF7FDFE002211460420C6
:1041D000FFF7F8FE06210020FFF77BFF07210020F4
:1041E000FFF777FF0220364948700021344881707C
:1041F000C170172101713B21417102203049887142
:1042000000212F48C1710172172141723B21817237
:1042100010BD0020A9E000EB4001224A32F8311025
:104220003B297ED02EDC1E2974D016DC12296CD0DE
:104230000ADCA1F108010A2974D2DFE801F06193D8
:10424000939393936263646515295FD018295ED0B8
:104250001A295DD01C2965D15BE033295FD008DCC9
:10426000242958D0282957D0302956D0322979D13D
:1042700054E0372954D0382956D0392955D03A2915
:1042800070D153E062295CD025DC402954D019DC80
:104290003C294DD03D294CD03E294BD03F2961D1FE
:1042A00049E000009811001058010010F426001099
:1042B0008C3300100435001088010010B03000105D
:1042C000F4300010412938D0422937D0432936D064
:1042D000592947D134E07B2938D008DC682931D00E
:1042E000782930D079292FD07A293BD12DE0812926
:1042F0002DD087292CD08D292BD0B92932D129E076
:1043000000BF00BF00BF00BF00BF00BF00BF00BFB5
:1043100000BF00BF00BF00BF00BF00BF00BF00BFA5
:1043200001E004E01EE000BF00BF00BF00BF00BF0F
:1043300000BF00BF00BF00BF00BF00BF00BF00BF85
:1043400000BF00BF00BF00BF00BF00BF00BF00BF75
:1043500000BF00BF012100EB40023E4B03EBC20255
:10436000918100BF00BF411C88B2C628FFF653AF41
:10437000002020E000EB4001364A32F831102B29B2
:104380000CD004DC292907D02A2911D105E02C29D9
:1043900005D07C290CD103E000BF00BF00BF00BFE7
:1043A000FF2100EB40022B4B03EBC202918100BFC7
:1043B00000BF411C88B2C628DCDB704700202DE01E
:1043C00000EB4001234A32F83110292917D008DCCC
:1043D000A1F1030105291ED2DFE801F00C0D0E0F3B
:1043E00010002A290CD02B290BD02C290AD07C298B
:1043F00011D108E000BF00BF00BF00BF00BF00BF79
:1044000000BF00BF00BFFF2100EB4002114B03EBD8
:10441000C202918100BF00BF411C88B2C628CFDB19
:10442000704738B5044621460BA016F04AF90F48EC
:1044300000681DF09BF820060D4908600D480068D3
:104440001DF077F96A464FF4C861084800681DF00E
:1044500016F938BD981100100D0A536574546F7524
:10446000426953746174203D20257500440000109A
:10447000B43500104C00001010B5022000DF1EF013
:104480002AFB01204FF040210860FFF7DFF9D548F3
:1044900090F89600012801D10BF02EFFD2484089F8
:1044A000002804DDD0484089401ECF494881CF48CC
:1044B0000088002804DDCD480088401ECB490880D4
:1044C000CA484088002804DDC8484088401EC749C3
:1044D0004880C6488088002804DDC4488088401E83
:1044E000C2498880C248B0F80C02002806DDC048E6
:1044F000B0F80C02401EBE49A1F80C02BC48B0F84E
:104500000E02002806DDBA48B0F80E02401EB84977
:10451000A1F80E02B748B0F80602002806DDB5483B
:10452000B0F80602401EB349A1F80602B148B0F83F
:104530000802002806DDAF48B0F80802401EAD4969
:10454000A1F80802AB48B0F80A02002806DDA94825
:10455000B0F80A02401EA749A1F80A02A548B0F81F
:104560000C02002806DDA348B0F80C02401EA14949
:10457000A1F80C029E48B0F80C02002806DD9C4809
:10458000B0F80C02401E9A49A1F80C029848B0F805
:104590000E02002806DD9648B0F80E02401E94492F
:1045A000A1F80E029348B0F81402002806DD9148E5
:1045B000B0F81402401E8F49A1F814028D48B0F8DB
:1045C0002202401C8B49A1F822020846B0F82602BC
:1045D000002805DD0846B0F82602401EA1F8260294
:1045E00085480078401C8449087008460078642893
:1045F0007EDB002008707E48B0F81002002806DD3F
:104600007B48B0F81002401E7949A1F810027848A2
:10461000B0F81202002806DD7548B0F81202401EFC
:104620007349A1F812027348B0F80E02002806DDA3
:104630007048B0F80E02401E6E49A1F80E026D4897
:10464000B0F81002002806DD6A48B0F81002401EDB
:104650006849A1F810026748B0F81202002806DD88
:104660006448B0F81202401E6249A1F81202614883
:10467000B0F86803002806DD5E48B0F86803401E05
:104680005C49A1F868035B48B0F86C0330B1594845
:10469000B0F86C03401E5749A1F86C03554890F8D8
:1046A000160210F0010F06D05248B0F81802401C54
:1046B0005049A1F818024F48B0F81A02401C4D4961
:1046C000A1F81A02084690F8160210F0040F05D05F
:1046D0000846B0F81C02401CA1F81C02454890F89E
:1046E000160210F0080F08D04248B0F81E0200E091
:1046F00017E0401C3F49A1F81E023E4890F8160200
:1047000010F0100F06D03B48B0F82002401C394989
:10471000A1F820023748B0F87603401C3549A1F8CB
:1047200076031EF0E6F9032000DF10BD10B502206D
:1047300000DF1EF0D0F90120304908601EF0D9F9E1
:10474000032000DF10BD20B901214FF0402251604D
:1047500002E00121294A5160704720B900214FF041
:104760004022516002E00021244A51607047014616
:1047700031B94FF04022506840F00200506004E030
:104780001E4A506840F002005060704770B5054600
:104790000C4600201849087085B94FF0402084610C
:1047A00003204FF0402148613822AFF2333111200D
:1047B0001CF04DFB1CF047FB012070BD012D0ED1FC
:1047C0000E48846103200D4948613822AFF2A301ED
:1047D00012201CF03CFB1CF036FB0020EDE7012012
:1047E000EBE7000034300010D86800102C000010F7
:1047F000F05C0010246000107C000010008000407D
:1048000070B504460D46214643A01BF005FA35B9A4
:10481000042008F062FD204608F085FD06E0032034
:1048200008F05BFD204608F07EFD00BF00BF08F0E9
:1048300073FD70BD2DE9F05F81460E46924608F08B
:10484000B3FD08F042FD4FF0000B43E04FF00008CD
:10485000002701214846FFF7D3FF07EB0900C7B245
:10486000002408E0305D0021FFF7CAFF305D3844C6
:10487000C7B2601CC4B25445F4DB00213846FFF7D0
:10488000BFFF28201DF06AFF2421254808F061FDA4
:104890000546294623A01BF0BFF9002406E0204866
:1048A000015D1DA01BF0B8F9601CC4B2AC42F6DB80
:1048B00008F005FD804641461EA01BF0ADF9B8F199
:1048C000000F00D109E014201DF048FF0BF101009A
:1048D00000F0FF0BBBF1080FB8DB00BFB8F1000F11
:1048E00001D0404600E0681EC0B2BDE8F09F02461D
:1048F000242900DD2421002004E0094B1B5C135413
:10490000431CD8B28842F8DB70470146242901DDF8
:10491000012070470020FCE720253032780000009D
:10492000545A00100D0A52203D2025303278202D97
:10493000200000002009657272203D202530327869
:104940000000000070B50446092C22DD0020FF495C
:104950000860FF490870FF4804700020FD49487056
:10496000FD48007A022809D1084621F033FEC5B27D
:104970002A46F8499020FEF71EFA2AE0F54821F071
:1049800029FEC5B22A46F349F4480078FEF713FA27
:104990001FE0F049EE4A127888182246F0A121F073
:1049A0008BFBED48007A022809D1EA4821F012FE7B
:1049B000C5B22A46E7499020FEF7FDF909E0E5482F
:1049C00021F008FEC5B22A46E249E4480078FEF725
:1049D000F2F970BD70B504460B2C26DD0020DB49D2
:1049E00008600024DA490870DEA1DA4821F0CEFD23
:1049F000D948007A022809D1D64821F0EBFDC5B28A
:104A00002A46D4499020FEF7D6F909E0D14821F092
:104A1000E1FDC5B22A46CF49D0480078FEF7CBF970
:104A2000CE480078FEF7EFFC18E10B2C70D1C84897
:104A30000078002867DDCE48007801280DD10020DD
:104A4000CB490870C14800680A21B0FBF1F000EBC7
:104A500080004000BD49086025E0C6480078012874
:104A60000BD10020C3490870B84800686421B0FB2E
:104A7000F1F04843B549086015E0BF4800780128C7
:104A80000AD10020BC490870B04800686421B0FB1E
:104A9000F1F0AE49086006E0AC4800680A21B0FBBE
:104AA000F1F0AA490860AA490A780978491EA84B7A
:104AB0001970A8491144481EB0A121F0FDFAA6487A
:104AC000007A022809D1A34821F084FDC5B22A4604
:104AD000A0499020FEF76FF909E09E4821F07AFD89
:104AE000C5B22A469B499D480078FEF764F998496B
:104AF0000D7805EBD571994A127802EB6101C8B2C5
:104B0000FEF781FCAAE000209D490870A6E0FFE7BF
:104B10008F4800789B490978884228DA0A2C33D1DB
:104B20009548007878BB9848007801282CD19249A4
:104B3000087000208F4908708D49087084490A78F0
:104B40000978491C824B1970824950188FA290A194
:104B500021F0B2FA8048007A022809D17D4821F07C
:104B600039FDC5B22A467B499020FEF724F975E04D
:104B7000784821F02FFDC5B22A467649774800785B
:104B8000FEF719F96AE0FFE70A2C67DA01207C4991
:104B900008707948007801281FD1764800780128EC
:104BA0000DD173480078012800D170BD01207049F3
:104BB00008706648006820446449086015E00120D8
:104BC0006C490870614800686421484304EB840123
:104BD00000EB41005D49086007E05C48006800EBBD
:104BE000800004EB4000594908606A48007860B1D1
:104BF00057490A780978491C554B1970554950187E
:104C000065A263A121F058FA0BE051490A780978AE
:104C1000491C4F4B19704F495018224650A121F0A2
:104C20004BFA4D48007A022804D04B4890F8920085
:104C3000022809D1474821F0CDFCC5B22A46454992
:104C40009020FEF7B8F809E0424821F0C3FCC5B255
:104C50002A46404941480078FEF7ADF800BFA4E776
:104C60002DE9F0479AB0054600208DF83800FDF791
:104C7000BEFD4FF00408C8F10A094848405D401ED7
:104C800046B20024C3E006EB86004449A03901EB9C
:104C90004000005DE8B306EB860001EB4000005DDC
:104CA000401E47B2C6EBC60000EB80003C4901EB5A
:104CB000C000C7EBC70100EB8100007A80280CD14F
:104CC0002548017A374850F821300093631C6A1C4C
:104CD00035A102A821F0F0F993E0C6EBC60000EB85
:104CE00080002F4901EBC000C7EBC70100EB81003A
:104CF000007A82280ED11848017A2A48103850F8D4
:104D000021300093631C6A1C27A102A821F0D4F96A
:104D100077E07AE0C6EBC60000EB8000204901EBAB
:104D2000C000C7EBC70100EB8100007A83283FD1A8
:104D30000948017A1B48703050F821300093631CF9
:104D40006A1C19A102A821F0B7F95AE084010010E9
:104D5000800100108E5A0010343000107F010010C6
:104D600025780000202020202020202000000000A6
:104D70005E0100105D0100105C01001020000000C9
:104D800088010010580100105B0100102E00000087
:104D9000257300005A0100102A000000A4350010FD
:104DA000F4260010D8240010256425642573000023
:104DB000C6EBC60000EB8000FA4901EBC000C7EB70
:104DC000C70100EB8100407A68B9F748017AF748DB
:104DD00050F821300093631C6A1CAFF2340102A822
:104DE00021F06AF90DE0F048017AF048903850F867
:104DF00021300093631C6A1CAFF2540102A821F019
:104E00005BF902A90EA821F004FC601CC4B2444561
:104E1000FFF639AF0EA821F0DDFB00F0FF0A524685
:104E20000EA98020FDF7C7FF00208DF83800B9F1EA
:104E3000000F7DDD042496E006EB8600DC4901EBE3
:104E40004000005DF0B306EB860001EB4000005D22
:104E5000401E47B2C6EBC60000EB8000D14901EB13
:104E6000C000C7EBC70100EB8100007A80280ED19B
:104E7000CD48017ACD48703850F821300093631C3A
:104E80006A1CAFF2DC0102A821F016F965E0C6EB5E
:104E9000C60000EB8000C34901EBC000C7EBC701AF
:104EA00000EB8100007A822810D1BF48017ABF4808
:104EB000803850F821300093631C6A1CAFF218113F
:104EC00002A800E04DE021F0F7F846E0C6EBC6008E
:104ED00000EB8000B34901EBC000C7EBC70100EB5A
:104EE0008100007A83280DD1AF48017AAF4850F88D
:104EF00021300093631C6A1CAFF2541102A821F008
:104F0000DBF82AE0C6EBC60000EB8000A54901EB08
:104F1000C000C7EBC70100EB8100407A78B9A24816
:104F2000017AA24850F821300093631C6A1C00E00B
:104F300028E0AFF28C1102A821F0BEF80DE09A48EB
:104F4000017A9A48903850F821300093631C6A1C0B
:104F5000AFF2AC1102A821F0AFF802A90EA821F01F
:104F600058FB601CC4B209F104008442FFF664AF30
:104F70000EA821F02FFB00F0FF0A52460EA9902048
:104F8000FDF719FF884890F89200012804D0864860
:104F900090F89200022875D1681CC5B200208DF8E7
:104FA00038004FF00408C8F10A098148A030405D7C
:104FB000401E46B2002495E006EB86007C4901EBDA
:104FC0004000005DF0B306EB860001EB4000005DA1
:104FD000401E47B2C6EBC60000EB8000714901EBF2
:104FE000C000C7EBC70100EB8100007A80280ED11A
:104FF0006D48017A6D48703850F821300093631C79
:105000006A1CAFF25C2102A821F056F864E0C6EBFE
:10501000C60000EB8000634901EBC000C7EBC7018D
:1050200000EB8100007A822810D15F48017A5F4846
:10503000803850F821300093631C6A1CAFF298212D
:1050400002A800E04CE021F037F845E0C6EBC600CE
:1050500000EB8000534901EBC000C7EBC70100EB38
:105060008100007A83280ED14F48017A4F4850F8CA
:1050700021300093631C6A1CAFF2D42102A821F0F6
:105080001BF829E0B2E0C6EBC60000EB8000454902
:1050900001EBC000C7EBC70100EB8100407A68B9A3
:1050A0004148017A414850F821300093631C6A1C42
:1050B000AFF20C3102A820F0FFFF0DE03A48017A70
:1050C0003A48903850F821300093631C6A1CAFF2C4
:1050D000283102A820F0F0FF02A90EA821F099FAC9
:1050E000601CC4B24445FFF667AF0EA821F072FA07
:1050F00000F0FF0A52460EA9E020FDF75CFE0020FA
:105100008DF83800B9F1000F70DD04249EE006EB45
:105110008600274901EB4000005DF0B306EB8600F6
:1051200001EB4000005D401E47B2C6EBC60000EB3D
:1051300080001C4901EBC000C7EBC70100EB8100F8
:10514000007A80280ED11848017A1848703850F833
:1051500021300093631C6A1CAFF2B43102A820F026
:10516000ABFF6DE0C6EBC60000EB80000D4901EB24
:10517000C000C7EBC70100EB8100007A822819D17B
:105180000948017A0948803850F821300093631C9F
:105190006A1CAFF2EC3102A800E055E020F08CFF71
:1051A0004EE00000F42600103430001048250010B6
:1051B00004350010C6EBC60000EB8000F84901EB97
:1051C000C000C7EBC70100EB8100007A83280ED135
:1051D000F448017AF44850F821300093631C6A1CAB
:1051E000AFF23C4102A820F067FF29E03DE0C6EBAA
:1051F000C60000EB8000EA4901EBC000C7EBC70125
:1052000000EB8100407A68B9E648017AE64850F838
:1052100021300093631C6A1CAFF2744102A820F095
:105220004BFF0DE0DF48017ADF48903850F821301D
:105230000093631C6A1CAFF2904102A820F03CFF6F
:1052400002A90EA821F0E5F9601CC4B209F104001E
:105250008442FFF65CAF0EA821F0BCF900F0FF0A13
:1052600052460EA9F020FDF7A6FD01201AB0BDE8B8
:10527000F0872DE9F0479AB0074600208DF83800F6
:10528000FDF7B5FA4FF00408C8F10A09C748C05D38
:10529000401E44B2002585E004EB8400C349A039D8
:1052A00001EB4000405DB8B304EB840001EB40002B
:1052B000405D401E46B230E0C4EBC40000EB80000D
:1052C000B74901EBC000C6EBC60100EB8100007DD1
:1052D00000280EDDB348017AB348703850F8213009
:1052E00000936B1C7A1CAFF2405102A820F0E4FE40
:1052F00014E00A2E0AD004EB8400AC49A03901EB7B
:1053000040023046711C4EB2105C30B90026601C61
:1053100044B2082C01D101E042E0CDE700BF2FE00C
:10532000C4EBC40000EB80009D4901EBC000C6EB5C
:10533000C60100EB8100007D00280EDD9948017A4E
:105340009948703850F8213000936B1C7A1CAFF2EA
:10535000A85102A820F0B0FE13E00A2E0AD004EBF8
:1053600084009249A03901EB40023046711C4EB2D4
:10537000105C28B90026601C44B2082C00D100E063
:10538000CEE700BF02A90EA821F043F90EA821F034
:1053900021F900F0FF0A52460EA99020FDF70BFDFF
:1053A000681CC5B24545FFF677AF0EA821F012F98B
:1053B00000F0FF0A52460EA98020FDF7FCFC0020F9
:1053C0008DF83800B9F1000F7EDD042597E004EB7D
:1053D00084007649A03901EB4000405DF0B304EB56
:1053E000840001EB4000405D401E46B2C4EBC400A7
:1053F00000EB80006A4901EBC000C6EBC60100EB80
:105400008100007A80280ED16648017A664870389B
:1054100050F8213000936B1C7A1CAFF2746102A823
:1054200020F04AFE65E0C4EBC40000EB80005C495C
:1054300001EBC000C6EBC60100EB8100007A8228B8
:1054400010D15848017A5848803850F821300093DC
:105450006B1C7A1CAFF2B06102A800E04DE020F0B6
:105460002BFE46E0C4EBC40000EB80004C4901EB8E
:10547000C000C6EBC60100EB8100007A83280DD185
:105480004848017A484850F8213000936B1C7A1C38
:10549000AFF2EC6102A820F00FFE2AE0C4EBC400DA
:1054A00000EB80003E4901EBC000C6EBC60100EBFB
:1054B0008100407A78B93B48017A3B4850F8213066
:1054C00000936B1C7A1C00E028E0AFF2247102A864
:1054D00020F0F2FD0DE03348017A3348903850F85F
:1054E000213000936B1C7A1CAFF2447102A820F0AB
:1054F000E3FD02A90EA821F08CF8681CC5B209F1E1
:1055000004008542FFF663AF0EA821F063F800F0B7
:10551000FF0A52460EA99020FDF74DFC01201AB05B
:10552000BDE8F087704710B50446002020490860A8
:10553000FFF7F8FF0020FDF753FE1A48007A022813
:1055400005D107221BA19020FDF735FC05E00722BD
:1055500018A11A480078FDF72EFC002018490870A1
:1055600016480078FDF74FFF0120FDF778FF002077
:105570001449087001201449087010BD10B5044684
:105580000A2C27D11148007820BB10480078401C15
:105590000E4908700E480078401C0D490870C9E09B
:1055A000F42600103430001048250010A4350010F7
:1055B0008401001020202020202020007F010010E6
:1055C0005C010010880100107E01001044010010F1
:1055D000450100100E2C0ED1FF48007801280AD199
:1055E000FD480078401CFC490870FC480078401CCD
:1055F000FA4908709EE00B2C0ED1F748007802287B
:105600000AD1F5480078401CF3490870F348007847
:10561000401CF24908708DE00C2C0ED1EE48007849
:1056200003280AD1EC480078401CEB490870EB488D
:105630000078401CE94908707CE00A2C0ED1E6484D
:10564000007804280AD1E4480078401CE249087038
:10565000E2480078401CE14908706BE0082C0CD14E
:10566000DD480078052808D1DB480078401CDA497D
:1056700008700020D94908705CE0082C0CD1D6488D
:105680000078062808D1D4480078401CD249087018
:105690000020D24908704DE00B2C15D1CE4800787F
:1056A000072811D10020CC490870CC490870CC489B
:1056B000807B012803D00120C949887302E00020C3
:1056C000C7498873012010BD0A2C0CD1C34800784B
:1056D000052808D10020C0490870C0480078401C47
:1056E000BE49087026E00A2C0CD1BC480078062878
:1056F00008D10020B8490870B8480078401CB74964
:10570000087017E00A2C10D1B448007807280CD193
:105710000020B1490870B1490870FEF706FDFEF798
:1057200078FD002012F0E1FB04E00020AA49087097
:10573000AA4908700020C6E7F8B500260120A9494B
:105740000860A949086013F0BEF9FEF737FE022091
:1057500012F0CBFB0020A5490860A5490870A549B7
:1057600008700820A44908700020A449087001208E
:10577000A34908700020A3490870A349087013F0DA
:1057800088F948E06A460021A04800681CF00EFA3B
:1057900004469DF80000F0BB9848007801287DD1B0
:1057A0002078082855D006DC76D2DFE800F03E1FCE
:1057B0001770626C661B0D283FD008DC092844D0A6
:1057C0000A2852D00B284CD00C2865D131E00E2885
:1057D00037D00F2841D0FF285ED15CE02F20FFF7A3
:1057E000B1F85AE01820FFF7ADF856E07D480068A0
:1057F00000EB4000864901EBC000C088A0F5407175
:10580000E7390ED07748006800EB4000804901EB93
:10581000C000C08800E0CAE372490860012012F0AD
:1058200064FB00207549087037E01920FFF78AF8FB
:1058300033E00120FFF786F82FE00220FFF782F81F
:105840002BE00320FFF77EF827E00420FFF77AF82B
:1058500023E00520FFF776F81FE00620FFF772F837
:105860001BE00720FFF76EF817E00820FFF76AF843
:1058700013E00920FFF766F80FE00020FFF762F859
:105880000BE00BE008E02E20FFF75CF805E021209C
:10589000FFF758F801E000E000BF88E357480078C0
:1058A00002284ED1207810283FD2DFE800F02A17D6
:1058B000083E473E4809434246453F4041443FE099
:1058C00054480078002808DD52480078401E5149AD
:1058D000087008460078FFF7C3F931E00020474917
:1058E00008704048006800EB4000494901EBC000E7
:1058F000C088A0F54071E73902D0012012F0F5FA16
:105900001EE04448007807280EDA434841490978E8
:10591000491C405C40B13F480078401C3D4908703C
:1059200008460078FFF79CF90AE000BF00BF00BFFF
:1059300000BF00BF00BF00BF00BF00BF00BF00BF6F
:1059400035E336480078F0B30120354908702078F7
:10595000082869D006DC68D2DFE800F0E1AD17DD89
:10596000F0EFEEAC0D286FD008DC09286DD00A28C6
:105970006CD00B286BD00C2857D1D1E00E2867D003
:105980000F2878D0FF2850D1F9E01648006800EBC6
:1059900040001F4901EBC000006922490860084629
:1059A00000688047012854D10E48006800EB400091
:1059B000174901EBC0008088A0F54071E7393AD063
:1059C0000848006800E0DDE0074908600548006815
:1059D00000EB40000E4929E0440100104501001091
:1059E000E4300010700100106C0100108401001000
:1059F0008801001080010010580100107D01001086
:105A00005B0100105A0100104A0100105000001004
:105A10009811001049010010A43500107E010010FB
:105A20005F010010600100108DE0A9E001EBC000F3
:105A30008088FF490860022012F057FA0020FD49D3
:105A40000860FD49087034E06EE078E087E082E0AD
:105A50006EE0FAA1FB4820F099FDFB48007A02288D
:105A60000AD1F84820F0B6FDC7B23A46F5490220FF
:105A7000FDF7A1F90AE06AE0F24820F0ABFDC7B2F9
:105A80003A46F049F1480078FDF795F964201CF09A
:105A900065FE0C20FEF79EFF0020E7490870EA48EB
:105AA00090F89200022804D1002211469020FCF7C1
:105AB00005FF66E065E0E648007808BBDC48006862
:105AC00000EB4000E34901EBC0004088012808D109
:105AD000D748006800EB400001EBC000C088D44903
