:020000040000FA
:1000000000800010CD00000015EB010015EB010091
:1000100015EB010015EB010015EB010015EB0100DC
:1000200015EB010015EB010015EB0100610200006A
:1000300015EB010000000000C9020000511502008C
:1000400015EB0100AD3B0000613E000015EB010027
:1000500015EB01003F250200D7D6010045BF000087
:10006000D9C1000015EB01005975010015EB010025
:1000700015EB010015EB010015EB010015EB01007C
:1000800015EB010015EB010015EB010015EB01006C
:100090007936000015EB010015EB010015EB0100AE
:1000A00015EB010015EB010015EB010015EB01004C
:1000B00015EB010015EB010015EB010015EB01003C
:1000C00015EB010015EB010015EB010000F002F843
:1000D00000F0B6F80AA090E8000C82448344AAF12C
:1000E0000107DA4501D100F0ABF8AFF2090EBAE82A
:1000F0000F0013F0010F18BFFB1A43F0010318475C
:10010000C03C0400E03C04000A444FF0000C10F82E
:10011000013B13F0070408BF10F8014B1D1108BF85
:1001200010F8015B641E05D010F8016B641E01F825
:10013000016BF9D113F0080F1EBF10F8014BAD1C75
:100140000C1B09D16D1E58BF01F801CBFAD505E093
:1001500014F8016B01F8016B6D1EF9D59142D6D3ED
:10016000704700000023002400250026103A28BF15
:1001700078C1FBD8520728BF30C148BF0B60704719
:100180006E2924F0E783702924F07C80662925F00D
:10019000BC84652925F0B984672925F0B6846129D6
:1001A000AFF3008003681B0A28BF41F08001692972
:1001B00023F05287642923F04F87752923F04C8759
:1001C0006F2924F00780782924F04880E92924F059
:1001D0002184E42924F01E84F52924F01B84EF29CE
:1001E00024F00480F82924F047800368DB0928BF45
:1001F00041F08001632924F0EA83732924F0EF831E
:10020000E32924F0FA83F32924F0FF8300207047C8
:100210001FB525F073FC9DE8030024F00BFB24F0D0
:1002200021FF04000020002125F038FC401C606004
:100230000020002125F048FCE0601FBD10B510BD76
:1002400024F0EAFE1146FFF7E3FF01F0CCFD24F0B5
:10025000C3FF03B4FFF7F2FF03BC1FF09AF80000DE
:10026000052828BF70474FEA80007844D0F802F094
:10027000C90200008F0200002D0300004D030000A2
:100280006D0300004FF0010080F3148800DF0A4C7A
:100290004FF001052570774623F0F4FDBE46074E6A
:1002A0003668074C2660D6F800D001BC05490860C6
:1002B000BDE8F00F704700BF6327001074270010DF
:1002C0006C270010882700104FF0080282F3118875
:1002D00000B523F0D7FD5DF804EB2DE9F00F0E49D2
:1002E000086801B40D4A1268C2F800D00C4C0D4DDC
:1002F0002E7826700C4E3668084C2660D6F800D052
:1003000001BC086000280CBF0022082282F311887B
:10031000BDE8F00F704700BF882700106C27001061
:100320005827001059270010742700100649086844
:1003300000F101004FF0080282F31188002808BF85
:1003400070470860704700BF88270010064908689A
:1003500000281CBF01380860002818BF70474FF004
:10036000000282F311887047882700104FF00000C8
:1003700080F3148870474FF0010080F314887047B1
:1003800088476FF0FF001FF07EFF000010B50020CF
:100390001FF00EFDFF49086000201FF009FDFE4917
:1003A000086000201FF04BF8FC4908600221FC485F
:1003B0001FF095FAFB49086000201FF040F8FA4949
:1003C00008601421F9481FF08AFAF94908600020F2
:1003D0001FF035F8F749086000201FF030F8F649A3
:1003E000086000201FF02BF8F449086000201FF07F
:1003F00026F8F349086000201FF021F8F149086051
:1004000000201FF01CF8F049086000201FF017F8CA
:10041000EE49086010BD2DE9F041002600270020BC
:1004200003F0DEF9002003F026FA002003F008FABA
:10043000002003F03BFA4FF49858E548008800F498
:100440007F4008F47F41884218D003F080FA0120F1
:1004500003F086F9012003F0C3F9012003F00BFA41
:10046000012003F0EDF9012003F020FA012003F050
:1004700038FA00221146D74823F0EBF9002003F0A8
:100480006FF9002003F0ACF9002003F0F4F900202C
:1004900003F0D6F9002003F009FA002003F021FA56
:1004A000002445E00021CC48015508300155C848DA
:1004B0007C30005D012809D1601CC2B23046711C3D
:1004C000CEB2C5490A5401F108000655002700259F
:1004D0002AE00020C049803901EBC40148550021C1
:1004E000BD48403800EBC4004155C4EBC400BB49D3
:1004F00001EB4010C5EBC50100EB8100007A00F074
:10050000800080280ED1681CC2B2B348803800EB4E
:10051000C4033846791CCFB21A54AF48403800EBB8
:10052000C4004755681C85B2082DD2DB601C84B21C
:10053000082CB7DBBDE8F0810121704700B5034608
:1005400003E013F8010BFFF7F7FF18780028F8D144
:1005500000BD1CB501200090A1480068002269463A
:10056000036901A898479F490860009810B94FF0A7
:10057000FF30019001981CBD38B50546944890F8AD
:10058000960001281DD11BE06A46012188480068B9
:100590001FF062FA04469DF8000070B92088924965
:1005A000C86002E0022020F02FF88F490C317E480D
:1005B00000681FF014F80028F4D1022020F024F87D
:1005C000E2E738BD00B585B0032300224FF4007187
:1005D0008648CDE90323CDE90101092300F2FC722D
:1005E0000021AFF26B0000931FF0F4FD05B000BDD9
:1005F00008B500BF7E487A490860096848688047A6
:1006000019E01420009076480068012269460369C9
:100610007848984773490860002405E07548005DF4
:1006200075490855601CC4B200988442F6DB00BFCF
:1006300032201FF0E9FFE4E708B500BF0122D10531
:10064000002022F03BFB4FF40001002022F04AFB87
:100650006AA018F038F84FF416701FF0D5FF0BF0B1
:10066000FFFC0BF0E4FD17F0EDFF1DF05FF865A057
:1006700018F029F800206549488000216348007877
:1006800061F387106149087000216048007861F3C8
:10069000C5005E4908704E4880695D49086007F0F2
:1006A0009AFF07F0F1FF5BA018F00DF85B48006AB5
:1006B00040F00050594908620846006A40F08050F6
:1006C00008620846806B40F0005088630846806BE3
:1006D00040F08050886302201FF096FF0CF03BF83A
:1006E0004FA017F0F0FF08F03DF908F09CF908F072
:1006F00012F94DA017F0E7FF08F0B6F908F0CCF9B1
:1007000017F0CCF808F0FFF849A017F0DCFF4348D9
:10071000006A40F00050414908620846006A40F013
:10072000805008620846C06B40F00050C86308461D
:10073000C06B40F08050C86302201FF065FF0FF0CF
:1007400017FC14201FF060FF0FF017FA3AA017F003
:10075000BAFF08F0AAF90EF045FE0E4800681FF037
:10076000EEFB37A017F0AFFF194890F89100012871
:1007700005D11AF07CFA084800681FF0E0FB33A0AE
:1007800017F0A1FF124890F89300012801D11CF046
:1007900084FF61E03C0000104000001048000010A1
:1007A00034000010500000105400001040340010BD
:1007B000580000105C0000104C00001044000010B5
:1007C0006000001064000010680000106C00001051
:1007D000482F00100040024008340010C8270010C5
:1007E00074000010700000101834001090500010B9
:1007F00090270010A4580010905800100D0A3D3D9D
:10080000310000000D0A3D3D3200000012000010D2
:10081000200000100D0A3D3D3300000000C00920FB
:100820000D0A3D3D340000000D0A3D3D350000003D
:100830000D0A3D3D360000000D0A3D3D3700000029
:100840000D0A706320696E69740000000D0A496E1C
:1008500069744F4B000000001EF0E9F80020FA49CF
:1008600081F8AD0081F8AC0033E202201FF0CCFE2D
:10087000F54890F8AC0010B36A461421F3480068BC
:100880001EF053FE04469DF8000018B9206800F0E1
:10089000FF0801E04FF0000840461DF068FE1DF023
:1008A000F0F930B1EA48408840F48040E849488097
:1008B00005E0E748408820F48040E5494880E24868
:1008C00090F89300012812D1E24991F8E2021CF05D
:1008D00094F8C7B2FF2F0AD0DF48876000F1080103
:1008E000DE4800681FF020F928201FF08DFE08F078
:1008F0000AF80EF015FE012806D0D5480078C0F39E
:10090000C20010F0010F01D00FF063F914201FF0A6
:100910007BFE0EF02CF9012806D0CD480078C0F3FC
:10092000C20010F0020F01D00EF0A0FDC8484078C0
:1009300030B9C54890F89100012801D11AF007F9A3
:1009400007F0E1FFC24800788009012803D1142094
:100950001FF05AFEBDE16A461421C14800681EF02E
:10096000E4FD04469DF80000C8BB80212068B1EB7F
:10097000106F78D8BB48006A40F00050B94908624F
:100980000846006A40F0805008620846806B40F0DC
:10099000005088630846806B40F0805088630220D6
:1009A0001FF032FE2068000E802804D0812807D076
:1009B00082283CD114E02168C8B20BF04EFF37E02A
:1009C000A9A017F080FE0021A148007861F38710EC
:1009D0009F4908702168C8B20BF0B0FF28E0F9E029
:1009E000A048006A40F000509E4908620846006A2C
:1009F00040F0805008620846C06B40F00050C86369
:100A00000846806B40F08050886302201FF0FCFD98
:100A100000218F48007861F387108D4908702268A3
:100A2000C2F30351C2F313000CF0B4FC00E000BFAA
:100A300000BF8C48006A40F000508A4908620846AE
:100A4000006A40F0805008620846C06B40F00050D9
:100A5000C8630846C06B40F08050C86302201FF096
:100A6000D3FDB7E0FFE72068000E09287DD2DFE85C
:100A700000F0051D65428C1E661318007EA017F05D
:100A800022FE00217248007861F3871070490870D7
:100A900020680FF0C3FA9CE07C4988880EF0D7FAF2
:100AA00097E07A4988880EF02EFB92E000BF08F0AC
:100AB0000CF805212068B1EB106F1BD100206649AE
:100AC0004860091D724800681EF089FD6048407842
:100AD00001280BD15E480078C0F3C20020F001006D
:100AE0005B49097860F3C5015948017014201FF073
:100AF0008BFD6EE000BF07F0F0FF00205649486014
:100B0000091D634800681EF06AFD514840780128BD
:100B100010D103212068B1EB106F0BD14C48007845
:100B2000C0F3C20020F002004949097860F3C50112
:100B30004748017014201FF067FD4AE000BF07F02E
:100B4000D4FF06212068B1EB106F1DD1002042496F
:100B50004860091D4E4800681EF041FD3C48407841
:100B600001280DD13A48007800E031E0C0F3C2001E
:100B700040F001003649097860F3C501344801703E
:100B800014201FF041FD24E000BF07F0BEFF00204D
:100B900031494860091D3E4800681EF020FD2C4880
:100BA0004078012810D104212068B1EB106F0BD1DF
:100BB00027480078C0F3C20040F0020024490978B9
:100BC00060F3C5012248017014201FF01DFD00E0F4
:100BD00000BF00BF1C4890F89100012878D1142074
:100BE0001FF012FD6A4614212A4800681EF09DFC81
:100BF00004469DF8000030BB2068000E10284BD042
:100C000006DC052809D006280DD00C285ED153E05B
:100C100011280ED0842859D147E000221146052022
:100C200019F0F2FE53E000221146062019F0ECFE06
:100C30004DE0206820F07F402060002108462268B7
:100C400019F0E3FD43E043E0482F00106800001076
:100C500012000010885E00101834001050000010C0
:100C60004C00001000C009200D0A434D445F474F5F
:100C70004F44535F4F5554000D0A434D445F434F5B
:100C8000494E5F4348414E4745000000663300101F
:100C90004400001060000010206820F07F402060B9
:100CA0000020216819F072FD11E019F0E0FFFF4803
:100CB00000681FF044F90AE02068C0F30745206887
:100CC000C6B23146284619F019FF00E000BF00BF48
:100CD00000BFCAE58EB000200590049000BF0290CE
:100CE00000BFF348007A022805D1002002F05CF929
:100CF00001F0F3FB01E001F0F0FB0020ED4948704A
:100D00000121ED48007861F30300EB4908700020F1
:100D100048700021E848007861F30710E649087040
:100D20000021E448007861F30000E2490870F020F7
:100D30000C90E248D0F854610121DE48007861F35C
:100D40008200DC4908700021DD4822F0A1FDDD4968
:100D500008600846006890B1D54880690968B1EB21
:100D6000400F0CD2D7480068D449C1F85001012087
:100D700002F0B7FD00221146D14822F06AFD0020A2
:100D8000D04908600B900C900220C94981F892006C
:100D900001F004FBCC49002003F092F8002003F09E
:100DA0006CF802F0A1FCC948006820F48000C74933
:100DB000086014201FF028FC08F04CFC08F0DEFB53
:100DC0000DAA4FF47A61C24800681FF067F8B8486E
:100DD00090F89600012801D1FFF7F4FBB44890F891
:100DE0009300012801D11BF09EFE4FF0000A40F64F
:100DF000B830B8498880B84800681EF04DFD4FF003
:100E00000108FDE302E2B548006810F0005F31D14F
:100E100002201FF0F9FBB148006810F0005F28D1F4
:100E20000120A449487008460078C0F380000128DA
:100E300008D102F079FE00219E48007861F382001B
:100E40009C4908709A4890F8910001280CD1A44858
:100E500000681EF0E1FA4FF0A060A24988611831E5
:100E60009F4800681EF0BBFB012002F08AF903F0E6
:100E700063FFCBE18F48407801281AD1FF208D49CC
:100E800048708B4890F8910001280CD19448006874
:100E90001EF0C2FA4FF0C060924988611831904844
:100EA00000681EF09CFB03E04FF47A701FF0ACFB6F
:100EB000FAE77F4890F89100012809D1059838B9E0
:100EC0000DAA0021794800681EF0E8FF0120059076
:100ED00000207849487008464088A0BB9DF82C0047
:100EE00098B9B8F1010F02D14FF0000801E04FF0BE
:100EF00001087D48B0F8140238B94FF4FA607A4915
:100F0000A1F81402404608F0E0FB694890F8AC00F4
:100F1000D0B10DAA0121754800681EF006FB0790AC
:100F20009DF8340080B907980088C0B203900398F8
:100F30001CF094FD00F0FF0BBBF1FF0F01D0CDF8CA
:100F40002CB000BF63E18FE060484069C0F380507F
:100F500018BB5C48006800B356480078C0F3000036
:100F6000012804D0524890F88F00002815DD504821
:100F700090F88F304F4800930078C0F30003534837
:100F80004069C0F3805080F001014E48026858A0CB
:100F900017F099FB0120029039E10DAA01214E487A
:100FA00000681EF059FD0790079805889DF83400E9
:100FB00030B9012002F0E5F814201FF025FB26E1EE
:100FC0000DAA0121564800681EF0AFFA0790079855
:100FD00005889DF8340018B9012002F0D2F816E116
:100FE0003C48408848B99DF82C0008F050F80B9018
:100FF0009DF82C0008B1FF2509E13648808828B902
:1010000040F6B830334988800AF039FB2D48006833
:1010100098B928480078C0F3800001280DD107F066
:10102000C7FA10B93F48807838B93E48407810F088
:10103000020F02D0042002F077FD1D4890F89100C5
:10104000012809D10AF0E0FD0746EE2F01D00B97E9
:10105000DDE014201FF0D8FA154890F8930001281D
:1010600001D11BF060FDD1E01648006850B1FF25AA
:1010700000211148007861F303000F49087008202F
:101080000B90C4E00B480078C0F38000012809D120
:1010900000210848007861F38200064908700120A9
:1010A00002F042FD0548D0F854013DE04000001038
:1010B000482F00101200001010000010B030001077
:1010C000004002401C0000107FA9030000C009205E
:1010D0003C0000102C0000105000001094C00920AB
:1010E0006000001018340010885E00106C000010C2
:1010F0000D0A52657475724B65793D25642C675FE6
:10110000416D6F756E743D25642C68617665736101
:101110006C653D25642C7472616E733D256400001E
:101120005400001016000010B0420CD9F548D0F859
:101130005401801BF349C1F854010846D0F85461AA
:10114000012002F0CEFB012002F01BF840F6B8307F
:10115000ED49888058E007F0ECFFEC48006810F09B
:10116000005F12D100200B900121E948007861F363
:101170000300E7490870002048700021E448007827
:1011800061F30710E24908703FE0E248408820BB65
:1011900000200B900121DE48007861F30300DC4958
:1011A0000870002048700021D948007861F30710CA
:1011B000D74908700121D748007861F38200D549EA
:1011C0000870022002F0B0FCD34800681EF064FBF7
:1011D0000020D249A1F8140217E0CB48808828B932
:1011E00040F6B830C84988800AF049FACC4890F8EF
:1011F0009100012808D10AF007FD0746EE2F00D024
:101200000B9714201FF000FAA5E700BFFBE500BF15
:1012100015F4004F45D00020BD4948700021BC485E
:10122000007861F30710BA490870C5F30E00069004
:10123000FF25BC48016806980844BA490860B548CB
:101240000078C0F3800001281BD1B5488069096887
:1012500088420AD80021AF48007861F38200AD4986
:101260000870012002F060FC0BE007F0A1F940B922
:10127000AC480068AC490968884202D3032002F0F8
:1012800053FC9DF82C00062804D0A648006808B13D
:1012900001200B90A34800210268A44822F0D9FA4B
:1012A00025E0281200281BDD2812012802D0022880
:1012B00014D102E009200B9011E09A48006860B157
:1012C00094480078C0F30000012804D0944890F8B6
:1012D0008F00002801DD08200B9000E000BF06E031
:1012E0000AAA29469DF82C0007F04EFC0B900298A4
:1012F000012803D10020029008200B90EFE39DF815
:101300002CA09DF82C000F287ED2DFE800F07D860F
:10131000FAF9F8F7F6F5F4C2576608F3470000212A
:101320007B48007861F30300794908707C4890F8A5
:10133000930010B9084640780A9008AA09A99DF8B8
:1013400028000BF052F9012817D1EAB29DF82010BD
:101350009DF8240008F069FC64201FF055F9002076
:101360000B906D4800681EF060FB01216848007812
:1013700061F303006649087001E00B200B90002028
:101380006349487000216248007861F307106049A2
:10139000087000206149A1F8140284E200215C4831
:1013A000007861F303005A49087008F04FFD4FF4CC
:1013B000C8701FF029F90D200B9074E201215448E8
:1013C000007861F30300524908704FF4FA704E49F7
:1013D000488008F059FD0B9065E200214C480078E8
:1013E00061F303004A49087008F0D2FE4FF4C87058
:1013F0001FF00AF90020464948700021444800784F
:1014000061F30710424900E0FDE308700A200B90E9
:10141000414800681EF009FB45E201213C48007884
:1014200061F303003A49087047F23050364948806A
:1014300008F0ECFE37480078C0F38000012820D087
:10144000384800683849096888420AD20121314881
:10145000007861F382002F490870022002F064FBDB
:101460000FE02F4880692F490968884209D9012176
:101470002848007861F3820026490870062002F0AF
:1014800053FB274890F89300012801D11BF04BFB38
:10149000E2E300211E48007861F303001C49087054
:1014A00009F05AF84FF4C8701FF0AEF8012118483F
:1014B000007861F303001649087047F23050124972
:1014C000488008F0A3FE13480078C0F3800001288C
:1014D0003ED01448006814490968884228D2012186
:1014E0000C48007861F382000A490870022002F07B
:1014F0001BFB2DE00FE392E2D6E17DE226E225E13F
:10150000D8E028E0B03000102C00001094C0092072
:10151000100000101200001050000010885E001033
:10152000482F00101C000010200000100040024056
:10153000F9488069F9490968884209D90121F848C0
:10154000007861F38200F6490870062002F0ECFA98
:101550000C980B9080E30021F248007861F30300BF
:10156000F0490870EC4890F8930010B908464078AC
:101570000A900020EB4948700021EA48007861F3A6
:101580000710E8490870E44890F8910001281FD13D
:1015900008AA09A99DF828000BF027F8E24800687E
:1015A0001DF03AFF9DF82400C0EBC000DF4901EBBD
:1015B00040109DF82010C1EBC10130F82100DC493A
:1015C0000844DC4988611831D74800681EF007F8E4
:1015D000D94800681EF029FA08AA09A99DF8280030
:1015E0000BF003F8012862D19DF82400C0EBC00085
:1015F000CE4901EB40109DF82010C1EBC10100E085
:1016000042E300EB8100007A00F07F00012809D05E
:101610000121C348007861F30000C149087003202C
:101620000B9046E09DF82400C0EBC000BF4901EBE1
:1016300040109DF82010C1EBC10100EB8100406813
:10164000B649096888422FD80121B548007861F36E
:101650000000B3490870B04890F8AC0008B3AE4839
:1016600090F8AD0080B19DF82410C1EBC101AF4AE4
:1016700002EB41119DF82020C2EBC20201EB820176
:1016800048681CF032FB02E000201CF02EFB012019
:101690001CF0FAFA4FF4FA6201210BA81CF012FABE
:1016A00007E004200B9004E005200B9001E00B20E4
:1016B0000B90D1E200219B48007861F30300994927
:1016C00008709DF820109DF8240008F0DBFF4FF40F
:1016D000C8701EF099FF01219248007861F3030061
:1016E0009049087047F230509449488008F08EFDC8
:1016F0008B480078C0F38000012820D0874800681C
:101700008F49096888420AD201218548007861F32F
:10171000820083490870022002F006FA0FE07E483A
:1017200080697E490968884209D901217C4800788E
:1017300061F382007A490870062002F0F5F97E48CC
:1017400000681EF072F901200B9085E200217548B7
:10175000007861F303007349087009F01AF87048C3
:101760000078C0F38000012809D100216C4800787E
:1017700061F382006A490870012002F0D5F96848D7
:1017800000788009022801D109F0A9FC9DF82020E9
:101790009DF824109DF8280009F06AF80B905F4826
:1017A00000210268674822F054F85D480078C0F3D1
:1017B0004000012841D09DF82400C0EBC0005B49E7
:1017C00001EB40109DF82010C1EBC10100EB81003E
:1017D000C068401C9DF82410C1EBC101534A02EBC4
:1017E00041119DF82020C2EBC20201EB8201C860CA
:1017F0005548D0F84801401C5349C1F848019DF8AC
:101800002400C0EBC000494901EB40109DF82010B6
:10181000C1EBC10100EB81008069401C9DF82410E0
:10182000C1EBC101414A02EB41119DF82020C2EBFE
:10183000C20201EB820188612AE09DF82400C0EB1E
:10184000C0003A4901EB40109DF82010C1EBC101E6
:1018500000EB81000069401C9DF82410C1EBC10120
:10186000324A02EB41119DF82020C2EBC20201EB8B
:10187000820108613448D0F84C01401C3249C1F85B
:101880004C0100212648007861F34100244908708A
:10189000214890F89300012801D11BF044F9264813
:1018A00000681EF0C2F8D7E101211E48007861F3FC
:1018B00003001C49087047F230502049488008F066
:1018C000A5FC17480078C0F38000012820D01348F9
:1018D00000681B49096888420AD201211048007833
:1018E00061F382000E490870022002F01DF90FE03A
:1018F0000948806909490968884209D901210848CD
:10190000007861F3820006490870062002F00CF9A5
:1019100001200B90A0E10000482F00101C000010D7
:10192000120000101000001060000010C827001006
:101930000000020C18340010500000102C000010A1
:101940002000001000400240B03000100021FE488E
:10195000007861F30300FC4908709DF82410C1EB86
:10196000C101FA4A02EB41119DF82020C2EBC202EC
:1019700001EB8201486809F0A0F94FF4C8701EF02D
:1019800043FE0121F048007861F30300EE4908703E
:1019900047F23050EE49488008F038FCED480078B6
:1019A000C0F38000012820D0EB480068EB490968AB
:1019B00088420AD20121E748007861F38200E549B4
:1019C0000870022002F0B0F80FE0E5488069E249B3
:1019D0000968884209D90121DE48007861F3820054
:1019E000DC490870062002F09FF8DE4800681EF00F
:1019F0001CF801200B902FE10121D348007861F3FE
:101A00000300D149087047F23050D14948809DF811
:101A100020109DF8240009F0D1F90B901CE1002161
:101A2000C948007861F30300C74908700020CE4917
:101A3000086009F039FAC74800788009022801D106
:101A400009F062FBC3480078C0F38000012809D187
:101A50000021C048007861F38200BE49087001206F
:101A600002F062F809F090FBBB4800210268BF4811
:101A700021F0EFFEB848006880B3B7480068BC4961
:101A8000C1F85001B64890F89100012823D1B4481C
:101A900090F89800012807D10846D0F8500100EBD3
:101AA00080004000049008E0AD4890F898000228BB
:101AB00003D1AF48D0F850010490AE4800681DF043
:101AC000ABFC049800F18850AB4988611831A948F3
:101AD00000681DF084FD09F04EFC06E000E0D0E057
:101AE000A148006808B109F0F9FC9A480078C0F3F1
:101AF0004000012806D100219648007861F341009A
:101B0000944908709D4815F0E3FEC8201EF07CFD46
:101B10000D200B90A0E000218B48007861F30300BA
:101B2000894908709248D0F85401B04209D99048C8
:101B3000D0F85401801B8E49C1F854010846D0F8F2
:101B40005461012001F0CDFE00208349086000248B
:101B500005E00020894984390855601CC4B2202C56
:101B6000F7DB002405E00021844820380155601C83
:101B7000C4B2202CF7DB002412E04FF000090AE089
:101B800000217E48643800EBC40000F8091009F118
:101B9000010000F0FF09B9F1080FF1DB601CC4B2CD
:101BA000082CEADB0020754984390866012001F021
:101BB000D7FD09F0E2FCC8201EF026FD00200B90A6
:101BC0006F49A1F8140201215F48007861F3030016
:101BD0005D49087000215F48007861F300005D49AD
:101BE000087000221146614821F033FE5948007800
:101BF000C0F3800001280CD0022001F095FF0121E4
:101C00005448007800E01FE061F3820051490870F9
:101C100019E006F0CDFC10B95A48807840B959480F
:101C2000407810F0020F03D0042001F07DFF0AE09D
:101C30005448807838B15348407810F0020F02D1F0
:101C4000032001F071FF07E001213F48007861F3B4
:101C500003003D49087000BF00BFCDF830A09DF8DB
:101C60002C0008B900200C909DF82C00012800D110
:101C700009E09DF82C00824502D09DF82C0000B9A7
:101C800001E0FFF73CBB00BFFFF7BCB886B000BF68
:101C90000121002021F08DFE3B4821F0C0FE21F003
:101CA00007FF3A4800680A21B0FBF1F400BF601E4C
:101CB0000400FCD121F021FF21F011FF15F0EEFD11
:101CC00021F0A2FE3248007B08B9FEF7A4FB21F008
:101CD0009BFEFEF75BFB85E0032300224FF40071BF
:101CE0002C48CDE90323CDE90101072300F2FC7262
:101CF000C821294800931EF06DFA21F085FE0323C8
:101D000000224FF400712548CDE90323CDE90101FC
:101D1000052300F2FC720021214800931EF05AFABC
:101D200021F072FE032300224FF400711D48CDE91B
:101D30000323CDE90101082300F2FC7200211A48B7
:101D400000931EF047FA4BE010000010C827001067
:101D50002C000010120000101C00001020000010C9
:101D6000482F001050000010B00500100040024045
:101D7000B030001060000010183400108C300010DB
:101D8000885E001016000010002D3101C0270010E1
:101D9000F82F001090380010D50C00009040001073
:101DA0003906000090480010F105000021F02CFEDB
:101DB00020484078FF2810D107201EF064FA052043
:101DC0001EF061FA08201EF05EFA09201EF05BFA90
:101DD000002018494880487003E0C8201EF014FC19
:101DE000E4E700BF78E710B51CF096FE1CF05EFE3D
:101DF0000122D105002020F061FF4FF400010020F6
:101E000020F070FF01225102022020F057FF4FF412
:101E10000071022020F070FF1EF09BFD0623064A91
:101E20000021AFF297101EF08DF91EF055FE002034
:101E300010BD0000120000108C380010FF49097A14
:101E4000022901D1962000E0FA2000BF411E89B28C
:101E50000800FBD17047F94A127A022A0BD1F84ADE
:101E600012680623B2FBF3F24FF4FA63B2FBF3F20B
:101E700002FB00F10AE0F24A12680623B2FBF3F219
:101E80004FF47A73B2FBF3F202FB00F100BF4A1E7B
:101E90001100FCD17047EA4A12680623B2FBF3F244
:101EA00002FB00F100BF4A1E1100FCD170472DE972
:101EB000F04106460F46022000DFF8240FB144F03F
:101EC0000204DE48007A022803D10120FFF7C3FF95
:101ED00002E00320FFF7BFFFDA48006E40F0007019
:101EE000D84908660846806F40F000708867084649
:101EF000006A40F0806008620846C06B40F0806075
:101F0000C863FFF79BFF002539E014F0800F0BD06A
:101F1000CC48006A40F08070CA4908620846806B6D
:101F200040F0807088630AE0C648006A40F0807024
:101F3000C44908620846C06B40F08070C863FFF770
:101F40007DFFC048006A40F08060BE4908620846D4
:101F5000C06B40F08060C863FFF770FFB948006A4B
:101F600040F08060B74908620846806B40F08060AE
:101F70008863FFF763FF6006040E681CC5B2082D76
:101F8000C3DB344604F0F004002539E014F0800F80
:101F90000BD0AC48006A40F08070AA49086208463D
:101FA000806B40F0807088630AE0A648006A40F0C9
:101FB0008070A44908620846C06B40F08070C86316
:101FC000FFF73CFF9F48006A40F080609D4908622F
:101FD0000846C06B40F08060C863FFF72FFF994848
:101FE000006A40F08060974908620846806B40F0C4
:101FF00080608863FFF722FF6006040E681CC5B28C
:10200000082DC3DB34462007040E002539E014F008
:10201000800F0BD08B48006A40F0807089490862BD
:102020000846806B40F0807088630AE08548006A4B
:1020300040F08070834908620846C06B40F08070B1
:10204000C863FFF7FBFE7F48006A40F080607D496F
:1020500008620846C06B40F08060C863FFF7EEFE80
:102060007848006A40F08060764908620846806BD4
:1020700040F080608863FFF7E1FE6006040E681C94
:10208000C5B2082DC3DB6F48006E40F000706D498B
:1020900008660846C06F40F00070C867032000DF84
:1020A000BDE8F081F0B506460F46F8240FB144F0C4
:1020B00002040320FFF7CFFE6248006E40F000707C
:1020C000604908660846806F40F0007088670846DF
:1020D000006A40F0007008620846C06B40F0007073
:1020E000C863FFF7ABFE002539E014F0800F0BD07A
:1020F0005448006A40F08070524908620846806B7C
:1021000040F0807088630AE04E48006A40F08070BA
:102110004C4908620846C06B40F08070C863FFF706
:102120008DFE4848006A40F0007046490862084643
:10213000C06B40F00070C863FFF780FE4148006A42
:1021400040F000703F4908620846806B40F0007024
:102150008863FFF773FE6006040E681CC5B2082D85
:10216000C3DB344604F0F004002539E014F0800F9E
:102170000BD03448006A40F080703249086208464B
:10218000806B40F0807088630AE02E48006A40F05F
:1021900080702C4908620846C06B40F08070C863AC
:1021A000FFF74CFE2748006A40F00070254908629E
:1021B0000846C06B40F00070C863FFF73FFE21483F
:1021C000006A40F000701F4908620846806B40F0CA
:1021D00000708863FFF732FE6006040E681CC5B20B
:1021E000082DC3DB34462007040E002540E014F020
:1021F000800F0BD01348006A40F0807011490862CC
:102200000846806B40F0807088630AE00D48006AE1
:1022100040F080700B4908620846C06B40F0807047
:10222000C863FFF70BFE0748006A40F000700549DD
:1022300008620846C06B40F0007005E0482F0010AF
:10224000C027001000C00920C863FFF7F7FDF84859
:10225000006A40F00070F64908620846806B40F062
:1022600000708863FFF7EAFD6006040E681CC5B2C3
:10227000082DBCDBEE48006E40F00070EC490866AB
:102280000846C06F40F00070C867F0BD002132E022
:10229000E74A126E42F00072E54B1A661A46D26F98
:1022A00042F00072DA6710F0800F0AD11A46126A03
:1022B00042F080721A621A46D26B42F08072DA6380
:1022C0000AE0DB4A126A42F08072D94B1A621A465F
:1022D000926B42F080729A63D54A126E42F000729D
:1022E000D34B1A661A46926F42F000729A67420602
:1022F000100E4A1CD1B20829CADB704710B504463B
:10230000CB48006A40F00070C94908620846806BFB
:1023100040F0007088630846006A40F08060086200
:102320000846C06B40F08060C8632046FFF7AEFFF0
:10233000BF48006A40F08060BD4908620846806B73
:1023400040F0806088630846006A40F000700862D0
:102350000846C06B40F00070C86310BD10B5E220A5
:10236000FFF7CCFF04201EF04FF92620FFF7C6FF31
:102370002F20FFF7C3FFEA20FFF7C0FF8120FFF700
:10238000BDFF7220FFF7BAFFC820FFF7B7FF40205C
:10239000FFF7B4FFAF20FFF7B1FF10BD10B5A548A0
:1023A00090F89200022802D1FFF7D8FF40E03024D5
:1023B00000212046FFF77BFD062400212046FFF781
:1023C00076FD0C2400212046FFF771FD0124002139
:1023D0002046FFF76CFD022400212046FFF767FD31
:1023E000802400212046FFF762FD924890F8920079
:1023F00001281DD1302400212046FFF753FE06247A
:1024000000212046FFF74EFE0C2400212046FFF756
:1024100049FE012400212046FFF744FE022400214A
:102420002046FFF73FFE802400212046FFF73AFEBA
:1024300010BD10B504467E48006A40F000707C492B
:1024400008620846806B40F0007088630846006AA6
:1024500040F0806008620846806B40F080608863CE
:102460002046FFF713FF7248006A40F08060704911
:1024700008620846C06B40F08060C8630846006A86
:1024800040F0007008620846C06B40F00070C863FE
:1024900010BD30B504460D4645F0B000FFF72EFFE5
:1024A000102141EA2410FFF729FF04F00F00FFF785
:1024B00025FF30BD30B500240CE0E1B20020FFF76D
:1024C000E8FF002503E00020FFF7B3FF6D1CF02DAF
:1024D000F9D3641C102CF0D330BD10B5554890F8DA
:1024E0009200022802D1FFF7E5FF0EE0012400214F
:1024F0002046FFF7DCFC4F4890F89200012804D1F9
:1025000000BF00212046FFF7CDFD10BD2DE9FF4F94
:1025100083B081460F469246109CCDF80490BB468E
:10252000069860430090082C02D10125082614E08B
:10253000102C01D0202C02D1022566100DE0402C79
:1025400002D10425102608E0802C02D10425202683
:1025500003E0902C01D1062518264FF000081EE05C
:102560000198C1B20BF0FF00FFF793FF002002902B
:102570000CE000991AF80100FFF75BFF0098401C7F
:1025800000900BF1010B0298401C02900298B0429F
:10259000EFD30198401C0190BB4608F10108A84503
:1025A000DED307B0BDE8F08F2DE9F043A5B080463B
:1025B00089461746902101A822F026F8B8F1E00FCD
:1025C00048D01ADCB8F1900F3CD00CDCB8F1800F89
:1025D0002BD0B8F1810F2FD0B8F1820F2ED0B8F1E7
:1025E000830F47D12CE0B8F1910F2DD0B8F1920FA5
:1025F0002CD0B8F1930F3DD12AE0B8F1F00F31D0D3
:1026000009DCB8F1E10F27D0B8F1E20F26D0B8F11C
:10261000E30F2FD124E0B8F1F10F25D0B8F1F20F7C
:1026200024D0B8F1F30F25D122E0002422E00000ED
:1026300000C00920482F001001241BE0022419E0EB
:10264000032417E0042415E0052413E0062411E018
:1026500007240FE008240DE009240BE00A2409E018
:102660000B2407E00C2405E00D2403E00E2401E018
:102670000F2400BF00BF2646B9F1010F0CD1F1B203
:102680000020FFF706FF002503E00120FFF7D1FE41
:102690006D1CF02DF9D32CE0032F0DD1002508E09F
:1026A00040230093002301AAE9B2F0B2FFF72EFF06
:1026B0000F35F02DF4D31CE0022F0DD1002508E0DA
:1026C00090230093002301AAE9B2F0B2FFF71EFFA6
:1026D0001735F02DF4D30CE0002508E020230093FB
:1026E000002301AAE9B2F0B2FFF710FF0F35F02D79
:1026F000F4D325B0BDE8F0832DE9FF4FADF5357D6E
:1027000082468946DDF80CB390218FA821F07CFF2A
:10271000302183A821F078FF002082904FF40071CF
:1027200002A821F071FF00200190BAF1E00F43D020
:102730001ADCBAF1900F37D00CDCBAF1800F2BD035
:10274000BAF1810F2AD0BAF1820F29D0BAF1830FE2
:1027500042D127E0BAF1910F28D0BAF1920F27D0D9
:10276000BAF1930F38D125E0BAF1F00F2CD009DC83
:10277000BAF1E10F22D0BAF1E20F21D0BAF1E30FA2
:102780002AD11FE0BAF1F10F20D0BAF1F20F1FD019
:10279000BAF1F30F20D11DE000261DE001261BE059
:1027A000022619E0032617E0042615E0052613E0AB
:1027B000062611E007260FE008260DE009260BE0AB
:1027C0000A2609E00B2607E00C2605E00D2603E0AB
:1027D0000E2601E00F2600BF00BF35464C465FEADB
:1027E000090404D15A4600215046FFF7DDFE83A8B4
:1027F000B79921F021FE0020B390002749E1002085
:10280000829083A8C05D802871DABBF1030F2AD1C2
:102810004FF010080420B49038467F1C83A9085C50
:102820008DF808025B468FA982A8C29A19F0F8FEBB
:10283000F0B34023009300238FAAE1B2E8B2FFF780
:1028400065FE04EB080000EB98049DF808023128AF
:1028500000D1E41FF02C02D34C46B4980544102D4F
:1028600026D3554615E1BBF1020F41D14FF01808B0
:102870000620B49038467F1C83A9085C8DF80802B6
:102880005B468FA982A8C29A19F0CAFE80B19DF852
:1028900008022E2803D09DF808023A280DD1A4EB97
:1028A00098049023009300238FAAE1B2E8B200E0DD
:1028B0001CE0FFF72BFE444410E09023009300231C
:1028C0008FAAE1B2E8B2FFF721FE04EB080000EBAB
:1028D00098049DF80802312800D10B3CF02C02D35B
:1028E0004C46B4980544102D00D35546D1E02FE056
:1028F0004FF008080220B49038467F1C83A9085C7A
:102900008DF808025B468FA982A8C29A19F088FE4A
:10291000F0B31023009300238FAAE1B2E8B2FFF7CF
:10292000F5FDBBF1010F09D104EB080000EB9804A1
:102930009DF80802312802D1E41E00E04444F02C46
:1029400002D34C46B4980544102D21D35546A0E03F
:1029500083A8C05DF02803D083A8C05DF12829D1E9
:102960004FF008080220B49038467F1C83A9085C09
:102970008DF8080238467F1C085C8DF809025B461A
:102980008FA982A8C29A19F04BFE08B1102300E06B
:102990000FE0009300238FAAE1B2E8B2FFF7B6FD83
:1029A0004444F02C02D34C46B4980544102D70D307
:1029B00055466EE083A8C05D83AA791C515C01EB8B
:1029C000002080B201900198A0F52141FB390ED082
:1029D0000198A0F52141FA3909D00198A0F52141CB
:1029E000FC3904D00198A0F52141FD392AD1BBF171
:1029F000030F27D14FF020080420B49038467F1CE5
:102A000083A9085C8DF8080238467F1C085C8DF8A5
:102A100009025B468FA982A8C29A19F001FEC0B3D1
:102A20008023009300238FAAE1B2E8B2FFF76EFD86
:102A30004444F02C02D34C46B4980544102D28D3BE
:102A4000554626E04FF010080220B49038467F1C0F
:102A500083A9085C8DF8080238467F1C085C8DF855
:102A600009025B468FA982A8C29A19F0D9FD80B1EC
:102A70002023009300238FAAE1B2E8B2FFF746FDBE
:102A80004444F02C02D34C46B4980544102D00D396
:102A90005546B8988742FFF4B2AE0DF5397DBDE8D2
:102AA000F08F2DE9F0478EB080460C461746302156
:102AB00002A821F0A9FD204621F0E2FC8246024650
:102AC000214602A821F007FDF94890F8920002285B
:102AD00009D10023009301933B4622460021404642
:102AE000FFF70AFED4E0F24890F89200012872D174
:102AF00008F0F000802806D0902805D0E02807D004
:102B0000F0280FD109E000BF46464FF0010909E067
:102B100008F08F064FF0020904E008F09F064FF01E
:102B2000020900BF00BFB9F1010F39D1E048007AB6
:102B3000022821D106F0F000802802D090281AD176
:102B40000CE002A821F09CFC82460023009303467F
:102B500002AA0121084619F0F3FB0CE002A821F0BB
:102B60008FFC824600230093034602AA0121022023
:102B700019F0E6FB00BF8BE000213046FFF792FA28
:102B8000142F00DD1427002507E014F8016B012144
:102B90003046FFF787FA681CC5B2BD42F5DB77E027
:102BA000B9F1020F74D1C248007A022822D106F08E
:102BB000F000802802D090281BD10DE002A821F05F
:102BC0005FFC824600230093034602AA02210120F3
:102BD00019F0B6FB0DE021E002A821F051FC82467D
:102BE00000230093034602AA0221084619F0A8FB1D
:102BF00000BF4DE000213046FFF759F9142F00DDEA
:102C00001427002507E014F8016B01213046FFF777
:102C10004EF9681CC5B2BD42F5DB39E0A448007A24
:102C2000022821D108F0F000802802D090281AD183
:102C30000CE002A821F024FC824600230093034606
:102C400002AA0221012019F07BFB0CE002A821F06E
:102C500017FC824600230093034602AA022108467D
:102C600019F06EFB00BF13E0464600213046FFF727
:102C70001EF9142F00DD1427002507E014F8016B5E
:102C800001213046FFF713F9681CC5B2BD42F5DBE0
:102C90000EB0BDE8F0872DE9F0478EB080460D46B6
:102CA0001746302102A821F0AFFC284621F0E8FBAE
:102CB00082460246294602A821F00DFC7C4890F885
:102CC0009200022809D10023009301933B462A4633
:102CD00000214046FFF710FDF5E0754890F892009E
:102CE00001286FD108F0F000802806D0902805D088
:102CF000E02807D0F0280FD109E000BF46464FF08A
:102D0000010909E008F08F064FF0020904E008F01D
:102D10009F064FF0020900BF00BFB9F1010F43D178
:102D20006348007A022821D106F0F000802802D002
:102D300090281AD10CE002A821F0A2FB82460023C1
:102D40000093034602AA0121084619F0F9FA0CE0A3
:102D500002A821F095FB824600230093034602AAB5
:102D60000121022019F0ECFA00BFACE0002130464E
:102D7000FFF798F9142F00DD1427002407E015F859
:102D8000016B01213046FFF78DF9601CC4B2BC42D3
:102D9000F5DB06E0202601213046FFF783F9601CB1
:102DA000C4B2142CF6DB8EE0B9F1020F25D14048F5
:102DB000007A022822D106F0F000802803D0902863
:102DC0001BD10DE038E002A821F05AFB8246002317
:102DD0000093034602AA0221012019F0B1FA0CE087
:102DE00002A821F04DFB824600230093034602AA6D
:102DF0000221084619F0A4FA00BF64E00021304621
:102E0000FFF755F8142F00DD1427002407E015F80C
:102E1000016B01213046FFF74AF8601CC4B2BC4286
:102E2000F5DB06E0202601213046FFF740F8601C64
:102E3000C4B2142CF6DB46E01D48007A022821D1EA
:102E400008F0F000802802D090281AD10CE002A8E7
:102E500021F016FB824600230093034602AA0221BA
:102E6000012019F06DFA0CE002A821F009FB82465E
:102E700000230093034602AA0221084619F060FAD3
:102E800000BF20E0464600213046FFF710F8142F1F
:102E900000DD1427002407E015F8016B01213046FE
:102EA000FFF705F8601CC4B2BC42F5DB09E0000086
:102EB000482F0010202601213046FEF7F8FF601C45
:102EC000C4B2142CF6DB0EB0BDE8F08770B5044632
:102ED000F84890F89200012849D134B1012C14D05F
:102EE000022C22D0032C40D12FE02425002128469B
:102EF000FFF7D8F8042500212846FFF7D3F820254E
:102F000000212846FFF7CEF830E02425002128468E
:102F1000FFF7C8F8052500212846FFF7C3F820254C
:102F200000212846FFF7BEF820E02425002128468E
:102F3000FEF7BDFF042500212846FEF7B8FF202537
:102F400000212846FEF7B3FF10E024250021284683
:102F5000FEF7ADFF052500212846FEF7A8FF202536
:102F600000212846FEF7A3FF00E000BF1BE0242558
:102F700000212846FEF79BFF14B1012C0CD105E07F
:102F8000042500212846FEF792FF06E005250021D2
:102F90002846FEF78CFF00E000BF00BF202500217F
:102FA0002846FEF784FF70BD2DE9F0410746012F4A
:102FB00001D1FF2600E000264FF0360800214046F0
:102FC000FEF775FF00BF00214046FEF770FF4FF08F
:102FD000010800214046FEF76AFF002415E004F1D5
:102FE0008001C8B20021FEF762FF00218020FEF7B9
:102FF0005EFF002505E001213046FEF758FF681C02
:10300000C5B2102DF7DB601CC4B2202CE7DB002416
:1030100015E004F18001C8B20021FEF748FF00214D
:103020008820FEF744FF002505E001213046FEF729
:103030003EFF681CC5B2102DF7DB601CC4B2202C0B
:10304000E7DB4FF0200800214046FEF730FF9948AB
:1030500090F8920001284AD14FF0360800214046EE
:10306000FFF720F800BF00214046FFF71BF84FF0A4
:10307000010800214046FFF715F8002415E004F18F
:103080008001C8B20021FFF70DF800218020FFF772
:1030900009F8002505E001213046FFF703F8681C18
:1030A000C5B2102DF7DB601CC4B2202CE7DB002476
:1030B00015E004F18001C8B20021FEF7F3FF002102
:1030C0008820FEF7EFFF002505E001213046FEF7DE
:1030D000E9FF681CC5B2102DF7DB601CC4B2202CC0
:1030E000E7DB4FF0200800214046FEF7E0FEBDE898
:1030F000F08170B505466F4890F8920001281FD105
:1031000005F0F000802806D0902805D0E02808D0EF
:10311000F02814D10CE000BF00212846FEF7C2FFC2
:103120000DE005F08F0400212046FEF7C0FE06E00A
:1031300005F09F0400212046FEF7B9FE00BF03E022
:1031400000212846FEF7B3FE70BD70B5044659480D
:1031500090F8920001280ED10F25012C04D10021F6
:103160002846FEF79FFF0BE0022C09D100212846DC
:10317000FEF79DFE04E00F2500212846FEF797FE8E
:1031800070BD70B504464B4890F8920001280ED1EE
:103190000C25012C04D100212846FEF783FF0BE00B
:1031A000022C09D100212846FEF781FE04E00C25FF
:1031B00000212846FEF77BFE70BD70B50446002551
:1031C0000DE0E9B20020FFF764F9002604E014F8EE
:1031D000010BFFF72EF9761CF02EF8D36D1C102D85
:1031E000EFD370BD70B50546FFF764F9002412E017
:1031F000E1B20020FFF74DF9FF20FFF71AF9002692
:1032000003E0285DFFF715F9761CEE2EF9D3FF20B9
:10321000FFF70FF9641C102CEAD370BD2DE9F74FAE
:10322000ADF5447D0D4616464FF44271684621F0D7
:10323000EBF9C498E02834D012DC902829D008DCBF
:1032400080281ED081281ED082281ED083283BD102
:103250001DE091281FD092281FD0932834D11EE062
:10326000F02829D006DCE1281DD0E2281DD0E32873
:103270002AD11CE0F12821D0F22821D0F32823D133
:1032800020E0002420E001241EE002241CE00324AE
:103290001AE0042418E0052416E0062414E00724AC
:1032A00012E0082410E009240EE00A240CE00B24AC
:1032B0000AE00000482F00100C2405E00D2403E074
:1032C0000E2401E00F2400BF00BFA046A9461EB98E
:1032D0000DF5477DBDE8F08F6946304619F0B9FA23
:1032E0000520C3909B20C2904FF0000A002719E0F0
:1032F00008F0FF0109F0FF00FFF7CBF84FF0000BDB
:1033000009E01DF80A00FFF794F80AF1010A09F133
:1033100001090BF1010BC2988345F2D308F10108B2
:10332000A9467F1CC3988742E2D300BFD0E710B5FF
:1033300004461A48FFF741FF10BDF0B504460D469C
:1033400017462E46E91705EB5171C910B031C8B2C6
:10335000FEF7D4FF2646E11704EB1171091101F1C4
:103360001000FEF7CBFFE11704EB11710911A4EB7C
:103370000111C8B2FEF7C2FF67B12E46E91705EB8F
:103380005171C910A5EBC10201219140C8B2FFF7EC
:1033900050F802E00020FFF74CF8F0BD0E5B020091
:1033A0000146082917D007DCF9B101290DD00229FF
:1033B0000DD004291BD10CE010290ED020290ED0ED
:1033C00040290ED0802912D10DE0002011E001200B
:1033D0000FE002200DE003200BE0042009E00520AF
:1033E00007E0062005E0072003E0102001E0202090
:1033F00000BF00BF70472DE9F04700224FF4404165
:1034000001201FF05BFC01224FF47C7100201FF0B3
:1034100055FC01224FF4403110461FF04FFC4FF491
:103420007C7100201FF068FC4FF4403101201FF038
:1034300063FC4FF0180900BFA9F10100C0B25FEAB8
:103440000009F9D101201FF061FCC0F3813700228F
:103450004FF47C7110461FF031FC00224FF44031D4
:1034600001201FF02BFC01224FF4404110461FF0B9
:1034700025FC4FF4404101201FF03EFC4FF018099D
:1034800000BFA9F10100C0B25FEA0009F9D1012033
:103490001FF03CFCC0F3014A00201FF037FCC0F3D2
:1034A00005104AEA8008032121EA0700FFF778FFA8
:1034B00004466FEA0800C0B2FFF772FF0546102C01
:1034C00003D1102D01D1FF260EE0102C01D0102DBC
:1034D00001D1FE2608E0202C01D0202D01D1FD26AF
:1034E00002E005EBC400C6B200224FF440410120C7
:1034F0001FF0E4FB01224FF47C7100201FF0DEFB83
:1035000001224FF4403110461FF0D8FB4FF47C717C
:1035100000201FF0F1FB4FF4403101201FF0ECFBC5
:103520004FF0180900BFA9F10100C0B25FEA00091D
:10353000F9D13046BDE8F08770B57E4800780128A3
:1035400075D1FFF758FF7C490870FF2828D17B48C8
:103550000078FF2803D17A480078002809DD01228D
:10356000910710461FF0AAFB4FF0804101201FF089
:10357000C3FB002072490870FF20704908706E4933
:10358000087000206B4908706E48006920F0407098
:103590006C4908610846006940F08070086166E087
:1035A0006648007864490978884260D162480078AA
:1035B000FD283DD060480078FE2839D0604800786A
:1035C000A0BB01205E4908705C4800785E498860B5
:1035D00008315E4800681CF0A7FA0646642522E020
:1035E000002400E0641C42F228308442FADB01220D
:1035F000C10610461FF062FB4FF0804101201FF012
:1036000071FB002400E0641C42F228308442FADBA3
:103610000122C10610461FF051FB4FF080410120EE
:103620001FF06AFB6D1E002DDADC20E000E022E0D6
:1036300043480078002809DD41480078FF2805DA72
:103640003F480078401C3E49087002E000203C4999
:1036500008703B480078052809D1012281071046EF
:103660001FF02CFB4FF0804101201FF045FB32483A
:1036700000783249087070BD10B5022000DF1DF0DF
:1036800080F93048006920F040702E49086101201F
:103690002849087004202E4908601DF080F9032095
:1036A00000DF10BD10B52748006920F040702549A3
:1036B00008610846006940F080700861254800688C
:1036C00040F004002449C1F848014FF000002349AC
:1036D00008604FF03802AFF25F014FF024001BF09A
:1036E0000CFB1BF006FB10BD10B500224FF440414F
:1036F00001201FF0E3FA01224FF47C7100201FF03B
:10370000DDFA01224FF4403110461FF0D7FA4FF492
:103710007C7100201FF0F0FA4FF4403101201FF0BF
:10372000EBFA182400BF601EC0B20400FBD1FFF703
:10373000B9FF10BD780000107A0000107B00001067
:103740007900001000C00240183400105000001032
:1037500040C10F4048C10F4000C00F404CC10F4056
:103760002DE9F04107460024FC4E4FF4E0654FF48C
:10377000047095FBF0F0401C0FFA80F8012F0ED179
:1037800000BF09E004F10A0188B2314620F091FA45
:1037900006F50476601C84B24445F3DB1EE01BE0B2
:1037A000B5F5047F09DD04F10A0188B233464FF410
:1037B0000472002120F0B4F907E004F10A0188B294
:1037C0003346AAB2002120F0ABF9601C84B2A5F503
:1037D000047005B206F50476002DE1DCBDE8F08149
:1037E0002DE9F041054600BFDD4EB0244FF40470D2
:1037F00094FBF0F0401C07B2012D04D131460920A2
:1038000020F057FA05E03346A2B20021092020F04B
:1038100087F9D44E01244FF4047094FBF0F0401C5F
:1038200007B2012D04D13146172020F042FA05E0FD
:103830003346A2B20021172020F072F9BDE8F081D2
:103840002DE9F041044600BFC74D40264FF40470F7
:1038500096FBF0F0401C07B2012C04D1294615203C
:1038600020F027FA05E02B46B2B20021152020F007
:1038700057F9BDE8F0812DE9F041044600BFBB4D8A
:1038800010264FF4047096FBF0F0401C07B2012C98
:1038900004D12946072020F00CFA05E02B46B2B2ED
:1038A0000021072020F03CF9BDE8F0812DE9F0412E
:1038B000044600BFAE4DB6264FF4047096FBF0F000
:1038C000401C07B2012C04D12946162020F0F1F942
:1038D00005E02B46B2B20021162020F021F9BDE808
:1038E000F08170B50446A34DA826012C06D1A2494B
:1038F000B1F82401294620F0DCF907E09E49B1F82F
:1039000024012B46B2B2002120F00AF99A48B0F8FF
:103910002411B0F82401401C974AA2F82401B1F503
:103920007A6F03DD1E201146A1F82401924D4FF459
:10393000BE76012C04D12946082020F0BAF905E012
:103940002B46B2B20021082020F0EAF870BD70B515
:10395000ACB0FEF7C2FDB0228149684620F000FEFF
:103960007F4E002404E0002006F8010B601C84B2A6
:10397000B02CF8D3794E002404E0002006F8010BA7
:10398000601C84B2B4F5E06FF7D300245EE001213F
:1039900073487C3001551A2108300155601CC1B2B2
:1039A00076480155601CC1B27448083001550025A5
:1039B00048E004F00DFEB0B98320C4EBC401674AAF
:1039C00002EB4111C5EBC50201EB82010872002038
:1039D000C4EBC401614A02EB4111C5EBC50201EB26
:1039E0008201487215E08120C4EBC4015B4A02EBFE
:1039F0004111C5EBC50201EB820108726320C4EBE3
:103A0000C401564A02EB4111C5EBC50201EB82012C
:103A100048726420C4EBC401504A02EB4111C5EB6B
:103A2000C50201EB82014860681C5449803901EBF2
:103A3000C4014855C1B25148403800EBC40041555B
:103A4000681C85B2082DB4DB601C84B2082C9EDB98
:103A50004FF49850424908804FF4B850488004F021
:103A6000B4FD48B946483E4948604648C1F8A400FC
:103A70004548C1F8A80006E0414839494860C1F806
:103A8000A400C1F8A80014203B49A1F82401642136
:103A90003348816400203249C86300213048016402
:103AA0004164816400202E49C86500212C480166CC
:103AB0004166816600202A49C860002128480161CA
:103AC0004FF4FA60264988616420C861002081F8BB
:103AD0008C00022081F89800012081F88E0081F886
:103AE0008F0081F89500022081F8960081F89700F8
:103AF0009DF8920081F892009DF8930081F8930060
:103B00009DF8940081F894009DF8AC0081F8AC0019
:103B10009DF8AD0081F8AD00012081F899000020EA
:103B200081F89A002CB070BD38B50446214617A024
:103B300014F0C9FD1A4800681BF06EFC20061949F4
:103B40000860194800681BF04AFD6A464FF4C861D6
:103B5000134800681BF0E9FC38BD0000C8270010BE
:103B6000482F00100800001060320010F82F0010DD
:103B7000A032001008300010B030001008340010DF
:103B800040E201009D71FD048931FD040D0A536579
:103B900074546F75426953746174203D202575001B
:103BA00044000010183400104C00001010B5022022
:103BB00000DF1CF0E6FE01204FF040210860FFF717
:103BC000BBFCD54890F89600012801D10AF090FE80
:103BD000D2484089002804DDD0484089401ECF49A2
:103BE0004881CF480088002804DDCD480088401E69
:103BF000CB490880CA484088002804DDC84840886E
:103C0000401EC7494880C6488088002804DDC44853
:103C10008088401EC2498880C248B0F80C02002843
:103C200006DDC048B0F80C02401EBE49A1F80C02E7
:103C3000BC48B0F80E02002806DDBA48B0F80E0203
:103C4000401EB849A1F80E02B748B0F80602002895
:103C500006DDB548B0F80602401EB349A1F80602D9
:103C6000B148B0F80802002806DDAF48B0F80802F5
:103C7000401EAD49A1F80802AB48B0F80A0200287E
:103C800006DDA948B0F80A02401EA749A1F80A02B9
:103C9000A548B0F80C02002806DDA348B0F80C02D5
:103CA000401EA149A1F80C029E48B0F80C02002861
:103CB00006DD9C48B0F80C02401E9A49A1F80C029F
:103CC0009848B0F80E02002806DD9648B0F80E02BB
:103CD000401E9449A1F80E029348B0F8140200283F
:103CE00006DD9148B0F81402401E8F49A1F8140275
:103CF0008D48B0F82202401C8B49A1F822020846E8
:103D0000B0F82602002805DD0846B0F82602401E5D
:103D1000A1F8260285480078401C844908700846AE
:103D2000007864287EDB002008707E48B0F810021E
:103D3000002806DD7B48B0F81002401E7949A1F842
:103D400010027848B0F81202002806DD7548B0F875
:103D50001202401E7349A1F812027348B0F80E0215
:103D6000002806DD7048B0F80E02401E6E49A1F82A
:103D70000E026D48B0F81002002806DD6A48B0F85F
:103D80001002401E6849A1F810026748B0F81202FC
:103D9000002806DD6448B0F81202401E6249A1F80E
:103DA00012026148B0F86603002806DD5E48B0F8EC
:103DB0006603401E5C49A1F866035B48B0F86A03DD
:103DC00030B15948B0F86A03401E5749A1F86A0358
:103DD000554890F8160210F0010F06D05248B0F87E
:103DE0001802401C5049A1F818024F48B0F81A02B6
:103DF000401C4D49A1F81A02084690F8160210F02E
:103E0000040F05D00846B0F81C02401CA1F81C02A3
:103E1000454890F8160210F0080F08D04248B0F854
:103E20001E0200E017E0401C3F49A1F81E023E4878
:103E300090F8160210F0100F06D03B48B0F82002A0
:103E4000401C3949A1F820023748B0F87403401CDF
:103E50003549A1F874031CF0A2FD032000DF10BD5A
:103E600010B5022000DF1CF08CFD012030490860F5
:103E70001CF095FD032000DF10BD20B901214FF09B
:103E80004022516002E00121294A5160704720B967
:103E900000214FF04022516002E00021244A51608D
:103EA0007047014631B94FF04022506840F002009F
:103EB000506004E01E4A506840F0020050607047B5
:103EC00070B505460C4600201849087085B94FF0BA
:103ED0004020846103204FF0402148613822AFF236
:103EE000333111201AF009FF1AF003FF012070BDD1
:103EF000012D0ED10E48846103200D4948613822FE
:103F0000AFF2A30112201AF0F8FE1AF0F2FE002020
:103F1000EDE70120EBE70000482F00103A670010A2
:103F20002C000010545B0010885E00107C00001014
:103F30000080004070B504460D46214643A019F0AC
:103F400097FE35B9042008F0CCF8204608F0EFF8C9
:103F500006E0032008F0C5F8204608F0E8F800BFA6
:103F600000BF08F0DDF870BD2DE9F05F81460E4618
:103F7000924608F01DF908F0ACF84FF0000B43E052
:103F80004FF00008002701214846FFF7D3FF07EB59
:103F90000900C7B2002408E0305D0021FFF7CAFF26
:103FA000305D3844C7B2601CC4B25445F4DB002114
:103FB0003846FFF7BFFF28201CF026FB24212548A8
:103FC00008F0CBF80546294623A019F051FE00243D
:103FD00006E02048015D1DA019F04AFE601CC4B235
:103FE000AC42F6DB08F06FF8804641461EA019F09F
:103FF0003FFEB8F1000F00D109E014201CF004FBD3
:104000000BF1010000F0FF0BBBF1080FB8DB00BFA4
:10401000B8F1000F01D0404600E0681EC0B2BDE814
:10402000F09F0246242900DD2421002004E0094BF2
:104030001B5C1354431CD8B28842F8DB704701461E
:10404000242901DD012070470020FCE720253032C3
:1040500078000000B85800100D0A52203D2025308D
:104060003278202D200000002009657272203D204A
:10407000253032780000000070B50446092C22DD9E
:104080000020FB490860FB490870FB4804700020D1
:10409000F9494870F948007A022809D1084620F009
:1040A000EFF9C5B22A46F4499020FEF7FAFC2AE05F
:1040B000F14820F0E5F9C5B22A46EF49F04800780A
:1040C000FEF7EFFC1FE0EC49EA4A12788818224616
:1040D000ECA11FF047FFE948007A022809D1E64821
:1040E00020F0CEF9C5B22A46E3499020FEF7D9FC6C
:1040F00009E0E14820F0C4F9C5B22A46DE49E048AB
:104100000078FEF7CEFC70BD70B504460B2C26DDA2
:104110000020D74908600024D6490870DAA1D648A3
:1041200020F08AF9D548007A022809D1D24820F037
:10413000A7F9C5B22A46D0499020FEF7B2FC09E0A3
:10414000CD4820F09DF9C5B22A46CB49CC4800782D
:10415000FEF7A7FCCA480078FEF7CBFF18E10B2C4E
:1041600070D1C4480078002867DDCA48007801286B
:104170000DD10020C7490870BD4800680A21B0FB76
:10418000F1F000EB80004000B949086025E0C2482A
:10419000007801280BD10020BF490870B44800689E
:1041A0006421B0FBF1F04843B149086015E0BB4819
:1041B000007801280AD10020B8490870AC4800688E
:1041C0006421B0FBF1F0AA49086006E0A848006845
:1041D0000A21B0FBF1F0A6490860A6490A780978DF
:1041E000491EA44B1970A4491144481EACA11FF0EC
:1041F000B9FEA248007A022809D19F4820F040F970
:10420000C5B22A469C499020FEF74BFC09E09A482B
:1042100020F036F9C5B22A46974999480078FEF74A
:1042200040FC94490D7805EBD571954A127802EB64
:104230006101C8B2FEF75DFFAAE00020994908704D
:10424000A6E0FFE78B48007897490978884228DA8A
:104250000A2C33D19148007878BB94480078012823
:104260002CD18E49087000208B490870894908704C
:1042700080490A780978491C7E4B19707E4950188C
:104280008BA28CA11FF06EFE7C48007A022809D117
:10429000794820F0F5F8C5B22A4677499020FEF714
:1042A00000FC75E0744820F0EBF8C5B22A4672496C
:1042B00073480078FEF7F5FB6AE0FFE70A2C67DA3F
:1042C0000120784908707548007801281FD172488C
:1042D000007801280DD16F480078012800D170BD09
:1042E00001206C49087062480068204460490860F9
:1042F00015E00120684908705D4800686421484362
:1043000004EB840100EB41005949086007E058487C
:10431000006800EB800004EB4000554908606648E7
:10432000007860B153490A780978491C514B1970DB
:104330005149501861A25FA11FF014FE0BE04D49D6
:104340000A780978491C4B4B19704B495018224682
:104350004CA11FF007FE4948007A022804D04748C4
:1043600090F89200022809D1434820F089F8C5B29C
:104370002A4641499020FEF794FB09E03E4820F090
:104380007FF8C5B22A463C493D480078FEF789FBD4
:1043900000BFA4E72DE9F0479AB0054600208DF84C
:1043A0003800FEF79AF84FF00408C8F108094448AD
:1043B000405D401E46B20024B9E04148803800EB21
:1043C000C600005DC8B33E48803800EBC600005D03
:1043D000401E47B2C6EBC6003A4901EB4010C7EB9E
:1043E000C70100EB8100007A80280CD12348017AB4
:1043F000354850F821300093631C6A1C33A102A891
:104400001FF0B0FD8DE0C6EBC6002E4901EB401059
:10441000C7EBC70100EB8100007A82280ED1174854
:10442000017A2948103850F821300093631C6A1C27
:1044300026A102A81FF096FD73E076E0C6EBC60049
:10444000204901EB4010C7EBC70100EB8100007A67
:1044500083283FD10948017A1B48703050F8213039
:104460000093631C6A1C19A102A81FF07BFD58E091
:10447000100100100C010010F2580010482F00101D
:104480000B01001025780000202020202020202073
:1044900000000000EA000010E9000010E800001031
:1044A0002000000014010010E4000010E7000010DC
:1044B0002E00000025730000E60000102A00000016
:1044C00008340010C8270010D82400102564256483
:1044D00025730000C6EBC600FF4901EB4010C7EB97
:1044E000C70100EB8100407A68B9FC48017AFC48BA
:1044F00050F821300093631C6A1CAFF2300102A80F
:104500001FF030FD0DE0F548017AF548903850F87D
:1045100021300093631C6A1CAFF2500102A81FF007
:1045200021FD02A90EA81FF0CAFF601CC4B24445B9
:10453000FFF643AF0EA81FF0A3FF00F0FF0A52469C
:104540000EA98020FEF7ADFA00208DF83800B9F1F1
:10455000000F76DD042489E0E24800EBC600005D30
:10456000D8B3E04800EBC600005D401E47B2C6EB82
:10457000C600D94901EB4010C7EBC70100EB810031
:10458000007A80280ED1D548017AD548703850F885
:1045900021300093631C6A1CAFF2D00102A81FF007
:1045A000E1FC5DE0C6EBC600CB4901EB4010C7EB78
:1045B000C70100EB8100007A82280FD1C748017A39
:1045C000C748803850F821300093631C6A1CAFF252
:1045D000041102A81FF0C6FC42E045E0C6EBC6008D
:1045E000BD4901EB4010C7EBC70100EB8100007A29
:1045F00083280DD1B948017AB94850F82130009389
:10460000631C6A1CAFF23C1102A81FF0ABFC27E050
:10461000C6EBC600B04901EB4010C7EBC70100EB89
:104620008100407A70B9AD48017AAD4850F8213028
:104630000093631C6A1CAFF26C1102A81FF092FC7D
:104640000EE022E0A548017AA548903850F82130C4
:104650000093631C6A1CAFF28C1102A81FF082FC4D
:1046600002A90EA81FF02BFF601CC4B209F10400C0
:104670008442FFF671AF0EA81FF002FF00F0FF0AA0
:1046800052460EA99020FEF70CFA944890F892003A
:10469000012804D0914890F8920002287ED1681C2D
:1046A000C5B200208DF838004FF00408C8F10809A1
:1046B0008C488030405D401E46B200248AE0894824
:1046C00000EBC600005DD8B3864800EBC600005D75
:1046D000401E47B2C6EBC6007F4901EB4010C7EB56
:1046E000C70100EB8100007A80280ED17B48017A57
:1046F0007B48703850F821300093631C6A1CAFF27D
:10470000342102A81FF02EFC5EE0C6EBC600724901
:1047100001EB4010C7EBC70100EB8100007A822853
:104720000FD16E48017A6E48803850F821300093DE
:10473000631C6A1CAFF26C2102A81FF013FC43E05B
:1047400046E0C6EBC600644901EB4010C7EBC70169
:1047500000EB8100007A83280DD16048017A60481F
:1047600050F821300093631C6A1CAFF2A02102A80C
:104770001FF0F8FB28E0C6EBC600574901EB4010DC
:10478000C7EBC70100EB8100407A78B95348017A42
:10479000534850F821300093631C00E0A4E06A1CE9
:1047A000AFF2D82102A81FF0DDFB0DE04B48017AE3
:1047B0004B48903850F821300093631C6A1CAFF2CC
:1047C000F42102A81FF0CEFB02A90EA81FF077FE6D
:1047D000601CC4B24445FFF672AF0EA81FF050FE35
:1047E00000F0FF0A52460EA9E020FEF75AF9002019
:1047F0008DF83800B9F1000F76DD042491E03948D6
:1048000000EBC600005DD8B3364800EBC600005D83
:10481000401E47B2C6EBC6002F4901EB4010C7EB64
:10482000C70100EB8100007A80280ED12B48017A65
:104830002B48703850F821300093631C6A1CAFF28B
:10484000743102A81FF08EFB65E0C6EBC60022495A
:1048500001EB4010C7EBC70100EB8100007A822812
:104860000FD11E48017A1E48803850F8213000933D
:10487000631C6A1CAFF2AC3102A81FF073FB4AE064
:104880004DE0C6EBC600144901EB4010C7EBC70171
:1048900000EB8100007A83280DD11048017A10487E
:1048A00050F821300093631C6A1CAFF2E03102A87B
:1048B0001FF058FB2FE0C6EBC600074901EB401084
:1048C000C7EBC70100EB8100407AB8B90348017A11
:1048D000034850F8213008E0C8270010482F001086
:1048E00048250010883300102AE00093631C6A1CDE
:1048F000AFF2284102A81FF035FB0CE0FC48017A1A
:10490000FC4850F821300093631C6A1CAFF244410C
:1049100002A81FF027FB02A90EA81FF0D0FD601C03
:10492000C4B209F104008442FFF669AF0EA81FF07B
:10493000A7FD00F0FF0A52460EA9F020FEF7B1F8DD
:1049400001201AB0BDE8F0872DE9F0479AB007467C
:1049500000208DF83800FDF7C0FD4FF00408C8F1C5
:104960000809E548C05D401E44B200257BE0E248EE
:10497000803800EBC400405D98B3DF48803800EB1E
:10498000C400405D401E46B22CE0C4EBC400DB49CD
:1049900001EB4010C6EBC60100EB8100007D002852
:1049A0000EDDD348017AD348203050F821300093EF
:1049B0006B1C7A1CAFF2EC4102A81FF0D3FA12E094
:1049C000082E08D0CC48803800EBC4023046711C59
:1049D0004EB2105C30B90026601C44B2082C01D1E4
:1049E00001E03EE0D1E700BF2BE0C4EBC400C349C7
:1049F00001EB4010C6EBC60100EB8100007D0028F2
:104A00000EDDBB48017ABB48203050F821300093BE
:104A10006B1C7A1CAFF24C5102A81FF0A3FA11E0F4
:104A2000082E08D0B448803800EBC4023046711C10
:104A30004EB2105C28B90026601C44B2082C00D18C
:104A400000E0D2E700BF02A90EA81FF038FD0EA8B3
:104A50001FF016FD00F0FF0A52460EA99020FEF747
:104A600020F8681CC5B2454581DB0EA81FF008FD83
:104A700000F0FF0A52460EA98020FEF712F800202F
:104A80008DF83800B9F1000F7ADD04258CE09A48E2
:104A9000803800EBC400405DE0B39748803800EBFD
:104AA000C400405D401E46B2C4EBC400934901EB14
:104AB0004010C6EBC60100EB8100007A80280ED1C1
:104AC0008B48017A8B48203050F8213000936B1CC2
:104AD0007A1CAFF2086102A81FF044FA5EE0C4EB52
:104AE000C400864901EB4010C6EBC60100EB810013
:104AF000007A82280FD17E48017A7E48103050F823
:104B0000213000936B1C7A1CAFF2406102A81FF0A9
:104B100029FA43E046E0C4EBC400784901EB4010B9
:104B2000C6EBC60100EB8100007A83280ED17048E5
:104B3000017A7048903050F8213000936B1C7A1C39
:104B4000AFF2786102A81FF00DFA27E0C4EBC400B1
:104B50006A4901EB4010C6EBC60100EB8100407AC8
:104B600078B96348017A6348903050F82130009357
:104B70006B1C7A1CAFF2AC6102A81FF0F3F90DE0D8
:104B800021E05B48017A5B4850F8213000936B1CB0
:104B90007A1CAFF2C86102A81FF0E4F902A90EA8BE
:104BA0001FF08DFC681CC5B209F104008542FFF6B8
:104BB0006EAF0EA81FF064FC00F0FF0A52460EA96B
:104BC0009020FDF76EFF01201AB0BDE8F087704716
:104BD00010B5044600204A490860FFF7F8FF00209E
:104BE000FEF774F94248007A022805D1072245A150
:104BF0009020FDF756FF05E0072242A143480078C8
:104C0000FDF74FFF00204249087040480078FEF74A
:104C100070FA0120FEF799FA00203E490870012041
:104C20003D49087010BD01460A2908D13B4800786B
:104C300028B93A480078401C384A10707AE00E29AA
:104C400009D136480078012805D134480078401C45
:104C5000324A10706EE00B2909D1304800780228E2
:104C600005D12E480078401C2C4A107062E00C29B7
:104C700009D12A480078032805D128480078401C2B
:104C8000264A107056E00A2909D1244800780428E1
:104C900005D122480078401C204A10704AE00829BB
:104CA00009D11E480078052805D11C480078401C11
:104CB0001A4A10703EE0082909D1184800780628E1
:104CC00005D116480078401C144A107032E00B29B8
:104CD0002DD112480078072829D100200F4A1070E2
:104CE0000F48807BF0B901200D4A90731DE0000051
:104CF000482F0010B824001008340010C8270010F6
:104D00001001001020202020202020000B01001086
:104D1000E8000010140100100A010010D400001077
:104D2000F82F00100020F84A9073012070470020EF
:104D3000F64A10700020F9E7F8B500260120F44982
:104D40000860F449086011F05AFF022011F0BDF923
:104D50000020F1490860F1490870F1490870082005
:104D6000F04908700020F04908700120EF490870F0
:104D70000020EF490870EF49087011F026FFF9E3B1
:104D80006A460021EC4800681AF066FE04469DF869
:104D90000000F0BBE448007801287DD12078082885
:104DA00055D006DC76D2DFE800F03E1F1770626C4B
:104DB000661B0D283FD008DC092844D00A2852D0B1
:104DC0000B284CD00C2865D131E00E2837D00F28A5
:104DD00041D0FF285ED15CE02F20FFF74DF95AE06B
:104DE0001820FFF749F956E0C948006800EB400079
:104DF000D24901EBC000C088A0F54071E7390ED060
:104E0000C348006800EB4000CC4901EBC000C088FB
:104E100000E0AFE3BE490860012011F056F9002020
:104E2000C149087037E01920FFF726F933E0012067
:104E3000FFF722F92FE00220FFF71EF92BE00320F5
:104E4000FFF71AF927E00420FFF716F923E0052001
:104E5000FFF712F91FE00620FFF70EF91BE007200D
:104E6000FFF70AF917E00820FFF706F913E0092019
:104E7000FFF702F90FE00020FFF7FEF80BE00BE070
:104E800008E02E20FFF7F8F805E02120FFF7F4F8FE
:104E900001E000E000BF6DE3A348007802284ED196
:104EA000207810283FD2DFE800F02A17083E473E5E
:104EB0004809434246453F4041443FE0A04800780E
:104EC000002808DD9E480078401E9D49087008466D
:104ED0000078FFF75FFA31E00020934908708C48B2
:104EE000006800EB4000954901EBC000C088A0F5C8
:104EF0004071E73902D0012011F0E7F81EE0904838
:104F0000007807280EDA8F488D490978491C405CE3
:104F100040B18B480078401C8949087008460078E9
:104F2000FFF738FA0AE000BF00BF00BF00BF00BFB4
:104F300000BF00BF00BF00BF00BF00BF1AE3824830
:104F40000078F0B3012081490870207808287ED0CD
:104F500006DC7DD2DFE800F0B88417B4D7D6D5835D
:104F60000D2876D008DC092874D00A2873D00B28C5
:104F700072D00C286CD1A8E00E286ED00F286DD00E
:104F8000FF2865D100E16248006800EB40006B49F2
:104F900001EBC00000696E49086008460068804760
:104FA000012824D15A48006800EB4000634901EB16
:104FB000C0008088A0F54071E7390FD054480068E0
:104FC00000E0E4E0534908605148006800EB40000D
:104FD0005A4901EBC00080884D490860022011F059
:104FE00074F800204C4908604D4908702EE059A122
:104FF0005A481FF021FA5A48007A022809D1574826
:105000001FF03EFAC7B23A4654490220FDF749FD67
:1050100009E052481FF034FAC7B23A464F495148A6
:105020000078FDF73EFD64201BF0EEFA0C20FFF740
:105030006BF800203A490870494890F8920002281D
:1050400004D1002211469020FDF7AEFA9EE04CE01C
:105050009BE03EE045E087E04FE03EE049E095E040
:105060002E48007808BB2A48006800EB400033490E
:1050700001EBC0004088012808D12548006800EBFA
:10508000400001EBC000C088214908600120FEF704
:1050900078F808202349087000202B49087024491B
:1050A0000870012011F011F809E000201B49087078
:1050B000194908601A4908700C20FFF725F865E0C7
:1050C0000B20FFF721F861E060E00120FFF71CF8FA
:1050D0005CE00220FFF718F858E00320FFF714F80F
:1050E00054E00420FFF710F850E00520FFF70CF81B
:1050F0004CE00620FFF708F848E00720FFF704F827
:1051000044E039E03CE033E0F82F0010D400001018
:10511000FC000010F8000010100100101401001035
:105120000C010010E400001009010010E70000105D
:10513000E6000010D90000105000001018130010F5
:10514000D8000010083400100A010010EB00001015
:10515000EC0000104520202000000000F258001054
:10516000482F00100B0100100820FEF7CDFF0DE0C6
:105170000920FEF7C9FF09E00020FEF7C5FF05E0A2
:105180000A20FEF7C1FF01E000E000BFEFE1207858
:1051900008287ED006DC7DD2DFE800F0FEA417FDF3
:1051A000FCFBFA470D2876D008DC092874D00A28C1
:1051B00073D00B2872D00C286CD1B7E10E286ED0BA
:1051C0000F286DD0FF2865D1CEE1FF48006800EBC5
:1051D0004000FE4901EBC0000069FD490860084637
:1051E0000068804701281CD1F748006800EB4000A8
:1051F000F64901EBC0008088A0F54071E73910D076
:10520000F1480068F3490860EF48006800EB40008F
:10521000EE4901EBC0008088EB490860022010F0E5
:1052200054FF0020EC490860A0E1E748006800EB6B
:105230004000E64901EBC0004089A0F54071E73924
:105240004FD0E1480068A0F54071E73949D0E34804
:10525000807B012838D0DC48006800EB4000DB4947
:1052600001EBC0004089C5B206E005EB4500D74917
:1052700001EBC0004089C5B205EB4500D34901EB05
:10528000C0008089012819D1CF48006800EB400098
:1052900007E055E169E14DE151E15FE155E14AE1A6
:1052A00052E101EBC0000089A0F54071E73905D05B
:1052B000C5480068A0F54071E739D6D1C2480560FD
:1052C000072010F002FF0CE0BF48006800EB400030
:1052D000BE4901EBC0004089BB490860072010F0BF
:1052E000F4FE43E1B848006800EB4000B74901EB29
:1052F000C000C088A0F54071E7390DD0B248006801
:1053000000EB4000B14901EBC000C088AE49086025
:10531000012010F0DAFE79E00120FEF721FA0120E9
:10532000FEF75EFA0120FEF78BFA022011F067FC0F
:105330000120FEF7BBFA0120FEF7D3FA0020A749AF
:105340008873FDF7CAF8A64890F89200012804D0A7
:10535000A34890F89200022829D10022AFF2082138
:105360008020FDF79EFB0022AFF214219020FDF774
:1053700098FB0022AFF22021E020FDF792FB984934
:105380000A7A984951F822001FF07AF8C7B204E06F
:10539000E9E090E0E6E0A0E039E09148027A914847
:1053A00050F822103A46F020FDF77BFB22E08C49B2
:1053B0000A7A8C4951F822001FF062F8C7B2884877
:1053C000027A884850F822103A468020FDF769FB9F
:1053D0000022AFF27C219020FDF763FB0022AFF2A8
:1053E0008821E020FDF75DFB0022AFF29421F02040
:1053F000FDF757FBC8201BF007F901207249086030
:10540000744908600126002077490870AEE06E48B4
:10541000006800EB40006D4901EBC0000089A0F579
:105420004071E73946D068480068A0F54071E73917
:1054300040D06A48807B01282FD06348006800EB89
:105440004000624901EBC0000089C5B206E005EBEF
:1054500045005E4901EBC0000089C5B205EB45007F
:105460005A4901EBC0008089012810D156480068D4
:1054700000EB400001EBC0000089A0F54071E73966
:1054800005D051480068A0F54071E739DFD14E489A
:105490000560002010F019FE0CE04B48006800EB9E
:1054A00040004A4901EBC0000089474908600020DC
:1054B00010F00BFE5AE04948807B012809D147488B
:1054C000C07B18B901204549C87302E00020434958
:1054D000C873022010F0F9FD48E04048C07B012865
:1054E00020D13E48807B01281CD13748006800EB62
:1054F0004000364901EBC0008089012809D1FF2016
:105500003149096801EB4101304A02EBC101888150
:1055100008E001202C49096801EB41012B4A02EB0C
:10552000C1018881022010F0D0FD1FE02078FFF734
:105530007AFB1BE000BF2078FFF775FB16E000BF89
:105540002078FFF770FB11E000BF2078FFF76BFBBE
:10555000012802D1022010F0B8FD07E02078FFF703
:1055600062FB03E000BF00BF00E000BF00BF012EF0
:1055700000D100E004E400BFF8BD2DE9F843044683
:105580006420B4FBF0F100FB1140C5B2144890F860
:10559000980020B9224615A115481EF0E3FC1048DA
:1055A00090F8980001280CD10A20B4FBF0F100FB20
:1055B0001146B4FBF0F733463A460EA10C481EF0F4
:1055C000D1FC07481AE00000FC000010181300107E
:1055D000EC000010F800001010010010F82F00106F
:1055E000482F001088240010EB00001025640000F4
:1055F000DC58001025642E256400000090F8980007
:10560000022810D10A2095FBF0F100FB115695FB02
:10561000F0F76420B4FBF0F83B464246FDA1FF489A
:1056200000961EF09FFCFD48BDE8F88310B5FC48CD
:10563000006808B9002010BDFA48D0F8A400F84965
:105640000968884209D10020F7490870F7490870B5
:105650000120FDF796FD0120EDE70120FDF791FD0A
:10566000F049097AF24A52F821001EF009FFC4B24B
:10567000EC48007AEE4A52F8201022469020FDF7BE
:1056800010FAC8201AF0C0FF022010F01EFD002002
:10569000D1E710B5E248006808B9002010BDE14824
:1056A000D0F8A800DE490968884209D10020DE4907
:1056B0000870DE4908700120FDF763FD0120EDE769
:1056C0000120FDF75EFDD749097AD94A52F8210039
:1056D0001EF0D6FEC4B2D348007AD54A52F8201044
:1056E00022469020FDF7DDF9C8201AF08DFF022038
:1056F00010F0EBFC0020D1E710B5C948006808B9EC
:10570000002010BDC748D0F8A400C54909688842E8
:1057100009D10020C4490870C44908700120FDF770
:1057200030FD0120EDE70120FDF72BFDBD49097A91
:10573000BF4A52F821001EF0A3FEC4B2B948007A55
:10574000BB4A52F8201022469020FDF7AAF9C82043
:105750001AF05AFF022010F0B8FC0020D1E710B573
:10576000AF48006808B9002010BDAE484068AC4999
:105770000968884209D10020AB490870AB4908701C
:105780000120FDF7FEFC0120EEE70120FDF7F9FC0A
:10579000A449097AA64A52F821001EF071FEC4B24B
:1057A000A048007AA24A52F8201022469020FDF725
:1057B00078F9C8201AF028FF022010F086FC00209B
:1057C000D2E7012097490872704700209549087276
:1057D0000120704710B5022092490872FCF77DFE47
:1057E000012010BD10B503208E490872FCF775FE2C
:1057F000012010BD012070472DE9FC410027884899
:10580000006810B90020BDE8FC818548006889491E
:105810000870894A894982480068C0B206F0E5FEEE
:1058200018B9002086490870EDE700241DE0002625
:1058300017E004EB840006EB40000B30C5B26A466B
:1058400001A9284606F0D1FE012808D17948007840
:10585000854202D0781CC7B201E07A480770701CFC
:10586000C6B2082EE5DB601CC4B2082CDFDB0120C9
:10587000FDF787FC00206C49087001207249087010
:105880000820724908700120BDE72DE9F84304465D
:10589000694A6A49204606F0A8FE01286DD1FDF745
:1058A00070FCA4F1FE466A4806606A48006819F078
:1058B000B3FD67496848006819F091FE5948027ABB
:1058C000664850F82210224654481EF04BFB5348BD
:1058D0001EF0D6FD00F0FF08424650498020FDF73B
:1058E000E0F86A464FF47A615A48006819F01DFEE4
:1058F00007463868C5B225F08005FCF7EEFD9DF837
:105900000000C8BB15F05C0F38D04648027A5348F7
:10591000903050F82210224640481EF023FB3F48AA
:105920001EF0AEFD00F0FF0842463C498020FDF726
:10593000B8F84B48007801281DD140480078C0EBEA
:10594000C000484901EB40103B490978C1EBC10157
:1059500000EB8100007D401CC1B238480078C0EBEC
:10596000C000404A02EB4010334A1278C2EBC20238
:1059700000EB820001758FE02DE090E015F0220F22
:1059800014D02848027A3548B03050F82210224608
:1059900022481EF0E7FA21481EF072FD00F0FF08D1
:1059A00042461E498020FDF77CF875E01D48027ACA
:1059B0002A48A03050F82210224618481EF0D2FA89
:1059C00016481EF05DFD00F0FF0842461349802096
:1059D000FDF767F860E013490A7A2049203151F851
:1059E00022001EF04DFD00F0FF080E48027A1B4811
:1059F000203050F8221042468020FDF752F8184817
:105A00000078012848D10D480078C0EBC000154946
:105A10002AE0000025642E2564256400DC5800106F
:105A200010010010482F00100A010010E6000010BD
:105A300084000010D7000010DA000010D800001019
:105A400014010010DB000010E7000010E40000105B
:105A500018340010440000104C00001058240010AE
:105A600080000010C827001001EB4010FE490978A3
:105A7000C1EBC10100EB8100007D401CFB490978AE
:105A8000C1EBC101FA4A02EB4111F74A1278C2EBAD
:105A9000C20201EB820108750120FDF772FB14229E
:105AA000F4A19020FCF7FDFFBDE8F8832DE9F84351
:105AB000F6480068632874D10020F54988720024F4
:105AC00012E000250CE00020C4EBC401E84A02EB20
:105AD0004111C5EBC50201EB82010875681CC5B216
