:020000040000FA
:1000000000800010CD000000E97D0100E97D0100C5
:10001000E97D0100E97D0100E97D0100E97D010044
:10002000E97D0100E97D0100E97D01006102000038
:10003000E97D010000000000C902000025A80100C0
:10004000E97D010059320000FB340000E97D010028
:10005000E97D010013B801001DB801007599000089
:10006000099C0000E97D0100A12B0100E97D010050
:10007000E97D0100E97D0100E97D0100E97D0100E4
:10008000E97D0100E97D0100E97D0100E97D0100D4
:10009000552E0000E97D0100E97D0100E97D0100A8
:1000A000E97D0100E97D0100E97D0100E97D0100B4
:1000B000E97D0100E97D0100E97D0100E97D0100A4
:1000C000E97D0100E97D0100E97D010000F002F811
:1000D00000F0B6F80AA090E8000C82448344AAF12C
:1000E0000107DA4501D100F0ABF8AFF2090EBAE82A
:1000F0000F0013F0010F18BFFB1A43F0010318475C
:10010000E4470300044803000A444FF0000C10F8D1
:10011000013B13F0070408BF10F8014B1D1108BF85
:1001200010F8015B641E05D010F8016B641E01F825
:10013000016BF9D113F0080F1EBF10F8014BAD1C75
:100140000C1B09D16D1E58BF01F801CBFAD505E093
:1001500014F8016B01F8016B6D1EF9D59142D6D3ED
:10016000704700000023002400250026103A28BF15
:1001700078C1FBD8520728BF30C148BF0B60704719
:100180006E291DF05D8570291DF0F28166291EF033
:10019000328665291EF02F8667291EF02C8661297C
:1001A000AFF3008003681B0A28BF41F08001692972
:1001B0001DF0C88064291DF0C58075291DF0C2801E
:1001C0006F291DF07D8178291DF0BE81E9291DF080
:1001D0009785E4291DF09485F5291DF09185EF2977
:1001E0001DF07A81F8291DF0BD810368DB0928BF65
:1001F00041F0800163291DF0608573291DF065853C
:10020000E3291DF07085F3291DF0758500207047E6
:100210001FB51EF0E9FD9DE803001DF081FC1EF0F6
:1002200097F80400002000211EF0AEFD401C606025
:10023000002000211EF0BEFDE0601FBD10B510BD06
:100240001EF060F81146FFF7E3FF01F028FC1EF0F6
:1002500039F903B4FFF7F2FF03BC18F004FA000009
:10026000052828BF70474FEA80007844D0F802F094
:10027000C90200008F0200002D0300004D030000A2
:100280006D0300004FF0010080F3148800DF0A4C7A
:100290004FF00105257077461CF06AFFBE46074EF9
:1002A0003668074C2660D6F800D001BC05490860C6
:1002B000BDE8F00F704700BF831D0010941D0010B3
:1002C0008C1D0010A81D00104FF0080282F3118849
:1002D00000B51CF04DFF5DF804EB2DE9F00F0E4961
:1002E000086801B40D4A1268C2F800D00C4C0D4DDC
:1002F0002E7826700C4E3668084C2660D6F800D052
:1003000001BC086000280CBF0022082282F311887B
:10031000BDE8F00F704700BFA81D00108C1D001035
:10032000781D0010791D0010941D00100649086802
:1003300000F101004FF0080282F31188002808BF85
:1003400070470860704700BFA81D00100649086884
:1003500000281CBF01380860002818BF70474FF004
:10036000000282F311887047A81D00104FF00000B2
:1003700080F3148870474FF0010080F314887047B1
:1003800088476FF0FF0019F0E8F8000010B5002072
:1003900018F078FEFF490860002018F073FEFE494F
:1003A0000860002018F0B5F9FC4908600221FC48FB
:1003B00018F0FFFBFB490860002018F0AAF9FA4981
:1003C00008601421F94818F0F4FBF949086000208E
:1003D00018F09FF9F7490860002018F09AF9F649DB
:1003E0000860002018F095F9F4490860002018F022
:1003F00090F9F3490860002018F08BF9F149086082
:1004000010BD2DE9F04100260027002002F0D6FDA6
:10041000002002F0EEFD4FF49858EB48008800F4FD
:100420007F4008F47F41884212D002F033FE012061
:1004300002F084FD012002F0C1FD012002F0D9FD8F
:10044000012002F0F1FD00221146E0481CF077FB8C
:10045000002002F073FD002002F0B0FD002002F049
:10046000C8FD002002F0E0FD002445E00021D8484E
:10047000015508300155D4487C30005D012809D170
:10048000601CC2B23046711CCEB2D1490A5401F18F
:1004900008000655002700252AE00020CC498039B5
:1004A00001EBC40148550021C948403800EBC400A5
:1004B0004155C4EBC400C74901EB4010C5EBC50171
:1004C00000EB8100007A00F0800080280ED1681CCB
:1004D000C2B2BF48803800EBC4033846791CCFB2A3
:1004E0001A54BB48403800EBC4004755681C85B21D
:1004F000082DD2DB601C84B2082CB7DBBDE8F0818C
:100500000121704700B5034603E013F8010BFFF724
:10051000F7FF18780028F8D100BD1CB50120009025
:10052000AD48006800226946036901A89847AB49B5
:100530000860009810B94FF0FF30019001981CBD81
:1005400038B50546A04890F8940001281AD118E063
:100550006A4601219648006818F0E8FB04469DF8B9
:10056000000070B920889E49C86002E0022019F09E
:10057000B5F99B490C318C48006818F09AF90028AD
:10058000F4D1E5E738BD00B585B0032300224FF470
:1005900000719448CDE90323CDE90101092300F25C
:1005A000FC720021AFF26700009318F07DFF05B0E8
:1005B00000BD08B500BF8C488749086009684868D5
:1005C000804719E0142000908348006801226946A2
:1005D00003698648984781490860002405E08348FC
:1005E000005D83490855601CC4B200988442F6DB64
:1005F00000BF322019F072F9E4E708B500BF01220C
:10060000D10500201BF0D0FC4FF4000100201BF0AE
:10061000DFFC78A013F07BFB4FF4167019F05EF945
:1006200009F036FA09F01BFB13F030FB73A013F04E
:100630006EFB00207349488000217248007861F306
:1006400087107049087000216E48007861F3C5007A
:100650006C4908705C4880696B49086006F0EAFDE7
:1006600006F041FE69A013F052FB6A48006A40F0B0
:100670000050684908620846006A40F080500862ED
:100680000846806B40F0005088630846806B40F05D
:1006900080508863022019F021F909F06EFD5EA0F8
:1006A00013F035FB06F057FF06F08AFF06F02CFF2B
:1006B0005BA013F02CFB06F0A2FF06F0C9FF12F0BE
:1006C00011FC06F019FF58A013F021FB5148006AF5
:1006D00040F000504F4908620846006A40F08050E0
:1006E00008620846C06B40F00050C8630846C06B03
:1006F00040F08050C863022019F0F0F80DF0CCF8FB
:10070000142019F0EBF80CF0CCFE49A013F0FFFA1E
:1007100006F0A7FF0CF0FAFA1E48006818F079FD01
:1007200045A013F0F4FA284890F89100012805D16B
:1007300015F0C1FD1848006818F06BFD41A013F0DA
:10074000E6FA29E206F0D8FE0CF07EFB012806D07E
:100750002C480078C0F3C20010F0010F01D00CF05B
:10076000CCFE142019F0BAF80BF0A1FE012806D037
:1007700024480078C0F3C20010F0020F01D00CF042
:1007800009FB2048407820B90F4890F891000128D3
:100790005EE060E0380000103C00001044000010F3
:1007A000300000104C0000105000001060290010B4
:1007B00054000010580000104800001040000010C5
:1007C0005C0000106000001068250010004002402E
:1007D00030290010E81D00106800001064000010AF
:1007E00040290010B0450010B01D0010C44D00108D
:1007F000B04D00100D0A3D3D310000000D0A3D3D99
:1008000032000000100000101C0000100D0A3D3DD9
:100810003300000000C009200D0A3D3D34000000F7
:100820000D0A3D3D350000000D0A3D3D360000003B
:100830000D0A3D3D370000000D0A706320696E69A6
:10084000740000000D0A496E69744F4B00000000EF
:1008500001D115F0A0FC06F04FFEFF48007880099A
:10086000012803D1142019F039F895E16A461421C2
:10087000FA48006817F0C3FF04469DF80000C8BBA3
:1008800080212068B1EB106F78D8F548006A40F0FD
:100890000050F34908620846006A40F08050086240
:1008A0000846806B40F0005088630846806B40F03B
:1008B00080508863022019F011F82068000E80280B
:1008C00004D0812807D082283CD114E02168C8B226
:1008D00009F0C2FC37E0E3A013F019FA0021DE486A
:1008E000007861F38710DC4908702168C8B209F00C
:1008F00012FD28E0F9E0DA48006A40F00050D849DB
:1009000008620846006A40F0805008620846C06BE2
:1009100040F00050C8630846806B40F08050886308
:10092000022018F0DBFF0021CB48007861F387102C
:10093000C94908702268C2F30351C2F313000AF0D8
:10094000EFF900E000BF00BFC548006A40F000506A
:10095000C34908620846006A40F0805008620846B1
:10096000C06B40F00050C8630846C06B40F0805038
:10097000C863022018F0B2FFB7E0FFE72068000E5E
:1009800009287DD2DFE800F0051D65428C1E661344
:100990001800B8A013F0BBF90021AF48007861F34C
:1009A0008710AD49087020680CF0CCFF9CE0B64978
:1009B00088880BF0E2FF97E0B34988880CF039F89B
:1009C00092E000BF06F05DFE05212068B1EB106FDC
:1009D0001BD10020AD494860091DAD48006817F0E3
:1009E00068FF9D48407801280BD19B480078C0F3F0
:1009F000C20020F001009849097860F3C5019648CB
:100A00000170142018F06AFF6EE000BF06F041FE8E
:100A100000209E494860091D9D48006817F049FF65
:100A20008D484078012810D103212068B1EB106F68
:100A30000BD189480078C0F3C20020F0020086493B
:100A4000097860F3C50184480170142018F046FF4E
:100A50004AE000BF06F025FE06212068B1EB106FCA
:100A60001DD1002089494860091D8948006817F098
:100A700020FF7948407801280DD17748007800E0C0
:100A800031E0C0F3C20040F001007349097860F31F
:100A9000C50171480170142018F020FF24E000BF48
:100AA00006F00FFE002079494860091D784800686B
:100AB00017F0FFFE68484078012810D10421206813
:100AC000B1EB106F0BD164480078C0F3C20040F066
:100AD00002006149097860F3C5015F480170142084
:100AE00018F0FCFE00E000BF00BF6A4890F89100DB
:100AF000012850D1142018F0F1FE6A4614216648EE
:100B0000006817F07CFE04469DF8000078BB206862
:100B1000000E102822D006DC052809D006280DD0AA
:100B20000C2836D12BE011280ED0842831D11FE0BB
:100B300000221146052015F08BFA2BE00022114609
:100B4000062015F085FA25E0206820F07F4020601F
:100B500000210846226815F07CF91BE0206820F08F
:100B60007F4020600020216815F034F912E012E087
:100B700015F0A1FB4948006818F04BFB0AE020681B
:100B8000C0F307452068C6B23146284615F0DAFAA8
:100B900000E000BF00BF00BFD4E58CB0002004908F
:100BA0000390029000BF3B48007A022805D1002044
:100BB00001F076FE01F0F3FA01E001F0F0FA002016
:100BC0002549487001213648007861F30300344913
:100BD00008700020487000213148007861F3071048
:100BE0002F49087000211C48007861F300001A4961
:100BF0000870F0200A902B48D0F854810121164843
:100C0000007861F3820014490870002126481BF027
:100C1000B5FF264908600846006890B11D48806904
:100C20000968B1EB400F0CD2204800681D49C1F89B
:100C30005001012002F0F8F9002211461A481BF079
:100C40007EFF00201949086000240A9001F008FA8C
:100C5000174900202EE0000010000010480000108E
:100C600000C009200D0A434D445F474F4F44535F76
:100C70004F5554000D0A434D445F434F494E5F4367
:100C800048414E47450000008C28001040290010C4
:100C900040000010682500105C0000103C000010AF
:100CA0000E000010CC26001000400240180000107A
:100CB0007FA9030002F051FC002002F02BFC02F09F
:100CC00001F9FF48006820F48000FD490860142005
:100CD00018F004FE07F0FBF807F0C1F80BAA4FF478
:100CE0007A61F848006818F043FAF74890F89400E1
:100CF000012801D1FFF747FC002640F6B830F34940
:100D00008880F348006817F031FF4FF0010AF7E3DD
:100D100092E1F048006810F0005F31D1022018F035
:100D2000DDFDEC48006810F0005F28D10120EA49A1
:100D3000487008460078C0F38000012808D102F00E
:100D40005EFA0021E448007861F38200E24908700D
:100D5000DD4890F8910001280CD1E048006817F0B8
:100D6000C5FC4FF0A060DE4988611831DB4800689F
:100D700017F09FFD012001F080FE03F070FA5BE1A7
:100D8000D548407801281AD1FF20D3494870CE4871
:100D900090F8910001280CD1D048006817F0A6FC0B
:100DA0004FF0C060CE4988611831CC48006817F018
:100DB00080FD03E04FF47A7018F090FDFAE7C24826
:100DC00090F89100012809D1049838B90BAA0021A4
:100DD000C448006818F0CCF9012004900020BE49F6
:100DE000487008464088E8BB9CB9BAF1010F02D1AF
:100DF0004FF0000A01E04FF0010ABB48B0F81402BE
:100E000038B94FF4FA60B849A1F81402504607F017
:100E1000BDF8AB484069C0F3805020BBB3480068C0
:100E200008B3AD480078C0F30000012804D0A648FC
:100E300090F88F00002816DDA34890F88F30A64860
:100E400000930078C0F300039D484069C0F38050D0
:100E500080F00101A5480268A5A012F058FF01200A
:100E60000290EAE05AE00BAA01219948006817F0C5
:100E70005DFF0690069807889DF82C0030B9012088
:100E800001F0FBFD142018F029FDD6E00BAA01218A
:100E9000A348006817F0B3FC0690069807889DF8F1
:100EA0002C0018B9012001F0E8FDC6E08748408811
:100EB00030B9204606F0EBFD04460CB1FF27BCE03C
:100EC0008248808828B940F6B8308049888008F088
:100ED0009AF98648006880B97F480078C0F380009E
:100EE00001280AD18F48807838B98E48407810F0B0
:100EF000020F02D0042002F082F9734890F89100AA
:100F000001280AD108F097FB8146B9F1EE0F01D014
:100F10004C4692E0142018F0E1FC8DE07348006824
:100F200048B1FF2700218048007861F303007E4923
:100F30000870082481E068480078C0F38000012828
:100F400009D100216448007861F382006249087089
:100F5000012002F054F97548D0F8540140450DD9EC
:100F60007248D0F85401A0EB08007049C1F8540150
:100F70000846D0F85481012002F056F8012001F013
:100F80007CFD40F6B8305149888053E006F0E2FD20
:100F90005048006810F0005F11D100240121624820
:100FA000007861F303006049087000204870002158
:100FB0005D48007861F307105B4908703BE04648E4
:100FC0004088F8B9002401215748007861F30300F4
:100FD000554908700020487000215348007861F39B
:100FE00007105149087001213B48007861F38200E5
:100FF00039490870022002F002F93548006817F0FC
:10100000B5FD18E03148808828B940F6B8302F493E
:10101000888008F0F8F82C4890F89100012809D150
:1010200008F009FB8146B9F1EE0F00D04C461420C0
:1010300018F054FCAAE700BF6BE600BF17F4004F9E
:101040007DD000203849487000213748007861F38E
:10105000071035490870C7F30E000590FF27234895
:10106000016805980844214908601B480078C0F3CE
:101070008000012818D114488069096888420AD87C
:1010800000211548007861F382001349087001209F
:1010900002F0B5F808E0154800682549096888425B
:1010A00002D3032002F0ABF8062C03D00F480068EF
:1010B00000B101240D48002102681E483CE03EE0DA
:1010C00000C009203800001068250010280000101A
:1010D0004C00001094C00920100000105C000010AB
:1010E000402900103C000010A85300101800001008
:1010F0000D0A52657475724B65793D25642C675FE6
:10110000416D6F756E743D25642C68617665736101
:101110006C653D25642C7472616E733D256400001E
:1011200050000010140000100E000010CC2600101B
:101130001C000010004002401BF001FD21E03812AD
:10114000002819DD3812012802D0022812D101E04E
:10115000092410E0FF48006858B1FF480078C0F348
:101160000000012804D0FD4890F88F00002800DD21
:10117000082400E000BF04E03946204606F0C4FA27
:1011800004460298012802D1002002900824E7E3D7
:1011900026460F2C77D2DFE804F07677F7F5F4F3E4
:1011A000F2F1F0AC4A5908EF3B000021EC4800781E
:1011B00061F30300EA49087008464078099007AADD
:1011C00008A9099808F029FF012815D19DF81C10DD
:1011D0009DF8200006F0E8FF642018F07FFB002453
:1011E000E048006817F08BFD0121DD48007861F3CD
:1011F0000300DB49087000E00B240020D849487048
:101200000021D748007861F30710D54908709BE3A7
:101210000021D348007861F30300D149087007F03A
:1012200063F84FF4C87018F059FB0D248CE30121CA
:10123000CB48007861F30300C94908704FF4FA7095
:10124000C949488007F06EF804467DE30021C44890
:10125000007861F30300C249087007F00EFA4FF4FA
:10126000C87018F03BFB0020BD4948700021BC4805
:10127000007861F30710BA4908700A24B948006879
:1012800017F03DFD60E357E30121B548007861F3B5
:101290000300B349087047F23050B349488007F063
:1012A0002AFAAD480078C0F38000012820D0A94870
:1012B0000068AE49096888420AD20121A648007830
:1012C00061F38200A4490870022001F098FF0FE04A
:1012D000A24880699F490968884209D901219E482E
:1012E000007861F382009C490870062001F087FFB6
:1012F0002AE300219A48007861F3030098490870B6
:1013000007F06BFA4FF4C87018F0E8FA012194481E
:10131000007861F303009249087047F23050924917
:10132000488007F0E8F98C480078C0F38000012875
:1013300020D0884800688D49096888420AD2012176
:101340008548007861F3820083490870022001F02B
:1013500056FF0FE0814880697E490968884209D9B3
:1013600001217D48007861F382007B4908700620E6
:1013700001F045FF0A9CE7E24DE2D2E17AE1BDE1EE
:10138000AEE1BEE075E0FFE700217548007861F34B
:10139000030073490870084640780990002048709F
:1013A00000216F48007861F307106D4908706B48A1
:1013B00090F8910001281ED107AA08A9099808F001
:1013C0002CFE6B48006817F091F99DF82000C0EBE7
:1013D000C000684901EB40109DF81C10C1EBC10131
:1013E00030F8210064490844644988611831604834
:1013F000006817F05EFA5B48006817F080FC07AAE7
:1014000008A9099808F009FE012830D101215248A5
:10141000007861F30000504908709DF82000C0EB8F
:10142000C000544901EB40109DF81C10C1EBC101F4
:1014300000EB8100007A00F07F00012801D0032436
:1014400016E09DF82000C0EBC0004A4901EB4010B7
:101450009DF81C10C1EBC10100EB810040683D49C3
:101460000968884201D8042402E0052400E00B2426
:101470006AE200213A48007861F3030038490870B5
:101480009DF81C109DF8200007F0EEF94FF4C8708D
:1014900018F024FA01213248007861F30300304942
:1014A000087047F230503049488007F024F92A4844
:1014B0000078C0F38000012820D0264800682B491E
:1014C000096888420AD201212348007861F382002A
:1014D00021490870022001F092FE0FE01F48806948
:1014E0001C490968884209D901211B48007861F329
:1014F000820019490870062001F081FE012423E2D0
:101500004FE200211648007861F303001449087087
:1015100007F0EAF910480078C0F38000012809D1EB
:1015200000210D48007861F382000B49087001200A
:1015300001F065FE084800788009022801D107F013
:101540008FFC9DF81C209DF82010099807F006FAE2
:10155000044615E018000010100000106825001067
:101560000E0000104C000010280000101C0000109D
:101570005C000010E81D00100000020C4029001063
:10158000F84800210268F8481BF0D9FAF7480078BB
:10159000C0F34000012841D09DF82000C0EBC000FE
:1015A000F34901EB40109DF81C10C1EBC10100EBA9
:1015B0008100C068401C9DF82010C1EBC101EC4ABD
:1015C00002EB41119DF81C20C2EBC20201EB82012B
:1015D000C860E848D0F84801401CE649C1F8480115
:1015E0009DF82000C0EBC000E14901EB40109DF8E0
:1015F0001C10C1EBC10100EB81008069401C9DF80B
:101600002010C1EBC101DA4A02EB41119DF81C2008
:10161000C2EBC20201EB820188612AE09DF8200042
:10162000C0EBC000D24901EB40109DF81C10C1EB8B
:10163000C10100EB81000069401C9DF82010C1EB46
:10164000C101CB4A02EB41119DF81C20C2EBC20242
:1016500001EB82010861C748D0F84C01401CC54924
:10166000C1F84C010021C148007861F34100BF4935
:10167000087069E10121C048007861F30300BE49A8
:10168000087047F23050BD49488007F034F8B74839
:101690000078C0F38000012820D0B2480068B84923
:1016A000096888420AD20121B048007861F38200BB
:1016B000AE490870022001F0A2FD0FE0B148806938
:1016C000A8490968884209D90121A848007861F32E
:1016D0008200A6490870062001F091FD012433E143
:1016E0000021A548007861F30300A34908704FF476
:1016F000FA70A249488007F044FA25E101219E488A
:10170000007861F303009C49087047F230509B4910
:1017100048809DF81C109DF8200007F05AFA0446F6
:1017200012E100219448007861F3030092490870A7
:1017300000209549086007F0EBFA8C480078800992
:10174000022801D107F0A1FB88480078C0F380008F
:10175000012809D100218548007861F3820083497E
:101760000870012001F04BFD07F0CFFB7D48002100
:1017700002687D481BF0E3F97A48006880B3794835
:1017800000687C49C1F850017E4890F8910001281A
:1017900023D17C4890F89600012807D10846D0F85C
:1017A000500100EB80004000039008E0754890F87D
:1017B0009600022803D16F48D0F850010390734877
:1017C000006816F093FF039800F188507049886113
:1017D00018316E48006817F06CF807F06CFC05E0F3
:1017E000FFE76948006808B107F0D8FC5F48007857
:1017F000C0F34000012806D100215C48007861F365
:1018000041005A490870634811F086FBC82018F05F
:1018100065F80D2498E000215748007861F3030033
:10182000554908705348D0F8540140450AD95148E9
:10183000D0F85401A0EB08004E49C1F85401084605
:10184000D0F85481012001F0EFFB002045490860E9
:10185000002505E000204F4984394855681CC5B271
:10186000202DF7DB002505E000214A4820384155AE
:10187000681CC5B2202DF7DB002512E04FF0000BED
:101880000AE000214348643800EBC50000F80B1063
:101890000BF1010000F0FF0BBBF1080FF1DB681C3E
:1018A000C5B2082DEADB00203A49843908660120D8
:1018B00001F044FB07F089FCC82018F00FF8002461
:1018C00001212D48007861F303002B4908700021A5
:1018D0002648007861F30000244908700022114670
:1018E00021481BF02CF921480078C0F38000012822
:1018F0000AD0022001F083FC01211C48007861F32A
:1019000082001A49087016E02348807840B92248BE
:10191000407810F0020F03D0042001F070FC0AE0C0
:101920001D48807838B11C48407810F0020F02D171
:10193000032001F064FC07E001210F48007861F307
:1019400003000D49087000BF00BF0A960CB90020C3
:101950000A90012C00D123E0A64200D004B91FE078
:101960001CE00000180000100040024010000010B1
:10197000E81D0010CC2600100E00001028000010FA
:101980001C00001068250010DC0300105C00001033
:1019900040290010A826001014000010FFF7F8BB23
:1019A00000BFFFF7B5B986B000BF012100201BF0D2
:1019B00076F949481BF0A9F91BF0F0F9474800688F
:1019C0000A21B0FBF1F400BF601E0400FCD11BF043
:1019D0000AFA1BF0FAF911F085FA1BF08BF940486E
:1019E000007B08B9FEF70DFD1BF084F9FEF7CEFC75
:1019F00054E0032300224FF400713A48CDE9032359
:101A0000CDE90101072300F2FC72C821AFF6756031
:101A1000009317F049FD1BF06DF9032300224FF4EA
:101A200000713148CDE90323CDE90101052300F21E
:101A3000FC7200212D48009317F036FD1BF05AF977
:101A4000032300224FF400712948CDE90323CDE997
:101A50000101082300F2FC7200212648009317F0D0
:101A600023FD19E01BF046F923484078FF2810D1E8
:101A7000072017F072FD052017F06FFD082017F002
:101A80006CFD092017F069FD00201B494880487053
:101A900003E0C82017F022FFE4E700BFA9E710B574
:101AA00016F0A4F916F06CF90122D10500201AF005
:101AB0007BFA4FF4000100201AF08AFA18F0B3F80C
:101AC00006230E4A0021AFF2211017F0A5FC18F0F2
:101AD0006DF9002010BD0000002D3101E01D001047
:101AE00014260010B02D0010B0350010FB050000CA
:101AF000B03D0010B305000010000010AC2D001028
:101B0000FF49097A022901D1962000E0FA2000BF9E
:101B1000411E89B20800FBD17047F94A127A022AA5
:101B20000BD1F84A12680623B2FBF3F24FF4FA63C2
:101B3000B2FBF3F202FB00F10AE0F24A126806235C
:101B4000B2FBF3F24FF47A73B2FBF3F202FB00F153
:101B500000BF4A1E1100FCD17047EA4A12680623F2
:101B6000B2FBF3F202FB00F100BF4A1E1100FCD1F0
:101B700070472DE9F04106460F46022000DFF824A9
:101B80000FB144F00204DE48007A022803D101209C
:101B9000FFF7C3FF02E00320FFF7BFFFDA48006E44
:101BA00040F00070D84908660846806F40F0007029
:101BB00088670846006A40F0806008620846C06B8B
:101BC00040F08060C863FFF79BFF002539E014F008
:101BD000800F0BD0CC48006A40F08070CA49086280
:101BE0000846806B40F0807088630AE0C648006A4F
:101BF00040F08070C44908620846C06B40F08070B5
:101C0000C863FFF77DFFC048006A40F08060BE49AE
:101C100008620846C06B40F08060C863FFF770FF41
:101C2000B948006A40F08060B74908620846806B96
:101C300040F080608863FFF763FF6006040E681C55
:101C4000C5B2082DC3DB344604F0F004002539E0AA
:101C500014F0800F0BD0AC48006A40F08070AA49A5
:101C600008620846806B40F0807088630AE0A648EE
:101C7000006A40F08070A44908620846C06B40F0DA
:101C80008070C863FFF73CFF9F48006A40F08060A7
:101C90009D4908620846C06B40F08060C863FFF74A
:101CA0002FFF9948006A40F0806097490862084613
:101CB000806B40F080608863FFF722FF6006040EAF
:101CC000681CC5B2082DC3DB34462007040E00256E
:101CD00039E014F0800F0BD08B48006A40F0807020
:101CE000894908620846806B40F0807088630AE08A
:101CF0008548006A40F08070834908620846C06BDE
:101D000040F08070C863FFF7FBFE7F48006A40F038
:101D100080607D4908620846C06B40F08060C863FF
:101D2000FFF7EEFE7848006A40F08060764908626E
:101D30000846806B40F080608863FFF7E1FE600634
:101D4000040E681CC5B2082DC3DB6F48006E40F05E
:101D500000706D4908660846C06F40F00070C867A3
:101D6000032000DFBDE8F081F0B506460F46F824F9
:101D70000FB144F002040320FFF7CFFE6248006E6B
:101D800040F00070604908660846806F40F00070BF
:101D900088670846006A40F0007008620846C06B19
:101DA00040F00070C863FFF7ABFE002539E014F087
:101DB000800F0BD05448006A40F08070524908628E
:101DC0000846806B40F0807088630AE04E48006AE5
:101DD00040F080704C4908620846C06B40F080704B
:101DE000C863FFF78DFE4848006A40F0007046491E
:101DF00008620846C06B40F00070C863FFF780FEC1
:101E00004148006A40F000703F4908620846806B14
:101E100040F000708863FFF773FE6006040E681CD4
:101E2000C5B2082DC3DB344604F0F004002539E0C8
:101E300014F0800F0BD03448006A40F080703249B3
:101E400008620846806B40F0807088630AE02E4884
:101E5000006A40F080702C4908620846C06B40F070
:101E60008070C863FFF74CFE2748006A40F000709E
:101E7000254908620846C06B40F00070C863FFF750
:101E80003FFE2148006A40F000701F490862084682
:101E9000806B40F000708863FFF732FE6006040E2E
:101EA000681CC5B2082DC3DB34462007040E00258C
:101EB00040E014F0800F0BD01348006A40F08070AF
:101EC000114908620846806B40F0807088630AE020
:101ED0000D48006A40F080700B4908620846C06BEC
:101EE00040F08070C863FFF70BFE0748006A40F0BF
:101EF0000070054908620846C06B40F0007005E0BC
:101F000068250010E01D001000C00920C863FFF71D
:101F1000F7FDFF48006A40F00070FD49086208467E
:101F2000806B40F000708863FFF7EAFD6006040EE6
:101F3000681CC5B2082DBCDBF548006E40F000708F
:101F4000F34908660846C06F40F00070C867F0BDEE
:101F5000002132E0EE4A126E42F00072EC4B1A663B
:101F60001A46D26F42F00072DA6710F0800F0AD181
:101F70001A46126A42F080721A621A46D26B42F016
:101F80008072DA630AE0E24A126A42F08072E04B41
:101F90001A621A46926B42F080729A63DC4A126EA1
:101FA00042F00072DA4B1A661A46926F42F00072E3
:101FB0009A674206100E4A1CD1B20829CADB704744
:101FC00010B50446D248006A40F00070D04908625B
:101FD0000846806B40F0007088630846006A40F055
:101FE000806008620846C06B40F08060C86320468D
:101FF000FFF7AEFFC648006A40F08060C44908623F
:102000000846806B40F0806088630846006A40F0B4
:10201000007008620846C06B40F00070C86310BDD5
:1020200010B5E220FFF7CCFF042017F057FC262064
:10203000FFF7C6FF2F20FFF7C3FFEA20FFF7C0FF1F
:102040008120FFF7BDFF7220FFF7BAFFC820FFF71E
:10205000B7FF4020FFF7B4FFAF20FFF7B1FF10BD7F
:1020600010B5AC4890F89200022802D1FFF7D8FFD3
:1020700040E0302400212046FFF77BFD06240021AC
:102080002046FFF776FD0C2400212046FFF771FD66
:10209000012400212046FFF76CFD02240021204688
:1020A000FFF767FD802400212046FFF762FD994875
:1020B00090F8920001281DD1302400212046FFF71E
:1020C00053FE062400212046FFF74EFE0C2400217B
:1020D0002046FFF749FE012400212046FFF744FE79
:1020E000022400212046FFF73FFE802400212046E5
:1020F000FFF73AFE10BD10B504468548006A40F06F
:102100000070834908620846806B40F00070886365
:102110000846006A40F0806008620846806B40F024
:10212000806088632046FFF713FF7948006A40F01B
:102130008060774908620846C06B40F08060C863E1
:102140000846006A40F0007008620846C06B40F024
:102150000070C86310BD30B504460D4645F0B000B0
:10216000FFF72EFF102141EA2410FFF729FF04F0AA
:102170000F00FFF725FF30BD30B500240CE0E1B2C1
:102180000020FFF7E8FF002503E00020FFF7B3FF82
:102190006D1CF02DF9D3641C102CF0D330BD10B59C
:1021A0005C4890F89200022802D1FFF7E5FF0EE0AC
:1021B000012400212046FFF7DCFC564890F89200ED
:1021C000012804D100BF00212046FFF7CDFD10BD3E
:1021D0002DE9FF4F82B004460D460F9FA246AB4645
:1021E000059878430090082F03D101264FF0080985
:1021F00002E002264FEA67094FF0000826E00AF0E5
:10220000FF010BF0FF00FFF7A6FF0020019015E093
:10221000009A0499885CFFF76EFF0098401C0090BC
:102220000BF1010BBBF1F00F01D3AB46B244BAF195
:10223000100F00D3A2460198401C01900198484518
:10224000E6D304F1010AAB4608F10108B045D6D344
:1022500006B0BDE8F08F2DE9FF4FADF5197D804642
:10226000924620218FA81BF045FB302183A81BF04C
:1022700041FB002082904FF4007102A81BF03AFB52
:1022800008F0F000802806D0902806D0E02806D07C
:10229000F02808D105E0002705E0042703E008271F
:1022A00001E00C2700BF00BF3C460025A9460AE01C
:1022B0002023009300238FAA09F0FF01E0B2FFF76B
:1022C00087FF09F11009B9F1F00FF1D383A89A99AA
:1022D0001BF028FA00209790002652E00020829000
:1022E00083A8805D802826DA082098904FF0020BA2
:1022F0003046761C83A9085C8DF808028FA982A855
:102300009C9A15F0B1FCE0B310230093002303E086
:1023100000C00920682500108FAAE9B2E0B2FFF7DB
:1023200057FF98980544F02D01D300255C44102CEC
:1023300027D3444625E0102098904FF0020B3046FA
:10234000761C83A9085C8DF808023046761C085C70
:102350008DF809028FA982A89C9A15F085FC80B19E
:102360002023009300238FAAE9B2E0B2FFF730FFE9
:1023700098980544F02D01D300255C44102C00D31F
:1023800044465645AAD30DF51D7DBDE8F08F2DE9D5
:10239000F0478EB007460E469046302102A81BF04B
:1023A000A9FA30461BF0E2F982460246314602A8FD
:1023B0001BF007FAFC4890F89200022806D100238F
:1023C000424631463846FFF746FFDAE0F64890F8D5
:1023D0009200012874D107F0F000802806D09028E0
:1023E00005D0E02807D0F0280FD109E000BF3D4616
:1023F0004FF0010909E007F08F054FF0020904E0F2
:1024000007F09F054FF0020900BF00BFB9F1010FAF
:102410003BD1E548007A022821D105F0F000802860
:1024200002D090281AD10CE002A81BF09FF9824636
:1024300000230093034602AA0121084615F0A4FADE
:102440000CE002A81BF092F9824600230093034699
:1024500002AA0121022015F097FA00BF91E00021A5
:102460002846FFF781FCB8F1140F01DD4FF0140886
:10247000002407E016F8015B01212846FFF774FCF1
:10248000601CC4B24445F5DB7BE0B9F1020F78D1A2
:10249000C548007A022822D105F0F000802802D039
:1024A00090281BD10DE002A81BF060F982460023A2
:1024B0000093034602AA0221012015F065FA0DE0FF
:1024C00023E002A81BF052F9824600230093034642
:1024D00002AA0221084615F057FA00BF51E0002178
:1024E0002846FFF746FBB8F1140F01DD4FF0140842
:1024F000002407E016F8015B01212846FFF739FBAD
:10250000601CC4B24445F5DB3BE0A748007A0228D2
:1025100021D107F0F000802802D090281AD10CE0D9
:1025200002A81BF023F9824600230093034602AA67
:102530000221012015F028FA0CE002A81BF016F980
:10254000824600230093034602AA0221084615F0A2
:102550001BFA00BF15E03D4600212846FFF709FBA6
:10256000B8F1140F01DD4FF01408002407E016F84D
:10257000015B01212846FFF7FCFA601CC4B2444508
:10258000F5DB0EB0BDE8F0872DE9F0478EB00746C9
:102590000E469046302102A81BF0ACF930461BF0E5
:1025A000E5F882460246314602A81BF00AF97E4849
:1025B00090F89200022806D1002342463146384660
:1025C000FFF749FEFBE0784890F89200012871D1AE
:1025D00007F0F000802806D0902805D0E02807D02A
:1025E000F0280FD109E000BF3D464FF0010909E096
:1025F00007F08F054FF0020904E007F09F054FF048
:10260000020900BF00BFB9F1010F45D16648007A49
:10261000022821D105F0F000802802D090281AD19C
:102620000CE002A81BF0A2F88246002300930346A8
:1026300002AA0121084615F0A7F90CE002A81BF038
:1026400095F8824600230093034602AA0121022046
:1026500015F09AF900BFB2E000212846FFF784FB8D
:10266000B8F1140F01DD4FF01408002407E016F84C
:10267000015B01212846FFF777FB601CC4B244458B
:10268000F5DB06E0202501212846FFF76DFB601CE5
:10269000C4B2142CF6DB92E0B9F1020F25D1424806
:1026A000007A022822D105F0F000802803D090287B
:1026B0001BD10DE03AE002A81BF058F88246002337
:1026C0000093034602AA0221012015F05DF90CE0F7
:1026D00002A81BF04BF8824600230093034602AA8F
:1026E0000221084615F050F900BF68E00021284695
:1026F000FFF73FFAB8F1140F01DD4FF01408002482
:1027000007E016F8015B01212846FFF732FA601C4A
:10271000C4B24445F5DB06E0202501212846FFF739
:1027200028FA601CC4B2142CF6DB48E01E48007A7C
:10273000022821D107F0F000802802D090281AD179
:102740000CE002A81BF012F8824600230093034617
:1027500002AA0221012015F017F90CE002A81BF0D3
:1027600005F8824600230093034602AA0221084688
:1027700015F00AF900BF22E03D4600212846FFF788
:10278000F8F9B8F1140F01DD4FF01408002407E048
:1027900016F8015B01212846FFF7EBF9601CC4B273
:1027A0004445F5DB09E000006825001020250121E3
:1027B0002846FFF7DEF9601CC4B2142CF6DB0EB01D
:1027C000BDE8F08770B50446EB4890F89200012808
:1027D00049D134B1012C14D0022C22D0032C40D189
:1027E0002FE0242500212846FFF7BEFA042500210A
:1027F0002846FFF7B9FA202500212846FFF7B4FA4A
:1028000030E0242500212846FFF7AEFA05250021F7
:102810002846FFF7A9FA202500212846FFF7A4FA49
:1028200020E0242500212846FFF7A3F904250021F4
:102830002846FFF79EF9202500212846FFF799F941
:1028400010E0242500212846FFF793F905250021F3
:102850002846FFF78EF9202500212846FFF789F941
:1028600000E000BF1BE0242500212846FFF781F986
:1028700014B1012C0CD105E0042500212846FFF7F6
:1028800078F906E0052500212846FFF772F900E0F7
:1028900000BF00BF202500212846FFF76AF970BD60
:1028A0002DE9F0410746012F01D1FF2600E0002667
:1028B0004FF0360800214046FFF75BF900BF0021CA
:1028C0004046FFF756F94FF0010800214046FFF758
:1028D00050F9002415E004F18001C8B20021FFF78F
:1028E00048F900218020FFF744F9002505E0012187
:1028F0003046FFF73EF9681CC5B2102DF7DB601CAF
:10290000C4B2202CE7DB002415E004F18001C8B23A
:102910000021FFF72EF900218820FFF72AF9002572
:1029200005E001213046FFF724F9681CC5B2102DDF
:10293000F7DB601CC4B2202CE7DB4FF0200800213D
:102940004046FFF716F98C4890F8920001284AD1CA
:102950004FF0360800214046FFF706FA00BF00217D
:102960004046FFF701FA4FF0010800214046FFF70B
:10297000FBF9002415E004F18001C8B20021FFF743
:10298000F3F900218020FFF7EFF9002505E0012190
:102990003046FFF7E9F9681CC5B2102DF7DB601C63
:1029A000C4B2202CE7DB002415E004F18001C8B29A
:1029B0000021FFF7D9F900218820FFF7D5F900257C
:1029C00005E001213046FFF7CFF9681CC5B2102D94
:1029D000F7DB601CC4B2202CE7DB4FF0200800219D
:1029E0004046FFF7C6F8BDE8F08170B5054662487D
:1029F00090F8920001281FD105F0F000802806D041
:102A0000902805D0E02808D0F02814D10CE000BFB1
:102A100000212846FFF7A8F90DE005F08F040021FA
:102A20002046FFF7A6F806E005F09F0400212046A7
:102A3000FFF79FF800BF03E000212846FFF799F851
:102A400070BD70B504464C4890F8920001280ED134
:102A50000F25012C04D100212846FFF785F90BE052
:102A6000022C09D100212846FFF783F804E00F2546
:102A700000212846FFF77DF870BD70B504463E483A
:102A800090F8920001280ED10C25012C04D10021D0
:102A90002846FFF769F90BE0022C09D100212846EE
:102AA000FFF767F804E00C2500212846FFF761F8DE
:102AB00070BD70B5044600250DE0E9B20020FFF7B7
:102AC0004AFB002604E014F8010BFFF714FB761C08
:102AD000F02EF8D36D1C102DEFD370BD70B50546E8
:102AE000FFF74AFB002412E0E1B20020FFF733FBBE
:102AF000FF20FFF700FB002603E0285DFFF7FBFA4D
:102B0000761CEE2EF9D3FF20FFF7F5FA641C102C8B
:102B1000EAD370BDF0B504460D4617462E46E917B8
:102B200005EB5171C910B031C8B2FFF749FA26461A
:102B3000E11704EB1171091101F11000FFF740FAE0
:102B4000E11704EB11710911A4EB0111C8B2FFF7F1
:102B500037FA67B12E46E91705EB5171C910A5EB9D
:102B6000C10201219140C8B2FFF7C5FA02E000207E
:102B7000FFF7C1FAF0BD00006825001001460829E2
:102B800017D007DCF9B101290DD002290DD0042995
:102B90001BD10CE010290ED020290ED040290ED0D8
:102BA000802912D10DE0002011E001200FE0022069
:102BB0000DE003200BE0042009E0052007E00620DB
:102BC00005E0072003E0102001E0202000BF00BF47
:102BD00070472DE9F04700224FF44041012019F0E1
:102BE000E3F901224FF47C71002019F0DDF9012294
:102BF0004FF44031104619F0D7F94FF47C710020A2
:102C000019F0F0F94FF44031012019F0EBF94FF0D1
:102C1000180900BFA9F10100C0B25FEA0009F9D1AB
:102C2000012019F0E9F9C0F3813700224FF47C71DB
:102C3000104619F0B9F900224FF44031012019F083
:102C4000B3F901224FF44041104619F0ADF94FF4A9
:102C50004041012019F0C6F94FF0180900BFA9F151
:102C60000100C0B25FEA0009F9D1012019F0C4F9EE
:102C7000C0F3014A002019F0BFF9C0F305104AEA79
:102C80008008032121EA0700FFF778FF04466FEA76
:102C90000800C0B2FFF772FF0546102C03D1102DBB
:102CA00001D1FF260EE0102C01D0102D01D1FE26FF
:102CB00008E0202C01D0202D01D1FD2602E005EBFB
:102CC000C400C6B200224FF44041012019F06CF953
:102CD00001224FF47C71002019F066F901224FF4B3
:102CE0004031104619F060F94FF47C71002019F062
:102CF00079F94FF44031012019F074F94FF01809B7
:102D000000BFA9F10100C0B25FEA0009F9D1304665
:102D1000BDE8F08770B57E480078012875D1FFF7CF
:102D200058FF7C490870FF2828D17B480078FF288D
:102D300003D17A480078002809DD01229107104666
:102D400019F032F94FF08041012019F04BF90020C1
:102D500072490870FF20704908706E4908700020A1
:102D60006B4908706E48006920F040706C4908613A
:102D70000846006940F08070086166E066480078A7
:102D800064490978884260D162480078FD283DD0C6
:102D900060480078FE2839D060480078A0BB012048
:102DA0005E4908705C4800785E49886008315E487A
:102DB000006816F023F80646642522E0002400E0AF
:102DC000641C42F228308442FADB0122C10610461C
:102DD00019F0EAF84FF08041012019F0F9F80024C9
:102DE00000E0641C42F228308442FADB0122C10672
:102DF000104619F0D9F84FF08041012019F0F2F88F
:102E00006D1E002DDADC20E000E022E0434800786F
:102E1000002809DD41480078FF2805DA3F4800789E
:102E2000401C3E49087002E000203C4908703B48C5
:102E30000078052809D101228107104619F0B4F85D
:102E40004FF08041012019F0CDF832480078324926
:102E5000087070BD10B5022000DF16F0FCFE30488F
:102E6000006920F040702E4908610120284908704F
:102E700004202E49086016F0FCFE032000DF10BD80
:102E800010B52748006920F04070254908610846C0
:102E9000006940F0807008612548006840F0040037
:102EA0002449C1F848014FF00000234908604FF061
:102EB0003802AFF25F014FF0240015F088F815F0EA
:102EC00082F810BD10B500224FF44041012019F0E6
:102ED0006BF801224FF47C71002019F065F8012293
:102EE0004FF44031104619F05FF84FF47C71002028
:102EF00019F078F84FF44031012019F073F81824D4
:102F000000BF601EC0B20400FBD1FFF7B9FF10BDC7
:102F10006C0000106E0000106F0000106D000010BB
:102F200000C00240402900104C00001040C10F407A
:102F300048C10F4000C00F404CC10F402DE9F04187
:102F400007460024B84E4FF4E0654FF4047095FB3B
:102F5000F0F0401C0FFA80F8012F0ED100BF09E0FD
:102F600004F10A0188B231461AF019F806F5047620
:102F7000601C84B24445F3DB1EE01BE0B5F5047F22
:102F800009DD04F10A0188B233464FF404720021CE
:102F900019F03CFF07E004F10A0188B23346AAB2F7
:102FA000002119F033FF601C84B2A5F5047005B24E
:102FB00006F50476002DE1DCBDE8F0812DE9F04155
:102FC000044600BF994DAC264FF4047096FBF0F018
:102FD000401C07B2012C04D12946092019F0DFFF5B
:102FE00005E02B46B2B20021092019F00FFFBDE821
:102FF000F0812DE9F041044600BF8D4D0E264FF4BF
:10300000047096FBF0F0401C07B2012C04D1294655
:10301000072019F0C4FF05E02B46B2B200210720BB
:1030200019F0F4FEBDE8F08170B50446814DA82684
:10303000012C06D18049B1F82401294619F0AFFFCF
:1030400007E07D49B1F824012B46B2B2002119F006
:10305000DDFE7948B0F82411B0F82401401C764A0E
:10306000A2F82401B1F57A6F03DD14201146A1F80E
:103070002401714D4FF4BE76012C04D1294608205D
:1030800019F08DFF05E02B46B2B20021082019F09F
:10309000BDFE70BD70B5FFF782F8644E002404E0F9
:1030A000002006F8010B601C84B2AC2CF8D3624EF1
:1030B000002404E0002006F8010B601C84B2B4F583
:1030C000BE7FF7D3584E002404E0002006F8010B21
:1030D000601C84B2B4F5E06FF7D3002444E0012112
:1030E00052487C300155102108300155601CC1B296
:1030F00052480155601CC1B25048083001550025A6
:103100002EE08320C4EBC401474A02EB4111C5EB1A
:10311000C50201EB820108720020C4EBC401424ADF
:1031200002EB4111C5EBC50201EB8201487264203C
:10313000C4EBC4013C4A02EB4111C5EBC50201EBF3
:1031400082014860681C3D49803901EBC401485543
:10315000C1B23A48403800EBC4004155681C85B202
:10316000082DCEDB601C84B2082CB8DB4FF49850DD
:103170002E4908804FF4B8504880314848603148A3
:10318000C1F8A4003048C1F8A80014202A49A1F8C9
:10319000240164212548816432202449C8636421C4
:1031A0002248016400214164816464201F49C8658C
:1031B0004FF4FA711D480166490041664900816675
:1031C00032201A49C8606421184801614FF4FA603E
:1031D000164988616420C861002081F88C000220B3
:1031E00081F89600012081F88E0081F88F0081F827
:1031F0009300022081F8940081F8950070BD38B5E5
:1032000004461248006815F071FA2006104908605B
:103210001048006815F04DFB6A464FF4C8610B4832
:10322000006815F0ECFA38BDE81D001068250010A4
:103230001426001024260010CC260010302900107F
:1032400040E201009D71FD048931FD044000001041
:10325000402900104800001010B5022000DF16F0D1
:10326000FAFC01204FF040210860FFF753FDD048E1
:1032700090F89400012801D108F0DAFFCD480088C9
:10328000002804DDCB480088401ECA490880C94890
:103290004088002804DDC7484088401EC549488052
:1032A000C4488088002804DDC2488088401EC14987
:1032B0008880C148B0F80C02002806DDBE48B0F88E
:1032C0000C02401EBC49A1F80C02BB48B0F80E022B
:1032D000002806DDB848B0F80E02401EB649A1F835
:1032E0000E02B648B0F80602002806DDB348B0F872
:1032F0000602401EB149A1F80602B048B0F8080223
:10330000002806DDAD48B0F80802401EAB49A1F820
:103310000802AA48B0F80A02002806DDA748B0F85B
:103320000A02401EA549A1F80A02A448B0F80C02FE
:10333000002806DDA148B0F80C02401E9F49A1F804
:103340000C029D48B0F80C02002806DD9A48B0F83F
:103350000C02401E9849A1F80C029748B0F80E02E2
:10336000002806DD9448B0F80E02401E9249A1F8EC
:103370000E029248B0F81402002806DD8F48B0F81B
:103380001402401E8D49A1F814028C48B0F82202A4
:10339000401C8A49A1F822020846B0F826020028FB
:1033A00005DD0846B0F82602401EA1F82602844832
:1033B0000078401C824908700846007864287EDB4B
:1033C000002008707C48B0F81002002806DD7A481A
:1033D000B0F81002401E7849A1F810027648B0F803
:1033E0001202002806DD7448B0F81202401E72492D
:1033F000A1F812027148B0F80E02002806DD6F48ED
:10340000B0F80E02401E6D49A1F80E026B48B0F8EC
:103410001002002806DD6948B0F81002401E674916
:10342000A1F810026548B0F81202002806DD6348D2
:10343000B0F81202401E6149A1F812025F48B0F8CC
:103440005E03002806DD5D48B0F85E03401E5B4960
:10345000A1F85E035948B0F8620330B15748B0F89C
:103460006203401E5549A1F86203544890F81602C1
:1034700010F0010F06D05148B0F81802401C4F4917
:10348000A1F818024D48B0F81A02401C4B49A1F8A7
:103490001A02084690F8160210F0040F05D00846EC
:1034A000B0F81C02401CA1F81C02444890F8160217
:1034B00010F0080F08D04148B0F81E0200E017E0F5
:1034C000401C3E49A1F81E023C4890F8160210F03C
:1034D000100F06D03948B0F82002401C3749A1F837
:1034E00020023648B0F86C03401C3449A1F86C0344
:1034F00016F0BFFB032000DF10BD10B5022000DF77
:1035000016F0A9FB01202F49086016F0B2FB03203A
:1035100000DF10BD20B901214FF04022516002E0D0
:103520000121284A5160704720B900214FF0402204
:10353000516002E00021234A51607047014631B9D1
:103540004FF04022506840F00200506004E01D4AF5
:10355000506840F002005060704770B505460C4658
:1035600000201749087085B94FF04020846103207E
:103570004FF0402148613822AFF22331112014F07E
:1035800026FD14F020FD012070BD012D0ED10D4847
:10359000846103200B4948613822AFF2A101122057
:1035A00014F015FD14F00FFD0020EDE70120EBE70E
:1035B000682500102800001074500010A853001057
:1035C000700000100080004070B505460C4634B90C
:1035D000042006F09EFA284606F0C1FA06E0032011
:1035E00006F097FA284606F0BAFA00BF00BF06F0C8
:1035F000AFFA70BD2DE9F05F07460D46904606F024
:10360000EFFA06F07EFA4FF0000A2FE04FF0000BC1
:10361000002601213846FFF7D7FFF019C6B2002473
:1036200008E0285D0021FFF7CFFF285D3044C6B2D7
:10363000601CC4B24445F4DB00213046FFF7C4FFF0
:10364000282016F04BF924211A4806F09EFA8146EC
:1036500006F051FA8346BBF1000F00D109E01420B7
:1036600016F03CF90AF1010000F0FF0ABAF1080F68
:10367000CCDB00BFBBF1000F01D0584601E0A9F13F
:103680000100C0B2BDE8F09F0246242900DD2421DC
:10369000002004E0074B1B5C1354431CD8B2884243
:1036A000F8DB70470146242901DD01207047002026
:1036B000FCE70000D84D001070B50446092C22DD4F
:1036C0000020F9490860F9490870F94804700020A1
:1036D000F7494870F748007A022809D108461AF0DD
:1036E00045F8C5B22A46F2499020FEF750FE2AE07E
:1036F000EF481AF03BF8C5B22A46ED49EE4800788B
:10370000FEF745FE1FE0EA49E84A1278881822468B
:10371000EAA119F09DFDE748007A022809D1E448A2
:103720001AF024F8C5B22A46E1499020FEF72FFE90
:1037300009E0DF481AF01AF8C5B22A46DC49DE482B
:103740000078FEF724FE70BD70B504460B2C26DD14
:103750000020D54908600024D4490870D8A1D44875
:1037600019F0E0FFD348007A022809D1D04819F0B7
:10377000FDFFC5B22A46CE499020FEF708FE09E0BB
:10378000CB4819F0F3FFC5B22A46C949CA480078A8
:10379000FEF7FDFDC8480078FFF727F913E10B2C71
:1037A00070D1C2480078002867DDC8480078012839
:1037B0000DD10020C5490870BB4800680A21B0FB44
:1037C000F1F000EB80004000B749086025E0C048F8
:1037D000007801280BD10020BD490870B24800686C
:1037E0006421B0FBF1F04843AF49086015E0B948E7
:1037F000007801280AD10020B6490870AA4800685C
:103800006421B0FBF1F0A849086006E0A648006812
:103810000A21B0FBF1F0A4490860A4490A780978AC
:10382000491EA24B1970A2491144481EAAA119F0C1
:103830000FFDA048007A022809D19D4819F096FF93
:10384000C5B22A469A499020FEF7A1FD09E09848A2
:1038500019F08CFFC5B22A46954997480078FEF7C3
:1038600096FD92490D7805EBD571934A127802EBDB
:103870006101C8B2FFF7B9F8A5E0002097490870C8
:10388000A1E0FFE78948007895490978884228DA5D
:103890000A2C33D18F48007878BB924800780128F1
:1038A0002CD18C490870002089490870874908701C
:1038B0007E490A780978491C7C4B19707C4950185C
:1038C00089A28AA119F0C4FC7A48007A022809D199
:1038D000774819F04BFFC5B22A4675499020FEF78C
:1038E00056FD70E0724819F041FFC5B22A46704992
:1038F00071480078FEF74BFD65E0FFE70A2C62DABD
:103900000120764908707348007801281FD170485B
:10391000007801280DD16D480078012800D170BDD4
:1039200001206A4908706048006820445E490860C8
:1039300015E00120664908705B480068642148432F
:1039400004EB840100EB41005749086007E056484A
:10395000006800EB800004EB4000534908606448B5
:10396000007860B151490A780978491C4F4B1970A9
:103970004F4950185FA25DA119F06AFC0BE04B495A
:103980000A780978491C494B197049495018224650
:103990004AA119F05DFC4748007A022809D1444841
:1039A00019F0E4FEC5B22A4641499020FEF7EFFC2B
:1039B00009E03F4819F0DAFEC5B22A463C493E48C4
:1039C0000078FEF7E4FC00BFA9E72DE9F0479AB0C4
:1039D000054600208DF83800FEF7E1FB4FF00408A3
:1039E000C8F108094448405D401E46B20024BAE0D0
:1039F0004148803800EBC600005DC8B33E488038BF
:103A000000EBC600005D401E47B2C6EBC6003B4956
:103A100001EB4010C7EBC70100EB8100007A802862
:103A20000CD12448017A364850F821300093631CA9
:103A30006A1C34A102A819F00BFC8EE0C6EBC6008C
:103A40002E4901EB4010C7EBC70100EB8100007A63
:103A500082280ED11748017A29480C3850F82130B5
:103A60000093631C6A1C27A102A819F0F1FB74E003
:103A700077E0C6EBC600214901EB4010C7EBC70158
:103A800000EB8100007A832840D10A48017A1C4863
:103A9000543050F821300093631C6A1C19A102A80D
:103AA00019F0D6FB59E00000DC000010D80000102F
:103AB000124E001068250010D70000102578000075
:103AC000202020202020202000000000B600001030
:103AD000B5000010B400001020000000E00000104D
:103AE000B0000010B30000102E000000257300008D
:103AF000B20000102A00000030290010E81D00105C
:103B0000141C00102564256425730000C6EBC60054
:103B1000FF4901EB4010C7EBC70100EB8100407A81
:103B200068B9FC48017AFC4850F821300093631CC6
:103B30006A1CAFF2300102A819F08AFB0DE0F548CB
:103B4000017AF5486C3850F821300093631C6A1CE8
:103B5000AFF2500102A819F07BFB02A90EA819F0E0
:103B600024FE601CC4B24445FFF642AF0EA819F013
:103B7000FDFD00F0FF0A52460EA98020FEF707FC6B
:103B800000208DF83800B9F1000F76DD042489E0BB
:103B9000E24800EBC600005DD8B3E04800EBC60089
:103BA000005D401E47B2C6EBC600D94901EB40108C
:103BB000C7EBC70100EB8100007A80280ED1D54801
:103BC000017AD548543850F821300093631C6A1CA0
:103BD000AFF2D00102A819F03BFB5DE0C6EBC600D6
:103BE000CB4901EB4010C7EBC70100EB8100007A25
:103BF00082280FD1C748017AC748603850F8213071
:103C00000093631C6A1CAFF2041102A819F020FB98
:103C100042E045E0C6EBC600BD4901EB4010C7EBF2
:103C2000C70100EB8100007A83280DD1B948017AE1
:103C3000B94850F821300093631C6A1CAFF23C1164
:103C400002A819F005FB27E0C6EBC600B04901EB5E
:103C50004010C7EBC70100EB8100407A70B9AD4856
:103C6000017AAD4850F821300093631C6A1CAFF212
:103C70006C1102A819F0ECFA0EE022E0A548017AD6
:103C8000A5486C3850F821300093631C6A1CAFF2D1
:103C90008C1102A819F0DCFA02A90EA819F085FD12
:103CA000601CC4B209F104008442FFF671AF0EA893
:103CB00019F05CFD00F0FF0A52460EA99020FEF7B5
:103CC00066FB944890F89200012804D0914890F83F
:103CD000920002287ED1681CC5B200208DF8380001
:103CE0004FF00408C8F108098C488030405D401E40
:103CF00046B200248AE0894800EBC600005DD8B3D4
:103D0000864800EBC600005D401E47B2C6EBC60009
:103D10007F4901EB4010C7EBC70100EB8100007A3F
:103D200080280ED17B48017A7B48543850F82130E6
:103D30000093631C6A1CAFF2342102A819F088FAC0
:103D40005EE0C6EBC600724901EB4010C7EBC7014D
:103D500000EB8100007A82280FD16E48017A6E480C
:103D6000603850F821300093631C6A1CAFF26C215C
:103D700002A819F06DFA43E046E0C6EBC6006449BC
:103D800001EB4010C7EBC70100EB8100007A8328EC
:103D90000DD16048017A604850F821300093631CCF
:103DA0006A1CAFF2A02102A819F052FA28E0C6EB73
:103DB000C600574901EB4010C7EBC70100EB81007B
:103DC000407A78B95348017A534850F8213000932B
:103DD000631C00E0A4E06A1CAFF2D82102A819F02D
:103DE00037FA0DE04B48017A4B486C3850F82130D7
:103DF0000093631C6A1CAFF2F42102A819F028FAA0
:103E000002A90EA819F0D1FC601CC4B24445FFF60B
:103E100072AF0EA819F0AAFC00F0FF0A52460EA9D4
:103E2000E020FEF7B4FA00208DF83800B9F1000F59
:103E300076DD042491E0394800EBC600005DD8B37C
:103E4000364800EBC600005D401E47B2C6EBC60018
:103E50002F4901EB4010C7EBC70100EB8100007A4E
:103E600080280ED12B48017A2B48543850F8213045
:103E70000093631C6A1CAFF2743102A819F0E8F9D0
:103E800065E0C6EBC600224901EB4010C7EBC70155
:103E900000EB8100007A82280FD11E48017A1E486B
:103EA000603850F821300093631C6A1CAFF2AC31CB
:103EB00002A819F0CDF94AE04DE0C6EBC60014495E
:103EC00001EB4010C7EBC70100EB8100007A8328AB
:103ED0000DD11048017A104850F821300093631C2E
:103EE0006A1CAFF2E03102A819F0B2F92FE0C6EB7C
:103EF000C600074901EB4010C7EBC70100EB81008A
:103F0000407AB8B90348017A034850F8213008E0F4
:103F1000E81D001068250010681C0010B028001073
:103F20002AE00093631C6A1CAFF2284102A819F032
:103F30008FF90CE0FF48017AFF4850F821300093D8
:103F4000631C6A1CAFF2444102A819F081F902A96E
:103F50000EA819F02AFC601CC4B209F104008442C6
:103F6000FFF669AF0EA819F001FC00F0FF0A5246F7
:103F70000EA9F020FEF70BFA01201AB0BDE8F08779
:103F80002DE9F0479AB0074600208DF83800FEF77B
:103F900006F94FF00408C8F10809E848C05D401E62
:103FA00044B200257BE0E548803800EBC400405D6A
:103FB00098B3E248803800EBC400405D401E46B232
:103FC0002CE0C4EBC400DE4901EB4010C6EBC60197
:103FD00000EB8100007D00280EDDD648017AD6482E
:103FE000183050F8213000936B1C7A1CAFF2EC4172
:103FF00002A819F02DF912E0082E08D0CF48803819
:1040000000EBC4023046711C4EB2105C30B9002681
:10401000601C44B2082C01D101E03EE0D1E700BFB2
:104020002BE0C4EBC400C64901EB4010C6EBC6014F
:1040300000EB8100007D00280EDDBE48017ABE48FD
:10404000183050F8213000936B1C7A1CAFF24C51A1
:1040500002A819F0FDF811E0082E08D0B748803802
:1040600000EBC4023046711C4EB2105C28B9002629
:10407000601C44B2082C00D100E0D2E700BF02A9C6
:104080000EA819F092FB0EA819F070FB00F0FF0AC1
:1040900052460EA99020FEF77AF9681CC5B2454534
:1040A00081DB0EA819F062FB00F0FF0A52460EA950
:1040B0008020FEF76CF900208DF83800B9F1000F70
:1040C0007ADD04258CE09D48803800EBC400405D1B
:1040D000E0B39A48803800EBC400405D401E46B211
:1040E000C4EBC400964901EB4010C6EBC60100EBDF
:1040F0008100007A80280ED18E48017A8E481830CF
:1041000050F8213000936B1C7A1CAFF2086102A8B2
:1041100019F09EF85EE0C4EBC400894901EB401041
:10412000C6EBC60100EB8100007A82280FD18148DE
:10413000017A81480C3050F8213000936B1C7A1CB6
:10414000AFF2406102A819F083F843E046E0C4EB07
:10415000C4007B4901EB4010C6EBC60100EB8100B7
:10416000007A83280ED17348017A73486C3050F876
:10417000213000936B1C7A1CAFF2786102A819F011
:1041800067F827E0C4EBC4006D4901EB4010C6EBB3
:10419000C60100EB8100407A78B96648017A66482A
:1041A0006C3050F8213000936B1C7A1CAFF2AC617C
:1041B00002A819F04DF80DE021E05E48017A5E4852
:1041C00050F8213000936B1C7A1CAFF2C86102A832
:1041D00019F03EF802A90EA819F0E7FA681CC5B25A
:1041E00009F104008542FFF66EAF0EA819F0BEFA81
:1041F00000F0FF0A52460EA99020FEF7C8F80120F1
:104200001AB0BDE8F087704710B5044600204D494C
:104210000860FFF7F8FF0020FEF7D4FA4548007A5F
:10422000022805D1072248A19020FEF7B0F805E04A
:10423000072245A146480078FEF7A9F80020454925
:10424000087043480078FEF7D0FB0120FEF7F9FB29
:1042500000204149087001204049087010BDF8B5A0
:10426000002501203E4908603E49086002200DF00B
:1042700076FB002033490860374908703A490870D6
:1042800008203A490870002039490870012039494E
:104290000870002038490870384908700EF057F847
:1042A0004CE36A4600213648006814F03FFD04469E
:1042B0009DF80000E8BB2E480078012872D12078D4
:1042C000082870D006DC6FD2DFE800F0681F17A066
:1042D000949C981B0D286DD008DC092876D00A28FC
:1042E00071D00B287ED00C285ED15FE00E2865D0FF
:1042F0000F2873D0FF2857D18CE02F20FFF7DCF96F
:104300008AE01820FFF7D8F986E01548006800EB2E
:1043100080001C4901EB8000C088A0F54071E7399E
:1043200038D00F48006800EB8000164901EB800090
:104330002AE003E368250010FC1B00103029001060
:10434000E81D0010DC00001020202020202020008C
:10435000D7000010B4000010E0000010D6000010DC
:10436000C8000010C4000010D8000010B0000010F9
:10437000D5000010B3000010B2000010A40000101F
:104380004C000010800D0010C088FC49086001201E
:104390000DF0E5FA0020FA4908703DE01920FFF71A
:1043A0008BF939E039E015E035E003E00120FFF753
:1043B00083F931E00220FFF77FF92DE00320FFF7BA
:1043C0007BF929E002E011E00CE007E00420FFF7B0
:1043D00073F921E00520FFF76FF91DE00620FFF7D4
:1043E0006BF919E00720FFF767F915E00820FFF7E0
:1043F00063F911E00920FFF75FF90DE00020FFF7F6
:104400005BF909E02E20FFF757F905E02120FFF7BF
:1044100053F901E000E000BF90E2D948007802289B
:104420004ED1207810283FD2DFE800F02A17083E4E
:10443000473E4809434246453F4041443FE0D1485A
:104440000078002808DDCF480078401ECD4908706C
:1044500008460078FFF7B9FA31E00020C849087033
:10446000C648006800EB8000C74901EB8000C088A7
:10447000A0F54071E73902D001200DF070FA1EE07E
:10448000C048007807280EDAC048BE490978491CA0
:10449000405C40B1BB480078401CBA4908700846EF
:1044A0000078FFF792FA0AE000BF00BF00BF00BF2C
:1044B00000BF00BF00BF00BF00BF00BF00BF3DE2A4
:1044C000B3480078F0B30120B2490870207808287A
:1044D00074D006DC73D2DFE800F0AF7817ABD0D829
:1044E000D4770D286CD008DC09286AD00A2869D056
:1044F0000B2868D00C2862D19FE00E287DD00F28B1
:104500007CD0FF285BD1C4E09C48006800EB8000B1
:104510009D4901EB8000C0689F490860084600681B
:104520008047012824D19548006800EB8000964917
:1045300001EB80008088A0F54071E7390FD08F48EB
:10454000006800E0A8E0954908608C48006800EB2E
:1045500080008D4901EB8000808888490860022036
:104560000DF0FDF900208E4908608E49087024E0A6
:104570008DA18F4819F0D6F88E48007A022809D10B
:104580008B4819F0F3F8C6B2324689490220FDF78C
:10459000FEFE09E0864819F0E9F8C6B232468449C1
:1045A00085480078FDF7F3FE322015F097F90C20CE
:1045B000FFF7CAF800207B4908706CE04DE069E025
:1045C0003FE046E055E050E065E07C48007820BBE5
:1045D0006A48006800EB80006B4901EB800040886E
:1045E000012808D16548006800EB800001EB8000DD
:1045F000C08862490860012001E026E031E0FEF752
:104600003CFA08206E4908700020614908706D4925
:10461000087001200DF0A3F909E000206749087037
:104620005F4908605F4908700C20FFF78DF832E0A1
:104630000B20FFF789F82EE02DE00120FFF784F82A
:1046400029E00220FFF780F825E00320FFF77CF83F
:1046500021E00420FFF778F81DE00520FFF774F84B
:1046600019E00620FFF770F815E00720FFF76CF857
:1046700011E00820FFF768F80DE00920FFF764F863
:1046800009E00020FFF760F805E00A20FFF75CF87A
:1046900001E000E000BF4EE12078092869D007DC86
:1046A00068D2DFE800F0FE931667FD67FC46FB006A
:1046B0000D2860D006DC0A285ED00B285DD00C28BF
:1046C00058D12BE10E287FD00F287ED0FF2851D162
:1046D0002EE12A48006800EB80002B4901EB8000A6
:1046E000C0682D49086008460068804701281CD131
:1046F0002248006800EB8000234901EB800080889D
:10470000A0F54071E73910D01C48006823490860C3
:104710001A48006800EB80001B4901EB800080888C
:104720001649086002200DF01AF900201C490860A3
:1047300000E11248006800EB8000134901EB8000A3
:104740004089A0F54071E73912D00C480068A0F507
:104750004071E7390CD00948006800EB80000A4935
:1047600001EB800040890549086007200DF0F7F84B
:10477000E0E0D6E0DDE0D2E0D7E0D5E0C800001010
:10478000D5000010A3000010800D0010302900108B
:10479000D6000010B7000010B8000010C4000010D0
:1047A000DC000010D8000010452020200000000090
:1047B000124E001068250010D7000010E000001015
:1047C000B0000010B2000010AAE0ACE0FF480068A2
:1047D00000EB8000FE4901EB8000C088A0F540712D
:1047E000E7390DD0F948006800EB8000F84901EB8B
:1047F0008000C088F549086001200DF0B0F86CE039
:104800000120FEF79BFB0120FEF7D8FB0120FEF7FD
:104810000BFCFDF7C4FCEF4890F89200012804D08F
:10482000EC4890F89200022823D10022AFF28401D4
:104830008020FDF7ACFD0022AFF290019020FDF743
:10484000A6FD0022AFF29C01E020FDF7A0FDE149AA
:104850000A7AE14951F8220018F088FFC6B2DD4813
:10486000027ADD4850F822103246F020FDF78FFD25
:1048700027E0D8490A7AD84951F8220018F076FF83
:10488000C6B2D448027AD44850F82210324680206A
:10489000FDF77DFD0022AFF2EC0103E042E046E0CF
:1048A00044E01BE09020FDF772FD0022AFF20411FE
:1048B000E020FDF76CFD0022AFF21011F020FDF7B3
:1048C00066FDC82015F00AF80120C0490860C349F8
:1048D000086001250020C24908702BE0BB48006831
:1048E00000EB8000BA4901EB80000089A0F540711F
:1048F000E73912D0B5480068A0F54071E7390CD00F
:10490000B248006800EB8000B14901EB80000089EB
:10491000AE49086000200DF022F80BE000BF00BF98
:1049200000BF00BF00BF00BF00BF00BF00BF00BF8F
:1049300000E000BF00BF012D00D100E0B1E400BFE6
:10494000F8BD2DE9F84304466420B4FBF0F100FB08
:104950001140C5B29F4890F8960020B92246A1A107
:10496000A14818F075FC9B4890F8960001280CD1DE
:104970000A20B4FBF0F100FB1146B4FBF0F733461C
:104980003A469AA1984818F063FC924890F896002D
:10499000022810D10A2095FBF0F100FB115695FB7F
:1049A000F0F76420B4FBF0F83B46424691A18E48F4
:1049B000009618F04DFC8C48BDE8F88310B58F4880
:1049C000006808B9002010BD8248D0F8A4008B49C7
:1049D0000968884209D1002089490870894908700E
:1049E0000120FEF74AF80120EDE70120FEF745F827
:1049F0007849097A844A52F8210018F0B7FEC4B207
:104A00007448007A804A52F8201022469020FDF720
:104A1000BEFCC82014F062FF02200CF0A0FF0020B2
:104A2000D1E710B57548006808B9002010BD694885
:104A3000D0F8A80071490968884209D1002070495E
:104A40000870704908700120FEF717F80120EDE7A3
:104A50000120FEF712F85F49097A6B4A52F82100EB
:104A600018F084FEC4B25B48007A674A52F82010FE
:104A700022469020FDF78BFCC82014F02FFF022067
:104A80000CF06DFF0020D1E710B55C48006808B954
:104A9000002010BD4F48406858490968884209D134
:104AA000002057490870574908700120FDF7E5FFBD
:104AB0000120EEE70120FDF7E0FF4649097A524A5E
:104AC00052F8210018F052FEC4B24248007A4E4A11
:104AD00052F8201022469020FDF759FCC82014F00F
:104AE000FDFE02200CF03BFF0020D2E701203949F7
:104AF000087270470020374908720120704710B5CE
:104B0000022034490872FDF74AFB012010BD012044
:104B100070472DE9FC4100273848006810B9002093
:104B2000BDE8FC813548006838490870384A394981
:104B300032480068C0B205F070FA18B90020364952
:104B40000870EDE700241DE0002617E004EB840068
:104B500006EB40000B30C5B26A4601A9284605F0B5
:104B60005CFA012808D129480078854202D0781CD7
:104B7000C7B201E029480770701CC6B2082EE5DBF9
:104B8000601CC4B2082CDFDB0120FDF776FF00209B
:104B90001B4908700120224908700820214908702B
:104BA0000120BDE72DE9F8430446194A194920467A
:104BB00005F033FA01287ED1FDF75FFFA4F1FE4630
:104BC000194806601948006832E00000C80000106B
:104BD000800D001068250010D81B0010C4000010C4
:104BE000B700001025640000FC4D001025642E2540
:104BF0006400000025642E2564256400DC0000109C
:104C0000D6000010B200001078000010A2000010C2
:104C1000A5000010A3000010E0000010A600001086
:104C2000B3000010B0000010402900104000001038
:104C300013F05CFDFE49FF48006813F03AFEFE48A1
:104C4000027AFE4850F822102246FD4818F000FB78
:104C5000FB4818F08BFD00F0FF084246F849802021
:104C6000FDF795FB6A464FF47A61F648006813F049
:104C7000C6FD07463868C5B225F08005FDF78FFAF6
:104C80009DF80000D8BB15F05C0F39D0EA48027AD5
:104C9000EA486C3050F822102246E94818F0D8FA59
:104CA000E74818F063FD00F0FF084246E449802021
:104CB000FDF76DFB00E088E0E348007801281DD196
:104CC000E2480078C0EBC000E14901EB4010E14947
:104CD0000978C1EBC10100EB8100007D401CC1B22D
:104CE000DA480078C0EBC000D94A02EB4010D94A3C
:104CF0001278C2EBC20200EB8200017562E02CE088
:104D000015F0220F14D0CC48027ACC48843050F8E9
:104D100022102246CA4818F09BFAC94818F026FD0E
:104D200000F0FF084246C6498020FDF730FB49E00D
:104D3000C148027AC148783050F822102246C04853
:104D400018F086FABE4818F011FD00F0FF08424640
:104D5000BB498020FDF71BFB34E0B7490A7AB7490D
:104D6000183151F8220018F001FD00F0FF08B24898
:104D7000027AB248183050F8221042468020FDF7DF
:104D800006FBB148007801281CD1B0480078C0EB80
:104D9000C000AF4901EB4010AE490978C1EBC10139
:104DA00000EB8100007D401CA8490978C1EBC101DE
:104DB000A74A02EB4111A74A1278C2EBC20201EBEB
:104DC000820108750120FDF758FE1422A2A190204F
:104DD000FDF7DDFABDE8F8832DE9F843A448006843
:104DE000632866D10020A3498872002412E00025C0
:104DF0000CE00020C4EBC401954A02EB4111C5EB65
:104E0000C50201EB82010875681CC5B2082DF0DBF4
:104E1000601CC4B2082CEADB01208B49087047E013
:104E20009448807A401C9349887200243EE0002513
:104E300038E004EB840005EB40000B3000F0FF0885
:104E40004046FFF7AFFE834A8049404605F0E5F84B
:104E5000012802D14FF4C87901E04FF001096A46F8
:104E600049468548006813F061FF064637889DF87B
:104E70000000A8B9022F01D0012F11D10120FDF7A8
:104E8000FCFD00207D4908706F4908706A4890F861
:104E90009100012801D110F05AF90120BDE8F883F2
:104EA000681CC5B2082DC4DB601CC4B2082CBEDB74
:104EB000B6E76F48006872490870664A63497048EF
:104EC000007805F0AAF818B900206E490870E5E7E7
:104ED0006B480078FFF766FE4FF4C87014F0FEFCD4
:104EE0000120FDF7CAFD002064490870624800688F
:104EF00013F03CFE504890F89100012801D110F0C9
:104F000026F90120CAE710B502205F490870002089
:104F10004E49087008460078FFF732F8012010BDAE
:104F20000146454A92F8962012B96422B1FBF2F08C
:104F3000414A92F89620012A02D10A22B1FBF2F0EE
:104F40003D4A92F89620022A00D10846704710B5D3
:104F500000244A480078A0B30120FDF78EFD082008
:104F60004A49087000204549087038480078C0EB6D
:104F7000C000374901EB401036490978C1EBC10147
:104F800000EB810044682C4890F89100012807D17B
:104F90002246374801683E48007811F09FFB17E031
:104FA0003348006829490978C1EBC101284A02EB5E
:104FB0004111284A1278C2EBC20201EB820148601B
:104FC00006E0FFE70520314908700720FFF71CF9CC
:104FD000012010BD70B5002400252848007830B3AA
:104FE0002348006803287ED818480078C0EBC0002A
:104FF000174901EB401017490978C1EBC10100EBDB
:105000008100007A00F0800010490978C1EBC101ED
:105010000F4A02EB41110F4A1278C2EBC20201EBB8
:105020008201087209480078C0EBC00032E02BE131
:10503000402900104800001068250010B41B001023
:10504000FC4D00104000001074000010A300001080
:10505000E81D0010A5000010202020202020202086
:1050600020202020202020202020202000000000C0
:10507000DC000010142600104C000010D6000010B8
:10508000A2000010E0000010D5000010B0000010D9
:10509000A6000010FC4901EB4010FC490978C1EB67
:1050A000C10100EB8100007AF949096801F00301B0
:1050B0000843F8490978C1EBC101F34A02EB4111F9
:1050C000F24A1278C2EBC20201EB82010872F14887
:1050D0000078C0EBC000EC4901EB4010EB490978C7
:1050E000C1EBC10100E0CBE000EB8100007A10F0E1
:1050F000030F23D0E7480078C0EBC000E24901EB82
:105100004010E2490978C1EBC10100EB8100007A4F
:1051100000F00300022811D0DE480078C0EBC00088
:10512000D94901EB4010D9490978C1EBC10100EB25
:105130008100007A00F0030003281DD10124D54826
:105140000078C0EBC000D04901EB4010CF4909788E
:10515000C1EBC10100EB8100457A0020CD490978FF
:10516000C1EBC101C84A02EB4111C84A1278C2EB37
:10517000C20201EB82014872C6480078C0EBC00051
:10518000C14901EB4010C1490978C1EBC10100EBF5
:105190008100007A00F0030001284AD1BD48007860
:1051A000C0EBC000B84901EB4010B8490978C1EB29
:1051B000C10100EB8100407AD8BBB6480078C0EB53
:1051C000C000B14901EB4010B0490978C1EBC10101
:1051D00000EB8100007A00F08000AE490978C1EB55
:1051E000C101A94A02EB4111A84A1278C2EBC202DE
:1051F00001EB82010872A7480078C0EBC000A24909
:1052000001EB4010A1490978C1EBC10100EB81001D
:10521000007A40F003009F490978C1EBC1019A4A26
:1052200002EB4111994A1278C2EBC20201EB8201F2
:105230000872994890F89100012817D1012C13D1D8
:1052400094480078C0EBC0008F4A02EB40108F4AB0
:105250001278C2EBC20200EB8200417A01232A4697
:105260008E48007811F082F80FF071FF0120FDF7F1
:1052700004FC08208A49087000208A49087009E067
:1052800000208949087070BD0120854908700720F9
:10529000FEF7BAFF0120F6E770B5002481480078D8
:1052A000F0B37B480068102866D80120FDF7E5FBC5
:1052B00008207B49087000207A49087075480078FA
:1052C000C0EBC000704901EB401070490978C1EB98
:1052D000C10100EB8100447A6F4890F891000128E9
:1052E0007ED10123E2B26A480068C1B26B480078FF
:1052F00011F03CF8F0B367480078C0EBC000624999
:1053000001EB401061490978C1EBC10100EB81005C
:10531000407A80BB5F480078C0EBC0005A4900E08B
:1053200043E201EB401059490978C1EBC10100EBA0
:105330008100007A00F00300012840D15548007830
:10534000C0EBC000504901EB401050490978C1EB57
:10535000C10100EB8100007A00F080004D4909781E
:10536000C1EBC101484A02EB4111484A1278C2EB35
:10537000C20202E003E222E013E201EB82010872C2
:1053800044480078C0EBC0003F4901EB40103F4962
:105390000978C1EBC10100EB8100007A40F0030005
:1053A0003C490978C1EBC101374A02EB4111374A48
:1053B0001278C2EBC20201EB8201087260E035484C
:1053C0000078C0EBC000304901EB40102F4909784C
:1053D000C1EBC10100EB8100407AE8B32D4800E049
:1053E00064E00078C0EBC000274901EB401027497A
:1053F0000978C1EBC10100EB8100007A00F00300E5
:1054000003283DD123480078C0EBC0001E4901EBC2
:1054100040101E490978C1EBC10100EB8100007A00
:1054200000F080001B490978C1EBC101164A02EB6C
:105430004111164A1278C2EBC20201EB82010872D6
:1054400014480078C0EBC0000F4901EB40100F4931
:105450000978C1EBC10100E012E000EB8100007AA5
:1054600040F001000B490978C1EBC101064A02EB8B
:105470004111064A1278C2EBC20201EB82010872A6
:105480000FF065FE97E10000E81D0010A500001078
:10549000DC000010A300001068250010A60000101A
:1054A000B0000010D6000010E0000010FF480078A7
:1054B000C0EBC000FE4901EB4010FE490978C1EB8A
:1054C000C10100EB8100007A10F0030F29D1FA49E5
:1054D000097AFA4A02EB0111086818F047F9C5B2D7
:1054E000F548007AF54A02EB00102A460168802050
:1054F000FDF74AF8F049097AF04A02EB01114868D1
:1055000018F034F9C5B2EC48007AEC4A02EB00100E
:105510002A4641689020FDF737F8C82014F0DEF9DC
:1055200049E1E2480078C0EBC000E14901EB4010DE
:10553000E0490978C1EBC10100EB8100007A00F07D
:105540000300022829D1DC49097ADC4A02EB011167
:10555000086818F00BF9C5B2D748007AD74A02EBB1
:1055600000102A4601688020FDF70EF8D249097A1A
:10557000D24A02EB0111886818F0F8F8C5B2CE489B
:10558000007ACE4A02EB00102A4681689020FCF790
:10559000FBFFC82014F0A2F90DE1C7488430C349CD
:1055A0000978405CC6490968884229D2C249097A0B
:1055B000C24A02EB0111086818F0D8F8C5B2BE481B
:1055C000007ABE4A02EB00102A4601688020FCF7F0
:1055D000DBFFB949097AB94A02EB0111C86818F032
:1055E000C5F8C5B2B448007AB44A02EB00102A46A6
:1055F000C1689020FCF7C8FFC82014F06FF9DAE00A
:10560000AF480068C1B2A9480078C0EBC000A84A02
:1056100002EB4010A74A1278C2EBC20200EB8200F4
:105620004172A2480078C0EBC000A14901EB4010D4
:10563000A0490978C1EBC10100EB8100407AF0BBC1
:105640009A480078C0EBC000994901EB4010994995
:105650000978C1EBC10100EB8100007A00F0030082
:1056600001283ED191480078C0EBC000904901EB81
:10567000401090490978C1EBC10100EB8100007A2C
:1056800000F0800089490978C1EBC101884A02EB2A
:105690004111884A1278C2EBC20201EB8201087202
:1056A00082480078C0EBC000814901EB401081497D
:1056B0000978C1EBC10100EB8100007A00E010E045
:1056C00040F0030079490978C1EBC101784A02EB47
:1056D0004111784A1278C2EBC20201EB82010872D2
:1056E00069E072480078C0EBC000714901EB4010DE
:1056F00070490978C1EBC10100EB8100407AF0B339
:105700006A480078C0EBC000694901EB4010694964
:105710000978C1EBC10100EB8100007A00F00300C1
:10572000032848D161480078C0EBC000604901EB14
:10573000401060490978C1EBC10100EB8100007A9B
:1057400000F0800059490978C1EBC101584A02EBC9
:105750004111584A1278C2EBC20201EB8201087271
:1057600052480078C0EBC000514901EB401051494C
:105770000978C1EBC10100EB8100007A00E01AE07A
:1057800040F0010049490978C1EBC101484A02EBE8
:105790004111484A1278C2EBC20201EB8201087241
:1057A00009E000204749087070BD02204649087092
:1057B0000720FEF729FD0120F6E70120704710B50C
:1057C0003F48006818B13E480068092803D9002006
:1057D0003C49087010BD3A480068092803D10120EF
:1057E0003A4908700AE000203849087034480068D7
:1057F000401E3749085C401E2C4908700120FDF707
:105800003CF9082030490870002032490870012016
:10581000E0E770B5FCF7C3FC2C48007801287ED186
:10582000254890F89100012804D111F06CF80FF090
:105830008EFC46E1002584E000247DE0C5EBC50038
:105840001B4901EB4010C4EBC40100EB8100007A5E
:1058500000F0030001280DD0C5EBC500144901EB91
:105860004010C4EBC40100EB8100007A00F003009B
:1058700003285FD110488430405DC5EBC5010C4A58
:1058800002EB4111C4EBC40201EB82014872C5EB8B
:10589000C500074901EB4010C4EBC40100EB8100D7
:1058A000007A00F00300032844D115E0A3000010A3
:1058B000E81D0010A50000106825001080000010F1
:1058C000DC000010E0000010B0000010A400001088
:1058D00030290010D6000010C5EBC500FF4901EBD0
:1058E0004010C4EBC40100EB8100007A00F080009E
:1058F000C5EBC501F94A02EB4111C4EBC40201EB4F
:1059000082010872C5EBC500F44901EB4010C4EBFD
:10591000C40100EB8100007A40F0010000E023E0C8
:10592000C5EBC501ED4A02EB4111C4EBC40201EB2A
:1059300082010872601CC4B2082CFFF67FAF681C9D
:10594000C5B2082DFFF678AFE548007A022805D1E8
:105950000022E4A1012008F0DBF8B2E00022EBA174
:10596000012008F0D5F8ACE0DD4890F8910001285E
:1059700004D111F05CF80FF0EAFBA2E0D8487C30CB
:10598000E5490978405C01287ED1002476E0E248B0
:105990000078C0EBC000D14901EB4010C4EBC4015A
:1059A00000EB8100007A00F0030001280FD0DA48F4
:1059B0000078C0EBC000C94901EB4010C4EBC40142
:1059C00000EB8100007A00F00300032854D1C448A2
:1059D0008430D1490978405CCF490978C1EBC101D5
:1059E000BE4A02EB4111C4EBC40201EB82014872D2
:1059F000C9480078C0EBC000B84901EB4010C4EBC7
:105A0000C40100EB8100007A00F00300032833D1C9
:105A1000C1480078C0EBC000B04901EB4010C4EBB6
:105A2000C40100EB8100007A00F08000BA490978D7
:105A3000C1EBC101A94A02EB4111C4EBC40201EB65
:105A400082010872B4480078C0EBC000A34901EBA2
:105A50004010C4EBC40100EB8100007A40F001006B
:105A6000AD490978C1EBC1019C4A02EB4111C4EB7D
:105A7000C40201EB82010872601CC4B2082C86DBF0
:105A80009748007A022800E00CE005D1002295A199
:105A9000012008F03DF814E000229CA1012008F04C
:105AA00037F80EE08E48007A022805D100229BA12B
:105AB000012008F02DF804E000229FA1012008F049
:105AC00027F800209F490870C82013F007FF012025
:105AD00070BD10B511F0EDF910BD10B5012011F039
